{
  "abi": [
    {
      "inputs": [
        {
          "internalType": "uint256",
          "name": "_pricePerTokenWei",
          "type": "uint256"
        },
        {
          "internalType": "uint256",
          "name": "_maxSupplyWholeTokens",
          "type": "uint256"
        },
        {
          "internalType": "address",
          "name": "_initialOwner",
          "type": "address"
        },
        {
          "internalType": "uint256",
          "name": "_walletMintCapWhole",
          "type": "uint256"
        }
      ],
      "stateMutability": "nonpayable",
      "type": "constructor"
    },
    {
      "anonymous": false,
      "inputs": [
        {
          "indexed": true,
          "internalType": "address",
          "name": "owner",
          "type": "address"
        },
        {
          "indexed": true,
          "internalType": "address",
          "name": "spender",
          "type": "address"
        },
        {
          "indexed": false,
          "internalType": "uint256",
          "name": "value",
          "type": "uint256"
        }
      ],
      "name": "Approval",
      "type": "event"
    },
    {
      "anonymous": false,
      "inputs": [
        {
          "indexed": false,
          "internalType": "bool",
          "name": "open",
          "type": "bool"
        }
      ],
      "name": "MintOpenChanged",
      "type": "event"
    },
    {
      "anonymous": false,
      "inputs": [
        {
          "indexed": true,
          "internalType": "address",
          "name": "minter",
          "type": "address"
        },
        {
          "indexed": false,
          "internalType": "uint256",
          "name": "amount",
          "type": "uint256"
        },
        {
          "indexed": false,
          "internalType": "uint256",
          "name": "paid",
          "type": "uint256"
        }
      ],
      "name": "Minted",
      "type": "event"
    },
    {
      "anonymous": false,
      "inputs": [
        {
          "indexed": true,
          "internalType": "address",
          "name": "previousOwner",
          "type": "address"
        },
        {
          "indexed": true,
          "internalType": "address",
          "name": "newOwner",
          "type": "address"
        }
      ],
      "name": "OwnershipTransferred",
      "type": "event"
    },
    {
      "anonymous": false,
      "inputs": [
        {
          "indexed": false,
          "internalType": "uint256",
          "name": "oldPrice",
          "type": "uint256"
        },
        {
          "indexed": false,
          "internalType": "uint256",
          "name": "newPrice",
          "type": "uint256"
        }
      ],
      "name": "PriceChanged",
      "type": "event"
    },
    {
      "anonymous": false,
      "inputs": [
        {
          "indexed": true,
          "internalType": "address",
          "name": "from",
          "type": "address"
        },
        {
          "indexed": true,
          "internalType": "address",
          "name": "to",
          "type": "address"
        },
        {
          "indexed": false,
          "internalType": "uint256",
          "name": "value",
          "type": "uint256"
        }
      ],
      "name": "Transfer",
      "type": "event"
    },
    {
      "anonymous": false,
      "inputs": [
        {
          "indexed": false,
          "internalType": "bool",
          "name": "enabled",
          "type": "bool"
        }
      ],
      "name": "TransfersEnabledChanged",
      "type": "event"
    },
    {
      "anonymous": false,
      "inputs": [
        {
          "indexed": false,
          "internalType": "uint256",
          "name": "oldCap",
          "type": "uint256"
        },
        {
          "indexed": false,
          "internalType": "uint256",
          "name": "newCap",
          "type": "uint256"
        }
      ],
      "name": "WalletMintCapChanged",
      "type": "event"
    },
    {
      "stateMutability": "payable",
      "type": "fallback"
    },
    {
      "inputs": [
        {
          "internalType": "address",
          "name": "owner",
          "type": "address"
        },
        {
          "internalType": "address",
          "name": "spender",
          "type": "address"
        }
      ],
      "name": "allowance",
      "outputs": [
        {
          "internalType": "uint256",
          "name": "",
          "type": "uint256"
        }
      ],
      "stateMutability": "view",
      "type": "function"
    },
    {
      "inputs": [
        {
          "internalType": "address",
          "name": "spender",
          "type": "address"
        },
        {
          "internalType": "uint256",
          "name": "amount",
          "type": "uint256"
        }
      ],
      "name": "approve",
      "outputs": [
        {
          "internalType": "bool",
          "name": "",
          "type": "bool"
        }
      ],
      "stateMutability": "nonpayable",
      "type": "function"
    },
    {
      "inputs": [
        {
          "internalType": "address",
          "name": "account",
          "type": "address"
        }
      ],
      "name": "balanceOf",
      "outputs": [
        {
          "internalType": "uint256",
          "name": "",
          "type": "uint256"
        }
      ],
      "stateMutability": "view",
      "type": "function"
    },
    {
      "inputs": [],
      "name": "decimals",
      "outputs": [
        {
          "internalType": "uint8",
          "name": "",
          "type": "uint8"
        }
      ],
      "stateMutability": "view",
      "type": "function"
    },
    {
      "inputs": [
        {
          "internalType": "address",
          "name": "spender",
          "type": "address"
        },
        {
          "internalType": "uint256",
          "name": "subtractedValue",
          "type": "uint256"
        }
      ],
      "name": "decreaseAllowance",
      "outputs": [
        {
          "internalType": "bool",
          "name": "",
          "type": "bool"
        }
      ],
      "stateMutability": "nonpayable",
      "type": "function"
    },
    {
      "inputs": [
        {
          "internalType": "address",
          "name": "spender",
          "type": "address"
        },
        {
          "internalType": "uint256",
          "name": "addedValue",
          "type": "uint256"
        }
      ],
      "name": "increaseAllowance",
      "outputs": [
        {
          "internalType": "bool",
          "name": "",
          "type": "bool"
        }
      ],
      "stateMutability": "nonpayable",
      "type": "function"
    },
    {
      "inputs": [],
      "name": "maxSupply",
      "outputs": [
        {
          "internalType": "uint256",
          "name": "",
          "type": "uint256"
        }
      ],
      "stateMutability": "view",
      "type": "function"
    },
    {
      "inputs": [
        {
          "internalType": "uint256",
          "name": "amount",
          "type": "uint256"
        }
      ],
      "name": "mint",
      "outputs": [],
      "stateMutability": "payable",
      "type": "function"
    },
    {
      "inputs": [],
      "name": "mintOpen",
      "outputs": [
        {
          "internalType": "bool",
          "name": "",
          "type": "bool"
        }
      ],
      "stateMutability": "view",
      "type": "function"
    },
    {
      "inputs": [
        {
          "internalType": "address",
          "name": "",
          "type": "address"
        }
      ],
      "name": "mintedWhole",
      "outputs": [
        {
          "internalType": "uint256",
          "name": "",
          "type": "uint256"
        }
      ],
      "stateMutability": "view",
      "type": "function"
    },
    {
      "inputs": [],
      "name": "name",
      "outputs": [
        {
          "internalType": "string",
          "name": "",
          "type": "string"
        }
      ],
      "stateMutability": "view",
      "type": "function"
    },
    {
      "inputs": [],
      "name": "owner",
      "outputs": [
        {
          "internalType": "address",
          "name": "",
          "type": "address"
        }
      ],
      "stateMutability": "view",
      "type": "function"
    },
    {
      "inputs": [],
      "name": "pricePerTokenWei",
      "outputs": [
        {
          "internalType": "uint256",
          "name": "",
          "type": "uint256"
        }
      ],
      "stateMutability": "view",
      "type": "function"
    },
    {
      "inputs": [],
      "name": "renounceOwnership",
      "outputs": [],
      "stateMutability": "nonpayable",
      "type": "function"
    },
    {
      "inputs": [
        {
          "internalType": "bool",
          "name": "open",
          "type": "bool"
        }
      ],
      "name": "setMintOpen",
      "outputs": [],
      "stateMutability": "nonpayable",
      "type": "function"
    },
    {
      "inputs": [
        {
          "internalType": "uint256",
          "name": "newPriceWei",
          "type": "uint256"
        }
      ],
      "name": "setPrice",
      "outputs": [],
      "stateMutability": "nonpayable",
      "type": "function"
    },
    {
      "inputs": [
        {
          "internalType": "bool",
          "name": "enabled",
          "type": "bool"
        }
      ],
      "name": "setTransfersEnabled",
      "outputs": [],
      "stateMutability": "nonpayable",
      "type": "function"
    },
    {
      "inputs": [
        {
          "internalType": "uint256",
          "name": "newCapWhole",
          "type": "uint256"
        }
      ],
      "name": "setWalletMintCap",
      "outputs": [],
      "stateMutability": "nonpayable",
      "type": "function"
    },
    {
      "inputs": [],
      "name": "symbol",
      "outputs": [
        {
          "internalType": "string",
          "name": "",
          "type": "string"
        }
      ],
      "stateMutability": "view",
      "type": "function"
    },
    {
      "inputs": [],
      "name": "tokensLeft",
      "outputs": [
        {
          "internalType": "uint256",
          "name": "",
          "type": "uint256"
        }
      ],
      "stateMutability": "view",
      "type": "function"
    },
    {
      "inputs": [],
      "name": "totalSupply",
      "outputs": [
        {
          "internalType": "uint256",
          "name": "",
          "type": "uint256"
        }
      ],
      "stateMutability": "view",
      "type": "function"
    },
    {
      "inputs": [
        {
          "internalType": "address",
          "name": "to",
          "type": "address"
        },
        {
          "internalType": "uint256",
          "name": "amount",
          "type": "uint256"
        }
      ],
      "name": "transfer",
      "outputs": [
        {
          "internalType": "bool",
          "name": "",
          "type": "bool"
        }
      ],
      "stateMutability": "nonpayable",
      "type": "function"
    },
    {
      "inputs": [
        {
          "internalType": "address",
          "name": "from",
          "type": "address"
        },
        {
          "internalType": "address",
          "name": "to",
          "type": "address"
        },
        {
          "internalType": "uint256",
          "name": "amount",
          "type": "uint256"
        }
      ],
      "name": "transferFrom",
      "outputs": [
        {
          "internalType": "bool",
          "name": "",
          "type": "bool"
        }
      ],
      "stateMutability": "nonpayable",
      "type": "function"
    },
    {
      "inputs": [
        {
          "internalType": "address",
          "name": "newOwner",
          "type": "address"
        }
      ],
      "name": "transferOwnership",
      "outputs": [],
      "stateMutability": "nonpayable",
      "type": "function"
    },
    {
      "inputs": [],
      "name": "transfersEnabled",
      "outputs": [
        {
          "internalType": "bool",
          "name": "",
          "type": "bool"
        }
      ],
      "stateMutability": "view",
      "type": "function"
    },
    {
      "inputs": [],
      "name": "walletMintCap",
      "outputs": [
        {
          "internalType": "uint256",
          "name": "",
          "type": "uint256"
        }
      ],
      "stateMutability": "view",
      "type": "function"
    },
    {
      "inputs": [
        {
          "internalType": "address payable",
          "name": "to",
          "type": "address"
        }
      ],
      "name": "withdraw",
      "outputs": [],
      "stateMutability": "nonpayable",
      "type": "function"
    },
    {
      "stateMutability": "payable",
      "type": "receive"
    }
  ],
  "devdoc": {
    "events": {
      "Approval(address,address,uint256)": {
        "details": "Emitted when the allowance of a `spender` for an `owner` is set by a call to {approve}. `value` is the new allowance."
      },
      "Transfer(address,address,uint256)": {
        "details": "Emitted when `value` tokens are moved from one account (`from`) to another (`to`). Note that `value` may be zero."
      }
    },
    "kind": "dev",
    "methods": {
      "allowance(address,address)": {
        "details": "See {IERC20-allowance}."
      },
      "approve(address,uint256)": {
        "details": "See {IERC20-approve}. NOTE: If `amount` is the maximum `uint256`, the allowance is not updated on `transferFrom`. This is semantically equivalent to an infinite approval. Requirements: - `spender` cannot be the zero address."
      },
      "balanceOf(address)": {
        "details": "See {IERC20-balanceOf}."
      },
      "decimals()": {
        "details": "Returns the number of decimals used to get its user representation. For example, if `decimals` equals `2`, a balance of `505` tokens should be displayed to a user as `5.05` (`505 / 10 ** 2`). Tokens usually opt for a value of 18, imitating the relationship between Ether and Wei. This is the default value returned by this function, unless it's overridden. NOTE: This information is only used for _display_ purposes: it in no way affects any of the arithmetic of the contract, including {IERC20-balanceOf} and {IERC20-transfer}."
      },
      "decreaseAllowance(address,uint256)": {
        "details": "Atomically decreases the allowance granted to `spender` by the caller. This is an alternative to {approve} that can be used as a mitigation for problems described in {IERC20-approve}. Emits an {Approval} event indicating the updated allowance. Requirements: - `spender` cannot be the zero address. - `spender` must have allowance for the caller of at least `subtractedValue`."
      },
      "increaseAllowance(address,uint256)": {
        "details": "Atomically increases the allowance granted to `spender` by the caller. This is an alternative to {approve} that can be used as a mitigation for problems described in {IERC20-approve}. Emits an {Approval} event indicating the updated allowance. Requirements: - `spender` cannot be the zero address."
      },
      "name()": {
        "details": "Returns the name of the token."
      },
      "owner()": {
        "details": "Returns the address of the current owner."
      },
      "renounceOwnership()": {
        "details": "Leaves the contract without owner. It will not be possible to call `onlyOwner` functions. Can only be called by the current owner. NOTE: Renouncing ownership will leave the contract without an owner, thereby disabling any functionality that is only available to the owner."
      },
      "symbol()": {
        "details": "Returns the symbol of the token, usually a shorter version of the name."
      },
      "totalSupply()": {
        "details": "See {IERC20-totalSupply}."
      },
      "transfer(address,uint256)": {
        "details": "See {IERC20-transfer}. Requirements: - `to` cannot be the zero address. - the caller must have a balance of at least `amount`."
      },
      "transferFrom(address,address,uint256)": {
        "details": "See {IERC20-transferFrom}. Emits an {Approval} event indicating the updated allowance. This is not required by the EIP. See the note at the beginning of {ERC20}. NOTE: Does not update the allowance if the current allowance is the maximum `uint256`. Requirements: - `from` and `to` cannot be the zero address. - `from` must have a balance of at least `amount`. - the caller must have allowance for ``from``'s tokens of at least `amount`."
      },
      "transferOwnership(address)": {
        "details": "Transfers ownership of the contract to a new account (`newOwner`). Can only be called by the current owner."
      }
    },
    "version": 1
  },
  "evm": {
    "assembly": "    /* \"hole.sol\":722:5012  contract HOLE is ERC20, Ownable, ReentrancyGuard {... */\n  mstore(0x40, 0xa0)\n    /* \"hole.sol\":1034:1061  bool public mintOpen = true */\n  0x08\n  dup1\n  sload\n  not(0xffff)\n    /* \"hole.sol\":1135:1171  bool public transfersEnabled = false */\n  and\n    /* \"hole.sol\":1057:1061  true */\n  0x01\n    /* \"hole.sol\":1135:1171  bool public transfersEnabled = false */\n  or\n  swap1\n  sstore\n    /* \"hole.sol\":1674:2308  constructor(... */\n  callvalue\n  dup1\n  iszero\n  tag_1\n  jumpi\n  0x00\n  dup1\n  revert\ntag_1:\n  pop\n  mload(0x40)\n  sub(codesize, bytecodeSize)\n  dup1\n  bytecodeSize\n  dup4\n  codecopy\n  dup2\n  add\n  0x40\n  dup2\n  swap1\n  mstore\n  tag_2\n  swap2\n  tag_3\n  jump\t// in\ntag_2:\n    /* \"@openzeppelin/contracts/token/ERC20/ERC20.sol\":1980:2093   */\n  0x40\n  dup1\n  mload\n  dup1\n  dup3\n  add\n  dup3\n  mstore\n  0x04\n  dup1\n  dup3\n  mstore\n  shl(0xe0, 0x484f4c45)\n  0x20\n  dup1\n  dup5\n  add\n  dup3\n  swap1\n  mstore\n  dup5\n  mload\n  dup1\n  dup7\n  add\n  swap1\n  swap6\n  mstore\n  swap2\n  dup5\n  mstore\n  swap1\n  dup4\n  add\n  mstore\n  swap1\n    /* \"@openzeppelin/contracts/token/ERC20/ERC20.sol\":2046:2051   */\n  0x03\n    /* \"@openzeppelin/contracts/token/ERC20/ERC20.sol\":2046:2059   */\n  tag_9\n    /* \"@openzeppelin/contracts/token/ERC20/ERC20.sol\":1980:2093   */\n  dup4\n    /* \"@openzeppelin/contracts/token/ERC20/ERC20.sol\":2046:2051   */\n  dup3\n    /* \"@openzeppelin/contracts/token/ERC20/ERC20.sol\":2046:2059   */\n  tag_10\n  jump\t// in\ntag_9:\n  pop\n    /* \"@openzeppelin/contracts/token/ERC20/ERC20.sol\":2069:2076   */\n  0x04\n    /* \"@openzeppelin/contracts/token/ERC20/ERC20.sol\":2069:2086   */\n  tag_11\n    /* \"@openzeppelin/contracts/token/ERC20/ERC20.sol\":2079:2086   */\n  dup3\n    /* \"@openzeppelin/contracts/token/ERC20/ERC20.sol\":2069:2076   */\n  dup3\n    /* \"@openzeppelin/contracts/token/ERC20/ERC20.sol\":2069:2086   */\n  tag_10\n  jump\t// in\ntag_11:\n  pop\n    /* \"@openzeppelin/contracts/token/ERC20/ERC20.sol\":1980:2093   */\n  pop\n  pop\n    /* \"@openzeppelin/contracts/access/Ownable.sol\":936:968   */\n  tag_13\n    /* \"@openzeppelin/contracts/access/Ownable.sol\":955:967   */\n  tag_14\n    /* \"@openzeppelin/contracts/access/Ownable.sol\":955:965   */\n  shl(0x20, tag_15)\n    /* \"@openzeppelin/contracts/access/Ownable.sol\":955:967   */\n  0x20\n  shr\n  jump\t// in\ntag_14:\n    /* \"@openzeppelin/contracts/access/Ownable.sol\":936:954   */\n  tag_16\n    /* \"@openzeppelin/contracts/access/Ownable.sol\":936:968   */\n  jump\t// in\ntag_13:\n    /* \"@openzeppelin/contracts/security/ReentrancyGuard.sol\":1716:1717   */\n  0x01\n    /* \"@openzeppelin/contracts/security/ReentrancyGuard.sol\":1821:1828   */\n  0x06\n    /* \"@openzeppelin/contracts/security/ReentrancyGuard.sol\":1821:1843   */\n  sstore\n    /* \"hole.sol\":1970:1995  _maxSupplyWholeTokens > 0 */\n  dup3\n    /* \"hole.sol\":1962:2005  require(_maxSupplyWholeTokens > 0, \"cap=0\") */\n  tag_19\n  jumpi\n  mload(0x40)\n  shl(0xe5, 0x461bcd)\n  dup2\n  mstore\n    /* \"#utility.yul\":3382:3384   */\n  0x20\n    /* \"hole.sol\":1962:2005  require(_maxSupplyWholeTokens > 0, \"cap=0\") */\n  0x04\n  dup3\n  add\n    /* \"#utility.yul\":3364:3385   */\n  mstore\n    /* \"#utility.yul\":3421:3422   */\n  0x05\n    /* \"#utility.yul\":3401:3419   */\n  0x24\n  dup3\n  add\n    /* \"#utility.yul\":3394:3423   */\n  mstore\n  shl(0xdc, 0x06361703d3)\n    /* \"#utility.yul\":3439:3457   */\n  0x44\n  dup3\n  add\n    /* \"#utility.yul\":3432:3467   */\n  mstore\n    /* \"#utility.yul\":3484:3502   */\n  0x64\n  add\n    /* \"hole.sol\":1962:2005  require(_maxSupplyWholeTokens > 0, \"cap=0\") */\ntag_20:\n  mload(0x40)\n  dup1\n  swap2\n  sub\n  swap1\n  revert\ntag_19:\n  sub(shl(0xa0, 0x01), 0x01)\n    /* \"hole.sol\":2023:2050  _initialOwner != address(0) */\n  dup3\n  and\n    /* \"hole.sol\":2015:2062  require(_initialOwner != address(0), \"owner=0\") */\n  tag_22\n  jumpi\n  mload(0x40)\n  shl(0xe5, 0x461bcd)\n  dup2\n  mstore\n    /* \"#utility.yul\":3715:3717   */\n  0x20\n    /* \"hole.sol\":2015:2062  require(_initialOwner != address(0), \"owner=0\") */\n  0x04\n  dup3\n  add\n    /* \"#utility.yul\":3697:3718   */\n  mstore\n    /* \"#utility.yul\":3754:3755   */\n  0x07\n    /* \"#utility.yul\":3734:3752   */\n  0x24\n  dup3\n  add\n    /* \"#utility.yul\":3727:3756   */\n  mstore\n  shl(0xcc, 0x06f776e65723d3)\n    /* \"#utility.yul\":3772:3790   */\n  0x44\n  dup3\n  add\n    /* \"#utility.yul\":3765:3802   */\n  mstore\n    /* \"#utility.yul\":3819:3837   */\n  0x64\n  add\n    /* \"hole.sol\":2015:2062  require(_initialOwner != address(0), \"owner=0\") */\n  tag_20\n    /* \"#utility.yul\":3513:3843   */\n  jump\n    /* \"hole.sol\":2015:2062  require(_initialOwner != address(0), \"owner=0\") */\ntag_22:\n    /* \"hole.sol\":2073:2089  pricePerTokenWei */\n  0x07\n    /* \"hole.sol\":2073:2109  pricePerTokenWei = _pricePerTokenWei */\n  dup5\n  swap1\n  sstore\n    /* \"hole.sol\":2168:2193  10 ** uint256(decimals()) */\n  tag_27\n    /* \"@openzeppelin/contracts/token/ERC20/ERC20.sol\":3186:3188   */\n  0x12\n    /* \"hole.sol\":2168:2170  10 */\n  0x0a\n    /* \"hole.sol\":2168:2193  10 ** uint256(decimals()) */\n  tag_28\n  jump\t// in\ntag_27:\n    /* \"hole.sol\":2143:2194  _maxSupplyWholeTokens * (10 ** uint256(decimals())) */\n  tag_29\n  swap1\n    /* \"hole.sol\":2143:2164  _maxSupplyWholeTokens */\n  dup5\n    /* \"hole.sol\":2143:2194  _maxSupplyWholeTokens * (10 ** uint256(decimals())) */\n  tag_30\n  jump\t// in\ntag_29:\n    /* \"hole.sol\":2131:2194  maxSupply = _maxSupplyWholeTokens * (10 ** uint256(decimals())) */\n  0x80\n  mstore\n    /* \"hole.sol\":2204:2217  walletMintCap */\n  0x09\n    /* \"hole.sol\":2204:2239  walletMintCap = _walletMintCapWhole */\n  dup2\n  swap1\n  sstore\n    /* \"hole.sol\":2268:2301  _transferOwnership(_initialOwner) */\n  tag_31\n    /* \"hole.sol\":2287:2300  _initialOwner */\n  dup3\n    /* \"hole.sol\":2268:2286  _transferOwnership */\n  tag_16\n    /* \"hole.sol\":2268:2301  _transferOwnership(_initialOwner) */\n  jump\t// in\ntag_31:\n    /* \"hole.sol\":1674:2308  constructor(... */\n  pop\n  pop\n  pop\n  pop\n    /* \"hole.sol\":722:5012  contract HOLE is ERC20, Ownable, ReentrancyGuard {... */\n  jump(tag_44)\n    /* \"@openzeppelin/contracts/utils/Context.sol\":655:751   */\ntag_15:\n    /* \"@openzeppelin/contracts/utils/Context.sol\":734:744   */\n  caller\n  swap1\n    /* \"@openzeppelin/contracts/utils/Context.sol\":655:751   */\n  jump\t// out\n    /* \"@openzeppelin/contracts/access/Ownable.sol\":2426:2613   */\ntag_16:\n    /* \"@openzeppelin/contracts/access/Ownable.sol\":2518:2524   */\n  0x05\n  dup1\n  sload\n  sub(shl(0xa0, 0x01), 0x01)\n    /* \"@openzeppelin/contracts/access/Ownable.sol\":2534:2551   */\n  dup4\n  dup2\n  and\n  not(sub(shl(0xa0, 0x01), 0x01))\n  dup4\n  and\n  dup2\n  or\n  swap1\n  swap4\n  sstore\n    /* \"@openzeppelin/contracts/access/Ownable.sol\":2566:2606   */\n  mload(0x40)\n    /* \"@openzeppelin/contracts/access/Ownable.sol\":2518:2524   */\n  swap2\n  and\n  swap2\n    /* \"@openzeppelin/contracts/access/Ownable.sol\":2534:2551   */\n  swap1\n    /* \"@openzeppelin/contracts/access/Ownable.sol\":2518:2524   */\n  dup3\n  swap1\n    /* \"@openzeppelin/contracts/access/Ownable.sol\":2566:2606   */\n  0x8be0079c531659141344cd1fd0a4f28419497f9722a3daafe3b4186f6b6457e0\n  swap1\n    /* \"@openzeppelin/contracts/access/Ownable.sol\":2499:2515   */\n  0x00\n  swap1\n    /* \"@openzeppelin/contracts/access/Ownable.sol\":2566:2606   */\n  log3\n    /* \"@openzeppelin/contracts/access/Ownable.sol\":2489:2613   */\n  pop\n    /* \"@openzeppelin/contracts/access/Ownable.sol\":2426:2613   */\n  pop\n  jump\t// out\n    /* \"#utility.yul\":14:488   */\ntag_3:\n    /* \"#utility.yul\":111:117   */\n  0x00\n    /* \"#utility.yul\":119:125   */\n  dup1\n    /* \"#utility.yul\":127:133   */\n  0x00\n    /* \"#utility.yul\":135:141   */\n  dup1\n    /* \"#utility.yul\":188:191   */\n  0x80\n    /* \"#utility.yul\":176:185   */\n  dup6\n    /* \"#utility.yul\":167:174   */\n  dup8\n    /* \"#utility.yul\":163:186   */\n  sub\n    /* \"#utility.yul\":159:192   */\n  slt\n    /* \"#utility.yul\":156:209   */\n  iszero\n  tag_46\n  jumpi\n    /* \"#utility.yul\":205:206   */\n  0x00\n    /* \"#utility.yul\":202:203   */\n  dup1\n    /* \"#utility.yul\":195:207   */\n  revert\n    /* \"#utility.yul\":156:209   */\ntag_46:\n    /* \"#utility.yul\":228:244   */\n  dup5\n  mload\n    /* \"#utility.yul\":284:286   */\n  0x20\n    /* \"#utility.yul\":269:287   */\n  dup7\n  add\n    /* \"#utility.yul\":263:288   */\n  mload\n    /* \"#utility.yul\":331:333   */\n  0x40\n    /* \"#utility.yul\":316:334   */\n  dup8\n  add\n    /* \"#utility.yul\":310:335   */\n  mload\n    /* \"#utility.yul\":228:244   */\n  swap2\n  swap6\n  pop\n    /* \"#utility.yul\":263:288   */\n  swap4\n  pop\n  sub(shl(0xa0, 0x01), 0x01)\n    /* \"#utility.yul\":364:395   */\n  dup2\n  and\n    /* \"#utility.yul\":354:396   */\n  dup2\n  eq\n    /* \"#utility.yul\":344:414   */\n  tag_47\n  jumpi\n    /* \"#utility.yul\":410:411   */\n  0x00\n    /* \"#utility.yul\":407:408   */\n  dup1\n    /* \"#utility.yul\":400:412   */\n  revert\n    /* \"#utility.yul\":344:414   */\ntag_47:\n    /* \"#utility.yul\":478:480   */\n  0x60\n    /* \"#utility.yul\":463:481   */\n  swap6\n  swap1\n  swap6\n  add\n    /* \"#utility.yul\":457:482   */\n  mload\n    /* \"#utility.yul\":14:488   */\n  swap4\n  swap7\n  swap3\n  swap6\n  pop\n  pop\n  pop\n  jump\t// out\n    /* \"#utility.yul\":493:620   */\ntag_36:\n    /* \"#utility.yul\":554:564   */\n  0x4e487b71\n    /* \"#utility.yul\":549:552   */\n  0xe0\n    /* \"#utility.yul\":545:565   */\n  shl\n    /* \"#utility.yul\":542:543   */\n  0x00\n    /* \"#utility.yul\":535:566   */\n  mstore\n    /* \"#utility.yul\":585:589   */\n  0x41\n    /* \"#utility.yul\":582:583   */\n  0x04\n    /* \"#utility.yul\":575:590   */\n  mstore\n    /* \"#utility.yul\":609:613   */\n  0x24\n    /* \"#utility.yul\":606:607   */\n  0x00\n    /* \"#utility.yul\":599:614   */\n  revert\n    /* \"#utility.yul\":625:1005   */\ntag_37:\n    /* \"#utility.yul\":704:705   */\n  0x01\n    /* \"#utility.yul\":700:712   */\n  dup2\n  dup2\n  shr\n  swap1\n    /* \"#utility.yul\":747:759   */\n  dup3\n  and\n  dup1\n    /* \"#utility.yul\":768:829   */\n  tag_50\n  jumpi\n    /* \"#utility.yul\":822:826   */\n  0x7f\n    /* \"#utility.yul\":814:820   */\n  dup3\n    /* \"#utility.yul\":810:827   */\n  and\n    /* \"#utility.yul\":800:827   */\n  swap2\n  pop\n    /* \"#utility.yul\":768:829   */\ntag_50:\n    /* \"#utility.yul\":875:877   */\n  0x20\n    /* \"#utility.yul\":867:873   */\n  dup3\n    /* \"#utility.yul\":864:878   */\n  lt\n    /* \"#utility.yul\":844:862   */\n  dup2\n    /* \"#utility.yul\":841:879   */\n  sub\n    /* \"#utility.yul\":838:999   */\n  tag_51\n  jumpi\n    /* \"#utility.yul\":921:931   */\n  0x4e487b71\n    /* \"#utility.yul\":916:919   */\n  0xe0\n    /* \"#utility.yul\":912:932   */\n  shl\n    /* \"#utility.yul\":909:910   */\n  0x00\n    /* \"#utility.yul\":902:933   */\n  mstore\n    /* \"#utility.yul\":956:960   */\n  0x22\n    /* \"#utility.yul\":953:954   */\n  0x04\n    /* \"#utility.yul\":946:961   */\n  mstore\n    /* \"#utility.yul\":984:988   */\n  0x24\n    /* \"#utility.yul\":981:982   */\n  0x00\n    /* \"#utility.yul\":974:989   */\n  revert\n    /* \"#utility.yul\":838:999   */\ntag_51:\n  pop\n    /* \"#utility.yul\":625:1005   */\n  swap2\n  swap1\n  pop\n  jump\t// out\n    /* \"#utility.yul\":1136:1654   */\ntag_39:\n    /* \"#utility.yul\":1238:1240   */\n  0x1f\n    /* \"#utility.yul\":1233:1236   */\n  dup3\n    /* \"#utility.yul\":1230:1241   */\n  gt\n    /* \"#utility.yul\":1227:1648   */\n  iszero\n  tag_54\n  jumpi\n    /* \"#utility.yul\":1274:1279   */\n  dup1\n    /* \"#utility.yul\":1271:1272   */\n  0x00\n    /* \"#utility.yul\":1264:1280   */\n  mstore\n    /* \"#utility.yul\":1318:1322   */\n  0x20\n    /* \"#utility.yul\":1315:1316   */\n  0x00\n    /* \"#utility.yul\":1305:1323   */\n  keccak256\n    /* \"#utility.yul\":1388:1390   */\n  0x1f\n    /* \"#utility.yul\":1376:1386   */\n  dup5\n    /* \"#utility.yul\":1372:1391   */\n  add\n    /* \"#utility.yul\":1369:1370   */\n  0x05\n    /* \"#utility.yul\":1365:1392   */\n  shr\n    /* \"#utility.yul\":1359:1363   */\n  dup2\n    /* \"#utility.yul\":1355:1393   */\n  add\n    /* \"#utility.yul\":1424:1428   */\n  0x20\n    /* \"#utility.yul\":1412:1422   */\n  dup6\n    /* \"#utility.yul\":1409:1429   */\n  lt\n    /* \"#utility.yul\":1406:1453   */\n  iszero\n  tag_55\n  jumpi\n  pop\n    /* \"#utility.yul\":1447:1451   */\n  dup1\n    /* \"#utility.yul\":1406:1453   */\ntag_55:\n    /* \"#utility.yul\":1502:1504   */\n  0x1f\n    /* \"#utility.yul\":1497:1500   */\n  dup5\n    /* \"#utility.yul\":1493:1505   */\n  add\n    /* \"#utility.yul\":1490:1491   */\n  0x05\n    /* \"#utility.yul\":1486:1506   */\n  shr\n    /* \"#utility.yul\":1480:1484   */\n  dup3\n    /* \"#utility.yul\":1476:1507   */\n  add\n    /* \"#utility.yul\":1466:1507   */\n  swap2\n  pop\n    /* \"#utility.yul\":1557:1638   */\ntag_56:\n    /* \"#utility.yul\":1575:1577   */\n  dup2\n    /* \"#utility.yul\":1568:1573   */\n  dup2\n    /* \"#utility.yul\":1565:1578   */\n  lt\n    /* \"#utility.yul\":1557:1638   */\n  iszero\n  tag_58\n  jumpi\n    /* \"#utility.yul\":1634:1635   */\n  0x00\n    /* \"#utility.yul\":1620:1636   */\n  dup2\n  sstore\n    /* \"#utility.yul\":1601:1602   */\n  0x01\n    /* \"#utility.yul\":1590:1603   */\n  add\n    /* \"#utility.yul\":1557:1638   */\n  jump(tag_56)\ntag_58:\n    /* \"#utility.yul\":1561:1564   */\n  pop\n  pop\n    /* \"#utility.yul\":1227:1648   */\ntag_54:\n    /* \"#utility.yul\":1136:1654   */\n  pop\n  pop\n  pop\n  jump\t// out\n    /* \"#utility.yul\":1830:3175   */\ntag_10:\n    /* \"#utility.yul\":1950:1960   */\n  dup2\n  mload\n  sub(shl(0x40, 0x01), 0x01)\n    /* \"#utility.yul\":1972:2002   */\n  dup2\n  gt\n    /* \"#utility.yul\":1969:2025   */\n  iszero\n  tag_62\n  jumpi\n    /* \"#utility.yul\":2005:2023   */\n  tag_62\n  tag_36\n  jump\t// in\ntag_62:\n    /* \"#utility.yul\":2034:2131   */\n  tag_63\n    /* \"#utility.yul\":2124:2130   */\n  dup2\n    /* \"#utility.yul\":2084:2122   */\n  tag_64\n    /* \"#utility.yul\":2116:2120   */\n  dup5\n    /* \"#utility.yul\":2110:2121   */\n  sload\n    /* \"#utility.yul\":2084:2122   */\n  tag_37\n  jump\t// in\ntag_64:\n    /* \"#utility.yul\":2078:2082   */\n  dup5\n    /* \"#utility.yul\":2034:2131   */\n  tag_39\n  jump\t// in\ntag_63:\n    /* \"#utility.yul\":2186:2190   */\n  0x20\n  dup1\n    /* \"#utility.yul\":2243:2245   */\n  0x1f\n    /* \"#utility.yul\":2232:2246   */\n  dup4\n  gt\n    /* \"#utility.yul\":2260:2261   */\n  0x01\n    /* \"#utility.yul\":2255:2918   */\n  dup2\n  eq\n  tag_66\n  jumpi\n    /* \"#utility.yul\":2962:2963   */\n  0x00\n    /* \"#utility.yul\":2979:2985   */\n  dup5\n    /* \"#utility.yul\":2976:3065   */\n  iszero\n  tag_67\n  jumpi\n  pop\n    /* \"#utility.yul\":3031:3050   */\n  dup6\n  dup4\n  add\n    /* \"#utility.yul\":3025:3051   */\n  mload\n    /* \"#utility.yul\":2976:3065   */\ntag_67:\n  not(0x00)\n    /* \"#utility.yul\":1787:1788   */\n  0x03\n    /* \"#utility.yul\":1783:1794   */\n  dup7\n  swap1\n  shl\n    /* \"#utility.yul\":1779:1803   */\n  shr\n    /* \"#utility.yul\":1775:1804   */\n  not\n    /* \"#utility.yul\":1765:1805   */\n  and\n    /* \"#utility.yul\":1811:1812   */\n  0x01\n    /* \"#utility.yul\":1807:1818   */\n  dup6\n  swap1\n  shl\n    /* \"#utility.yul\":1762:1819   */\n  or\n    /* \"#utility.yul\":3078:3159   */\n  dup6\n  sstore\n    /* \"#utility.yul\":2225:3169   */\n  jump(tag_65)\n    /* \"#utility.yul\":2255:2918   */\ntag_66:\n    /* \"#utility.yul\":1083:1084   */\n  0x00\n    /* \"#utility.yul\":1076:1090   */\n  dup6\n  dup2\n  mstore\n    /* \"#utility.yul\":1120:1124   */\n  0x20\n    /* \"#utility.yul\":1107:1125   */\n  dup2\n  keccak256\n  not(0x1f)\n    /* \"#utility.yul\":2291:2311   */\n  dup7\n  and\n  swap2\n    /* \"#utility.yul\":2409:2645   */\ntag_70:\n    /* \"#utility.yul\":2423:2430   */\n  dup3\n    /* \"#utility.yul\":2420:2421   */\n  dup2\n    /* \"#utility.yul\":2417:2431   */\n  lt\n    /* \"#utility.yul\":2409:2645   */\n  iszero\n  tag_72\n  jumpi\n    /* \"#utility.yul\":2512:2531   */\n  dup9\n  dup7\n  add\n    /* \"#utility.yul\":2506:2532   */\n  mload\n    /* \"#utility.yul\":2491:2533   */\n  dup3\n  sstore\n    /* \"#utility.yul\":2604:2631   */\n  swap5\n  dup5\n  add\n  swap5\n    /* \"#utility.yul\":2572:2573   */\n  0x01\n    /* \"#utility.yul\":2560:2574   */\n  swap1\n  swap2\n  add\n  swap1\n    /* \"#utility.yul\":2439:2458   */\n  dup5\n  add\n    /* \"#utility.yul\":2409:2645   */\n  jump(tag_70)\ntag_72:\n    /* \"#utility.yul\":2413:2416   */\n  pop\n    /* \"#utility.yul\":2673:2679   */\n  dup6\n    /* \"#utility.yul\":2664:2671   */\n  dup3\n    /* \"#utility.yul\":2661:2680   */\n  lt\n    /* \"#utility.yul\":2658:2859   */\n  iszero\n  tag_73\n  jumpi\n    /* \"#utility.yul\":2734:2753   */\n  dup8\n  dup6\n  add\n    /* \"#utility.yul\":2728:2754   */\n  mload\n  not(0x00)\n    /* \"#utility.yul\":2817:2818   */\n  0x03\n    /* \"#utility.yul\":2813:2827   */\n  dup9\n  swap1\n  shl\n    /* \"#utility.yul\":2829:2832   */\n  0xf8\n    /* \"#utility.yul\":2809:2833   */\n  and\n    /* \"#utility.yul\":2805:2842   */\n  shr\n    /* \"#utility.yul\":2801:2843   */\n  not\n    /* \"#utility.yul\":2786:2844   */\n  and\n    /* \"#utility.yul\":2771:2845   */\n  dup2\n  sstore\n    /* \"#utility.yul\":2658:2859   */\ntag_73:\n  pop\n  pop\n    /* \"#utility.yul\":2905:2906   */\n  0x01\n    /* \"#utility.yul\":2896:2902   */\n  dup5\n    /* \"#utility.yul\":2893:2894   */\n  0x01\n    /* \"#utility.yul\":2889:2903   */\n  shl\n    /* \"#utility.yul\":2885:2907   */\n  add\n    /* \"#utility.yul\":2879:2883   */\n  dup6\n    /* \"#utility.yul\":2872:2908   */\n  sstore\n    /* \"#utility.yul\":2225:3169   */\ntag_65:\n  pop\n  pop\n  pop\n  pop\n    /* \"#utility.yul\":1830:3175   */\n  pop\n  pop\n  jump\t// out\n    /* \"#utility.yul\":3848:3975   */\ntag_41:\n    /* \"#utility.yul\":3909:3919   */\n  0x4e487b71\n    /* \"#utility.yul\":3904:3907   */\n  0xe0\n    /* \"#utility.yul\":3900:3920   */\n  shl\n    /* \"#utility.yul\":3897:3898   */\n  0x00\n    /* \"#utility.yul\":3890:3921   */\n  mstore\n    /* \"#utility.yul\":3940:3944   */\n  0x11\n    /* \"#utility.yul\":3937:3938   */\n  0x04\n    /* \"#utility.yul\":3930:3945   */\n  mstore\n    /* \"#utility.yul\":3964:3968   */\n  0x24\n    /* \"#utility.yul\":3961:3962   */\n  0x00\n    /* \"#utility.yul\":3954:3969   */\n  revert\n    /* \"#utility.yul\":3980:4396   */\ntag_42:\n    /* \"#utility.yul\":4069:4070   */\n  0x01\n    /* \"#utility.yul\":4106:4111   */\n  dup2\n    /* \"#utility.yul\":4069:4070   */\n  dup2\n    /* \"#utility.yul\":4120:4390   */\ntag_78:\n    /* \"#utility.yul\":4141:4148   */\n  dup1\n    /* \"#utility.yul\":4131:4139   */\n  dup6\n    /* \"#utility.yul\":4128:4149   */\n  gt\n    /* \"#utility.yul\":4120:4390   */\n  iszero\n  tag_80\n  jumpi\n    /* \"#utility.yul\":4200:4204   */\n  dup2\n    /* \"#utility.yul\":4196:4197   */\n  0x00\n    /* \"#utility.yul\":4192:4198   */\n  not\n    /* \"#utility.yul\":4188:4205   */\n  div\n    /* \"#utility.yul\":4182:4186   */\n  dup3\n    /* \"#utility.yul\":4179:4206   */\n  gt\n    /* \"#utility.yul\":4176:4229   */\n  iszero\n  tag_82\n  jumpi\n    /* \"#utility.yul\":4209:4227   */\n  tag_82\n  tag_41\n  jump\t// in\ntag_82:\n    /* \"#utility.yul\":4259:4266   */\n  dup1\n    /* \"#utility.yul\":4249:4257   */\n  dup6\n    /* \"#utility.yul\":4245:4267   */\n  and\n    /* \"#utility.yul\":4242:4297   */\n  iszero\n  tag_83\n  jumpi\n    /* \"#utility.yul\":4279:4295   */\n  swap2\n  dup2\n  mul\n  swap2\n    /* \"#utility.yul\":4242:4297   */\ntag_83:\n    /* \"#utility.yul\":4358:4380   */\n  swap4\n  dup5\n  shr\n  swap4\n    /* \"#utility.yul\":4318:4333   */\n  swap1\n  dup1\n  mul\n  swap1\n    /* \"#utility.yul\":4120:4390   */\n  jump(tag_78)\ntag_80:\n    /* \"#utility.yul\":4124:4127   */\n  pop\n    /* \"#utility.yul\":3980:4396   */\n  swap3\n  pop\n  swap3\n  swap1\n  pop\n  jump\t// out\n    /* \"#utility.yul\":4401:5207   */\ntag_43:\n    /* \"#utility.yul\":4450:4455   */\n  0x00\n    /* \"#utility.yul\":4480:4488   */\n  dup3\n    /* \"#utility.yul\":4470:4550   */\n  tag_85\n  jumpi\n  pop\n    /* \"#utility.yul\":4521:4522   */\n  0x01\n    /* \"#utility.yul\":4535:4540   */\n  jump(tag_84)\n    /* \"#utility.yul\":4470:4550   */\ntag_85:\n    /* \"#utility.yul\":4569:4573   */\n  dup2\n    /* \"#utility.yul\":4559:4635   */\n  tag_86\n  jumpi\n  pop\n    /* \"#utility.yul\":4606:4607   */\n  0x00\n    /* \"#utility.yul\":4620:4625   */\n  jump(tag_84)\n    /* \"#utility.yul\":4559:4635   */\ntag_86:\n    /* \"#utility.yul\":4651:4655   */\n  dup2\n    /* \"#utility.yul\":4669:4670   */\n  0x01\n    /* \"#utility.yul\":4664:4723   */\n  dup2\n  eq\n  tag_88\n  jumpi\n    /* \"#utility.yul\":4737:4738   */\n  0x02\n    /* \"#utility.yul\":4732:4862   */\n  dup2\n  eq\n  tag_89\n  jumpi\n    /* \"#utility.yul\":4644:4862   */\n  jump(tag_87)\n    /* \"#utility.yul\":4664:4723   */\ntag_88:\n    /* \"#utility.yul\":4694:4695   */\n  0x01\n    /* \"#utility.yul\":4685:4695   */\n  swap2\n  pop\n    /* \"#utility.yul\":4708:4713   */\n  pop\n  jump(tag_84)\n    /* \"#utility.yul\":4732:4862   */\ntag_89:\n    /* \"#utility.yul\":4769:4772   */\n  0xff\n    /* \"#utility.yul\":4759:4767   */\n  dup5\n    /* \"#utility.yul\":4756:4773   */\n  gt\n    /* \"#utility.yul\":4753:4796   */\n  iszero\n  tag_91\n  jumpi\n    /* \"#utility.yul\":4776:4794   */\n  tag_91\n  tag_41\n  jump\t// in\ntag_91:\n  pop\n  pop\n    /* \"#utility.yul\":4832:4833   */\n  0x01\n    /* \"#utility.yul\":4818:4834   */\n  dup3\n  shl\n    /* \"#utility.yul\":4847:4852   */\n  jump(tag_84)\n    /* \"#utility.yul\":4644:4862   */\ntag_87:\n  pop\n    /* \"#utility.yul\":4946:4948   */\n  0x20\n    /* \"#utility.yul\":4936:4944   */\n  dup4\n    /* \"#utility.yul\":4933:4949   */\n  lt\n    /* \"#utility.yul\":4927:4930   */\n  0x0133\n    /* \"#utility.yul\":4921:4925   */\n  dup4\n    /* \"#utility.yul\":4918:4931   */\n  lt\n    /* \"#utility.yul\":4914:4950   */\n  and\n    /* \"#utility.yul\":4908:4910   */\n  0x4e\n    /* \"#utility.yul\":4898:4906   */\n  dup5\n    /* \"#utility.yul\":4895:4911   */\n  lt\n    /* \"#utility.yul\":4890:4892   */\n  0x0b\n    /* \"#utility.yul\":4884:4888   */\n  dup5\n    /* \"#utility.yul\":4881:4893   */\n  lt\n    /* \"#utility.yul\":4877:4912   */\n  and\n    /* \"#utility.yul\":4874:4951   */\n  or\n    /* \"#utility.yul\":4871:5030   */\n  iszero\n  tag_92\n  jumpi\n  pop\n    /* \"#utility.yul\":4983:5002   */\n  dup2\n  dup2\n  exp\n    /* \"#utility.yul\":5015:5020   */\n  jump(tag_84)\n    /* \"#utility.yul\":4871:5030   */\ntag_92:\n    /* \"#utility.yul\":5062:5096   */\n  tag_93\n    /* \"#utility.yul\":5087:5095   */\n  dup4\n    /* \"#utility.yul\":5081:5085   */\n  dup4\n    /* \"#utility.yul\":5062:5096   */\n  tag_42\n  jump\t// in\ntag_93:\n    /* \"#utility.yul\":5132:5138   */\n  dup1\n    /* \"#utility.yul\":5128:5129   */\n  0x00\n    /* \"#utility.yul\":5124:5130   */\n  not\n    /* \"#utility.yul\":5120:5139   */\n  div\n    /* \"#utility.yul\":5111:5118   */\n  dup3\n    /* \"#utility.yul\":5108:5140   */\n  gt\n    /* \"#utility.yul\":5105:5163   */\n  iszero\n  tag_95\n  jumpi\n    /* \"#utility.yul\":5143:5161   */\n  tag_95\n  tag_41\n  jump\t// in\ntag_95:\n    /* \"#utility.yul\":5181:5201   */\n  mul\n  swap1\n  pop\n    /* \"#utility.yul\":4401:5207   */\ntag_84:\n  swap3\n  swap2\n  pop\n  pop\n  jump\t// out\n    /* \"#utility.yul\":5212:5343   */\ntag_28:\n    /* \"#utility.yul\":5272:5277   */\n  0x00\n    /* \"#utility.yul\":5301:5337   */\n  tag_97\n    /* \"#utility.yul\":5328:5336   */\n  dup4\n    /* \"#utility.yul\":5322:5326   */\n  dup4\n    /* \"#utility.yul\":5301:5337   */\n  tag_43\n  jump\t// in\ntag_97:\n    /* \"#utility.yul\":5292:5337   */\n  swap4\n    /* \"#utility.yul\":5212:5343   */\n  swap3\n  pop\n  pop\n  pop\n  jump\t// out\n    /* \"#utility.yul\":5348:5516   */\ntag_30:\n    /* \"#utility.yul\":5421:5430   */\n  dup1\n  dup3\n  mul\n    /* \"#utility.yul\":5452:5461   */\n  dup2\n  iszero\n    /* \"#utility.yul\":5469:5484   */\n  dup3\n  dup3\n  div\n    /* \"#utility.yul\":5463:5485   */\n  dup5\n  eq\n    /* \"#utility.yul\":5449:5486   */\n  or\n    /* \"#utility.yul\":5439:5510   */\n  tag_84\n  jumpi\n    /* \"#utility.yul\":5490:5508   */\n  tag_84\n  tag_41\n  jump\t// in\n    /* \"#utility.yul\":5348:5516   */\ntag_44:\n    /* \"hole.sol\":722:5012  contract HOLE is ERC20, Ownable, ReentrancyGuard {... */\n  mload(0x80)\n  codecopy(0x00, dataOffset(sub_0), dataSize(sub_0))\n  0x00\n  assignImmutable(\"0x277ab82e5a4641341820a4a2933a62c1de997e42e92548657ae21b3728d580fe\")\n  return(0x00, dataSize(sub_0))\nstop\n\nsub_0: assembly {\n        /* \"hole.sol\":722:5012  contract HOLE is ERC20, Ownable, ReentrancyGuard {... */\n      mstore(0x40, 0x80)\n      jumpi(tag_1, lt(calldatasize, 0x04))\n      shr(0xe0, calldataload(0x00))\n      dup1\n      0x91b7f5ed\n      gt\n      tag_30\n      jumpi\n      dup1\n      0xcb2fb89c\n      gt\n      tag_31\n      jumpi\n      dup1\n      0xd5abeb01\n      gt\n      tag_32\n      jumpi\n      dup1\n      0xd5abeb01\n      eq\n      tag_26\n      jumpi\n      dup1\n      0xdd62ed3e\n      eq\n      tag_27\n      jumpi\n      dup1\n      0xf2fde38b\n      eq\n      tag_28\n      jumpi\n      dup1\n      0xf8004d31\n      eq\n      tag_29\n      jumpi\n      jump(tag_2)\n    tag_32:\n      dup1\n      0xcb2fb89c\n      eq\n      tag_23\n      jumpi\n      dup1\n      0xcbd3e753\n      eq\n      tag_24\n      jumpi\n      dup1\n      0xcd742793\n      eq\n      tag_25\n      jumpi\n      jump(tag_2)\n    tag_31:\n      dup1\n      0xa457c2d7\n      gt\n      tag_33\n      jumpi\n      dup1\n      0xa457c2d7\n      eq\n      tag_19\n      jumpi\n      dup1\n      0xa9059cbb\n      eq\n      tag_20\n      jumpi\n      dup1\n      0xb31f8f93\n      eq\n      tag_21\n      jumpi\n      dup1\n      0xbef97c87\n      eq\n      tag_22\n      jumpi\n      jump(tag_2)\n    tag_33:\n      dup1\n      0x91b7f5ed\n      eq\n      tag_16\n      jumpi\n      dup1\n      0x95d89b41\n      eq\n      tag_17\n      jumpi\n      dup1\n      0xa0712d68\n      eq\n      tag_18\n      jumpi\n      jump(tag_2)\n    tag_30:\n      dup1\n      0x26b9ce13\n      gt\n      tag_34\n      jumpi\n      dup1\n      0x51cff8d9\n      gt\n      tag_35\n      jumpi\n      dup1\n      0x51cff8d9\n      eq\n      tag_12\n      jumpi\n      dup1\n      0x70a08231\n      eq\n      tag_13\n      jumpi\n      dup1\n      0x715018a6\n      eq\n      tag_14\n      jumpi\n      dup1\n      0x8da5cb5b\n      eq\n      tag_15\n      jumpi\n      jump(tag_2)\n    tag_35:\n      dup1\n      0x26b9ce13\n      eq\n      tag_9\n      jumpi\n      dup1\n      0x313ce567\n      eq\n      tag_10\n      jumpi\n      dup1\n      0x39509351\n      eq\n      tag_11\n      jumpi\n      jump(tag_2)\n    tag_34:\n      dup1\n      0x1eae99c5\n      gt\n      tag_36\n      jumpi\n      dup1\n      0x1eae99c5\n      eq\n      tag_6\n      jumpi\n      dup1\n      0x23b872dd\n      eq\n      tag_7\n      jumpi\n      dup1\n      0x24bbd049\n      eq\n      tag_8\n      jumpi\n      jump(tag_2)\n    tag_36:\n      dup1\n      0x06fdde03\n      eq\n      tag_3\n      jumpi\n      dup1\n      0x095ea7b3\n      eq\n      tag_4\n      jumpi\n      dup1\n      0x18160ddd\n      eq\n      tag_5\n      jumpi\n      jump(tag_2)\n    tag_1:\n      jumpi(tag_2, calldatasize)\n        /* \"hole.sol\":4929:4949  revert(\"Use mint()\") */\n      mload(0x40)\n      shl(0xe5, 0x461bcd)\n      dup2\n      mstore\n        /* \"#utility.yul\":216:218   */\n      0x20\n        /* \"hole.sol\":4929:4949  revert(\"Use mint()\") */\n      0x04\n      dup3\n      add\n        /* \"#utility.yul\":198:219   */\n      mstore\n        /* \"#utility.yul\":255:257   */\n      0x0a\n        /* \"#utility.yul\":235:253   */\n      0x24\n      dup3\n      add\n        /* \"#utility.yul\":228:258   */\n      mstore\n      shl(0xb0, 0x557365206d696e742829)\n        /* \"#utility.yul\":274:292   */\n      0x44\n      dup3\n      add\n        /* \"#utility.yul\":267:307   */\n      mstore\n        /* \"#utility.yul\":324:342   */\n      0x64\n      add\n        /* \"hole.sol\":4929:4949  revert(\"Use mint()\") */\n    tag_39:\n      mload(0x40)\n      dup1\n      swap2\n      sub\n      swap1\n      revert\n        /* \"hole.sol\":722:5012  contract HOLE is ERC20, Ownable, ReentrancyGuard {... */\n    tag_2:\n        /* \"hole.sol\":4987:5007  revert(\"Use mint()\") */\n      mload(0x40)\n      shl(0xe5, 0x461bcd)\n      dup2\n      mstore\n        /* \"#utility.yul\":216:218   */\n      0x20\n        /* \"hole.sol\":4987:5007  revert(\"Use mint()\") */\n      0x04\n      dup3\n      add\n        /* \"#utility.yul\":198:219   */\n      mstore\n        /* \"#utility.yul\":255:257   */\n      0x0a\n        /* \"#utility.yul\":235:253   */\n      0x24\n      dup3\n      add\n        /* \"#utility.yul\":228:258   */\n      mstore\n      shl(0xb0, 0x557365206d696e742829)\n        /* \"#utility.yul\":274:292   */\n      0x44\n      dup3\n      add\n        /* \"#utility.yul\":267:307   */\n      mstore\n        /* \"#utility.yul\":324:342   */\n      0x64\n      add\n        /* \"hole.sol\":4987:5007  revert(\"Use mint()\") */\n      tag_39\n        /* \"#utility.yul\":14:348   */\n      jump\n        /* \"@openzeppelin/contracts/token/ERC20/ERC20.sol\":2158:2256   */\n    tag_3:\n      callvalue\n      dup1\n      iszero\n      tag_44\n      jumpi\n      0x00\n      dup1\n      revert\n    tag_44:\n      pop\n      tag_45\n      tag_46\n      jump\t// in\n    tag_45:\n      mload(0x40)\n      tag_47\n      swap2\n      swap1\n      tag_48\n      jump\t// in\n    tag_47:\n      mload(0x40)\n      dup1\n      swap2\n      sub\n      swap1\n      return\n        /* \"@openzeppelin/contracts/token/ERC20/ERC20.sol\":4444:4641   */\n    tag_4:\n      callvalue\n      dup1\n      iszero\n      tag_49\n      jumpi\n      0x00\n      dup1\n      revert\n    tag_49:\n      pop\n      tag_50\n      tag_51\n      calldatasize\n      0x04\n      tag_52\n      jump\t// in\n    tag_51:\n      tag_53\n      jump\t// in\n    tag_50:\n      mload(0x40)\n        /* \"#utility.yul\":1420:1434   */\n      swap1\n      iszero\n        /* \"#utility.yul\":1413:1435   */\n      iszero\n        /* \"#utility.yul\":1395:1436   */\n      dup2\n      mstore\n        /* \"#utility.yul\":1383:1385   */\n      0x20\n        /* \"#utility.yul\":1368:1386   */\n      add\n        /* \"@openzeppelin/contracts/token/ERC20/ERC20.sol\":4444:4641   */\n      tag_47\n        /* \"#utility.yul\":1255:1442   */\n      jump\n        /* \"@openzeppelin/contracts/token/ERC20/ERC20.sol\":3255:3361   */\n    tag_5:\n      callvalue\n      dup1\n      iszero\n      tag_56\n      jumpi\n      0x00\n      dup1\n      revert\n    tag_56:\n      pop\n        /* \"@openzeppelin/contracts/token/ERC20/ERC20.sol\":3342:3354   */\n      sload(0x02)\n        /* \"@openzeppelin/contracts/token/ERC20/ERC20.sol\":3255:3361   */\n    tag_57:\n      mload(0x40)\n        /* \"#utility.yul\":1593:1618   */\n      swap1\n      dup2\n      mstore\n        /* \"#utility.yul\":1581:1583   */\n      0x20\n        /* \"#utility.yul\":1566:1584   */\n      add\n        /* \"@openzeppelin/contracts/token/ERC20/ERC20.sol\":3255:3361   */\n      tag_47\n        /* \"#utility.yul\":1447:1624   */\n      jump\n        /* \"hole.sol\":3814:4014  function setWalletMintCap(uint256 newCapWhole) external onlyOwner {... */\n    tag_6:\n      callvalue\n      dup1\n      iszero\n      tag_61\n      jumpi\n      0x00\n      dup1\n      revert\n    tag_61:\n      pop\n      tag_62\n      tag_63\n      calldatasize\n      0x04\n      tag_64\n      jump\t// in\n    tag_63:\n      tag_65\n      jump\t// in\n    tag_62:\n      stop\n        /* \"@openzeppelin/contracts/token/ERC20/ERC20.sol\":5203:5459   */\n    tag_7:\n      callvalue\n      dup1\n      iszero\n      tag_66\n      jumpi\n      0x00\n      dup1\n      revert\n    tag_66:\n      pop\n      tag_50\n      tag_68\n      calldatasize\n      0x04\n      tag_69\n      jump\t// in\n    tag_68:\n      tag_70\n      jump\t// in\n        /* \"hole.sol\":1034:1061  bool public mintOpen = true */\n    tag_8:\n      callvalue\n      dup1\n      iszero\n      tag_72\n      jumpi\n      0x00\n      dup1\n      revert\n    tag_72:\n      pop\n      sload(0x08)\n      tag_50\n      swap1\n      0xff\n      and\n      dup2\n      jump\n        /* \"hole.sol\":3587:3739  function setTransfersEnabled(bool enabled) external onlyOwner {... */\n    tag_9:\n      callvalue\n      dup1\n      iszero\n      tag_76\n      jumpi\n      0x00\n      dup1\n      revert\n    tag_76:\n      pop\n      tag_62\n      tag_78\n      calldatasize\n      0x04\n      tag_79\n      jump\t// in\n    tag_78:\n      tag_80\n      jump\t// in\n        /* \"@openzeppelin/contracts/token/ERC20/ERC20.sol\":3104:3195   */\n    tag_10:\n      callvalue\n      dup1\n      iszero\n      tag_81\n      jumpi\n      0x00\n      dup1\n      revert\n    tag_81:\n      pop\n      mload(0x40)\n        /* \"@openzeppelin/contracts/token/ERC20/ERC20.sol\":3186:3188   */\n      0x12\n        /* \"#utility.yul\":2695:2731   */\n      dup2\n      mstore\n        /* \"#utility.yul\":2683:2685   */\n      0x20\n        /* \"#utility.yul\":2668:2686   */\n      add\n        /* \"@openzeppelin/contracts/token/ERC20/ERC20.sol\":3104:3195   */\n      tag_47\n        /* \"#utility.yul\":2553:2737   */\n      jump\n        /* \"@openzeppelin/contracts/token/ERC20/ERC20.sol\":5854:6088   */\n    tag_11:\n      callvalue\n      dup1\n      iszero\n      tag_86\n      jumpi\n      0x00\n      dup1\n      revert\n    tag_86:\n      pop\n      tag_50\n      tag_88\n      calldatasize\n      0x04\n      tag_52\n      jump\t// in\n    tag_88:\n      tag_89\n      jump\t// in\n        /* \"hole.sol\":4020:4184  function withdraw(address payable to) external onlyOwner nonReentrant {... */\n    tag_12:\n      callvalue\n      dup1\n      iszero\n      tag_91\n      jumpi\n      0x00\n      dup1\n      revert\n    tag_91:\n      pop\n      tag_62\n      tag_93\n      calldatasize\n      0x04\n      tag_94\n      jump\t// in\n    tag_93:\n      tag_95\n      jump\t// in\n        /* \"@openzeppelin/contracts/token/ERC20/ERC20.sol\":3419:3544   */\n    tag_13:\n      callvalue\n      dup1\n      iszero\n      tag_96\n      jumpi\n      0x00\n      dup1\n      revert\n    tag_96:\n      pop\n      tag_57\n      tag_98\n      calldatasize\n      0x04\n      tag_94\n      jump\t// in\n    tag_98:\n      sub(shl(0xa0, 0x01), 0x01)\n        /* \"@openzeppelin/contracts/token/ERC20/ERC20.sol\":3519:3537   */\n      and\n        /* \"@openzeppelin/contracts/token/ERC20/ERC20.sol\":3493:3500   */\n      0x00\n        /* \"@openzeppelin/contracts/token/ERC20/ERC20.sol\":3519:3537   */\n      swap1\n      dup2\n      mstore\n      0x20\n      dup2\n      swap1\n      mstore\n      0x40\n      swap1\n      keccak256\n      sload\n      swap1\n        /* \"@openzeppelin/contracts/token/ERC20/ERC20.sol\":3419:3544   */\n      jump\n        /* \"@openzeppelin/contracts/access/Ownable.sol\":1824:1925   */\n    tag_14:\n      callvalue\n      dup1\n      iszero\n      tag_102\n      jumpi\n      0x00\n      dup1\n      revert\n    tag_102:\n      pop\n      tag_62\n      tag_104\n      jump\t// in\n        /* \"@openzeppelin/contracts/access/Ownable.sol\":1201:1286   */\n    tag_15:\n      callvalue\n      dup1\n      iszero\n      tag_105\n      jumpi\n      0x00\n      dup1\n      revert\n    tag_105:\n      pop\n        /* \"@openzeppelin/contracts/access/Ownable.sol\":1273:1279   */\n      sload(0x05)\n        /* \"@openzeppelin/contracts/access/Ownable.sol\":1201:1286   */\n      mload(0x40)\n      sub(shl(0xa0, 0x01), 0x01)\n        /* \"@openzeppelin/contracts/access/Ownable.sol\":1273:1279   */\n      swap1\n      swap2\n      and\n        /* \"#utility.yul\":3400:3474   */\n      dup2\n      mstore\n        /* \"#utility.yul\":3388:3390   */\n      0x20\n        /* \"#utility.yul\":3373:3391   */\n      add\n        /* \"@openzeppelin/contracts/access/Ownable.sol\":1201:1286   */\n      tag_47\n        /* \"#utility.yul\":3254:3480   */\n      jump\n        /* \"hole.sol\":3195:3385  function setPrice(uint256 newPriceWei) external onlyOwner {... */\n    tag_16:\n      callvalue\n      dup1\n      iszero\n      tag_110\n      jumpi\n      0x00\n      dup1\n      revert\n    tag_110:\n      pop\n      tag_62\n      tag_112\n      calldatasize\n      0x04\n      tag_64\n      jump\t// in\n    tag_112:\n      tag_113\n      jump\t// in\n        /* \"@openzeppelin/contracts/token/ERC20/ERC20.sol\":2369:2471   */\n    tag_17:\n      callvalue\n      dup1\n      iszero\n      tag_114\n      jumpi\n      0x00\n      dup1\n      revert\n    tag_114:\n      pop\n      tag_45\n      tag_116\n      jump\t// in\n        /* \"hole.sol\":2389:3090  function mint(uint256 amount) external payable nonReentrant {... */\n    tag_18:\n      tag_62\n      tag_119\n      calldatasize\n      0x04\n      tag_64\n      jump\t// in\n    tag_119:\n      tag_120\n      jump\t// in\n        /* \"@openzeppelin/contracts/token/ERC20/ERC20.sol\":6575:7002   */\n    tag_19:\n      callvalue\n      dup1\n      iszero\n      tag_121\n      jumpi\n      0x00\n      dup1\n      revert\n    tag_121:\n      pop\n      tag_50\n      tag_123\n      calldatasize\n      0x04\n      tag_52\n      jump\t// in\n    tag_123:\n      tag_124\n      jump\t// in\n        /* \"@openzeppelin/contracts/token/ERC20/ERC20.sol\":3740:3929   */\n    tag_20:\n      callvalue\n      dup1\n      iszero\n      tag_126\n      jumpi\n      0x00\n      dup1\n      revert\n    tag_126:\n      pop\n      tag_50\n      tag_128\n      calldatasize\n      0x04\n      tag_52\n      jump\t// in\n    tag_128:\n      tag_129\n      jump\t// in\n        /* \"hole.sol\":4723:4858  function tokensLeft() external view returns (uint256) {... */\n    tag_21:\n      callvalue\n      dup1\n      iszero\n      tag_131\n      jumpi\n      0x00\n      dup1\n      revert\n    tag_131:\n      pop\n      tag_57\n      tag_133\n      jump\t// in\n        /* \"hole.sol\":1135:1171  bool public transfersEnabled = false */\n    tag_22:\n      callvalue\n      dup1\n      iszero\n      tag_135\n      jumpi\n      0x00\n      dup1\n      revert\n    tag_135:\n      pop\n      sload(0x08)\n      tag_50\n      swap1\n      0x0100\n      swap1\n      div\n      0xff\n      and\n      dup2\n      jump\n        /* \"hole.sol\":1244:1272  uint256 public walletMintCap */\n    tag_23:\n      callvalue\n      dup1\n      iszero\n      tag_139\n      jumpi\n      0x00\n      dup1\n      revert\n    tag_139:\n      pop\n      tag_57\n      sload(0x09)\n      dup2\n      jump\n        /* \"hole.sol\":1337:1383  mapping(address => uint256) public mintedWhole */\n    tag_24:\n      callvalue\n      dup1\n      iszero\n      tag_143\n      jumpi\n      0x00\n      dup1\n      revert\n    tag_143:\n      pop\n      tag_57\n      tag_145\n      calldatasize\n      0x04\n      tag_94\n      jump\t// in\n    tag_145:\n      mstore(0x20, 0x0a)\n      0x00\n      swap1\n      dup2\n      mstore\n      0x40\n      swap1\n      keccak256\n      sload\n      dup2\n      jump\n        /* \"hole.sol\":857:888  uint256 public pricePerTokenWei */\n    tag_25:\n      callvalue\n      dup1\n      iszero\n      tag_148\n      jumpi\n      0x00\n      dup1\n      revert\n    tag_148:\n      pop\n      tag_57\n      sload(0x07)\n      dup2\n      jump\n        /* \"hole.sol\":958:992  uint256 public immutable maxSupply */\n    tag_26:\n      callvalue\n      dup1\n      iszero\n      tag_152\n      jumpi\n      0x00\n      dup1\n      revert\n    tag_152:\n      pop\n      tag_57\n      immutable(\"0x277ab82e5a4641341820a4a2933a62c1de997e42e92548657ae21b3728d580fe\")\n      dup2\n      jump\n        /* \"@openzeppelin/contracts/token/ERC20/ERC20.sol\":3987:4136   */\n    tag_27:\n      callvalue\n      dup1\n      iszero\n      tag_156\n      jumpi\n      0x00\n      dup1\n      revert\n    tag_156:\n      pop\n      tag_57\n      tag_158\n      calldatasize\n      0x04\n      tag_159\n      jump\t// in\n    tag_158:\n      sub(shl(0xa0, 0x01), 0x01)\n        /* \"@openzeppelin/contracts/token/ERC20/ERC20.sol\":4102:4120   */\n      swap2\n      dup3\n      and\n        /* \"@openzeppelin/contracts/token/ERC20/ERC20.sol\":4076:4083   */\n      0x00\n        /* \"@openzeppelin/contracts/token/ERC20/ERC20.sol\":4102:4120   */\n      swap1\n      dup2\n      mstore\n        /* \"@openzeppelin/contracts/token/ERC20/ERC20.sol\":4102:4113   */\n      0x01\n        /* \"@openzeppelin/contracts/token/ERC20/ERC20.sol\":4102:4120   */\n      0x20\n      swap1\n      dup2\n      mstore\n      0x40\n      dup1\n      dup4\n      keccak256\n        /* \"@openzeppelin/contracts/token/ERC20/ERC20.sol\":4102:4129   */\n      swap4\n      swap1\n      swap5\n      and\n      dup3\n      mstore\n      swap2\n      swap1\n      swap2\n      mstore\n      keccak256\n      sload\n      swap1\n        /* \"@openzeppelin/contracts/token/ERC20/ERC20.sol\":3987:4136   */\n      jump\n        /* \"@openzeppelin/contracts/access/Ownable.sol\":2074:2272   */\n    tag_28:\n      callvalue\n      dup1\n      iszero\n      tag_162\n      jumpi\n      0x00\n      dup1\n      revert\n    tag_162:\n      pop\n      tag_62\n      tag_164\n      calldatasize\n      0x04\n      tag_94\n      jump\t// in\n    tag_164:\n      tag_165\n      jump\t// in\n        /* \"hole.sol\":3391:3510  function setMintOpen(bool open) external onlyOwner {... */\n    tag_29:\n      callvalue\n      dup1\n      iszero\n      tag_166\n      jumpi\n      0x00\n      dup1\n      revert\n    tag_166:\n      pop\n      tag_62\n      tag_168\n      calldatasize\n      0x04\n      tag_79\n      jump\t// in\n    tag_168:\n      tag_169\n      jump\t// in\n        /* \"@openzeppelin/contracts/token/ERC20/ERC20.sol\":2158:2256   */\n    tag_46:\n        /* \"@openzeppelin/contracts/token/ERC20/ERC20.sol\":2212:2225   */\n      0x60\n        /* \"@openzeppelin/contracts/token/ERC20/ERC20.sol\":2244:2249   */\n      0x03\n        /* \"@openzeppelin/contracts/token/ERC20/ERC20.sol\":2237:2249   */\n      dup1\n      sload\n      tag_171\n      swap1\n      tag_172\n      jump\t// in\n    tag_171:\n      dup1\n      0x1f\n      add\n      0x20\n      dup1\n      swap2\n      div\n      mul\n      0x20\n      add\n      mload(0x40)\n      swap1\n      dup2\n      add\n      0x40\n      mstore\n      dup1\n      swap3\n      swap2\n      swap1\n      dup2\n      dup2\n      mstore\n      0x20\n      add\n      dup3\n      dup1\n      sload\n      tag_173\n      swap1\n      tag_172\n      jump\t// in\n    tag_173:\n      dup1\n      iszero\n      tag_174\n      jumpi\n      dup1\n      0x1f\n      lt\n      tag_175\n      jumpi\n      0x0100\n      dup1\n      dup4\n      sload\n      div\n      mul\n      dup4\n      mstore\n      swap2\n      0x20\n      add\n      swap2\n      jump(tag_174)\n    tag_175:\n      dup3\n      add\n      swap2\n      swap1\n      0x00\n      mstore\n      keccak256(0x00, 0x20)\n      swap1\n    tag_176:\n      dup2\n      sload\n      dup2\n      mstore\n      swap1\n      0x01\n      add\n      swap1\n      0x20\n      add\n      dup1\n      dup4\n      gt\n      tag_176\n      jumpi\n      dup3\n      swap1\n      sub\n      0x1f\n      and\n      dup3\n      add\n      swap2\n    tag_174:\n      pop\n      pop\n      pop\n      pop\n      pop\n      swap1\n      pop\n        /* \"@openzeppelin/contracts/token/ERC20/ERC20.sol\":2158:2256   */\n      swap1\n      jump\t// out\n        /* \"@openzeppelin/contracts/token/ERC20/ERC20.sol\":4444:4641   */\n    tag_53:\n        /* \"@openzeppelin/contracts/token/ERC20/ERC20.sol\":4527:4531   */\n      0x00\n        /* \"@openzeppelin/contracts/utils/Context.sol\":734:744   */\n      caller\n        /* \"@openzeppelin/contracts/token/ERC20/ERC20.sol\":4581:4613   */\n      tag_180\n        /* \"@openzeppelin/contracts/utils/Context.sol\":734:744   */\n      dup2\n        /* \"@openzeppelin/contracts/token/ERC20/ERC20.sol\":4597:4604   */\n      dup6\n        /* \"@openzeppelin/contracts/token/ERC20/ERC20.sol\":4606:4612   */\n      dup6\n        /* \"@openzeppelin/contracts/token/ERC20/ERC20.sol\":4581:4589   */\n      tag_181\n        /* \"@openzeppelin/contracts/token/ERC20/ERC20.sol\":4581:4613   */\n      jump\t// in\n    tag_180:\n        /* \"@openzeppelin/contracts/token/ERC20/ERC20.sol\":4630:4634   */\n      0x01\n        /* \"@openzeppelin/contracts/token/ERC20/ERC20.sol\":4623:4634   */\n      swap2\n      pop\n      pop\n        /* \"@openzeppelin/contracts/token/ERC20/ERC20.sol\":4444:4641   */\n    tag_177:\n      swap3\n      swap2\n      pop\n      pop\n      jump\t// out\n        /* \"hole.sol\":3814:4014  function setWalletMintCap(uint256 newCapWhole) external onlyOwner {... */\n    tag_65:\n        /* \"@openzeppelin/contracts/access/Ownable.sol\":1094:1107   */\n      tag_184\n        /* \"@openzeppelin/contracts/access/Ownable.sol\":1094:1105   */\n      tag_185\n        /* \"@openzeppelin/contracts/access/Ownable.sol\":1094:1107   */\n      jump\t// in\n    tag_184:\n        /* \"hole.sol\":3904:3917  walletMintCap */\n      0x09\n      dup1\n      sload\n        /* \"hole.sol\":3927:3954  walletMintCap = newCapWhole */\n      swap1\n      dup3\n      swap1\n      sstore\n        /* \"hole.sol\":3969:4007  WalletMintCapChanged(old, newCapWhole) */\n      0x40\n      dup1\n      mload\n        /* \"#utility.yul\":4437:4462   */\n      dup3\n      dup2\n      mstore\n        /* \"#utility.yul\":4493:4495   */\n      0x20\n        /* \"#utility.yul\":4478:4496   */\n      dup2\n      add\n        /* \"#utility.yul\":4471:4505   */\n      dup5\n      swap1\n      mstore\n        /* \"hole.sol\":3969:4007  WalletMintCapChanged(old, newCapWhole) */\n      0x071795f06cf09b4d835204ba653f74e76d61a5641023b115ae926669830497c0\n      swap2\n        /* \"#utility.yul\":4410:4428   */\n      add\n        /* \"hole.sol\":3969:4007  WalletMintCapChanged(old, newCapWhole) */\n    tag_187:\n      mload(0x40)\n      dup1\n      swap2\n      sub\n      swap1\n      log1\n        /* \"hole.sol\":3880:4014  {... */\n      pop\n        /* \"hole.sol\":3814:4014  function setWalletMintCap(uint256 newCapWhole) external onlyOwner {... */\n      pop\n      jump\t// out\n        /* \"@openzeppelin/contracts/token/ERC20/ERC20.sol\":5203:5459   */\n    tag_70:\n        /* \"@openzeppelin/contracts/token/ERC20/ERC20.sol\":5300:5304   */\n      0x00\n        /* \"@openzeppelin/contracts/utils/Context.sol\":734:744   */\n      caller\n        /* \"@openzeppelin/contracts/token/ERC20/ERC20.sol\":5356:5394   */\n      tag_191\n        /* \"@openzeppelin/contracts/token/ERC20/ERC20.sol\":5372:5376   */\n      dup6\n        /* \"@openzeppelin/contracts/utils/Context.sol\":734:744   */\n      dup3\n        /* \"@openzeppelin/contracts/token/ERC20/ERC20.sol\":5387:5393   */\n      dup6\n        /* \"@openzeppelin/contracts/token/ERC20/ERC20.sol\":5356:5371   */\n      tag_192\n        /* \"@openzeppelin/contracts/token/ERC20/ERC20.sol\":5356:5394   */\n      jump\t// in\n    tag_191:\n        /* \"@openzeppelin/contracts/token/ERC20/ERC20.sol\":5404:5431   */\n      tag_193\n        /* \"@openzeppelin/contracts/token/ERC20/ERC20.sol\":5414:5418   */\n      dup6\n        /* \"@openzeppelin/contracts/token/ERC20/ERC20.sol\":5420:5422   */\n      dup6\n        /* \"@openzeppelin/contracts/token/ERC20/ERC20.sol\":5424:5430   */\n      dup6\n        /* \"@openzeppelin/contracts/token/ERC20/ERC20.sol\":5404:5413   */\n      tag_194\n        /* \"@openzeppelin/contracts/token/ERC20/ERC20.sol\":5404:5431   */\n      jump\t// in\n    tag_193:\n      pop\n        /* \"@openzeppelin/contracts/token/ERC20/ERC20.sol\":5448:5452   */\n      0x01\n      swap5\n        /* \"@openzeppelin/contracts/token/ERC20/ERC20.sol\":5203:5459   */\n      swap4\n      pop\n      pop\n      pop\n      pop\n      jump\t// out\n        /* \"hole.sol\":3587:3739  function setTransfersEnabled(bool enabled) external onlyOwner {... */\n    tag_80:\n        /* \"@openzeppelin/contracts/access/Ownable.sol\":1094:1107   */\n      tag_196\n        /* \"@openzeppelin/contracts/access/Ownable.sol\":1094:1105   */\n      tag_185\n        /* \"@openzeppelin/contracts/access/Ownable.sol\":1094:1107   */\n      jump\t// in\n    tag_196:\n        /* \"hole.sol\":3659:3675  transfersEnabled */\n      0x08\n        /* \"hole.sol\":3659:3685  transfersEnabled = enabled */\n      dup1\n      sload\n      dup3\n      iszero\n      iszero\n      0x0100\n      mul\n      not(0xff00)\n      swap1\n      swap2\n      and\n      or\n      swap1\n      sstore\n        /* \"hole.sol\":3700:3732  TransfersEnabledChanged(enabled) */\n      mload(0x40)\n      0x3f0522fb4345c29729658df56a8b87c4360593a277942cc15cdf041866058690\n      swap1\n      tag_198\n      swap1\n        /* \"hole.sol\":3678:3685  enabled */\n      dup4\n        /* \"#utility.yul\":1420:1434   */\n      iszero\n        /* \"#utility.yul\":1413:1435   */\n      iszero\n        /* \"#utility.yul\":1395:1436   */\n      dup2\n      mstore\n        /* \"#utility.yul\":1383:1385   */\n      0x20\n        /* \"#utility.yul\":1368:1386   */\n      add\n      swap1\n        /* \"#utility.yul\":1255:1442   */\n      jump\n        /* \"hole.sol\":3700:3732  TransfersEnabledChanged(enabled) */\n    tag_198:\n      mload(0x40)\n      dup1\n      swap2\n      sub\n      swap1\n      log1\n        /* \"hole.sol\":3587:3739  function setTransfersEnabled(bool enabled) external onlyOwner {... */\n      pop\n      jump\t// out\n        /* \"@openzeppelin/contracts/token/ERC20/ERC20.sol\":5854:6088   */\n    tag_89:\n        /* \"@openzeppelin/contracts/utils/Context.sol\":734:744   */\n      caller\n        /* \"@openzeppelin/contracts/token/ERC20/ERC20.sol\":5942:5946   */\n      0x00\n        /* \"@openzeppelin/contracts/token/ERC20/ERC20.sol\":4102:4120   */\n      dup2\n      dup2\n      mstore\n        /* \"@openzeppelin/contracts/token/ERC20/ERC20.sol\":4102:4113   */\n      0x01\n        /* \"@openzeppelin/contracts/token/ERC20/ERC20.sol\":4102:4120   */\n      0x20\n      swap1\n      dup2\n      mstore\n      0x40\n      dup1\n      dup4\n      keccak256\n      sub(shl(0xa0, 0x01), 0x01)\n        /* \"@openzeppelin/contracts/token/ERC20/ERC20.sol\":4102:4129   */\n      dup8\n      and\n      dup5\n      mstore\n      swap1\n      swap2\n      mstore\n      dup2\n      keccak256\n      sload\n        /* \"@openzeppelin/contracts/token/ERC20/ERC20.sol\":5942:5946   */\n      swap1\n      swap2\n        /* \"@openzeppelin/contracts/utils/Context.sol\":734:744   */\n      swap1\n        /* \"@openzeppelin/contracts/token/ERC20/ERC20.sol\":5996:6060   */\n      tag_180\n      swap1\n        /* \"@openzeppelin/contracts/utils/Context.sol\":734:744   */\n      dup3\n      swap1\n        /* \"@openzeppelin/contracts/token/ERC20/ERC20.sol\":4102:4129   */\n      dup7\n      swap1\n        /* \"@openzeppelin/contracts/token/ERC20/ERC20.sol\":6021:6059   */\n      tag_204\n      swap1\n        /* \"@openzeppelin/contracts/token/ERC20/ERC20.sol\":6049:6059   */\n      dup8\n      swap1\n        /* \"@openzeppelin/contracts/token/ERC20/ERC20.sol\":6021:6059   */\n      tag_205\n      jump\t// in\n    tag_204:\n        /* \"@openzeppelin/contracts/token/ERC20/ERC20.sol\":5996:6004   */\n      tag_181\n        /* \"@openzeppelin/contracts/token/ERC20/ERC20.sol\":5996:6060   */\n      jump\t// in\n        /* \"hole.sol\":4020:4184  function withdraw(address payable to) external onlyOwner nonReentrant {... */\n    tag_95:\n        /* \"@openzeppelin/contracts/access/Ownable.sol\":1094:1107   */\n      tag_207\n        /* \"@openzeppelin/contracts/access/Ownable.sol\":1094:1105   */\n      tag_185\n        /* \"@openzeppelin/contracts/access/Ownable.sol\":1094:1107   */\n      jump\t// in\n    tag_207:\n        /* \"@openzeppelin/contracts/security/ReentrancyGuard.sol\":2261:2282   */\n      tag_209\n        /* \"@openzeppelin/contracts/security/ReentrancyGuard.sol\":2261:2280   */\n      tag_210\n        /* \"@openzeppelin/contracts/security/ReentrancyGuard.sol\":2261:2282   */\n      jump\t// in\n    tag_209:\n      sub(shl(0xa0, 0x01), 0x01)\n        /* \"hole.sol\":4108:4124  to != address(0) */\n      dup2\n      and\n        /* \"hole.sol\":4100:4133  require(to != address(0), \"to=0\") */\n      tag_212\n      jumpi\n      mload(0x40)\n      shl(0xe5, 0x461bcd)\n      dup2\n      mstore\n      0x04\n      add\n      tag_39\n      swap1\n        /* \"#utility.yul\":4980:4982   */\n      0x20\n        /* \"#utility.yul\":4962:4983   */\n      dup1\n      dup3\n      mstore\n        /* \"#utility.yul\":5019:5020   */\n      0x04\n        /* \"#utility.yul\":4999:5017   */\n      swap1\n      dup3\n      add\n        /* \"#utility.yul\":4992:5021   */\n      mstore\n      shl(0xe4, 0x0746f3d3)\n        /* \"#utility.yul\":5052:5054   */\n      0x40\n        /* \"#utility.yul\":5037:5055   */\n      dup3\n      add\n        /* \"#utility.yul\":5030:5064   */\n      mstore\n        /* \"#utility.yul\":5096:5098   */\n      0x60\n        /* \"#utility.yul\":5081:5099   */\n      add\n      swap1\n        /* \"#utility.yul\":4778:5105   */\n      jump\n        /* \"hole.sol\":4100:4133  require(to != address(0), \"to=0\") */\n    tag_212:\n        /* \"hole.sol\":4143:4177  to.transfer(address(this).balance) */\n      mload(0x40)\n      sub(shl(0xa0, 0x01), 0x01)\n        /* \"hole.sol\":4143:4154  to.transfer */\n      dup3\n      and\n      swap1\n        /* \"hole.sol\":4155:4176  address(this).balance */\n      selfbalance\n        /* \"hole.sol\":4143:4177  to.transfer(address(this).balance) */\n      dup1\n      iszero\n      0x08fc\n      mul\n      swap2\n      0x00\n      dup2\n      dup2\n      dup2\n        /* \"hole.sol\":4155:4176  address(this).balance */\n      dup6\n        /* \"hole.sol\":4143:4154  to.transfer */\n      dup9\n        /* \"hole.sol\":4143:4177  to.transfer(address(this).balance) */\n      dup9\n      call\n      swap4\n      pop\n      pop\n      pop\n      pop\n      iszero\n      dup1\n      iszero\n      tag_216\n      jumpi\n      returndatasize\n      0x00\n      dup1\n      returndatacopy\n      revert(0x00, returndatasize)\n    tag_216:\n      pop\n        /* \"@openzeppelin/contracts/security/ReentrancyGuard.sol\":2303:2323   */\n      tag_217\n        /* \"@openzeppelin/contracts/security/ReentrancyGuard.sol\":1716:1717   */\n      0x01\n        /* \"@openzeppelin/contracts/security/ReentrancyGuard.sol\":2809:2816   */\n      0x06\n        /* \"@openzeppelin/contracts/security/ReentrancyGuard.sol\":2809:2831   */\n      sstore\n        /* \"@openzeppelin/contracts/security/ReentrancyGuard.sol\":2629:2838   */\n      jump\n        /* \"@openzeppelin/contracts/security/ReentrancyGuard.sol\":2303:2323   */\n    tag_217:\n        /* \"hole.sol\":4020:4184  function withdraw(address payable to) external onlyOwner nonReentrant {... */\n      pop\n      jump\t// out\n        /* \"@openzeppelin/contracts/access/Ownable.sol\":1824:1925   */\n    tag_104:\n        /* \"@openzeppelin/contracts/access/Ownable.sol\":1094:1107   */\n      tag_221\n        /* \"@openzeppelin/contracts/access/Ownable.sol\":1094:1105   */\n      tag_185\n        /* \"@openzeppelin/contracts/access/Ownable.sol\":1094:1107   */\n      jump\t// in\n    tag_221:\n        /* \"@openzeppelin/contracts/access/Ownable.sol\":1888:1918   */\n      tag_223\n        /* \"@openzeppelin/contracts/access/Ownable.sol\":1915:1916   */\n      0x00\n        /* \"@openzeppelin/contracts/access/Ownable.sol\":1888:1906   */\n      tag_224\n        /* \"@openzeppelin/contracts/access/Ownable.sol\":1888:1918   */\n      jump\t// in\n    tag_223:\n        /* \"@openzeppelin/contracts/access/Ownable.sol\":1824:1925   */\n      jump\t// out\n        /* \"hole.sol\":3195:3385  function setPrice(uint256 newPriceWei) external onlyOwner {... */\n    tag_113:\n        /* \"@openzeppelin/contracts/access/Ownable.sol\":1094:1107   */\n      tag_227\n        /* \"@openzeppelin/contracts/access/Ownable.sol\":1094:1105   */\n      tag_185\n        /* \"@openzeppelin/contracts/access/Ownable.sol\":1094:1107   */\n      jump\t// in\n    tag_227:\n        /* \"hole.sol\":3277:3293  pricePerTokenWei */\n      0x07\n      dup1\n      sload\n        /* \"hole.sol\":3303:3333  pricePerTokenWei = newPriceWei */\n      swap1\n      dup3\n      swap1\n      sstore\n        /* \"hole.sol\":3348:3378  PriceChanged(old, newPriceWei) */\n      0x40\n      dup1\n      mload\n        /* \"#utility.yul\":4437:4462   */\n      dup3\n      dup2\n      mstore\n        /* \"#utility.yul\":4493:4495   */\n      0x20\n        /* \"#utility.yul\":4478:4496   */\n      dup2\n      add\n        /* \"#utility.yul\":4471:4505   */\n      dup5\n      swap1\n      mstore\n        /* \"hole.sol\":3348:3378  PriceChanged(old, newPriceWei) */\n      0x8aa4fa52648a6d15edce8a179c792c86f3719d0cc3c572cf90f91948f0f2cb68\n      swap2\n        /* \"#utility.yul\":4410:4428   */\n      add\n        /* \"hole.sol\":3348:3378  PriceChanged(old, newPriceWei) */\n      tag_187\n        /* \"#utility.yul\":4263:4511   */\n      jump\n        /* \"@openzeppelin/contracts/token/ERC20/ERC20.sol\":2369:2471   */\n    tag_116:\n        /* \"@openzeppelin/contracts/token/ERC20/ERC20.sol\":2425:2438   */\n      0x60\n        /* \"@openzeppelin/contracts/token/ERC20/ERC20.sol\":2457:2464   */\n      0x04\n        /* \"@openzeppelin/contracts/token/ERC20/ERC20.sol\":2450:2464   */\n      dup1\n      sload\n      tag_171\n      swap1\n      tag_172\n      jump\t// in\n        /* \"hole.sol\":2389:3090  function mint(uint256 amount) external payable nonReentrant {... */\n    tag_120:\n        /* \"@openzeppelin/contracts/security/ReentrancyGuard.sol\":2261:2282   */\n      tag_237\n        /* \"@openzeppelin/contracts/security/ReentrancyGuard.sol\":2261:2280   */\n      tag_210\n        /* \"@openzeppelin/contracts/security/ReentrancyGuard.sol\":2261:2282   */\n      jump\t// in\n    tag_237:\n        /* \"hole.sol\":2467:2475  mintOpen */\n      and(0xff, sload(0x08))\n        /* \"hole.sol\":2459:2491  require(mintOpen, \"mint paused\") */\n      tag_239\n      jumpi\n      mload(0x40)\n      shl(0xe5, 0x461bcd)\n      dup2\n      mstore\n        /* \"#utility.yul\":5312:5314   */\n      0x20\n        /* \"hole.sol\":2459:2491  require(mintOpen, \"mint paused\") */\n      0x04\n      dup3\n      add\n        /* \"#utility.yul\":5294:5315   */\n      mstore\n        /* \"#utility.yul\":5351:5353   */\n      0x0b\n        /* \"#utility.yul\":5331:5349   */\n      0x24\n      dup3\n      add\n        /* \"#utility.yul\":5324:5354   */\n      mstore\n        /* \"#utility.yul\":5390:5403   */\n      0x6d696e7420706175736564000000000000000000000000000000000000000000\n        /* \"#utility.yul\":5370:5388   */\n      0x44\n      dup3\n      add\n        /* \"#utility.yul\":5363:5404   */\n      mstore\n        /* \"#utility.yul\":5421:5439   */\n      0x64\n      add\n        /* \"hole.sol\":2459:2491  require(mintOpen, \"mint paused\") */\n      tag_39\n        /* \"#utility.yul\":5110:5445   */\n      jump\n        /* \"hole.sol\":2459:2491  require(mintOpen, \"mint paused\") */\n    tag_239:\n        /* \"hole.sol\":2518:2519  0 */\n      0x00\n        /* \"hole.sol\":2509:2515  amount */\n      dup2\n        /* \"hole.sol\":2509:2519  amount > 0 */\n      gt\n        /* \"hole.sol\":2501:2532  require(amount > 0, \"amount=0\") */\n      tag_242\n      jumpi\n      mload(0x40)\n      shl(0xe5, 0x461bcd)\n      dup2\n      mstore\n        /* \"#utility.yul\":5652:5654   */\n      0x20\n        /* \"hole.sol\":2501:2532  require(amount > 0, \"amount=0\") */\n      0x04\n      dup3\n      add\n        /* \"#utility.yul\":5634:5655   */\n      mstore\n        /* \"#utility.yul\":5691:5692   */\n      0x08\n        /* \"#utility.yul\":5671:5689   */\n      0x24\n      dup3\n      add\n        /* \"#utility.yul\":5664:5693   */\n      mstore\n        /* \"#utility.yul\":5729:5739   */\n      0x616d6f756e743d30000000000000000000000000000000000000000000000000\n        /* \"#utility.yul\":5709:5727   */\n      0x44\n      dup3\n      add\n        /* \"#utility.yul\":5702:5740   */\n      mstore\n        /* \"#utility.yul\":5757:5775   */\n      0x64\n      add\n        /* \"hole.sol\":2501:2532  require(amount > 0, \"amount=0\") */\n      tag_39\n        /* \"#utility.yul\":5450:5781   */\n      jump\n        /* \"hole.sol\":2501:2532  require(amount > 0, \"amount=0\") */\n    tag_242:\n        /* \"hole.sol\":2593:2606  walletMintCap */\n      sload(0x09)\n        /* \"hole.sol\":2593:2610  walletMintCap > 0 */\n      iszero\n        /* \"hole.sol\":2589:2718  if (walletMintCap > 0) {... */\n      tag_247\n      jumpi\n        /* \"hole.sol\":2670:2683  walletMintCap */\n      sload(0x09)\n        /* \"hole.sol\":2646:2656  msg.sender */\n      caller\n        /* \"hole.sol\":2634:2657  mintedWhole[msg.sender] */\n      0x00\n      swap1\n      dup2\n      mstore\n        /* \"hole.sol\":2634:2645  mintedWhole */\n      0x0a\n        /* \"hole.sol\":2634:2657  mintedWhole[msg.sender] */\n      0x20\n      mstore\n      0x40\n      swap1\n      keccak256\n      sload\n        /* \"hole.sol\":2634:2666  mintedWhole[msg.sender] + amount */\n      tag_246\n      swap1\n        /* \"hole.sol\":2660:2666  amount */\n      dup4\n      swap1\n        /* \"hole.sol\":2634:2666  mintedWhole[msg.sender] + amount */\n      tag_205\n      jump\t// in\n    tag_246:\n        /* \"hole.sol\":2634:2683  mintedWhole[msg.sender] + amount <= walletMintCap */\n      gt\n      iszero\n        /* \"hole.sol\":2626:2707  require(mintedWhole[msg.sender] + amount <= walletMintCap, \"wallet cap exceeded\") */\n      tag_247\n      jumpi\n      mload(0x40)\n      shl(0xe5, 0x461bcd)\n      dup2\n      mstore\n        /* \"#utility.yul\":5988:5990   */\n      0x20\n        /* \"hole.sol\":2626:2707  require(mintedWhole[msg.sender] + amount <= walletMintCap, \"wallet cap exceeded\") */\n      0x04\n      dup3\n      add\n        /* \"#utility.yul\":5970:5991   */\n      mstore\n        /* \"#utility.yul\":6027:6029   */\n      0x13\n        /* \"#utility.yul\":6007:6025   */\n      0x24\n      dup3\n      add\n        /* \"#utility.yul\":6000:6030   */\n      mstore\n        /* \"#utility.yul\":6066:6087   */\n      0x77616c6c65742063617020657863656564656400000000000000000000000000\n        /* \"#utility.yul\":6046:6064   */\n      0x44\n      dup3\n      add\n        /* \"#utility.yul\":6039:6088   */\n      mstore\n        /* \"#utility.yul\":6105:6123   */\n      0x64\n      add\n        /* \"hole.sol\":2626:2707  require(mintedWhole[msg.sender] + amount <= walletMintCap, \"wallet cap exceeded\") */\n      tag_39\n        /* \"#utility.yul\":5786:6129   */\n      jump\n        /* \"hole.sol\":2626:2707  require(mintedWhole[msg.sender] + amount <= walletMintCap, \"wallet cap exceeded\") */\n    tag_247:\n        /* \"hole.sol\":2728:2740  uint256 cost */\n      0x00\n        /* \"hole.sol\":2762:2768  amount */\n      dup2\n        /* \"hole.sol\":2743:2759  pricePerTokenWei */\n      sload(0x07)\n        /* \"hole.sol\":2743:2768  pricePerTokenWei * amount */\n      tag_250\n      swap2\n      swap1\n      tag_251\n      jump\t// in\n    tag_250:\n        /* \"hole.sol\":2728:2768  uint256 cost = pricePerTokenWei * amount */\n      swap1\n      pop\n        /* \"hole.sol\":2799:2803  cost */\n      dup1\n        /* \"hole.sol\":2786:2795  msg.value */\n      callvalue\n        /* \"hole.sol\":2786:2803  msg.value == cost */\n      eq\n        /* \"hole.sol\":2778:2821  require(msg.value == cost, \"incorrect ETH\") */\n      tag_252\n      jumpi\n      mload(0x40)\n      shl(0xe5, 0x461bcd)\n      dup2\n      mstore\n        /* \"#utility.yul\":6509:6511   */\n      0x20\n        /* \"hole.sol\":2778:2821  require(msg.value == cost, \"incorrect ETH\") */\n      0x04\n      dup3\n      add\n        /* \"#utility.yul\":6491:6512   */\n      mstore\n        /* \"#utility.yul\":6548:6550   */\n      0x0d\n        /* \"#utility.yul\":6528:6546   */\n      0x24\n      dup3\n      add\n        /* \"#utility.yul\":6521:6551   */\n      mstore\n        /* \"#utility.yul\":6587:6602   */\n      0x696e636f72726563742045544800000000000000000000000000000000000000\n        /* \"#utility.yul\":6567:6585   */\n      0x44\n      dup3\n      add\n        /* \"#utility.yul\":6560:6603   */\n      mstore\n        /* \"#utility.yul\":6620:6638   */\n      0x64\n      add\n        /* \"hole.sol\":2778:2821  require(msg.value == cost, \"incorrect ETH\") */\n      tag_39\n        /* \"#utility.yul\":6307:6644   */\n      jump\n        /* \"hole.sol\":2778:2821  require(msg.value == cost, \"incorrect ETH\") */\n    tag_252:\n        /* \"hole.sol\":2832:2845  uint256 units */\n      0x00\n        /* \"hole.sol\":2858:2883  10 ** uint256(decimals()) */\n      tag_256\n        /* \"@openzeppelin/contracts/token/ERC20/ERC20.sol\":3186:3188   */\n      0x12\n        /* \"hole.sol\":2858:2860  10 */\n      0x0a\n        /* \"hole.sol\":2858:2883  10 ** uint256(decimals()) */\n      tag_257\n      jump\t// in\n    tag_256:\n        /* \"hole.sol\":2848:2884  amount * (10 ** uint256(decimals())) */\n      tag_258\n      swap1\n        /* \"hole.sol\":2848:2854  amount */\n      dup5\n        /* \"hole.sol\":2848:2884  amount * (10 ** uint256(decimals())) */\n      tag_251\n      jump\t// in\n    tag_258:\n        /* \"hole.sol\":2832:2884  uint256 units = amount * (10 ** uint256(decimals())) */\n      swap1\n      pop\n        /* \"hole.sol\":2927:2936  maxSupply */\n      immutable(\"0x277ab82e5a4641341820a4a2933a62c1de997e42e92548657ae21b3728d580fe\")\n        /* \"hole.sol\":2918:2923  units */\n      dup2\n        /* \"hole.sol\":2902:2915  totalSupply() */\n      tag_259\n        /* \"@openzeppelin/contracts/token/ERC20/ERC20.sol\":3342:3354   */\n      sload(0x02)\n      swap1\n        /* \"@openzeppelin/contracts/token/ERC20/ERC20.sol\":3255:3361   */\n      jump\n        /* \"hole.sol\":2902:2915  totalSupply() */\n    tag_259:\n        /* \"hole.sol\":2902:2923  totalSupply() + units */\n      tag_260\n      swap2\n      swap1\n      tag_205\n      jump\t// in\n    tag_260:\n        /* \"hole.sol\":2902:2936  totalSupply() + units <= maxSupply */\n      gt\n      iszero\n        /* \"hole.sol\":2894:2953  require(totalSupply() + units <= maxSupply, \"cap exceeded\") */\n      tag_261\n      jumpi\n      mload(0x40)\n      shl(0xe5, 0x461bcd)\n      dup2\n      mstore\n        /* \"#utility.yul\":8219:8221   */\n      0x20\n        /* \"hole.sol\":2894:2953  require(totalSupply() + units <= maxSupply, \"cap exceeded\") */\n      0x04\n      dup3\n      add\n        /* \"#utility.yul\":8201:8222   */\n      mstore\n        /* \"#utility.yul\":8258:8260   */\n      0x0c\n        /* \"#utility.yul\":8238:8256   */\n      0x24\n      dup3\n      add\n        /* \"#utility.yul\":8231:8261   */\n      mstore\n        /* \"#utility.yul\":8297:8311   */\n      0x6361702065786365656465640000000000000000000000000000000000000000\n        /* \"#utility.yul\":8277:8295   */\n      0x44\n      dup3\n      add\n        /* \"#utility.yul\":8270:8312   */\n      mstore\n        /* \"#utility.yul\":8329:8347   */\n      0x64\n      add\n        /* \"hole.sol\":2894:2953  require(totalSupply() + units <= maxSupply, \"cap exceeded\") */\n      tag_39\n        /* \"#utility.yul\":8017:8353   */\n      jump\n        /* \"hole.sol\":2894:2953  require(totalSupply() + units <= maxSupply, \"cap exceeded\") */\n    tag_261:\n        /* \"hole.sol\":2976:2986  msg.sender */\n      caller\n        /* \"hole.sol\":2964:2987  mintedWhole[msg.sender] */\n      0x00\n      swap1\n      dup2\n      mstore\n        /* \"hole.sol\":2964:2975  mintedWhole */\n      0x0a\n        /* \"hole.sol\":2964:2987  mintedWhole[msg.sender] */\n      0x20\n      mstore\n      0x40\n      dup2\n      keccak256\n        /* \"hole.sol\":2964:2997  mintedWhole[msg.sender] += amount */\n      dup1\n      sload\n        /* \"hole.sol\":2991:2997  amount */\n      dup6\n      swap3\n        /* \"hole.sol\":2964:2987  mintedWhole[msg.sender] */\n      swap1\n        /* \"hole.sol\":2964:2997  mintedWhole[msg.sender] += amount */\n      tag_264\n      swap1\n        /* \"hole.sol\":2991:2997  amount */\n      dup5\n      swap1\n        /* \"hole.sol\":2964:2997  mintedWhole[msg.sender] += amount */\n      tag_205\n      jump\t// in\n    tag_264:\n      swap1\n      swap2\n      sstore\n      pop\n        /* \"hole.sol\":3007:3031  _mint(msg.sender, units) */\n      tag_265\n      swap1\n      pop\n        /* \"hole.sol\":3013:3023  msg.sender */\n      caller\n        /* \"hole.sol\":3025:3030  units */\n      dup3\n        /* \"hole.sol\":3007:3012  _mint */\n      tag_266\n        /* \"hole.sol\":3007:3031  _mint(msg.sender, units) */\n      jump\t// in\n    tag_265:\n        /* \"hole.sol\":3046:3083  Minted(msg.sender, amount, msg.value) */\n      0x40\n      dup1\n      mload\n        /* \"#utility.yul\":4437:4462   */\n      dup5\n      dup2\n      mstore\n        /* \"hole.sol\":3073:3082  msg.value */\n      callvalue\n        /* \"#utility.yul\":4493:4495   */\n      0x20\n        /* \"#utility.yul\":4478:4496   */\n      dup3\n      add\n        /* \"#utility.yul\":4471:4505   */\n      mstore\n        /* \"hole.sol\":3053:3063  msg.sender */\n      caller\n      swap2\n        /* \"hole.sol\":3046:3083  Minted(msg.sender, amount, msg.value) */\n      0x25b428dfde728ccfaddad7e29e4ac23c24ed7fd1a6e3e3f91894a9a073f5dfff\n      swap2\n        /* \"#utility.yul\":4410:4428   */\n      add\n        /* \"hole.sol\":3046:3083  Minted(msg.sender, amount, msg.value) */\n      mload(0x40)\n      dup1\n      swap2\n      sub\n      swap1\n      log2\n        /* \"hole.sol\":2449:3090  {... */\n      pop\n      pop\n        /* \"@openzeppelin/contracts/security/ReentrancyGuard.sol\":2303:2323   */\n      tag_217\n        /* \"@openzeppelin/contracts/security/ReentrancyGuard.sol\":1716:1717   */\n      0x01\n        /* \"@openzeppelin/contracts/security/ReentrancyGuard.sol\":2809:2816   */\n      0x06\n        /* \"@openzeppelin/contracts/security/ReentrancyGuard.sol\":2809:2831   */\n      sstore\n        /* \"@openzeppelin/contracts/security/ReentrancyGuard.sol\":2629:2838   */\n      jump\n        /* \"@openzeppelin/contracts/token/ERC20/ERC20.sol\":6575:7002   */\n    tag_124:\n        /* \"@openzeppelin/contracts/utils/Context.sol\":734:744   */\n      caller\n        /* \"@openzeppelin/contracts/token/ERC20/ERC20.sol\":6668:6672   */\n      0x00\n        /* \"@openzeppelin/contracts/token/ERC20/ERC20.sol\":4102:4120   */\n      dup2\n      dup2\n      mstore\n        /* \"@openzeppelin/contracts/token/ERC20/ERC20.sol\":4102:4113   */\n      0x01\n        /* \"@openzeppelin/contracts/token/ERC20/ERC20.sol\":4102:4120   */\n      0x20\n      swap1\n      dup2\n      mstore\n      0x40\n      dup1\n      dup4\n      keccak256\n      sub(shl(0xa0, 0x01), 0x01)\n        /* \"@openzeppelin/contracts/token/ERC20/ERC20.sol\":4102:4129   */\n      dup8\n      and\n      dup5\n      mstore\n      swap1\n      swap2\n      mstore\n      dup2\n      keccak256\n      sload\n        /* \"@openzeppelin/contracts/token/ERC20/ERC20.sol\":6668:6672   */\n      swap1\n      swap2\n        /* \"@openzeppelin/contracts/utils/Context.sol\":734:744   */\n      swap1\n        /* \"@openzeppelin/contracts/token/ERC20/ERC20.sol\":6812:6827   */\n      dup4\n        /* \"@openzeppelin/contracts/token/ERC20/ERC20.sol\":6792:6808   */\n      dup2\n        /* \"@openzeppelin/contracts/token/ERC20/ERC20.sol\":6792:6827   */\n      lt\n      iszero\n        /* \"@openzeppelin/contracts/token/ERC20/ERC20.sol\":6784:6869   */\n      tag_272\n      jumpi\n      mload(0x40)\n      shl(0xe5, 0x461bcd)\n      dup2\n      mstore\n        /* \"#utility.yul\":8560:8562   */\n      0x20\n        /* \"@openzeppelin/contracts/token/ERC20/ERC20.sol\":6784:6869   */\n      0x04\n      dup3\n      add\n        /* \"#utility.yul\":8542:8563   */\n      mstore\n        /* \"#utility.yul\":8599:8601   */\n      0x25\n        /* \"#utility.yul\":8579:8597   */\n      0x24\n      dup3\n      add\n        /* \"#utility.yul\":8572:8602   */\n      mstore\n        /* \"#utility.yul\":8638:8672   */\n      0x45524332303a2064656372656173656420616c6c6f77616e63652062656c6f77\n        /* \"#utility.yul\":8618:8636   */\n      0x44\n      dup3\n      add\n        /* \"#utility.yul\":8611:8673   */\n      mstore\n        /* \"#utility.yul\":8709:8716   */\n      0x207a65726f000000000000000000000000000000000000000000000000000000\n        /* \"#utility.yul\":8689:8707   */\n      0x64\n      dup3\n      add\n        /* \"#utility.yul\":8682:8717   */\n      mstore\n        /* \"#utility.yul\":8734:8753   */\n      0x84\n      add\n        /* \"@openzeppelin/contracts/token/ERC20/ERC20.sol\":6784:6869   */\n      tag_39\n        /* \"#utility.yul\":8358:8759   */\n      jump\n        /* \"@openzeppelin/contracts/token/ERC20/ERC20.sol\":6784:6869   */\n    tag_272:\n        /* \"@openzeppelin/contracts/token/ERC20/ERC20.sol\":6903:6963   */\n      tag_193\n        /* \"@openzeppelin/contracts/token/ERC20/ERC20.sol\":6912:6917   */\n      dup3\n        /* \"@openzeppelin/contracts/token/ERC20/ERC20.sol\":6919:6926   */\n      dup7\n        /* \"@openzeppelin/contracts/token/ERC20/ERC20.sol\":6947:6962   */\n      dup7\n        /* \"@openzeppelin/contracts/token/ERC20/ERC20.sol\":6928:6944   */\n      dup5\n        /* \"@openzeppelin/contracts/token/ERC20/ERC20.sol\":6928:6962   */\n      sub\n        /* \"@openzeppelin/contracts/token/ERC20/ERC20.sol\":6903:6911   */\n      tag_181\n        /* \"@openzeppelin/contracts/token/ERC20/ERC20.sol\":6903:6963   */\n      jump\t// in\n        /* \"@openzeppelin/contracts/token/ERC20/ERC20.sol\":3740:3929   */\n    tag_129:\n        /* \"@openzeppelin/contracts/token/ERC20/ERC20.sol\":3819:3823   */\n      0x00\n        /* \"@openzeppelin/contracts/utils/Context.sol\":734:744   */\n      caller\n        /* \"@openzeppelin/contracts/token/ERC20/ERC20.sol\":3873:3901   */\n      tag_180\n        /* \"@openzeppelin/contracts/utils/Context.sol\":734:744   */\n      dup2\n        /* \"@openzeppelin/contracts/token/ERC20/ERC20.sol\":3890:3892   */\n      dup6\n        /* \"@openzeppelin/contracts/token/ERC20/ERC20.sol\":3894:3900   */\n      dup6\n        /* \"@openzeppelin/contracts/token/ERC20/ERC20.sol\":3873:3882   */\n      tag_194\n        /* \"@openzeppelin/contracts/token/ERC20/ERC20.sol\":3873:3901   */\n      jump\t// in\n        /* \"hole.sol\":4723:4858  function tokensLeft() external view returns (uint256) {... */\n    tag_133:\n        /* \"hole.sol\":4768:4775  uint256 */\n      0x00\n        /* \"hole.sol\":4825:4850  10 ** uint256(decimals()) */\n      tag_281\n        /* \"@openzeppelin/contracts/token/ERC20/ERC20.sol\":3186:3188   */\n      0x12\n        /* \"hole.sol\":4825:4827  10 */\n      0x0a\n        /* \"hole.sol\":4825:4850  10 ** uint256(decimals()) */\n      tag_257\n      jump\t// in\n    tag_281:\n        /* \"@openzeppelin/contracts/token/ERC20/ERC20.sol\":3342:3354   */\n      sload(0x02)\n        /* \"hole.sol\":4795:4820  maxSupply - totalSupply() */\n      tag_283\n      swap1\n        /* \"hole.sol\":4795:4804  maxSupply */\n      immutable(\"0x277ab82e5a4641341820a4a2933a62c1de997e42e92548657ae21b3728d580fe\")\n        /* \"hole.sol\":4795:4820  maxSupply - totalSupply() */\n      tag_284\n      jump\t// in\n    tag_283:\n        /* \"hole.sol\":4794:4851  (maxSupply - totalSupply()) / (10 ** uint256(decimals())) */\n      tag_285\n      swap2\n      swap1\n      tag_286\n      jump\t// in\n    tag_285:\n        /* \"hole.sol\":4787:4851  return (maxSupply - totalSupply()) / (10 ** uint256(decimals())) */\n      swap1\n      pop\n        /* \"hole.sol\":4723:4858  function tokensLeft() external view returns (uint256) {... */\n      swap1\n      jump\t// out\n        /* \"@openzeppelin/contracts/access/Ownable.sol\":2074:2272   */\n    tag_165:\n        /* \"@openzeppelin/contracts/access/Ownable.sol\":1094:1107   */\n      tag_289\n        /* \"@openzeppelin/contracts/access/Ownable.sol\":1094:1105   */\n      tag_185\n        /* \"@openzeppelin/contracts/access/Ownable.sol\":1094:1107   */\n      jump\t// in\n    tag_289:\n      sub(shl(0xa0, 0x01), 0x01)\n        /* \"@openzeppelin/contracts/access/Ownable.sol\":2162:2184   */\n      dup2\n      and\n        /* \"@openzeppelin/contracts/access/Ownable.sol\":2154:2227   */\n      tag_291\n      jumpi\n      mload(0x40)\n      shl(0xe5, 0x461bcd)\n      dup2\n      mstore\n        /* \"#utility.yul\":9321:9323   */\n      0x20\n        /* \"@openzeppelin/contracts/access/Ownable.sol\":2154:2227   */\n      0x04\n      dup3\n      add\n        /* \"#utility.yul\":9303:9324   */\n      mstore\n        /* \"#utility.yul\":9360:9362   */\n      0x26\n        /* \"#utility.yul\":9340:9358   */\n      0x24\n      dup3\n      add\n        /* \"#utility.yul\":9333:9363   */\n      mstore\n        /* \"#utility.yul\":9399:9433   */\n      0x4f776e61626c653a206e6577206f776e657220697320746865207a65726f2061\n        /* \"#utility.yul\":9379:9397   */\n      0x44\n      dup3\n      add\n        /* \"#utility.yul\":9372:9434   */\n      mstore\n        /* \"#utility.yul\":9470:9478   */\n      0x6464726573730000000000000000000000000000000000000000000000000000\n        /* \"#utility.yul\":9450:9468   */\n      0x64\n      dup3\n      add\n        /* \"#utility.yul\":9443:9479   */\n      mstore\n        /* \"#utility.yul\":9496:9515   */\n      0x84\n      add\n        /* \"@openzeppelin/contracts/access/Ownable.sol\":2154:2227   */\n      tag_39\n        /* \"#utility.yul\":9119:9521   */\n      jump\n        /* \"@openzeppelin/contracts/access/Ownable.sol\":2154:2227   */\n    tag_291:\n        /* \"@openzeppelin/contracts/access/Ownable.sol\":2237:2265   */\n      tag_217\n        /* \"@openzeppelin/contracts/access/Ownable.sol\":2256:2264   */\n      dup2\n        /* \"@openzeppelin/contracts/access/Ownable.sol\":2237:2255   */\n      tag_224\n        /* \"@openzeppelin/contracts/access/Ownable.sol\":2237:2265   */\n      jump\t// in\n        /* \"hole.sol\":3391:3510  function setMintOpen(bool open) external onlyOwner {... */\n    tag_169:\n        /* \"@openzeppelin/contracts/access/Ownable.sol\":1094:1107   */\n      tag_296\n        /* \"@openzeppelin/contracts/access/Ownable.sol\":1094:1105   */\n      tag_185\n        /* \"@openzeppelin/contracts/access/Ownable.sol\":1094:1107   */\n      jump\t// in\n    tag_296:\n        /* \"hole.sol\":3452:3460  mintOpen */\n      0x08\n        /* \"hole.sol\":3452:3467  mintOpen = open */\n      dup1\n      sload\n      not(0xff)\n      and\n      dup3\n      iszero\n      iszero\n      swap1\n      dup2\n      or\n      swap1\n      swap2\n      sstore\n        /* \"hole.sol\":3482:3503  MintOpenChanged(open) */\n      mload(0x40)\n        /* \"#utility.yul\":1395:1436   */\n      swap1\n      dup2\n      mstore\n        /* \"hole.sol\":3482:3503  MintOpenChanged(open) */\n      0xa9f739ee29a6336acdfe5b044a6dce0d70579031be6dbdece2ac0848d8c2a080\n      swap1\n        /* \"#utility.yul\":1383:1385   */\n      0x20\n        /* \"#utility.yul\":1368:1386   */\n      add\n        /* \"hole.sol\":3482:3503  MintOpenChanged(open) */\n      tag_198\n        /* \"#utility.yul\":1255:1442   */\n      jump\n        /* \"@openzeppelin/contracts/token/ERC20/ERC20.sol\":10457:10797   */\n    tag_181:\n      sub(shl(0xa0, 0x01), 0x01)\n        /* \"@openzeppelin/contracts/token/ERC20/ERC20.sol\":10558:10577   */\n      dup4\n      and\n        /* \"@openzeppelin/contracts/token/ERC20/ERC20.sol\":10550:10618   */\n      tag_301\n      jumpi\n      mload(0x40)\n      shl(0xe5, 0x461bcd)\n      dup2\n      mstore\n        /* \"#utility.yul\":9728:9730   */\n      0x20\n        /* \"@openzeppelin/contracts/token/ERC20/ERC20.sol\":10550:10618   */\n      0x04\n      dup3\n      add\n        /* \"#utility.yul\":9710:9731   */\n      mstore\n        /* \"#utility.yul\":9767:9769   */\n      0x24\n        /* \"#utility.yul\":9747:9765   */\n      dup1\n      dup3\n      add\n        /* \"#utility.yul\":9740:9770   */\n      mstore\n        /* \"#utility.yul\":9806:9840   */\n      0x45524332303a20617070726f76652066726f6d20746865207a65726f20616464\n        /* \"#utility.yul\":9786:9804   */\n      0x44\n      dup3\n      add\n        /* \"#utility.yul\":9779:9841   */\n      mstore\n      shl(0xe0, 0x72657373)\n        /* \"#utility.yul\":9857:9875   */\n      0x64\n      dup3\n      add\n        /* \"#utility.yul\":9850:9884   */\n      mstore\n        /* \"#utility.yul\":9901:9920   */\n      0x84\n      add\n        /* \"@openzeppelin/contracts/token/ERC20/ERC20.sol\":10550:10618   */\n      tag_39\n        /* \"#utility.yul\":9526:9926   */\n      jump\n        /* \"@openzeppelin/contracts/token/ERC20/ERC20.sol\":10550:10618   */\n    tag_301:\n      sub(shl(0xa0, 0x01), 0x01)\n        /* \"@openzeppelin/contracts/token/ERC20/ERC20.sol\":10636:10657   */\n      dup3\n      and\n        /* \"@openzeppelin/contracts/token/ERC20/ERC20.sol\":10628:10696   */\n      tag_304\n      jumpi\n      mload(0x40)\n      shl(0xe5, 0x461bcd)\n      dup2\n      mstore\n        /* \"#utility.yul\":10133:10135   */\n      0x20\n        /* \"@openzeppelin/contracts/token/ERC20/ERC20.sol\":10628:10696   */\n      0x04\n      dup3\n      add\n        /* \"#utility.yul\":10115:10136   */\n      mstore\n        /* \"#utility.yul\":10172:10174   */\n      0x22\n        /* \"#utility.yul\":10152:10170   */\n      0x24\n      dup3\n      add\n        /* \"#utility.yul\":10145:10175   */\n      mstore\n        /* \"#utility.yul\":10211:10245   */\n      0x45524332303a20617070726f766520746f20746865207a65726f206164647265\n        /* \"#utility.yul\":10191:10209   */\n      0x44\n      dup3\n      add\n        /* \"#utility.yul\":10184:10246   */\n      mstore\n      shl(0xf0, 0x7373)\n        /* \"#utility.yul\":10262:10280   */\n      0x64\n      dup3\n      add\n        /* \"#utility.yul\":10255:10287   */\n      mstore\n        /* \"#utility.yul\":10304:10323   */\n      0x84\n      add\n        /* \"@openzeppelin/contracts/token/ERC20/ERC20.sol\":10628:10696   */\n      tag_39\n        /* \"#utility.yul\":9931:10329   */\n      jump\n        /* \"@openzeppelin/contracts/token/ERC20/ERC20.sol\":10628:10696   */\n    tag_304:\n      sub(shl(0xa0, 0x01), 0x01)\n        /* \"@openzeppelin/contracts/token/ERC20/ERC20.sol\":10707:10725   */\n      dup4\n      dup2\n      and\n      0x00\n      dup2\n      dup2\n      mstore\n        /* \"@openzeppelin/contracts/token/ERC20/ERC20.sol\":10707:10718   */\n      0x01\n        /* \"@openzeppelin/contracts/token/ERC20/ERC20.sol\":10707:10725   */\n      0x20\n      swap1\n      dup2\n      mstore\n      0x40\n      dup1\n      dup4\n      keccak256\n        /* \"@openzeppelin/contracts/token/ERC20/ERC20.sol\":10707:10734   */\n      swap5\n      dup8\n      and\n      dup1\n      dup5\n      mstore\n      swap5\n      dup3\n      mstore\n      swap2\n      dup3\n      swap1\n      keccak256\n        /* \"@openzeppelin/contracts/token/ERC20/ERC20.sol\":10707:10743   */\n      dup6\n      swap1\n      sstore\n        /* \"@openzeppelin/contracts/token/ERC20/ERC20.sol\":10758:10790   */\n      swap1\n      mload\n        /* \"#utility.yul\":1593:1618   */\n      dup5\n      dup2\n      mstore\n        /* \"@openzeppelin/contracts/token/ERC20/ERC20.sol\":10758:10790   */\n      0x8c5be1e5ebec7d5bd14f71427d1e84f3dd0314c0f7b2291e5b200ac8c7c3b925\n      swap2\n        /* \"#utility.yul\":1566:1584   */\n      add\n        /* \"@openzeppelin/contracts/token/ERC20/ERC20.sol\":10758:10790   */\n      mload(0x40)\n      dup1\n      swap2\n      sub\n      swap1\n      log3\n        /* \"@openzeppelin/contracts/token/ERC20/ERC20.sol\":10457:10797   */\n      pop\n      pop\n      pop\n      jump\t// out\n        /* \"@openzeppelin/contracts/access/Ownable.sol\":1359:1489   */\n    tag_185:\n        /* \"@openzeppelin/contracts/access/Ownable.sol\":1273:1279   */\n      and(sub(shl(0xa0, 0x01), 0x01), sload(0x05))\n        /* \"@openzeppelin/contracts/utils/Context.sol\":734:744   */\n      caller\n        /* \"@openzeppelin/contracts/access/Ownable.sol\":1422:1445   */\n      eq\n        /* \"@openzeppelin/contracts/access/Ownable.sol\":1414:1482   */\n      tag_223\n      jumpi\n      mload(0x40)\n      shl(0xe5, 0x461bcd)\n      dup2\n      mstore\n        /* \"#utility.yul\":10536:10538   */\n      0x20\n        /* \"@openzeppelin/contracts/access/Ownable.sol\":1414:1482   */\n      0x04\n      dup3\n      add\n        /* \"#utility.yul\":10518:10539   */\n      dup2\n      swap1\n      mstore\n        /* \"#utility.yul\":10555:10573   */\n      0x24\n      dup3\n      add\n        /* \"#utility.yul\":10548:10578   */\n      mstore\n        /* \"#utility.yul\":10614:10648   */\n      0x4f776e61626c653a2063616c6c6572206973206e6f7420746865206f776e6572\n        /* \"#utility.yul\":10594:10612   */\n      0x44\n      dup3\n      add\n        /* \"#utility.yul\":10587:10649   */\n      mstore\n        /* \"#utility.yul\":10666:10684   */\n      0x64\n      add\n        /* \"@openzeppelin/contracts/access/Ownable.sol\":1414:1482   */\n      tag_39\n        /* \"#utility.yul\":10334:10690   */\n      jump\n        /* \"@openzeppelin/contracts/token/ERC20/ERC20.sol\":11078:11489   */\n    tag_192:\n      sub(shl(0xa0, 0x01), 0x01)\n        /* \"@openzeppelin/contracts/token/ERC20/ERC20.sol\":4102:4120   */\n      dup4\n      dup2\n      and\n        /* \"@openzeppelin/contracts/token/ERC20/ERC20.sol\":11178:11202   */\n      0x00\n        /* \"@openzeppelin/contracts/token/ERC20/ERC20.sol\":4102:4120   */\n      swap1\n      dup2\n      mstore\n        /* \"@openzeppelin/contracts/token/ERC20/ERC20.sol\":4102:4113   */\n      0x01\n        /* \"@openzeppelin/contracts/token/ERC20/ERC20.sol\":4102:4120   */\n      0x20\n      swap1\n      dup2\n      mstore\n      0x40\n      dup1\n      dup4\n      keccak256\n        /* \"@openzeppelin/contracts/token/ERC20/ERC20.sol\":4102:4129   */\n      swap4\n      dup7\n      and\n      dup4\n      mstore\n      swap3\n      swap1\n      mstore\n      keccak256\n      sload\n      not(0x00)\n        /* \"@openzeppelin/contracts/token/ERC20/ERC20.sol\":11244:11281   */\n      dup2\n      eq\n        /* \"@openzeppelin/contracts/token/ERC20/ERC20.sol\":11240:11483   */\n      tag_320\n      jumpi\n        /* \"@openzeppelin/contracts/token/ERC20/ERC20.sol\":11325:11331   */\n      dup2\n        /* \"@openzeppelin/contracts/token/ERC20/ERC20.sol\":11305:11321   */\n      dup2\n        /* \"@openzeppelin/contracts/token/ERC20/ERC20.sol\":11305:11331   */\n      lt\n      iszero\n        /* \"@openzeppelin/contracts/token/ERC20/ERC20.sol\":11297:11365   */\n      tag_317\n      jumpi\n      mload(0x40)\n      shl(0xe5, 0x461bcd)\n      dup2\n      mstore\n        /* \"#utility.yul\":10897:10899   */\n      0x20\n        /* \"@openzeppelin/contracts/token/ERC20/ERC20.sol\":11297:11365   */\n      0x04\n      dup3\n      add\n        /* \"#utility.yul\":10879:10900   */\n      mstore\n        /* \"#utility.yul\":10936:10938   */\n      0x1d\n        /* \"#utility.yul\":10916:10934   */\n      0x24\n      dup3\n      add\n        /* \"#utility.yul\":10909:10939   */\n      mstore\n        /* \"#utility.yul\":10975:11006   */\n      0x45524332303a20696e73756666696369656e7420616c6c6f77616e6365000000\n        /* \"#utility.yul\":10955:10973   */\n      0x44\n      dup3\n      add\n        /* \"#utility.yul\":10948:11007   */\n      mstore\n        /* \"#utility.yul\":11024:11042   */\n      0x64\n      add\n        /* \"@openzeppelin/contracts/token/ERC20/ERC20.sol\":11297:11365   */\n      tag_39\n        /* \"#utility.yul\":10695:11048   */\n      jump\n        /* \"@openzeppelin/contracts/token/ERC20/ERC20.sol\":11297:11365   */\n    tag_317:\n        /* \"@openzeppelin/contracts/token/ERC20/ERC20.sol\":11407:11458   */\n      tag_320\n        /* \"@openzeppelin/contracts/token/ERC20/ERC20.sol\":11416:11421   */\n      dup5\n        /* \"@openzeppelin/contracts/token/ERC20/ERC20.sol\":11423:11430   */\n      dup5\n        /* \"@openzeppelin/contracts/token/ERC20/ERC20.sol\":11451:11457   */\n      dup5\n        /* \"@openzeppelin/contracts/token/ERC20/ERC20.sol\":11432:11448   */\n      dup5\n        /* \"@openzeppelin/contracts/token/ERC20/ERC20.sol\":11432:11457   */\n      sub\n        /* \"@openzeppelin/contracts/token/ERC20/ERC20.sol\":11407:11415   */\n      tag_181\n        /* \"@openzeppelin/contracts/token/ERC20/ERC20.sol\":11407:11458   */\n      jump\t// in\n    tag_320:\n        /* \"@openzeppelin/contracts/token/ERC20/ERC20.sol\":11168:11489   */\n      pop\n        /* \"@openzeppelin/contracts/token/ERC20/ERC20.sol\":11078:11489   */\n      pop\n      pop\n      pop\n      jump\t// out\n        /* \"@openzeppelin/contracts/token/ERC20/ERC20.sol\":7456:8244   */\n    tag_194:\n      sub(shl(0xa0, 0x01), 0x01)\n        /* \"@openzeppelin/contracts/token/ERC20/ERC20.sol\":7552:7570   */\n      dup4\n      and\n        /* \"@openzeppelin/contracts/token/ERC20/ERC20.sol\":7544:7612   */\n      tag_322\n      jumpi\n      mload(0x40)\n      shl(0xe5, 0x461bcd)\n      dup2\n      mstore\n        /* \"#utility.yul\":11255:11257   */\n      0x20\n        /* \"@openzeppelin/contracts/token/ERC20/ERC20.sol\":7544:7612   */\n      0x04\n      dup3\n      add\n        /* \"#utility.yul\":11237:11258   */\n      mstore\n        /* \"#utility.yul\":11294:11296   */\n      0x25\n        /* \"#utility.yul\":11274:11292   */\n      0x24\n      dup3\n      add\n        /* \"#utility.yul\":11267:11297   */\n      mstore\n        /* \"#utility.yul\":11333:11367   */\n      0x45524332303a207472616e736665722066726f6d20746865207a65726f206164\n        /* \"#utility.yul\":11313:11331   */\n      0x44\n      dup3\n      add\n        /* \"#utility.yul\":11306:11368   */\n      mstore\n        /* \"#utility.yul\":11404:11411   */\n      0x6472657373000000000000000000000000000000000000000000000000000000\n        /* \"#utility.yul\":11384:11402   */\n      0x64\n      dup3\n      add\n        /* \"#utility.yul\":11377:11412   */\n      mstore\n        /* \"#utility.yul\":11429:11448   */\n      0x84\n      add\n        /* \"@openzeppelin/contracts/token/ERC20/ERC20.sol\":7544:7612   */\n      tag_39\n        /* \"#utility.yul\":11053:11454   */\n      jump\n        /* \"@openzeppelin/contracts/token/ERC20/ERC20.sol\":7544:7612   */\n    tag_322:\n      sub(shl(0xa0, 0x01), 0x01)\n        /* \"@openzeppelin/contracts/token/ERC20/ERC20.sol\":7630:7646   */\n      dup3\n      and\n        /* \"@openzeppelin/contracts/token/ERC20/ERC20.sol\":7622:7686   */\n      tag_325\n      jumpi\n      mload(0x40)\n      shl(0xe5, 0x461bcd)\n      dup2\n      mstore\n        /* \"#utility.yul\":11661:11663   */\n      0x20\n        /* \"@openzeppelin/contracts/token/ERC20/ERC20.sol\":7622:7686   */\n      0x04\n      dup3\n      add\n        /* \"#utility.yul\":11643:11664   */\n      mstore\n        /* \"#utility.yul\":11700:11702   */\n      0x23\n        /* \"#utility.yul\":11680:11698   */\n      0x24\n      dup3\n      add\n        /* \"#utility.yul\":11673:11703   */\n      mstore\n        /* \"#utility.yul\":11739:11773   */\n      0x45524332303a207472616e7366657220746f20746865207a65726f2061646472\n        /* \"#utility.yul\":11719:11737   */\n      0x44\n      dup3\n      add\n        /* \"#utility.yul\":11712:11774   */\n      mstore\n      shl(0xe8, 0x657373)\n        /* \"#utility.yul\":11790:11808   */\n      0x64\n      dup3\n      add\n        /* \"#utility.yul\":11783:11816   */\n      mstore\n        /* \"#utility.yul\":11833:11852   */\n      0x84\n      add\n        /* \"@openzeppelin/contracts/token/ERC20/ERC20.sol\":7622:7686   */\n      tag_39\n        /* \"#utility.yul\":11459:11858   */\n      jump\n        /* \"@openzeppelin/contracts/token/ERC20/ERC20.sol\":7622:7686   */\n    tag_325:\n        /* \"@openzeppelin/contracts/token/ERC20/ERC20.sol\":7697:7735   */\n      tag_328\n        /* \"@openzeppelin/contracts/token/ERC20/ERC20.sol\":7718:7722   */\n      dup4\n        /* \"@openzeppelin/contracts/token/ERC20/ERC20.sol\":7724:7726   */\n      dup4\n        /* \"@openzeppelin/contracts/token/ERC20/ERC20.sol\":7728:7734   */\n      dup4\n        /* \"@openzeppelin/contracts/token/ERC20/ERC20.sol\":7697:7717   */\n      tag_329\n        /* \"@openzeppelin/contracts/token/ERC20/ERC20.sol\":7697:7735   */\n      jump\t// in\n    tag_328:\n      sub(shl(0xa0, 0x01), 0x01)\n        /* \"@openzeppelin/contracts/token/ERC20/ERC20.sol\":7768:7783   */\n      dup4\n      and\n        /* \"@openzeppelin/contracts/token/ERC20/ERC20.sol\":7746:7765   */\n      0x00\n        /* \"@openzeppelin/contracts/token/ERC20/ERC20.sol\":7768:7783   */\n      swap1\n      dup2\n      mstore\n      0x20\n      dup2\n      swap1\n      mstore\n      0x40\n      swap1\n      keccak256\n      sload\n        /* \"@openzeppelin/contracts/token/ERC20/ERC20.sol\":7801:7822   */\n      dup2\n      dup2\n      lt\n      iszero\n        /* \"@openzeppelin/contracts/token/ERC20/ERC20.sol\":7793:7865   */\n      tag_330\n      jumpi\n      mload(0x40)\n      shl(0xe5, 0x461bcd)\n      dup2\n      mstore\n        /* \"#utility.yul\":12065:12067   */\n      0x20\n        /* \"@openzeppelin/contracts/token/ERC20/ERC20.sol\":7793:7865   */\n      0x04\n      dup3\n      add\n        /* \"#utility.yul\":12047:12068   */\n      mstore\n        /* \"#utility.yul\":12104:12106   */\n      0x26\n        /* \"#utility.yul\":12084:12102   */\n      0x24\n      dup3\n      add\n        /* \"#utility.yul\":12077:12107   */\n      mstore\n        /* \"#utility.yul\":12143:12177   */\n      0x45524332303a207472616e7366657220616d6f756e7420657863656564732062\n        /* \"#utility.yul\":12123:12141   */\n      0x44\n      dup3\n      add\n        /* \"#utility.yul\":12116:12178   */\n      mstore\n        /* \"#utility.yul\":12214:12222   */\n      0x616c616e63650000000000000000000000000000000000000000000000000000\n        /* \"#utility.yul\":12194:12212   */\n      0x64\n      dup3\n      add\n        /* \"#utility.yul\":12187:12223   */\n      mstore\n        /* \"#utility.yul\":12240:12259   */\n      0x84\n      add\n        /* \"@openzeppelin/contracts/token/ERC20/ERC20.sol\":7793:7865   */\n      tag_39\n        /* \"#utility.yul\":11863:12265   */\n      jump\n        /* \"@openzeppelin/contracts/token/ERC20/ERC20.sol\":7793:7865   */\n    tag_330:\n      sub(shl(0xa0, 0x01), 0x01)\n        /* \"@openzeppelin/contracts/token/ERC20/ERC20.sol\":7899:7914   */\n      dup5\n      dup2\n      and\n        /* \"@openzeppelin/contracts/token/ERC20/ERC20.sol\":7899:7908   */\n      0x00\n        /* \"@openzeppelin/contracts/token/ERC20/ERC20.sol\":7899:7914   */\n      dup2\n      dup2\n      mstore\n      0x20\n      dup2\n      dup2\n      mstore\n      0x40\n      dup1\n      dup4\n      keccak256\n        /* \"@openzeppelin/contracts/token/ERC20/ERC20.sol\":7917:7937   */\n      dup8\n      dup8\n      sub\n        /* \"@openzeppelin/contracts/token/ERC20/ERC20.sol\":7899:7937   */\n      swap1\n      sstore\n        /* \"@openzeppelin/contracts/token/ERC20/ERC20.sol\":8114:8127   */\n      swap4\n      dup8\n      and\n      dup1\n      dup4\n      mstore\n      swap2\n      dup5\n      swap1\n      keccak256\n        /* \"@openzeppelin/contracts/token/ERC20/ERC20.sol\":8114:8137   */\n      dup1\n      sload\n      dup8\n      add\n      swap1\n      sstore\n        /* \"@openzeppelin/contracts/token/ERC20/ERC20.sol\":8163:8189   */\n      swap3\n      mload\n        /* \"#utility.yul\":1593:1618   */\n      dup6\n      dup2\n      mstore\n        /* \"@openzeppelin/contracts/token/ERC20/ERC20.sol\":8114:8127   */\n      swap1\n      swap3\n        /* \"@openzeppelin/contracts/token/ERC20/ERC20.sol\":8163:8189   */\n      0xddf252ad1be2c89b69c2b068fc378daa952ba7f163c4a11628f55a4df523b3ef\n      swap2\n        /* \"#utility.yul\":1566:1584   */\n      add\n        /* \"@openzeppelin/contracts/token/ERC20/ERC20.sol\":8163:8189   */\n      mload(0x40)\n      dup1\n      swap2\n      sub\n      swap1\n      log3\n        /* \"@openzeppelin/contracts/token/ERC20/ERC20.sol\":8200:8237   */\n      tag_320\n        /* \"hole.sol\":4278:4682  function _beforeTokenTransfer(... */\n      jump\n        /* \"@openzeppelin/contracts/security/ReentrancyGuard.sol\":2336:2623   */\n    tag_210:\n        /* \"@openzeppelin/contracts/security/ReentrancyGuard.sol\":1759:1760   */\n      0x02\n        /* \"@openzeppelin/contracts/security/ReentrancyGuard.sol\":2468:2475   */\n      sload(0x06)\n        /* \"@openzeppelin/contracts/security/ReentrancyGuard.sol\":2468:2487   */\n      sub\n        /* \"@openzeppelin/contracts/security/ReentrancyGuard.sol\":2460:2523   */\n      tag_337\n      jumpi\n      mload(0x40)\n      shl(0xe5, 0x461bcd)\n      dup2\n      mstore\n        /* \"#utility.yul\":12472:12474   */\n      0x20\n        /* \"@openzeppelin/contracts/security/ReentrancyGuard.sol\":2460:2523   */\n      0x04\n      dup3\n      add\n        /* \"#utility.yul\":12454:12475   */\n      mstore\n        /* \"#utility.yul\":12511:12513   */\n      0x1f\n        /* \"#utility.yul\":12491:12509   */\n      0x24\n      dup3\n      add\n        /* \"#utility.yul\":12484:12514   */\n      mstore\n        /* \"#utility.yul\":12550:12583   */\n      0x5265656e7472616e637947756172643a207265656e7472616e742063616c6c00\n        /* \"#utility.yul\":12530:12548   */\n      0x44\n      dup3\n      add\n        /* \"#utility.yul\":12523:12584   */\n      mstore\n        /* \"#utility.yul\":12601:12619   */\n      0x64\n      add\n        /* \"@openzeppelin/contracts/security/ReentrancyGuard.sol\":2460:2523   */\n      tag_39\n        /* \"#utility.yul\":12270:12625   */\n      jump\n        /* \"@openzeppelin/contracts/security/ReentrancyGuard.sol\":2460:2523   */\n    tag_337:\n        /* \"@openzeppelin/contracts/security/ReentrancyGuard.sol\":1759:1760   */\n      0x02\n        /* \"@openzeppelin/contracts/security/ReentrancyGuard.sol\":2598:2605   */\n      0x06\n        /* \"@openzeppelin/contracts/security/ReentrancyGuard.sol\":2598:2616   */\n      sstore\n        /* \"@openzeppelin/contracts/security/ReentrancyGuard.sol\":2336:2623   */\n      jump\t// out\n        /* \"@openzeppelin/contracts/access/Ownable.sol\":2426:2613   */\n    tag_224:\n        /* \"@openzeppelin/contracts/access/Ownable.sol\":2518:2524   */\n      0x05\n      dup1\n      sload\n      sub(shl(0xa0, 0x01), 0x01)\n        /* \"@openzeppelin/contracts/access/Ownable.sol\":2534:2551   */\n      dup4\n      dup2\n      and\n      0xffffffffffffffffffffffff0000000000000000000000000000000000000000\n      dup4\n      and\n      dup2\n      or\n      swap1\n      swap4\n      sstore\n        /* \"@openzeppelin/contracts/access/Ownable.sol\":2566:2606   */\n      mload(0x40)\n        /* \"@openzeppelin/contracts/access/Ownable.sol\":2518:2524   */\n      swap2\n      and\n      swap2\n        /* \"@openzeppelin/contracts/access/Ownable.sol\":2534:2551   */\n      swap1\n        /* \"@openzeppelin/contracts/access/Ownable.sol\":2518:2524   */\n      dup3\n      swap1\n        /* \"@openzeppelin/contracts/access/Ownable.sol\":2566:2606   */\n      0x8be0079c531659141344cd1fd0a4f28419497f9722a3daafe3b4186f6b6457e0\n      swap1\n        /* \"@openzeppelin/contracts/access/Ownable.sol\":2499:2515   */\n      0x00\n      swap1\n        /* \"@openzeppelin/contracts/access/Ownable.sol\":2566:2606   */\n      log3\n        /* \"@openzeppelin/contracts/access/Ownable.sol\":2489:2613   */\n      pop\n        /* \"@openzeppelin/contracts/access/Ownable.sol\":2426:2613   */\n      pop\n      jump\t// out\n        /* \"@openzeppelin/contracts/token/ERC20/ERC20.sol\":8520:9055   */\n    tag_266:\n      sub(shl(0xa0, 0x01), 0x01)\n        /* \"@openzeppelin/contracts/token/ERC20/ERC20.sol\":8603:8624   */\n      dup3\n      and\n        /* \"@openzeppelin/contracts/token/ERC20/ERC20.sol\":8595:8660   */\n      tag_343\n      jumpi\n      mload(0x40)\n      shl(0xe5, 0x461bcd)\n      dup2\n      mstore\n        /* \"#utility.yul\":12832:12834   */\n      0x20\n        /* \"@openzeppelin/contracts/token/ERC20/ERC20.sol\":8595:8660   */\n      0x04\n      dup3\n      add\n        /* \"#utility.yul\":12814:12835   */\n      mstore\n        /* \"#utility.yul\":12871:12873   */\n      0x1f\n        /* \"#utility.yul\":12851:12869   */\n      0x24\n      dup3\n      add\n        /* \"#utility.yul\":12844:12874   */\n      mstore\n        /* \"#utility.yul\":12910:12943   */\n      0x45524332303a206d696e7420746f20746865207a65726f206164647265737300\n        /* \"#utility.yul\":12890:12908   */\n      0x44\n      dup3\n      add\n        /* \"#utility.yul\":12883:12944   */\n      mstore\n        /* \"#utility.yul\":12961:12979   */\n      0x64\n      add\n        /* \"@openzeppelin/contracts/token/ERC20/ERC20.sol\":8595:8660   */\n      tag_39\n        /* \"#utility.yul\":12630:12985   */\n      jump\n        /* \"@openzeppelin/contracts/token/ERC20/ERC20.sol\":8595:8660   */\n    tag_343:\n        /* \"@openzeppelin/contracts/token/ERC20/ERC20.sol\":8671:8720   */\n      tag_346\n        /* \"@openzeppelin/contracts/token/ERC20/ERC20.sol\":8700:8701   */\n      0x00\n        /* \"@openzeppelin/contracts/token/ERC20/ERC20.sol\":8704:8711   */\n      dup4\n        /* \"@openzeppelin/contracts/token/ERC20/ERC20.sol\":8713:8719   */\n      dup4\n        /* \"@openzeppelin/contracts/token/ERC20/ERC20.sol\":8671:8691   */\n      tag_329\n        /* \"@openzeppelin/contracts/token/ERC20/ERC20.sol\":8671:8720   */\n      jump\t// in\n    tag_346:\n        /* \"@openzeppelin/contracts/token/ERC20/ERC20.sol\":8747:8753   */\n      dup1\n        /* \"@openzeppelin/contracts/token/ERC20/ERC20.sol\":8731:8743   */\n      0x02\n      0x00\n        /* \"@openzeppelin/contracts/token/ERC20/ERC20.sol\":8731:8753   */\n      dup3\n      dup3\n      sload\n      tag_347\n      swap2\n      swap1\n      tag_205\n      jump\t// in\n    tag_347:\n      swap1\n      swap2\n      sstore\n      pop\n      pop\n      sub(shl(0xa0, 0x01), 0x01)\n        /* \"@openzeppelin/contracts/token/ERC20/ERC20.sol\":8899:8917   */\n      dup3\n      and\n        /* \"@openzeppelin/contracts/token/ERC20/ERC20.sol\":8899:8908   */\n      0x00\n        /* \"@openzeppelin/contracts/token/ERC20/ERC20.sol\":8899:8917   */\n      dup2\n      dup2\n      mstore\n      0x20\n      dup2\n      dup2\n      mstore\n      0x40\n      dup1\n      dup4\n      keccak256\n        /* \"@openzeppelin/contracts/token/ERC20/ERC20.sol\":8899:8927   */\n      dup1\n      sload\n      dup7\n      add\n      swap1\n      sstore\n        /* \"@openzeppelin/contracts/token/ERC20/ERC20.sol\":8952:8989   */\n      mload\n        /* \"#utility.yul\":1593:1618   */\n      dup5\n      dup2\n      mstore\n        /* \"@openzeppelin/contracts/token/ERC20/ERC20.sol\":8952:8989   */\n      0xddf252ad1be2c89b69c2b068fc378daa952ba7f163c4a11628f55a4df523b3ef\n      swap2\n        /* \"#utility.yul\":1566:1584   */\n      add\n        /* \"@openzeppelin/contracts/token/ERC20/ERC20.sol\":8952:8989   */\n      mload(0x40)\n      dup1\n      swap2\n      sub\n      swap1\n      log3\n        /* \"@openzeppelin/contracts/token/ERC20/ERC20.sol\":8520:9055   */\n      pop\n      pop\n      jump\t// out\n        /* \"hole.sol\":4278:4682  function _beforeTokenTransfer(... */\n    tag_329:\n      sub(shl(0xa0, 0x01), 0x01)\n        /* \"hole.sol\":4564:4582  from != address(0) */\n      dup4\n      and\n      iszero\n      dup1\n      iszero\n      swap1\n        /* \"hole.sol\":4564:4602  from != address(0) && to != address(0) */\n      tag_353\n      jumpi\n      pop\n      sub(shl(0xa0, 0x01), 0x01)\n        /* \"hole.sol\":4586:4602  to != address(0) */\n      dup3\n      and\n      iszero\n      iszero\n        /* \"hole.sol\":4564:4602  from != address(0) && to != address(0) */\n    tag_353:\n        /* \"hole.sol\":4560:4676  if (from != address(0) && to != address(0)) {... */\n      iszero\n      tag_355\n      jumpi\n        /* \"hole.sol\":4626:4642  transfersEnabled */\n      sload(0x08)\n      0x0100\n      swap1\n      div\n      0xff\n      and\n        /* \"hole.sol\":4618:4665  require(transfersEnabled, \"transfers disabled\") */\n      tag_355\n      jumpi\n      mload(0x40)\n      shl(0xe5, 0x461bcd)\n      dup2\n      mstore\n        /* \"#utility.yul\":13192:13194   */\n      0x20\n        /* \"hole.sol\":4618:4665  require(transfersEnabled, \"transfers disabled\") */\n      0x04\n      dup3\n      add\n        /* \"#utility.yul\":13174:13195   */\n      mstore\n        /* \"#utility.yul\":13231:13233   */\n      0x12\n        /* \"#utility.yul\":13211:13229   */\n      0x24\n      dup3\n      add\n        /* \"#utility.yul\":13204:13234   */\n      mstore\n        /* \"#utility.yul\":13270:13290   */\n      0x7472616e73666572732064697361626c65640000000000000000000000000000\n        /* \"#utility.yul\":13250:13268   */\n      0x44\n      dup3\n      add\n        /* \"#utility.yul\":13243:13291   */\n      mstore\n        /* \"#utility.yul\":13308:13326   */\n      0x64\n      add\n        /* \"hole.sol\":4618:4665  require(transfersEnabled, \"transfers disabled\") */\n      tag_39\n        /* \"#utility.yul\":12990:13332   */\n      jump\n        /* \"hole.sol\":4618:4665  require(transfersEnabled, \"transfers disabled\") */\n    tag_355:\n        /* \"hole.sol\":4278:4682  function _beforeTokenTransfer(... */\n      pop\n      pop\n      pop\n      jump\t// out\n        /* \"#utility.yul\":353:771   */\n    tag_48:\n        /* \"#utility.yul\":502:504   */\n      0x20\n        /* \"#utility.yul\":491:500   */\n      dup2\n        /* \"#utility.yul\":484:505   */\n      mstore\n        /* \"#utility.yul\":465:469   */\n      0x00\n        /* \"#utility.yul\":534:540   */\n      dup3\n        /* \"#utility.yul\":528:541   */\n      mload\n        /* \"#utility.yul\":577:583   */\n      dup1\n        /* \"#utility.yul\":572:574   */\n      0x20\n        /* \"#utility.yul\":561:570   */\n      dup5\n        /* \"#utility.yul\":557:575   */\n      add\n        /* \"#utility.yul\":550:584   */\n      mstore\n        /* \"#utility.yul\":636:642   */\n      dup1\n        /* \"#utility.yul\":631:633   */\n      0x20\n        /* \"#utility.yul\":623:629   */\n      dup6\n        /* \"#utility.yul\":619:634   */\n      add\n        /* \"#utility.yul\":614:616   */\n      0x40\n        /* \"#utility.yul\":603:612   */\n      dup6\n        /* \"#utility.yul\":599:617   */\n      add\n        /* \"#utility.yul\":593:643   */\n      mcopy\n        /* \"#utility.yul\":692:693   */\n      0x00\n        /* \"#utility.yul\":687:689   */\n      0x40\n        /* \"#utility.yul\":678:684   */\n      dup3\n        /* \"#utility.yul\":667:676   */\n      dup6\n        /* \"#utility.yul\":663:685   */\n      add\n        /* \"#utility.yul\":659:690   */\n      add\n        /* \"#utility.yul\":652:694   */\n      mstore\n        /* \"#utility.yul\":762:764   */\n      0x40\n        /* \"#utility.yul\":755:757   */\n      0x1f\n        /* \"#utility.yul\":751:758   */\n      not\n        /* \"#utility.yul\":746:748   */\n      0x1f\n        /* \"#utility.yul\":738:744   */\n      dup4\n        /* \"#utility.yul\":734:749   */\n      add\n        /* \"#utility.yul\":730:759   */\n      and\n        /* \"#utility.yul\":719:728   */\n      dup5\n        /* \"#utility.yul\":715:760   */\n      add\n        /* \"#utility.yul\":711:765   */\n      add\n        /* \"#utility.yul\":703:765   */\n      swap2\n      pop\n      pop\n        /* \"#utility.yul\":353:771   */\n      swap3\n      swap2\n      pop\n      pop\n      jump\t// out\n        /* \"#utility.yul\":776:930   */\n    tag_360:\n      sub(shl(0xa0, 0x01), 0x01)\n        /* \"#utility.yul\":855:860   */\n      dup2\n        /* \"#utility.yul\":851:905   */\n      and\n        /* \"#utility.yul\":844:849   */\n      dup2\n        /* \"#utility.yul\":841:906   */\n      eq\n        /* \"#utility.yul\":831:924   */\n      tag_217\n      jumpi\n        /* \"#utility.yul\":920:921   */\n      0x00\n        /* \"#utility.yul\":917:918   */\n      dup1\n        /* \"#utility.yul\":910:922   */\n      revert\n        /* \"#utility.yul\":935:1250   */\n    tag_52:\n        /* \"#utility.yul\":1003:1009   */\n      0x00\n        /* \"#utility.yul\":1011:1017   */\n      dup1\n        /* \"#utility.yul\":1064:1066   */\n      0x40\n        /* \"#utility.yul\":1052:1061   */\n      dup4\n        /* \"#utility.yul\":1043:1050   */\n      dup6\n        /* \"#utility.yul\":1039:1062   */\n      sub\n        /* \"#utility.yul\":1035:1067   */\n      slt\n        /* \"#utility.yul\":1032:1084   */\n      iszero\n      tag_370\n      jumpi\n        /* \"#utility.yul\":1080:1081   */\n      0x00\n        /* \"#utility.yul\":1077:1078   */\n      dup1\n        /* \"#utility.yul\":1070:1082   */\n      revert\n        /* \"#utility.yul\":1032:1084   */\n    tag_370:\n        /* \"#utility.yul\":1119:1128   */\n      dup3\n        /* \"#utility.yul\":1106:1129   */\n      calldataload\n        /* \"#utility.yul\":1138:1169   */\n      tag_371\n        /* \"#utility.yul\":1163:1168   */\n      dup2\n        /* \"#utility.yul\":1138:1169   */\n      tag_360\n      jump\t// in\n    tag_371:\n        /* \"#utility.yul\":1188:1193   */\n      swap5\n        /* \"#utility.yul\":1240:1242   */\n      0x20\n        /* \"#utility.yul\":1225:1243   */\n      swap4\n      swap1\n      swap4\n      add\n        /* \"#utility.yul\":1212:1244   */\n      calldataload\n      swap4\n      pop\n      pop\n      pop\n        /* \"#utility.yul\":935:1250   */\n      jump\t// out\n        /* \"#utility.yul\":1629:1809   */\n    tag_64:\n        /* \"#utility.yul\":1688:1694   */\n      0x00\n        /* \"#utility.yul\":1741:1743   */\n      0x20\n        /* \"#utility.yul\":1729:1738   */\n      dup3\n        /* \"#utility.yul\":1720:1727   */\n      dup5\n        /* \"#utility.yul\":1716:1739   */\n      sub\n        /* \"#utility.yul\":1712:1744   */\n      slt\n        /* \"#utility.yul\":1709:1761   */\n      iszero\n      tag_375\n      jumpi\n        /* \"#utility.yul\":1757:1758   */\n      0x00\n        /* \"#utility.yul\":1754:1755   */\n      dup1\n        /* \"#utility.yul\":1747:1759   */\n      revert\n        /* \"#utility.yul\":1709:1761   */\n    tag_375:\n      pop\n        /* \"#utility.yul\":1780:1803   */\n      calldataload\n      swap2\n        /* \"#utility.yul\":1629:1809   */\n      swap1\n      pop\n      jump\t// out\n        /* \"#utility.yul\":1814:2270   */\n    tag_69:\n        /* \"#utility.yul\":1891:1897   */\n      0x00\n        /* \"#utility.yul\":1899:1905   */\n      dup1\n        /* \"#utility.yul\":1907:1913   */\n      0x00\n        /* \"#utility.yul\":1960:1962   */\n      0x60\n        /* \"#utility.yul\":1948:1957   */\n      dup5\n        /* \"#utility.yul\":1939:1946   */\n      dup7\n        /* \"#utility.yul\":1935:1958   */\n      sub\n        /* \"#utility.yul\":1931:1963   */\n      slt\n        /* \"#utility.yul\":1928:1980   */\n      iszero\n      tag_377\n      jumpi\n        /* \"#utility.yul\":1976:1977   */\n      0x00\n        /* \"#utility.yul\":1973:1974   */\n      dup1\n        /* \"#utility.yul\":1966:1978   */\n      revert\n        /* \"#utility.yul\":1928:1980   */\n    tag_377:\n        /* \"#utility.yul\":2015:2024   */\n      dup4\n        /* \"#utility.yul\":2002:2025   */\n      calldataload\n        /* \"#utility.yul\":2034:2065   */\n      tag_378\n        /* \"#utility.yul\":2059:2064   */\n      dup2\n        /* \"#utility.yul\":2034:2065   */\n      tag_360\n      jump\t// in\n    tag_378:\n        /* \"#utility.yul\":2084:2089   */\n      swap3\n      pop\n        /* \"#utility.yul\":2141:2143   */\n      0x20\n        /* \"#utility.yul\":2126:2144   */\n      dup5\n      add\n        /* \"#utility.yul\":2113:2145   */\n      calldataload\n        /* \"#utility.yul\":2154:2187   */\n      tag_379\n        /* \"#utility.yul\":2113:2145   */\n      dup2\n        /* \"#utility.yul\":2154:2187   */\n      tag_360\n      jump\t// in\n    tag_379:\n        /* \"#utility.yul\":1814:2270   */\n      swap3\n      swap6\n        /* \"#utility.yul\":2206:2213   */\n      swap3\n      swap5\n      pop\n      pop\n      pop\n        /* \"#utility.yul\":2260:2262   */\n      0x40\n        /* \"#utility.yul\":2245:2263   */\n      swap2\n      swap1\n      swap2\n      add\n        /* \"#utility.yul\":2232:2264   */\n      calldataload\n      swap1\n        /* \"#utility.yul\":1814:2270   */\n      jump\t// out\n        /* \"#utility.yul\":2275:2548   */\n    tag_79:\n        /* \"#utility.yul\":2331:2337   */\n      0x00\n        /* \"#utility.yul\":2384:2386   */\n      0x20\n        /* \"#utility.yul\":2372:2381   */\n      dup3\n        /* \"#utility.yul\":2363:2370   */\n      dup5\n        /* \"#utility.yul\":2359:2382   */\n      sub\n        /* \"#utility.yul\":2355:2387   */\n      slt\n        /* \"#utility.yul\":2352:2404   */\n      iszero\n      tag_381\n      jumpi\n        /* \"#utility.yul\":2400:2401   */\n      0x00\n        /* \"#utility.yul\":2397:2398   */\n      dup1\n        /* \"#utility.yul\":2390:2402   */\n      revert\n        /* \"#utility.yul\":2352:2404   */\n    tag_381:\n        /* \"#utility.yul\":2439:2448   */\n      dup2\n        /* \"#utility.yul\":2426:2449   */\n      calldataload\n        /* \"#utility.yul\":2492:2497   */\n      dup1\n        /* \"#utility.yul\":2485:2498   */\n      iszero\n        /* \"#utility.yul\":2478:2499   */\n      iszero\n        /* \"#utility.yul\":2471:2476   */\n      dup2\n        /* \"#utility.yul\":2468:2500   */\n      eq\n        /* \"#utility.yul\":2458:2518   */\n      tag_382\n      jumpi\n        /* \"#utility.yul\":2514:2515   */\n      0x00\n        /* \"#utility.yul\":2511:2512   */\n      dup1\n        /* \"#utility.yul\":2504:2516   */\n      revert\n        /* \"#utility.yul\":2458:2518   */\n    tag_382:\n        /* \"#utility.yul\":2537:2542   */\n      swap4\n        /* \"#utility.yul\":2275:2548   */\n      swap3\n      pop\n      pop\n      pop\n      jump\t// out\n        /* \"#utility.yul\":2742:2997   */\n    tag_94:\n        /* \"#utility.yul\":2809:2815   */\n      0x00\n        /* \"#utility.yul\":2862:2864   */\n      0x20\n        /* \"#utility.yul\":2850:2859   */\n      dup3\n        /* \"#utility.yul\":2841:2848   */\n      dup5\n        /* \"#utility.yul\":2837:2860   */\n      sub\n        /* \"#utility.yul\":2833:2865   */\n      slt\n        /* \"#utility.yul\":2830:2882   */\n      iszero\n      tag_385\n      jumpi\n        /* \"#utility.yul\":2878:2879   */\n      0x00\n        /* \"#utility.yul\":2875:2876   */\n      dup1\n        /* \"#utility.yul\":2868:2880   */\n      revert\n        /* \"#utility.yul\":2830:2882   */\n    tag_385:\n        /* \"#utility.yul\":2917:2926   */\n      dup2\n        /* \"#utility.yul\":2904:2927   */\n      calldataload\n        /* \"#utility.yul\":2936:2967   */\n      tag_382\n        /* \"#utility.yul\":2961:2966   */\n      dup2\n        /* \"#utility.yul\":2936:2967   */\n      tag_360\n      jump\t// in\n        /* \"#utility.yul\":3485:3873   */\n    tag_159:\n        /* \"#utility.yul\":3553:3559   */\n      0x00\n        /* \"#utility.yul\":3561:3567   */\n      dup1\n        /* \"#utility.yul\":3614:3616   */\n      0x40\n        /* \"#utility.yul\":3602:3611   */\n      dup4\n        /* \"#utility.yul\":3593:3600   */\n      dup6\n        /* \"#utility.yul\":3589:3612   */\n      sub\n        /* \"#utility.yul\":3585:3617   */\n      slt\n        /* \"#utility.yul\":3582:3634   */\n      iszero\n      tag_392\n      jumpi\n        /* \"#utility.yul\":3630:3631   */\n      0x00\n        /* \"#utility.yul\":3627:3628   */\n      dup1\n        /* \"#utility.yul\":3620:3632   */\n      revert\n        /* \"#utility.yul\":3582:3634   */\n    tag_392:\n        /* \"#utility.yul\":3669:3678   */\n      dup3\n        /* \"#utility.yul\":3656:3679   */\n      calldataload\n        /* \"#utility.yul\":3688:3719   */\n      tag_393\n        /* \"#utility.yul\":3713:3718   */\n      dup2\n        /* \"#utility.yul\":3688:3719   */\n      tag_360\n      jump\t// in\n    tag_393:\n        /* \"#utility.yul\":3738:3743   */\n      swap2\n      pop\n        /* \"#utility.yul\":3795:3797   */\n      0x20\n        /* \"#utility.yul\":3780:3798   */\n      dup4\n      add\n        /* \"#utility.yul\":3767:3799   */\n      calldataload\n        /* \"#utility.yul\":3808:3841   */\n      tag_394\n        /* \"#utility.yul\":3767:3799   */\n      dup2\n        /* \"#utility.yul\":3808:3841   */\n      tag_360\n      jump\t// in\n    tag_394:\n        /* \"#utility.yul\":3860:3867   */\n      dup1\n        /* \"#utility.yul\":3850:3867   */\n      swap2\n      pop\n      pop\n        /* \"#utility.yul\":3485:3873   */\n      swap3\n      pop\n      swap3\n      swap1\n      pop\n      jump\t// out\n        /* \"#utility.yul\":3878:4258   */\n    tag_172:\n        /* \"#utility.yul\":3957:3958   */\n      0x01\n        /* \"#utility.yul\":3953:3965   */\n      dup2\n      dup2\n      shr\n      swap1\n        /* \"#utility.yul\":4000:4012   */\n      dup3\n      and\n      dup1\n        /* \"#utility.yul\":4021:4082   */\n      tag_396\n      jumpi\n        /* \"#utility.yul\":4075:4079   */\n      0x7f\n        /* \"#utility.yul\":4067:4073   */\n      dup3\n        /* \"#utility.yul\":4063:4080   */\n      and\n        /* \"#utility.yul\":4053:4080   */\n      swap2\n      pop\n        /* \"#utility.yul\":4021:4082   */\n    tag_396:\n        /* \"#utility.yul\":4128:4130   */\n      0x20\n        /* \"#utility.yul\":4120:4126   */\n      dup3\n        /* \"#utility.yul\":4117:4131   */\n      lt\n        /* \"#utility.yul\":4097:4115   */\n      dup2\n        /* \"#utility.yul\":4094:4132   */\n      sub\n        /* \"#utility.yul\":4091:4252   */\n      tag_397\n      jumpi\n        /* \"#utility.yul\":4174:4184   */\n      0x4e487b71\n        /* \"#utility.yul\":4169:4172   */\n      0xe0\n        /* \"#utility.yul\":4165:4185   */\n      shl\n        /* \"#utility.yul\":4162:4163   */\n      0x00\n        /* \"#utility.yul\":4155:4186   */\n      mstore\n        /* \"#utility.yul\":4209:4213   */\n      0x22\n        /* \"#utility.yul\":4206:4207   */\n      0x04\n        /* \"#utility.yul\":4199:4214   */\n      mstore\n        /* \"#utility.yul\":4237:4241   */\n      0x24\n        /* \"#utility.yul\":4234:4235   */\n      0x00\n        /* \"#utility.yul\":4227:4242   */\n      revert\n        /* \"#utility.yul\":4091:4252   */\n    tag_397:\n      pop\n        /* \"#utility.yul\":3878:4258   */\n      swap2\n      swap1\n      pop\n      jump\t// out\n        /* \"#utility.yul\":4516:4643   */\n    tag_361:\n        /* \"#utility.yul\":4577:4587   */\n      0x4e487b71\n        /* \"#utility.yul\":4572:4575   */\n      0xe0\n        /* \"#utility.yul\":4568:4588   */\n      shl\n        /* \"#utility.yul\":4565:4566   */\n      0x00\n        /* \"#utility.yul\":4558:4589   */\n      mstore\n        /* \"#utility.yul\":4608:4612   */\n      0x11\n        /* \"#utility.yul\":4605:4606   */\n      0x04\n        /* \"#utility.yul\":4598:4613   */\n      mstore\n        /* \"#utility.yul\":4632:4636   */\n      0x24\n        /* \"#utility.yul\":4629:4630   */\n      0x00\n        /* \"#utility.yul\":4622:4637   */\n      revert\n        /* \"#utility.yul\":4648:4773   */\n    tag_205:\n        /* \"#utility.yul\":4713:4722   */\n      dup1\n      dup3\n      add\n        /* \"#utility.yul\":4734:4744   */\n      dup1\n      dup3\n      gt\n        /* \"#utility.yul\":4731:4767   */\n      iszero\n      tag_177\n      jumpi\n        /* \"#utility.yul\":4747:4765   */\n      tag_177\n      tag_361\n      jump\t// in\n        /* \"#utility.yul\":6134:6302   */\n    tag_251:\n        /* \"#utility.yul\":6207:6216   */\n      dup1\n      dup3\n      mul\n        /* \"#utility.yul\":6238:6247   */\n      dup2\n      iszero\n        /* \"#utility.yul\":6255:6270   */\n      dup3\n      dup3\n      div\n        /* \"#utility.yul\":6249:6271   */\n      dup5\n      eq\n        /* \"#utility.yul\":6235:6272   */\n      or\n        /* \"#utility.yul\":6225:6296   */\n      tag_177\n      jumpi\n        /* \"#utility.yul\":6276:6294   */\n      tag_177\n      tag_361\n      jump\t// in\n        /* \"#utility.yul\":6649:7065   */\n    tag_362:\n        /* \"#utility.yul\":6738:6739   */\n      0x01\n        /* \"#utility.yul\":6775:6780   */\n      dup2\n        /* \"#utility.yul\":6738:6739   */\n      dup2\n        /* \"#utility.yul\":6789:7059   */\n    tag_412:\n        /* \"#utility.yul\":6810:6817   */\n      dup1\n        /* \"#utility.yul\":6800:6808   */\n      dup6\n        /* \"#utility.yul\":6797:6818   */\n      gt\n        /* \"#utility.yul\":6789:7059   */\n      iszero\n      tag_414\n      jumpi\n        /* \"#utility.yul\":6869:6873   */\n      dup2\n        /* \"#utility.yul\":6865:6866   */\n      0x00\n        /* \"#utility.yul\":6861:6867   */\n      not\n        /* \"#utility.yul\":6857:6874   */\n      div\n        /* \"#utility.yul\":6851:6855   */\n      dup3\n        /* \"#utility.yul\":6848:6875   */\n      gt\n        /* \"#utility.yul\":6845:6898   */\n      iszero\n      tag_416\n      jumpi\n        /* \"#utility.yul\":6878:6896   */\n      tag_416\n      tag_361\n      jump\t// in\n    tag_416:\n        /* \"#utility.yul\":6928:6935   */\n      dup1\n        /* \"#utility.yul\":6918:6926   */\n      dup6\n        /* \"#utility.yul\":6914:6936   */\n      and\n        /* \"#utility.yul\":6911:6966   */\n      iszero\n      tag_417\n      jumpi\n        /* \"#utility.yul\":6948:6964   */\n      swap2\n      dup2\n      mul\n      swap2\n        /* \"#utility.yul\":6911:6966   */\n    tag_417:\n        /* \"#utility.yul\":7027:7049   */\n      swap4\n      dup5\n      shr\n      swap4\n        /* \"#utility.yul\":6987:7002   */\n      swap1\n      dup1\n      mul\n      swap1\n        /* \"#utility.yul\":6789:7059   */\n      jump(tag_412)\n    tag_414:\n        /* \"#utility.yul\":6793:6796   */\n      pop\n        /* \"#utility.yul\":6649:7065   */\n      swap3\n      pop\n      swap3\n      swap1\n      pop\n      jump\t// out\n        /* \"#utility.yul\":7070:7876   */\n    tag_363:\n        /* \"#utility.yul\":7119:7124   */\n      0x00\n        /* \"#utility.yul\":7149:7157   */\n      dup3\n        /* \"#utility.yul\":7139:7219   */\n      tag_419\n      jumpi\n      pop\n        /* \"#utility.yul\":7190:7191   */\n      0x01\n        /* \"#utility.yul\":7204:7209   */\n      jump(tag_177)\n        /* \"#utility.yul\":7139:7219   */\n    tag_419:\n        /* \"#utility.yul\":7238:7242   */\n      dup2\n        /* \"#utility.yul\":7228:7304   */\n      tag_420\n      jumpi\n      pop\n        /* \"#utility.yul\":7275:7276   */\n      0x00\n        /* \"#utility.yul\":7289:7294   */\n      jump(tag_177)\n        /* \"#utility.yul\":7228:7304   */\n    tag_420:\n        /* \"#utility.yul\":7320:7324   */\n      dup2\n        /* \"#utility.yul\":7338:7339   */\n      0x01\n        /* \"#utility.yul\":7333:7392   */\n      dup2\n      eq\n      tag_422\n      jumpi\n        /* \"#utility.yul\":7406:7407   */\n      0x02\n        /* \"#utility.yul\":7401:7531   */\n      dup2\n      eq\n      tag_423\n      jumpi\n        /* \"#utility.yul\":7313:7531   */\n      jump(tag_421)\n        /* \"#utility.yul\":7333:7392   */\n    tag_422:\n        /* \"#utility.yul\":7363:7364   */\n      0x01\n        /* \"#utility.yul\":7354:7364   */\n      swap2\n      pop\n        /* \"#utility.yul\":7377:7382   */\n      pop\n      jump(tag_177)\n        /* \"#utility.yul\":7401:7531   */\n    tag_423:\n        /* \"#utility.yul\":7438:7441   */\n      0xff\n        /* \"#utility.yul\":7428:7436   */\n      dup5\n        /* \"#utility.yul\":7425:7442   */\n      gt\n        /* \"#utility.yul\":7422:7465   */\n      iszero\n      tag_425\n      jumpi\n        /* \"#utility.yul\":7445:7463   */\n      tag_425\n      tag_361\n      jump\t// in\n    tag_425:\n      pop\n      pop\n        /* \"#utility.yul\":7501:7502   */\n      0x01\n        /* \"#utility.yul\":7487:7503   */\n      dup3\n      shl\n        /* \"#utility.yul\":7516:7521   */\n      jump(tag_177)\n        /* \"#utility.yul\":7313:7531   */\n    tag_421:\n      pop\n        /* \"#utility.yul\":7615:7617   */\n      0x20\n        /* \"#utility.yul\":7605:7613   */\n      dup4\n        /* \"#utility.yul\":7602:7618   */\n      lt\n        /* \"#utility.yul\":7596:7599   */\n      0x0133\n        /* \"#utility.yul\":7590:7594   */\n      dup4\n        /* \"#utility.yul\":7587:7600   */\n      lt\n        /* \"#utility.yul\":7583:7619   */\n      and\n        /* \"#utility.yul\":7577:7579   */\n      0x4e\n        /* \"#utility.yul\":7567:7575   */\n      dup5\n        /* \"#utility.yul\":7564:7580   */\n      lt\n        /* \"#utility.yul\":7559:7561   */\n      0x0b\n        /* \"#utility.yul\":7553:7557   */\n      dup5\n        /* \"#utility.yul\":7550:7562   */\n      lt\n        /* \"#utility.yul\":7546:7581   */\n      and\n        /* \"#utility.yul\":7543:7620   */\n      or\n        /* \"#utility.yul\":7540:7699   */\n      iszero\n      tag_426\n      jumpi\n      pop\n        /* \"#utility.yul\":7652:7671   */\n      dup2\n      dup2\n      exp\n        /* \"#utility.yul\":7684:7689   */\n      jump(tag_177)\n        /* \"#utility.yul\":7540:7699   */\n    tag_426:\n        /* \"#utility.yul\":7731:7765   */\n      tag_427\n        /* \"#utility.yul\":7756:7764   */\n      dup4\n        /* \"#utility.yul\":7750:7754   */\n      dup4\n        /* \"#utility.yul\":7731:7765   */\n      tag_362\n      jump\t// in\n    tag_427:\n        /* \"#utility.yul\":7801:7807   */\n      dup1\n        /* \"#utility.yul\":7797:7798   */\n      0x00\n        /* \"#utility.yul\":7793:7799   */\n      not\n        /* \"#utility.yul\":7789:7808   */\n      div\n        /* \"#utility.yul\":7780:7787   */\n      dup3\n        /* \"#utility.yul\":7777:7809   */\n      gt\n        /* \"#utility.yul\":7774:7832   */\n      iszero\n      tag_429\n      jumpi\n        /* \"#utility.yul\":7812:7830   */\n      tag_429\n      tag_361\n      jump\t// in\n    tag_429:\n        /* \"#utility.yul\":7850:7870   */\n      mul\n      swap4\n        /* \"#utility.yul\":7070:7876   */\n      swap3\n      pop\n      pop\n      pop\n      jump\t// out\n        /* \"#utility.yul\":7881:8012   */\n    tag_257:\n        /* \"#utility.yul\":7941:7946   */\n      0x00\n        /* \"#utility.yul\":7970:8006   */\n      tag_382\n        /* \"#utility.yul\":7997:8005   */\n      dup4\n        /* \"#utility.yul\":7991:7995   */\n      dup4\n        /* \"#utility.yul\":7970:8006   */\n      tag_363\n      jump\t// in\n        /* \"#utility.yul\":8764:8892   */\n    tag_284:\n        /* \"#utility.yul\":8831:8840   */\n      dup2\n      dup2\n      sub\n        /* \"#utility.yul\":8852:8863   */\n      dup2\n      dup2\n      gt\n        /* \"#utility.yul\":8849:8886   */\n      iszero\n      tag_177\n      jumpi\n        /* \"#utility.yul\":8866:8884   */\n      tag_177\n      tag_361\n      jump\t// in\n        /* \"#utility.yul\":8897:9114   */\n    tag_286:\n        /* \"#utility.yul\":8937:8938   */\n      0x00\n        /* \"#utility.yul\":8963:8964   */\n      dup3\n        /* \"#utility.yul\":8953:9085   */\n      tag_438\n      jumpi\n        /* \"#utility.yul\":9007:9017   */\n      0x4e487b71\n        /* \"#utility.yul\":9002:9005   */\n      0xe0\n        /* \"#utility.yul\":8998:9018   */\n      shl\n        /* \"#utility.yul\":8995:8996   */\n      0x00\n        /* \"#utility.yul\":8988:9019   */\n      mstore\n        /* \"#utility.yul\":9042:9046   */\n      0x12\n        /* \"#utility.yul\":9039:9040   */\n      0x04\n        /* \"#utility.yul\":9032:9047   */\n      mstore\n        /* \"#utility.yul\":9070:9074   */\n      0x24\n        /* \"#utility.yul\":9067:9068   */\n      0x00\n        /* \"#utility.yul\":9060:9075   */\n      revert\n        /* \"#utility.yul\":8953:9085   */\n    tag_438:\n      pop\n        /* \"#utility.yul\":9099:9108   */\n      div\n      swap1\n        /* \"#utility.yul\":8897:9114   */\n      jump\t// out\n\n    auxdata: 0xa2646970667358221220b88c97e63adcee36fd01eec433fa0781703c53462e8e30c848c0e511be2655ad64736f6c63430008190033\n}\n",
    "bytecode": {
      "linkReferences": {},
      "object": "60a06040526008805461ffff1916600117905534801561001d575f80fd5b50604051611a2c380380611a2c83398101604081905261003c916101a5565b604080518082018252600480825263484f4c4560e01b60208084018290528451808601909552918452908301529060036100768382610285565b5060046100838282610285565b50505061009c61009761015060201b60201c565b610154565b6001600655826100db5760405162461bcd60e51b815260206004820152600560248201526406361703d360dc1b60448201526064015b60405180910390fd5b6001600160a01b03821661011b5760405162461bcd60e51b815260206004820152600760248201526606f776e65723d360cc1b60448201526064016100d2565b600784905561012c6012600a61043a565b610136908461044c565b608052600981905561014782610154565b50505050610463565b3390565b600580546001600160a01b038381166001600160a01b0319831681179093556040519116919082907f8be0079c531659141344cd1fd0a4f28419497f9722a3daafe3b4186f6b6457e0905f90a35050565b5f805f80608085870312156101b8575f80fd5b84516020860151604087015191955093506001600160a01b03811681146101dd575f80fd5b6060959095015193969295505050565b634e487b7160e01b5f52604160045260245ffd5b600181811c9082168061021557607f821691505b60208210810361023357634e487b7160e01b5f52602260045260245ffd5b50919050565b601f82111561028057805f5260205f20601f840160051c8101602085101561025e5750805b601f840160051c820191505b8181101561027d575f815560010161026a565b50505b505050565b81516001600160401b0381111561029e5761029e6101ed565b6102b2816102ac8454610201565b84610239565b602080601f8311600181146102e5575f84156102ce5750858301515b5f19600386901b1c1916600185901b17855561033c565b5f85815260208120601f198616915b82811015610313578886015182559484019460019091019084016102f4565b508582101561033057878501515f19600388901b60f8161c191681555b505060018460011b0185555b505050505050565b634e487b7160e01b5f52601160045260245ffd5b600181815b8085111561039257815f190482111561037857610378610344565b8085161561038557918102915b93841c939080029061035d565b509250929050565b5f826103a857506001610434565b816103b457505f610434565b81600181146103ca57600281146103d4576103f0565b6001915050610434565b60ff8411156103e5576103e5610344565b50506001821b610434565b5060208310610133831016604e8410600b8410161715610413575081810a610434565b61041d8383610358565b805f190482111561043057610430610344565b0290505b92915050565b5f610445838361039a565b9392505050565b808202811582820484141761043457610434610344565b6080516115a36104895f395f81816104f6015281816109dc0152610b9d01526115a35ff3fe6080604052600436106101af575f3560e01c806391b7f5ed116100eb578063cb2fb89c11610089578063d5abeb0111610063578063d5abeb01146104e5578063dd62ed3e14610518578063f2fde38b1461055c578063f8004d311461057b576101ee565b8063cb2fb89c14610490578063cbd3e753146104a5578063cd742793146104d0576101ee565b8063a457c2d7116100c5578063a457c2d714610420578063a9059cbb1461043f578063b31f8f931461045e578063bef97c8714610472576101ee565b806391b7f5ed146103da57806395d89b41146103f9578063a0712d681461040d576101ee565b806326b9ce131161015857806351cff8d91161013257806351cff8d91461034c57806370a082311461036b578063715018a61461039f5780638da5cb5b146103b3576101ee565b806326b9ce13146102f3578063313ce56714610312578063395093511461032d576101ee565b80631eae99c5116101895780631eae99c51461029a57806323b872dd146102bb57806324bbd049146102da576101ee565b806306fdde0314610223578063095ea7b31461024d57806318160ddd1461027c576101ee565b366101ee5760405162461bcd60e51b815260206004820152600a602482015269557365206d696e74282960b01b60448201526064015b60405180910390fd5b60405162461bcd60e51b815260206004820152600a602482015269557365206d696e74282960b01b60448201526064016101e5565b34801561022e575f80fd5b5061023761059a565b604051610244919061129a565b60405180910390f35b348015610258575f80fd5b5061026c6102673660046112e3565b61062a565b6040519015158152602001610244565b348015610287575f80fd5b506002545b604051908152602001610244565b3480156102a5575f80fd5b506102b96102b436600461130d565b610643565b005b3480156102c6575f80fd5b5061026c6102d5366004611324565b610691565b3480156102e5575f80fd5b5060085461026c9060ff1681565b3480156102fe575f80fd5b506102b961030d366004611362565b6106b4565b34801561031d575f80fd5b5060405160128152602001610244565b348015610338575f80fd5b5061026c6103473660046112e3565b610710565b348015610357575f80fd5b506102b9610366366004611388565b61074e565b348015610376575f80fd5b5061028c610385366004611388565b6001600160a01b03165f9081526020819052604090205490565b3480156103aa575f80fd5b506102b96107dd565b3480156103be575f80fd5b506005546040516001600160a01b039091168152602001610244565b3480156103e5575f80fd5b506102b96103f436600461130d565b6107f0565b348015610404575f80fd5b50610237610836565b6102b961041b36600461130d565b610845565b34801561042b575f80fd5b5061026c61043a3660046112e3565b610ad1565b34801561044a575f80fd5b5061026c6104593660046112e3565b610b7a565b348015610469575f80fd5b5061028c610b87565b34801561047d575f80fd5b5060085461026c90610100900460ff1681565b34801561049b575f80fd5b5061028c60095481565b3480156104b0575f80fd5b5061028c6104bf366004611388565b600a6020525f908152604090205481565b3480156104db575f80fd5b5061028c60075481565b3480156104f0575f80fd5b5061028c7f000000000000000000000000000000000000000000000000000000000000000081565b348015610523575f80fd5b5061028c6105323660046113a3565b6001600160a01b039182165f90815260016020908152604080832093909416825291909152205490565b348015610567575f80fd5b506102b9610576366004611388565b610bd0565b348015610586575f80fd5b506102b9610595366004611362565b610c5d565b6060600380546105a9906113da565b80601f01602080910402602001604051908101604052809291908181526020018280546105d5906113da565b80156106205780601f106105f757610100808354040283529160200191610620565b820191905f5260205f20905b81548152906001019060200180831161060357829003601f168201915b5050505050905090565b5f33610637818585610ca6565b60019150505b92915050565b61064b610dc9565b600980549082905560408051828152602081018490527f071795f06cf09b4d835204ba653f74e76d61a5641023b115ae926669830497c091015b60405180910390a15050565b5f3361069e858285610e23565b6106a9858585610eb3565b506001949350505050565b6106bc610dc9565b600880548215156101000261ff00199091161790556040517f3f0522fb4345c29729658df56a8b87c4360593a277942cc15cdf0418660586909061070590831515815260200190565b60405180910390a150565b335f8181526001602090815260408083206001600160a01b03871684529091528120549091906106379082908690610749908790611426565b610ca6565b610756610dc9565b61075e61108f565b6001600160a01b03811661079d5760405162461bcd60e51b81526004016101e5906020808252600490820152630746f3d360e41b604082015260600190565b6040516001600160a01b038216904780156108fc02915f818181858888f193505050501580156107cf573d5f803e3d5ffd5b506107da6001600655565b50565b6107e5610dc9565b6107ee5f6110e8565b565b6107f8610dc9565b600780549082905560408051828152602081018490527f8aa4fa52648a6d15edce8a179c792c86f3719d0cc3c572cf90f91948f0f2cb689101610685565b6060600480546105a9906113da565b61084d61108f565b60085460ff1661089f5760405162461bcd60e51b815260206004820152600b60248201527f6d696e742070617573656400000000000000000000000000000000000000000060448201526064016101e5565b5f81116108ee5760405162461bcd60e51b815260206004820152600860248201527f616d6f756e743d3000000000000000000000000000000000000000000000000060448201526064016101e5565b6009541561096157600954335f908152600a6020526040902054610913908390611426565b11156109615760405162461bcd60e51b815260206004820152601360248201527f77616c6c6574206361702065786365656465640000000000000000000000000060448201526064016101e5565b5f816007546109709190611439565b90508034146109c15760405162461bcd60e51b815260206004820152600d60248201527f696e636f7272656374204554480000000000000000000000000000000000000060448201526064016101e5565b5f6109ce6012600a611530565b6109d89084611439565b90507f000000000000000000000000000000000000000000000000000000000000000081610a0560025490565b610a0f9190611426565b1115610a5d5760405162461bcd60e51b815260206004820152600c60248201527f636170206578636565646564000000000000000000000000000000000000000060448201526064016101e5565b335f908152600a602052604081208054859290610a7b908490611426565b90915550610a8b90503382611151565b6040805184815234602082015233917f25b428dfde728ccfaddad7e29e4ac23c24ed7fd1a6e3e3f91894a9a073f5dfff910160405180910390a250506107da6001600655565b335f8181526001602090815260408083206001600160a01b038716845290915281205490919083811015610b6d5760405162461bcd60e51b815260206004820152602560248201527f45524332303a2064656372656173656420616c6c6f77616e63652062656c6f7760448201527f207a65726f00000000000000000000000000000000000000000000000000000060648201526084016101e5565b6106a98286868403610ca6565b5f33610637818585610eb3565b5f610b946012600a611530565b600254610bc1907f000000000000000000000000000000000000000000000000000000000000000061153b565b610bcb919061154e565b905090565b610bd8610dc9565b6001600160a01b038116610c545760405162461bcd60e51b815260206004820152602660248201527f4f776e61626c653a206e6577206f776e657220697320746865207a65726f206160448201527f646472657373000000000000000000000000000000000000000000000000000060648201526084016101e5565b6107da816110e8565b610c65610dc9565b6008805460ff19168215159081179091556040519081527fa9f739ee29a6336acdfe5b044a6dce0d70579031be6dbdece2ac0848d8c2a08090602001610705565b6001600160a01b038316610d085760405162461bcd60e51b8152602060048201526024808201527f45524332303a20617070726f76652066726f6d20746865207a65726f206164646044820152637265737360e01b60648201526084016101e5565b6001600160a01b038216610d695760405162461bcd60e51b815260206004820152602260248201527f45524332303a20617070726f766520746f20746865207a65726f206164647265604482015261737360f01b60648201526084016101e5565b6001600160a01b038381165f8181526001602090815260408083209487168084529482529182902085905590518481527f8c5be1e5ebec7d5bd14f71427d1e84f3dd0314c0f7b2291e5b200ac8c7c3b925910160405180910390a3505050565b6005546001600160a01b031633146107ee5760405162461bcd60e51b815260206004820181905260248201527f4f776e61626c653a2063616c6c6572206973206e6f7420746865206f776e657260448201526064016101e5565b6001600160a01b038381165f908152600160209081526040808320938616835292905220545f198114610ead5781811015610ea05760405162461bcd60e51b815260206004820152601d60248201527f45524332303a20696e73756666696369656e7420616c6c6f77616e636500000060448201526064016101e5565b610ead8484848403610ca6565b50505050565b6001600160a01b038316610f2f5760405162461bcd60e51b815260206004820152602560248201527f45524332303a207472616e736665722066726f6d20746865207a65726f20616460448201527f647265737300000000000000000000000000000000000000000000000000000060648201526084016101e5565b6001600160a01b038216610f915760405162461bcd60e51b815260206004820152602360248201527f45524332303a207472616e7366657220746f20746865207a65726f206164647260448201526265737360e81b60648201526084016101e5565b610f9c838383611219565b6001600160a01b0383165f908152602081905260409020548181101561102a5760405162461bcd60e51b815260206004820152602660248201527f45524332303a207472616e7366657220616d6f756e742065786365656473206260448201527f616c616e6365000000000000000000000000000000000000000000000000000060648201526084016101e5565b6001600160a01b038481165f81815260208181526040808320878703905593871680835291849020805487019055925185815290927fddf252ad1be2c89b69c2b068fc378daa952ba7f163c4a11628f55a4df523b3ef910160405180910390a3610ead565b6002600654036110e15760405162461bcd60e51b815260206004820152601f60248201527f5265656e7472616e637947756172643a207265656e7472616e742063616c6c0060448201526064016101e5565b6002600655565b600580546001600160a01b038381167fffffffffffffffffffffffff0000000000000000000000000000000000000000831681179093556040519116919082907f8be0079c531659141344cd1fd0a4f28419497f9722a3daafe3b4186f6b6457e0905f90a35050565b6001600160a01b0382166111a75760405162461bcd60e51b815260206004820152601f60248201527f45524332303a206d696e7420746f20746865207a65726f20616464726573730060448201526064016101e5565b6111b25f8383611219565b8060025f8282546111c39190611426565b90915550506001600160a01b0382165f81815260208181526040808320805486019055518481527fddf252ad1be2c89b69c2b068fc378daa952ba7f163c4a11628f55a4df523b3ef910160405180910390a35050565b6001600160a01b0383161580159061123957506001600160a01b03821615155b1561129557600854610100900460ff166112955760405162461bcd60e51b815260206004820152601260248201527f7472616e73666572732064697361626c6564000000000000000000000000000060448201526064016101e5565b505050565b602081525f82518060208401528060208501604085015e5f604082850101526040601f19601f83011684010191505092915050565b6001600160a01b03811681146107da575f80fd5b5f80604083850312156112f4575f80fd5b82356112ff816112cf565b946020939093013593505050565b5f6020828403121561131d575f80fd5b5035919050565b5f805f60608486031215611336575f80fd5b8335611341816112cf565b92506020840135611351816112cf565b929592945050506040919091013590565b5f60208284031215611372575f80fd5b81358015158114611381575f80fd5b9392505050565b5f60208284031215611398575f80fd5b8135611381816112cf565b5f80604083850312156113b4575f80fd5b82356113bf816112cf565b915060208301356113cf816112cf565b809150509250929050565b600181811c908216806113ee57607f821691505b60208210810361140c57634e487b7160e01b5f52602260045260245ffd5b50919050565b634e487b7160e01b5f52601160045260245ffd5b8082018082111561063d5761063d611412565b808202811582820484141761063d5761063d611412565b600181815b8085111561148a57815f190482111561147057611470611412565b8085161561147d57918102915b93841c9390800290611455565b509250929050565b5f826114a05750600161063d565b816114ac57505f61063d565b81600181146114c257600281146114cc576114e8565b600191505061063d565b60ff8411156114dd576114dd611412565b50506001821b61063d565b5060208310610133831016604e8410600b841016171561150b575081810a61063d565b6115158383611450565b805f190482111561152857611528611412565b029392505050565b5f6113818383611492565b8181038181111561063d5761063d611412565b5f8261156857634e487b7160e01b5f52601260045260245ffd5b50049056fea2646970667358221220b88c97e63adcee36fd01eec433fa0781703c53462e8e30c848c0e511be2655ad64736f6c63430008190033",
      "opcodes": "PUSH1 0xA0 PUSH1 0x40 MSTORE PUSH1 0x8 DUP1 SLOAD PUSH2 0xFFFF NOT AND PUSH1 0x1 OR SWAP1 SSTORE CALLVALUE DUP1 ISZERO PUSH2 0x1D JUMPI PUSH0 DUP1 REVERT JUMPDEST POP PUSH1 0x40 MLOAD PUSH2 0x1A2C CODESIZE SUB DUP1 PUSH2 0x1A2C DUP4 CODECOPY DUP2 ADD PUSH1 0x40 DUP2 SWAP1 MSTORE PUSH2 0x3C SWAP2 PUSH2 0x1A5 JUMP JUMPDEST PUSH1 0x40 DUP1 MLOAD DUP1 DUP3 ADD DUP3 MSTORE PUSH1 0x4 DUP1 DUP3 MSTORE PUSH4 0x484F4C45 PUSH1 0xE0 SHL PUSH1 0x20 DUP1 DUP5 ADD DUP3 SWAP1 MSTORE DUP5 MLOAD DUP1 DUP7 ADD SWAP1 SWAP6 MSTORE SWAP2 DUP5 MSTORE SWAP1 DUP4 ADD MSTORE SWAP1 PUSH1 0x3 PUSH2 0x76 DUP4 DUP3 PUSH2 0x285 JUMP JUMPDEST POP PUSH1 0x4 PUSH2 0x83 DUP3 DUP3 PUSH2 0x285 JUMP JUMPDEST POP POP POP PUSH2 0x9C PUSH2 0x97 PUSH2 0x150 PUSH1 0x20 SHL PUSH1 0x20 SHR JUMP JUMPDEST PUSH2 0x154 JUMP JUMPDEST PUSH1 0x1 PUSH1 0x6 SSTORE DUP3 PUSH2 0xDB JUMPI PUSH1 0x40 MLOAD PUSH3 0x461BCD PUSH1 0xE5 SHL DUP2 MSTORE PUSH1 0x20 PUSH1 0x4 DUP3 ADD MSTORE PUSH1 0x5 PUSH1 0x24 DUP3 ADD MSTORE PUSH5 0x6361703D3 PUSH1 0xDC SHL PUSH1 0x44 DUP3 ADD MSTORE PUSH1 0x64 ADD JUMPDEST PUSH1 0x40 MLOAD DUP1 SWAP2 SUB SWAP1 REVERT JUMPDEST PUSH1 0x1 PUSH1 0x1 PUSH1 0xA0 SHL SUB DUP3 AND PUSH2 0x11B JUMPI PUSH1 0x40 MLOAD PUSH3 0x461BCD PUSH1 0xE5 SHL DUP2 MSTORE PUSH1 0x20 PUSH1 0x4 DUP3 ADD MSTORE PUSH1 0x7 PUSH1 0x24 DUP3 ADD MSTORE PUSH7 0x6F776E65723D3 PUSH1 0xCC SHL PUSH1 0x44 DUP3 ADD MSTORE PUSH1 0x64 ADD PUSH2 0xD2 JUMP JUMPDEST PUSH1 0x7 DUP5 SWAP1 SSTORE PUSH2 0x12C PUSH1 0x12 PUSH1 0xA PUSH2 0x43A JUMP JUMPDEST PUSH2 0x136 SWAP1 DUP5 PUSH2 0x44C JUMP JUMPDEST PUSH1 0x80 MSTORE PUSH1 0x9 DUP2 SWAP1 SSTORE PUSH2 0x147 DUP3 PUSH2 0x154 JUMP JUMPDEST POP POP POP POP PUSH2 0x463 JUMP JUMPDEST CALLER SWAP1 JUMP JUMPDEST PUSH1 0x5 DUP1 SLOAD PUSH1 0x1 PUSH1 0x1 PUSH1 0xA0 SHL SUB DUP4 DUP2 AND PUSH1 0x1 PUSH1 0x1 PUSH1 0xA0 SHL SUB NOT DUP4 AND DUP2 OR SWAP1 SWAP4 SSTORE PUSH1 0x40 MLOAD SWAP2 AND SWAP2 SWAP1 DUP3 SWAP1 PUSH32 0x8BE0079C531659141344CD1FD0A4F28419497F9722A3DAAFE3B4186F6B6457E0 SWAP1 PUSH0 SWAP1 LOG3 POP POP JUMP JUMPDEST PUSH0 DUP1 PUSH0 DUP1 PUSH1 0x80 DUP6 DUP8 SUB SLT ISZERO PUSH2 0x1B8 JUMPI PUSH0 DUP1 REVERT JUMPDEST DUP5 MLOAD PUSH1 0x20 DUP7 ADD MLOAD PUSH1 0x40 DUP8 ADD MLOAD SWAP2 SWAP6 POP SWAP4 POP PUSH1 0x1 PUSH1 0x1 PUSH1 0xA0 SHL SUB DUP2 AND DUP2 EQ PUSH2 0x1DD JUMPI PUSH0 DUP1 REVERT JUMPDEST PUSH1 0x60 SWAP6 SWAP1 SWAP6 ADD MLOAD SWAP4 SWAP7 SWAP3 SWAP6 POP POP POP JUMP JUMPDEST PUSH4 0x4E487B71 PUSH1 0xE0 SHL PUSH0 MSTORE PUSH1 0x41 PUSH1 0x4 MSTORE PUSH1 0x24 PUSH0 REVERT JUMPDEST PUSH1 0x1 DUP2 DUP2 SHR SWAP1 DUP3 AND DUP1 PUSH2 0x215 JUMPI PUSH1 0x7F DUP3 AND SWAP2 POP JUMPDEST PUSH1 0x20 DUP3 LT DUP2 SUB PUSH2 0x233 JUMPI PUSH4 0x4E487B71 PUSH1 0xE0 SHL PUSH0 MSTORE PUSH1 0x22 PUSH1 0x4 MSTORE PUSH1 0x24 PUSH0 REVERT JUMPDEST POP SWAP2 SWAP1 POP JUMP JUMPDEST PUSH1 0x1F DUP3 GT ISZERO PUSH2 0x280 JUMPI DUP1 PUSH0 MSTORE PUSH1 0x20 PUSH0 KECCAK256 PUSH1 0x1F DUP5 ADD PUSH1 0x5 SHR DUP2 ADD PUSH1 0x20 DUP6 LT ISZERO PUSH2 0x25E JUMPI POP DUP1 JUMPDEST PUSH1 0x1F DUP5 ADD PUSH1 0x5 SHR DUP3 ADD SWAP2 POP JUMPDEST DUP2 DUP2 LT ISZERO PUSH2 0x27D JUMPI PUSH0 DUP2 SSTORE PUSH1 0x1 ADD PUSH2 0x26A JUMP JUMPDEST POP POP JUMPDEST POP POP POP JUMP JUMPDEST DUP2 MLOAD PUSH1 0x1 PUSH1 0x1 PUSH1 0x40 SHL SUB DUP2 GT ISZERO PUSH2 0x29E JUMPI PUSH2 0x29E PUSH2 0x1ED JUMP JUMPDEST PUSH2 0x2B2 DUP2 PUSH2 0x2AC DUP5 SLOAD PUSH2 0x201 JUMP JUMPDEST DUP5 PUSH2 0x239 JUMP JUMPDEST PUSH1 0x20 DUP1 PUSH1 0x1F DUP4 GT PUSH1 0x1 DUP2 EQ PUSH2 0x2E5 JUMPI PUSH0 DUP5 ISZERO PUSH2 0x2CE JUMPI POP DUP6 DUP4 ADD MLOAD JUMPDEST PUSH0 NOT PUSH1 0x3 DUP7 SWAP1 SHL SHR NOT AND PUSH1 0x1 DUP6 SWAP1 SHL OR DUP6 SSTORE PUSH2 0x33C JUMP JUMPDEST PUSH0 DUP6 DUP2 MSTORE PUSH1 0x20 DUP2 KECCAK256 PUSH1 0x1F NOT DUP7 AND SWAP2 JUMPDEST DUP3 DUP2 LT ISZERO PUSH2 0x313 JUMPI DUP9 DUP7 ADD MLOAD DUP3 SSTORE SWAP5 DUP5 ADD SWAP5 PUSH1 0x1 SWAP1 SWAP2 ADD SWAP1 DUP5 ADD PUSH2 0x2F4 JUMP JUMPDEST POP DUP6 DUP3 LT ISZERO PUSH2 0x330 JUMPI DUP8 DUP6 ADD MLOAD PUSH0 NOT PUSH1 0x3 DUP9 SWAP1 SHL PUSH1 0xF8 AND SHR NOT AND DUP2 SSTORE JUMPDEST POP POP PUSH1 0x1 DUP5 PUSH1 0x1 SHL ADD DUP6 SSTORE JUMPDEST POP POP POP POP POP POP JUMP JUMPDEST PUSH4 0x4E487B71 PUSH1 0xE0 SHL PUSH0 MSTORE PUSH1 0x11 PUSH1 0x4 MSTORE PUSH1 0x24 PUSH0 REVERT JUMPDEST PUSH1 0x1 DUP2 DUP2 JUMPDEST DUP1 DUP6 GT ISZERO PUSH2 0x392 JUMPI DUP2 PUSH0 NOT DIV DUP3 GT ISZERO PUSH2 0x378 JUMPI PUSH2 0x378 PUSH2 0x344 JUMP JUMPDEST DUP1 DUP6 AND ISZERO PUSH2 0x385 JUMPI SWAP2 DUP2 MUL SWAP2 JUMPDEST SWAP4 DUP5 SHR SWAP4 SWAP1 DUP1 MUL SWAP1 PUSH2 0x35D JUMP JUMPDEST POP SWAP3 POP SWAP3 SWAP1 POP JUMP JUMPDEST PUSH0 DUP3 PUSH2 0x3A8 JUMPI POP PUSH1 0x1 PUSH2 0x434 JUMP JUMPDEST DUP2 PUSH2 0x3B4 JUMPI POP PUSH0 PUSH2 0x434 JUMP JUMPDEST DUP2 PUSH1 0x1 DUP2 EQ PUSH2 0x3CA JUMPI PUSH1 0x2 DUP2 EQ PUSH2 0x3D4 JUMPI PUSH2 0x3F0 JUMP JUMPDEST PUSH1 0x1 SWAP2 POP POP PUSH2 0x434 JUMP JUMPDEST PUSH1 0xFF DUP5 GT ISZERO PUSH2 0x3E5 JUMPI PUSH2 0x3E5 PUSH2 0x344 JUMP JUMPDEST POP POP PUSH1 0x1 DUP3 SHL PUSH2 0x434 JUMP JUMPDEST POP PUSH1 0x20 DUP4 LT PUSH2 0x133 DUP4 LT AND PUSH1 0x4E DUP5 LT PUSH1 0xB DUP5 LT AND OR ISZERO PUSH2 0x413 JUMPI POP DUP2 DUP2 EXP PUSH2 0x434 JUMP JUMPDEST PUSH2 0x41D DUP4 DUP4 PUSH2 0x358 JUMP JUMPDEST DUP1 PUSH0 NOT DIV DUP3 GT ISZERO PUSH2 0x430 JUMPI PUSH2 0x430 PUSH2 0x344 JUMP JUMPDEST MUL SWAP1 POP JUMPDEST SWAP3 SWAP2 POP POP JUMP JUMPDEST PUSH0 PUSH2 0x445 DUP4 DUP4 PUSH2 0x39A JUMP JUMPDEST SWAP4 SWAP3 POP POP POP JUMP JUMPDEST DUP1 DUP3 MUL DUP2 ISZERO DUP3 DUP3 DIV DUP5 EQ OR PUSH2 0x434 JUMPI PUSH2 0x434 PUSH2 0x344 JUMP JUMPDEST PUSH1 0x80 MLOAD PUSH2 0x15A3 PUSH2 0x489 PUSH0 CODECOPY PUSH0 DUP2 DUP2 PUSH2 0x4F6 ADD MSTORE DUP2 DUP2 PUSH2 0x9DC ADD MSTORE PUSH2 0xB9D ADD MSTORE PUSH2 0x15A3 PUSH0 RETURN INVALID PUSH1 0x80 PUSH1 0x40 MSTORE PUSH1 0x4 CALLDATASIZE LT PUSH2 0x1AF JUMPI PUSH0 CALLDATALOAD PUSH1 0xE0 SHR DUP1 PUSH4 0x91B7F5ED GT PUSH2 0xEB JUMPI DUP1 PUSH4 0xCB2FB89C GT PUSH2 0x89 JUMPI DUP1 PUSH4 0xD5ABEB01 GT PUSH2 0x63 JUMPI DUP1 PUSH4 0xD5ABEB01 EQ PUSH2 0x4E5 JUMPI DUP1 PUSH4 0xDD62ED3E EQ PUSH2 0x518 JUMPI DUP1 PUSH4 0xF2FDE38B EQ PUSH2 0x55C JUMPI DUP1 PUSH4 0xF8004D31 EQ PUSH2 0x57B JUMPI PUSH2 0x1EE JUMP JUMPDEST DUP1 PUSH4 0xCB2FB89C EQ PUSH2 0x490 JUMPI DUP1 PUSH4 0xCBD3E753 EQ PUSH2 0x4A5 JUMPI DUP1 PUSH4 0xCD742793 EQ PUSH2 0x4D0 JUMPI PUSH2 0x1EE JUMP JUMPDEST DUP1 PUSH4 0xA457C2D7 GT PUSH2 0xC5 JUMPI DUP1 PUSH4 0xA457C2D7 EQ PUSH2 0x420 JUMPI DUP1 PUSH4 0xA9059CBB EQ PUSH2 0x43F JUMPI DUP1 PUSH4 0xB31F8F93 EQ PUSH2 0x45E JUMPI DUP1 PUSH4 0xBEF97C87 EQ PUSH2 0x472 JUMPI PUSH2 0x1EE JUMP JUMPDEST DUP1 PUSH4 0x91B7F5ED EQ PUSH2 0x3DA JUMPI DUP1 PUSH4 0x95D89B41 EQ PUSH2 0x3F9 JUMPI DUP1 PUSH4 0xA0712D68 EQ PUSH2 0x40D JUMPI PUSH2 0x1EE JUMP JUMPDEST DUP1 PUSH4 0x26B9CE13 GT PUSH2 0x158 JUMPI DUP1 PUSH4 0x51CFF8D9 GT PUSH2 0x132 JUMPI DUP1 PUSH4 0x51CFF8D9 EQ PUSH2 0x34C JUMPI DUP1 PUSH4 0x70A08231 EQ PUSH2 0x36B JUMPI DUP1 PUSH4 0x715018A6 EQ PUSH2 0x39F JUMPI DUP1 PUSH4 0x8DA5CB5B EQ PUSH2 0x3B3 JUMPI PUSH2 0x1EE JUMP JUMPDEST DUP1 PUSH4 0x26B9CE13 EQ PUSH2 0x2F3 JUMPI DUP1 PUSH4 0x313CE567 EQ PUSH2 0x312 JUMPI DUP1 PUSH4 0x39509351 EQ PUSH2 0x32D JUMPI PUSH2 0x1EE JUMP JUMPDEST DUP1 PUSH4 0x1EAE99C5 GT PUSH2 0x189 JUMPI DUP1 PUSH4 0x1EAE99C5 EQ PUSH2 0x29A JUMPI DUP1 PUSH4 0x23B872DD EQ PUSH2 0x2BB JUMPI DUP1 PUSH4 0x24BBD049 EQ PUSH2 0x2DA JUMPI PUSH2 0x1EE JUMP JUMPDEST DUP1 PUSH4 0x6FDDE03 EQ PUSH2 0x223 JUMPI DUP1 PUSH4 0x95EA7B3 EQ PUSH2 0x24D JUMPI DUP1 PUSH4 0x18160DDD EQ PUSH2 0x27C JUMPI PUSH2 0x1EE JUMP JUMPDEST CALLDATASIZE PUSH2 0x1EE JUMPI PUSH1 0x40 MLOAD PUSH3 0x461BCD PUSH1 0xE5 SHL DUP2 MSTORE PUSH1 0x20 PUSH1 0x4 DUP3 ADD MSTORE PUSH1 0xA PUSH1 0x24 DUP3 ADD MSTORE PUSH10 0x557365206D696E742829 PUSH1 0xB0 SHL PUSH1 0x44 DUP3 ADD MSTORE PUSH1 0x64 ADD JUMPDEST PUSH1 0x40 MLOAD DUP1 SWAP2 SUB SWAP1 REVERT JUMPDEST PUSH1 0x40 MLOAD PUSH3 0x461BCD PUSH1 0xE5 SHL DUP2 MSTORE PUSH1 0x20 PUSH1 0x4 DUP3 ADD MSTORE PUSH1 0xA PUSH1 0x24 DUP3 ADD MSTORE PUSH10 0x557365206D696E742829 PUSH1 0xB0 SHL PUSH1 0x44 DUP3 ADD MSTORE PUSH1 0x64 ADD PUSH2 0x1E5 JUMP JUMPDEST CALLVALUE DUP1 ISZERO PUSH2 0x22E JUMPI PUSH0 DUP1 REVERT JUMPDEST POP PUSH2 0x237 PUSH2 0x59A JUMP JUMPDEST PUSH1 0x40 MLOAD PUSH2 0x244 SWAP2 SWAP1 PUSH2 0x129A JUMP JUMPDEST PUSH1 0x40 MLOAD DUP1 SWAP2 SUB SWAP1 RETURN JUMPDEST CALLVALUE DUP1 ISZERO PUSH2 0x258 JUMPI PUSH0 DUP1 REVERT JUMPDEST POP PUSH2 0x26C PUSH2 0x267 CALLDATASIZE PUSH1 0x4 PUSH2 0x12E3 JUMP JUMPDEST PUSH2 0x62A JUMP JUMPDEST PUSH1 0x40 MLOAD SWAP1 ISZERO ISZERO DUP2 MSTORE PUSH1 0x20 ADD PUSH2 0x244 JUMP JUMPDEST CALLVALUE DUP1 ISZERO PUSH2 0x287 JUMPI PUSH0 DUP1 REVERT JUMPDEST POP PUSH1 0x2 SLOAD JUMPDEST PUSH1 0x40 MLOAD SWAP1 DUP2 MSTORE PUSH1 0x20 ADD PUSH2 0x244 JUMP JUMPDEST CALLVALUE DUP1 ISZERO PUSH2 0x2A5 JUMPI PUSH0 DUP1 REVERT JUMPDEST POP PUSH2 0x2B9 PUSH2 0x2B4 CALLDATASIZE PUSH1 0x4 PUSH2 0x130D JUMP JUMPDEST PUSH2 0x643 JUMP JUMPDEST STOP JUMPDEST CALLVALUE DUP1 ISZERO PUSH2 0x2C6 JUMPI PUSH0 DUP1 REVERT JUMPDEST POP PUSH2 0x26C PUSH2 0x2D5 CALLDATASIZE PUSH1 0x4 PUSH2 0x1324 JUMP JUMPDEST PUSH2 0x691 JUMP JUMPDEST CALLVALUE DUP1 ISZERO PUSH2 0x2E5 JUMPI PUSH0 DUP1 REVERT JUMPDEST POP PUSH1 0x8 SLOAD PUSH2 0x26C SWAP1 PUSH1 0xFF AND DUP2 JUMP JUMPDEST CALLVALUE DUP1 ISZERO PUSH2 0x2FE JUMPI PUSH0 DUP1 REVERT JUMPDEST POP PUSH2 0x2B9 PUSH2 0x30D CALLDATASIZE PUSH1 0x4 PUSH2 0x1362 JUMP JUMPDEST PUSH2 0x6B4 JUMP JUMPDEST CALLVALUE DUP1 ISZERO PUSH2 0x31D JUMPI PUSH0 DUP1 REVERT JUMPDEST POP PUSH1 0x40 MLOAD PUSH1 0x12 DUP2 MSTORE PUSH1 0x20 ADD PUSH2 0x244 JUMP JUMPDEST CALLVALUE DUP1 ISZERO PUSH2 0x338 JUMPI PUSH0 DUP1 REVERT JUMPDEST POP PUSH2 0x26C PUSH2 0x347 CALLDATASIZE PUSH1 0x4 PUSH2 0x12E3 JUMP JUMPDEST PUSH2 0x710 JUMP JUMPDEST CALLVALUE DUP1 ISZERO PUSH2 0x357 JUMPI PUSH0 DUP1 REVERT JUMPDEST POP PUSH2 0x2B9 PUSH2 0x366 CALLDATASIZE PUSH1 0x4 PUSH2 0x1388 JUMP JUMPDEST PUSH2 0x74E JUMP JUMPDEST CALLVALUE DUP1 ISZERO PUSH2 0x376 JUMPI PUSH0 DUP1 REVERT JUMPDEST POP PUSH2 0x28C PUSH2 0x385 CALLDATASIZE PUSH1 0x4 PUSH2 0x1388 JUMP JUMPDEST PUSH1 0x1 PUSH1 0x1 PUSH1 0xA0 SHL SUB AND PUSH0 SWAP1 DUP2 MSTORE PUSH1 0x20 DUP2 SWAP1 MSTORE PUSH1 0x40 SWAP1 KECCAK256 SLOAD SWAP1 JUMP JUMPDEST CALLVALUE DUP1 ISZERO PUSH2 0x3AA JUMPI PUSH0 DUP1 REVERT JUMPDEST POP PUSH2 0x2B9 PUSH2 0x7DD JUMP JUMPDEST CALLVALUE DUP1 ISZERO PUSH2 0x3BE JUMPI PUSH0 DUP1 REVERT JUMPDEST POP PUSH1 0x5 SLOAD PUSH1 0x40 MLOAD PUSH1 0x1 PUSH1 0x1 PUSH1 0xA0 SHL SUB SWAP1 SWAP2 AND DUP2 MSTORE PUSH1 0x20 ADD PUSH2 0x244 JUMP JUMPDEST CALLVALUE DUP1 ISZERO PUSH2 0x3E5 JUMPI PUSH0 DUP1 REVERT JUMPDEST POP PUSH2 0x2B9 PUSH2 0x3F4 CALLDATASIZE PUSH1 0x4 PUSH2 0x130D JUMP JUMPDEST PUSH2 0x7F0 JUMP JUMPDEST CALLVALUE DUP1 ISZERO PUSH2 0x404 JUMPI PUSH0 DUP1 REVERT JUMPDEST POP PUSH2 0x237 PUSH2 0x836 JUMP JUMPDEST PUSH2 0x2B9 PUSH2 0x41B CALLDATASIZE PUSH1 0x4 PUSH2 0x130D JUMP JUMPDEST PUSH2 0x845 JUMP JUMPDEST CALLVALUE DUP1 ISZERO PUSH2 0x42B JUMPI PUSH0 DUP1 REVERT JUMPDEST POP PUSH2 0x26C PUSH2 0x43A CALLDATASIZE PUSH1 0x4 PUSH2 0x12E3 JUMP JUMPDEST PUSH2 0xAD1 JUMP JUMPDEST CALLVALUE DUP1 ISZERO PUSH2 0x44A JUMPI PUSH0 DUP1 REVERT JUMPDEST POP PUSH2 0x26C PUSH2 0x459 CALLDATASIZE PUSH1 0x4 PUSH2 0x12E3 JUMP JUMPDEST PUSH2 0xB7A JUMP JUMPDEST CALLVALUE DUP1 ISZERO PUSH2 0x469 JUMPI PUSH0 DUP1 REVERT JUMPDEST POP PUSH2 0x28C PUSH2 0xB87 JUMP JUMPDEST CALLVALUE DUP1 ISZERO PUSH2 0x47D JUMPI PUSH0 DUP1 REVERT JUMPDEST POP PUSH1 0x8 SLOAD PUSH2 0x26C SWAP1 PUSH2 0x100 SWAP1 DIV PUSH1 0xFF AND DUP2 JUMP JUMPDEST CALLVALUE DUP1 ISZERO PUSH2 0x49B JUMPI PUSH0 DUP1 REVERT JUMPDEST POP PUSH2 0x28C PUSH1 0x9 SLOAD DUP2 JUMP JUMPDEST CALLVALUE DUP1 ISZERO PUSH2 0x4B0 JUMPI PUSH0 DUP1 REVERT JUMPDEST POP PUSH2 0x28C PUSH2 0x4BF CALLDATASIZE PUSH1 0x4 PUSH2 0x1388 JUMP JUMPDEST PUSH1 0xA PUSH1 0x20 MSTORE PUSH0 SWAP1 DUP2 MSTORE PUSH1 0x40 SWAP1 KECCAK256 SLOAD DUP2 JUMP JUMPDEST CALLVALUE DUP1 ISZERO PUSH2 0x4DB JUMPI PUSH0 DUP1 REVERT JUMPDEST POP PUSH2 0x28C PUSH1 0x7 SLOAD DUP2 JUMP JUMPDEST CALLVALUE DUP1 ISZERO PUSH2 0x4F0 JUMPI PUSH0 DUP1 REVERT JUMPDEST POP PUSH2 0x28C PUSH32 0x0 DUP2 JUMP JUMPDEST CALLVALUE DUP1 ISZERO PUSH2 0x523 JUMPI PUSH0 DUP1 REVERT JUMPDEST POP PUSH2 0x28C PUSH2 0x532 CALLDATASIZE PUSH1 0x4 PUSH2 0x13A3 JUMP JUMPDEST PUSH1 0x1 PUSH1 0x1 PUSH1 0xA0 SHL SUB SWAP2 DUP3 AND PUSH0 SWAP1 DUP2 MSTORE PUSH1 0x1 PUSH1 0x20 SWAP1 DUP2 MSTORE PUSH1 0x40 DUP1 DUP4 KECCAK256 SWAP4 SWAP1 SWAP5 AND DUP3 MSTORE SWAP2 SWAP1 SWAP2 MSTORE KECCAK256 SLOAD SWAP1 JUMP JUMPDEST CALLVALUE DUP1 ISZERO PUSH2 0x567 JUMPI PUSH0 DUP1 REVERT JUMPDEST POP PUSH2 0x2B9 PUSH2 0x576 CALLDATASIZE PUSH1 0x4 PUSH2 0x1388 JUMP JUMPDEST PUSH2 0xBD0 JUMP JUMPDEST CALLVALUE DUP1 ISZERO PUSH2 0x586 JUMPI PUSH0 DUP1 REVERT JUMPDEST POP PUSH2 0x2B9 PUSH2 0x595 CALLDATASIZE PUSH1 0x4 PUSH2 0x1362 JUMP JUMPDEST PUSH2 0xC5D JUMP JUMPDEST PUSH1 0x60 PUSH1 0x3 DUP1 SLOAD PUSH2 0x5A9 SWAP1 PUSH2 0x13DA JUMP JUMPDEST DUP1 PUSH1 0x1F ADD PUSH1 0x20 DUP1 SWAP2 DIV MUL PUSH1 0x20 ADD PUSH1 0x40 MLOAD SWAP1 DUP2 ADD PUSH1 0x40 MSTORE DUP1 SWAP3 SWAP2 SWAP1 DUP2 DUP2 MSTORE PUSH1 0x20 ADD DUP3 DUP1 SLOAD PUSH2 0x5D5 SWAP1 PUSH2 0x13DA JUMP JUMPDEST DUP1 ISZERO PUSH2 0x620 JUMPI DUP1 PUSH1 0x1F LT PUSH2 0x5F7 JUMPI PUSH2 0x100 DUP1 DUP4 SLOAD DIV MUL DUP4 MSTORE SWAP2 PUSH1 0x20 ADD SWAP2 PUSH2 0x620 JUMP JUMPDEST DUP3 ADD SWAP2 SWAP1 PUSH0 MSTORE PUSH1 0x20 PUSH0 KECCAK256 SWAP1 JUMPDEST DUP2 SLOAD DUP2 MSTORE SWAP1 PUSH1 0x1 ADD SWAP1 PUSH1 0x20 ADD DUP1 DUP4 GT PUSH2 0x603 JUMPI DUP3 SWAP1 SUB PUSH1 0x1F AND DUP3 ADD SWAP2 JUMPDEST POP POP POP POP POP SWAP1 POP SWAP1 JUMP JUMPDEST PUSH0 CALLER PUSH2 0x637 DUP2 DUP6 DUP6 PUSH2 0xCA6 JUMP JUMPDEST PUSH1 0x1 SWAP2 POP POP JUMPDEST SWAP3 SWAP2 POP POP JUMP JUMPDEST PUSH2 0x64B PUSH2 0xDC9 JUMP JUMPDEST PUSH1 0x9 DUP1 SLOAD SWAP1 DUP3 SWAP1 SSTORE PUSH1 0x40 DUP1 MLOAD DUP3 DUP2 MSTORE PUSH1 0x20 DUP2 ADD DUP5 SWAP1 MSTORE PUSH32 0x71795F06CF09B4D835204BA653F74E76D61A5641023B115AE926669830497C0 SWAP2 ADD JUMPDEST PUSH1 0x40 MLOAD DUP1 SWAP2 SUB SWAP1 LOG1 POP POP JUMP JUMPDEST PUSH0 CALLER PUSH2 0x69E DUP6 DUP3 DUP6 PUSH2 0xE23 JUMP JUMPDEST PUSH2 0x6A9 DUP6 DUP6 DUP6 PUSH2 0xEB3 JUMP JUMPDEST POP PUSH1 0x1 SWAP5 SWAP4 POP POP POP POP JUMP JUMPDEST PUSH2 0x6BC PUSH2 0xDC9 JUMP JUMPDEST PUSH1 0x8 DUP1 SLOAD DUP3 ISZERO ISZERO PUSH2 0x100 MUL PUSH2 0xFF00 NOT SWAP1 SWAP2 AND OR SWAP1 SSTORE PUSH1 0x40 MLOAD PUSH32 0x3F0522FB4345C29729658DF56A8B87C4360593A277942CC15CDF041866058690 SWAP1 PUSH2 0x705 SWAP1 DUP4 ISZERO ISZERO DUP2 MSTORE PUSH1 0x20 ADD SWAP1 JUMP JUMPDEST PUSH1 0x40 MLOAD DUP1 SWAP2 SUB SWAP1 LOG1 POP JUMP JUMPDEST CALLER PUSH0 DUP2 DUP2 MSTORE PUSH1 0x1 PUSH1 0x20 SWAP1 DUP2 MSTORE PUSH1 0x40 DUP1 DUP4 KECCAK256 PUSH1 0x1 PUSH1 0x1 PUSH1 0xA0 SHL SUB DUP8 AND DUP5 MSTORE SWAP1 SWAP2 MSTORE DUP2 KECCAK256 SLOAD SWAP1 SWAP2 SWAP1 PUSH2 0x637 SWAP1 DUP3 SWAP1 DUP7 SWAP1 PUSH2 0x749 SWAP1 DUP8 SWAP1 PUSH2 0x1426 JUMP JUMPDEST PUSH2 0xCA6 JUMP JUMPDEST PUSH2 0x756 PUSH2 0xDC9 JUMP JUMPDEST PUSH2 0x75E PUSH2 0x108F JUMP JUMPDEST PUSH1 0x1 PUSH1 0x1 PUSH1 0xA0 SHL SUB DUP2 AND PUSH2 0x79D JUMPI PUSH1 0x40 MLOAD PUSH3 0x461BCD PUSH1 0xE5 SHL DUP2 MSTORE PUSH1 0x4 ADD PUSH2 0x1E5 SWAP1 PUSH1 0x20 DUP1 DUP3 MSTORE PUSH1 0x4 SWAP1 DUP3 ADD MSTORE PUSH4 0x746F3D3 PUSH1 0xE4 SHL PUSH1 0x40 DUP3 ADD MSTORE PUSH1 0x60 ADD SWAP1 JUMP JUMPDEST PUSH1 0x40 MLOAD PUSH1 0x1 PUSH1 0x1 PUSH1 0xA0 SHL SUB DUP3 AND SWAP1 SELFBALANCE DUP1 ISZERO PUSH2 0x8FC MUL SWAP2 PUSH0 DUP2 DUP2 DUP2 DUP6 DUP9 DUP9 CALL SWAP4 POP POP POP POP ISZERO DUP1 ISZERO PUSH2 0x7CF JUMPI RETURNDATASIZE PUSH0 DUP1 RETURNDATACOPY RETURNDATASIZE PUSH0 REVERT JUMPDEST POP PUSH2 0x7DA PUSH1 0x1 PUSH1 0x6 SSTORE JUMP JUMPDEST POP JUMP JUMPDEST PUSH2 0x7E5 PUSH2 0xDC9 JUMP JUMPDEST PUSH2 0x7EE PUSH0 PUSH2 0x10E8 JUMP JUMPDEST JUMP JUMPDEST PUSH2 0x7F8 PUSH2 0xDC9 JUMP JUMPDEST PUSH1 0x7 DUP1 SLOAD SWAP1 DUP3 SWAP1 SSTORE PUSH1 0x40 DUP1 MLOAD DUP3 DUP2 MSTORE PUSH1 0x20 DUP2 ADD DUP5 SWAP1 MSTORE PUSH32 0x8AA4FA52648A6D15EDCE8A179C792C86F3719D0CC3C572CF90F91948F0F2CB68 SWAP2 ADD PUSH2 0x685 JUMP JUMPDEST PUSH1 0x60 PUSH1 0x4 DUP1 SLOAD PUSH2 0x5A9 SWAP1 PUSH2 0x13DA JUMP JUMPDEST PUSH2 0x84D PUSH2 0x108F JUMP JUMPDEST PUSH1 0x8 SLOAD PUSH1 0xFF AND PUSH2 0x89F JUMPI PUSH1 0x40 MLOAD PUSH3 0x461BCD PUSH1 0xE5 SHL DUP2 MSTORE PUSH1 0x20 PUSH1 0x4 DUP3 ADD MSTORE PUSH1 0xB PUSH1 0x24 DUP3 ADD MSTORE PUSH32 0x6D696E7420706175736564000000000000000000000000000000000000000000 PUSH1 0x44 DUP3 ADD MSTORE PUSH1 0x64 ADD PUSH2 0x1E5 JUMP JUMPDEST PUSH0 DUP2 GT PUSH2 0x8EE JUMPI PUSH1 0x40 MLOAD PUSH3 0x461BCD PUSH1 0xE5 SHL DUP2 MSTORE PUSH1 0x20 PUSH1 0x4 DUP3 ADD MSTORE PUSH1 0x8 PUSH1 0x24 DUP3 ADD MSTORE PUSH32 0x616D6F756E743D30000000000000000000000000000000000000000000000000 PUSH1 0x44 DUP3 ADD MSTORE PUSH1 0x64 ADD PUSH2 0x1E5 JUMP JUMPDEST PUSH1 0x9 SLOAD ISZERO PUSH2 0x961 JUMPI PUSH1 0x9 SLOAD CALLER PUSH0 SWAP1 DUP2 MSTORE PUSH1 0xA PUSH1 0x20 MSTORE PUSH1 0x40 SWAP1 KECCAK256 SLOAD PUSH2 0x913 SWAP1 DUP4 SWAP1 PUSH2 0x1426 JUMP JUMPDEST GT ISZERO PUSH2 0x961 JUMPI PUSH1 0x40 MLOAD PUSH3 0x461BCD PUSH1 0xE5 SHL DUP2 MSTORE PUSH1 0x20 PUSH1 0x4 DUP3 ADD MSTORE PUSH1 0x13 PUSH1 0x24 DUP3 ADD MSTORE PUSH32 0x77616C6C65742063617020657863656564656400000000000000000000000000 PUSH1 0x44 DUP3 ADD MSTORE PUSH1 0x64 ADD PUSH2 0x1E5 JUMP JUMPDEST PUSH0 DUP2 PUSH1 0x7 SLOAD PUSH2 0x970 SWAP2 SWAP1 PUSH2 0x1439 JUMP JUMPDEST SWAP1 POP DUP1 CALLVALUE EQ PUSH2 0x9C1 JUMPI PUSH1 0x40 MLOAD PUSH3 0x461BCD PUSH1 0xE5 SHL DUP2 MSTORE PUSH1 0x20 PUSH1 0x4 DUP3 ADD MSTORE PUSH1 0xD PUSH1 0x24 DUP3 ADD MSTORE PUSH32 0x696E636F72726563742045544800000000000000000000000000000000000000 PUSH1 0x44 DUP3 ADD MSTORE PUSH1 0x64 ADD PUSH2 0x1E5 JUMP JUMPDEST PUSH0 PUSH2 0x9CE PUSH1 0x12 PUSH1 0xA PUSH2 0x1530 JUMP JUMPDEST PUSH2 0x9D8 SWAP1 DUP5 PUSH2 0x1439 JUMP JUMPDEST SWAP1 POP PUSH32 0x0 DUP2 PUSH2 0xA05 PUSH1 0x2 SLOAD SWAP1 JUMP JUMPDEST PUSH2 0xA0F SWAP2 SWAP1 PUSH2 0x1426 JUMP JUMPDEST GT ISZERO PUSH2 0xA5D JUMPI PUSH1 0x40 MLOAD PUSH3 0x461BCD PUSH1 0xE5 SHL DUP2 MSTORE PUSH1 0x20 PUSH1 0x4 DUP3 ADD MSTORE PUSH1 0xC PUSH1 0x24 DUP3 ADD MSTORE PUSH32 0x6361702065786365656465640000000000000000000000000000000000000000 PUSH1 0x44 DUP3 ADD MSTORE PUSH1 0x64 ADD PUSH2 0x1E5 JUMP JUMPDEST CALLER PUSH0 SWAP1 DUP2 MSTORE PUSH1 0xA PUSH1 0x20 MSTORE PUSH1 0x40 DUP2 KECCAK256 DUP1 SLOAD DUP6 SWAP3 SWAP1 PUSH2 0xA7B SWAP1 DUP5 SWAP1 PUSH2 0x1426 JUMP JUMPDEST SWAP1 SWAP2 SSTORE POP PUSH2 0xA8B SWAP1 POP CALLER DUP3 PUSH2 0x1151 JUMP JUMPDEST PUSH1 0x40 DUP1 MLOAD DUP5 DUP2 MSTORE CALLVALUE PUSH1 0x20 DUP3 ADD MSTORE CALLER SWAP2 PUSH32 0x25B428DFDE728CCFADDAD7E29E4AC23C24ED7FD1A6E3E3F91894A9A073F5DFFF SWAP2 ADD PUSH1 0x40 MLOAD DUP1 SWAP2 SUB SWAP1 LOG2 POP POP PUSH2 0x7DA PUSH1 0x1 PUSH1 0x6 SSTORE JUMP JUMPDEST CALLER PUSH0 DUP2 DUP2 MSTORE PUSH1 0x1 PUSH1 0x20 SWAP1 DUP2 MSTORE PUSH1 0x40 DUP1 DUP4 KECCAK256 PUSH1 0x1 PUSH1 0x1 PUSH1 0xA0 SHL SUB DUP8 AND DUP5 MSTORE SWAP1 SWAP2 MSTORE DUP2 KECCAK256 SLOAD SWAP1 SWAP2 SWAP1 DUP4 DUP2 LT ISZERO PUSH2 0xB6D JUMPI PUSH1 0x40 MLOAD PUSH3 0x461BCD PUSH1 0xE5 SHL DUP2 MSTORE PUSH1 0x20 PUSH1 0x4 DUP3 ADD MSTORE PUSH1 0x25 PUSH1 0x24 DUP3 ADD MSTORE PUSH32 0x45524332303A2064656372656173656420616C6C6F77616E63652062656C6F77 PUSH1 0x44 DUP3 ADD MSTORE PUSH32 0x207A65726F000000000000000000000000000000000000000000000000000000 PUSH1 0x64 DUP3 ADD MSTORE PUSH1 0x84 ADD PUSH2 0x1E5 JUMP JUMPDEST PUSH2 0x6A9 DUP3 DUP7 DUP7 DUP5 SUB PUSH2 0xCA6 JUMP JUMPDEST PUSH0 CALLER PUSH2 0x637 DUP2 DUP6 DUP6 PUSH2 0xEB3 JUMP JUMPDEST PUSH0 PUSH2 0xB94 PUSH1 0x12 PUSH1 0xA PUSH2 0x1530 JUMP JUMPDEST PUSH1 0x2 SLOAD PUSH2 0xBC1 SWAP1 PUSH32 0x0 PUSH2 0x153B JUMP JUMPDEST PUSH2 0xBCB SWAP2 SWAP1 PUSH2 0x154E JUMP JUMPDEST SWAP1 POP SWAP1 JUMP JUMPDEST PUSH2 0xBD8 PUSH2 0xDC9 JUMP JUMPDEST PUSH1 0x1 PUSH1 0x1 PUSH1 0xA0 SHL SUB DUP2 AND PUSH2 0xC54 JUMPI PUSH1 0x40 MLOAD PUSH3 0x461BCD PUSH1 0xE5 SHL DUP2 MSTORE PUSH1 0x20 PUSH1 0x4 DUP3 ADD MSTORE PUSH1 0x26 PUSH1 0x24 DUP3 ADD MSTORE PUSH32 0x4F776E61626C653A206E6577206F776E657220697320746865207A65726F2061 PUSH1 0x44 DUP3 ADD MSTORE PUSH32 0x6464726573730000000000000000000000000000000000000000000000000000 PUSH1 0x64 DUP3 ADD MSTORE PUSH1 0x84 ADD PUSH2 0x1E5 JUMP JUMPDEST PUSH2 0x7DA DUP2 PUSH2 0x10E8 JUMP JUMPDEST PUSH2 0xC65 PUSH2 0xDC9 JUMP JUMPDEST PUSH1 0x8 DUP1 SLOAD PUSH1 0xFF NOT AND DUP3 ISZERO ISZERO SWAP1 DUP2 OR SWAP1 SWAP2 SSTORE PUSH1 0x40 MLOAD SWAP1 DUP2 MSTORE PUSH32 0xA9F739EE29A6336ACDFE5B044A6DCE0D70579031BE6DBDECE2AC0848D8C2A080 SWAP1 PUSH1 0x20 ADD PUSH2 0x705 JUMP JUMPDEST PUSH1 0x1 PUSH1 0x1 PUSH1 0xA0 SHL SUB DUP4 AND PUSH2 0xD08 JUMPI PUSH1 0x40 MLOAD PUSH3 0x461BCD PUSH1 0xE5 SHL DUP2 MSTORE PUSH1 0x20 PUSH1 0x4 DUP3 ADD MSTORE PUSH1 0x24 DUP1 DUP3 ADD MSTORE PUSH32 0x45524332303A20617070726F76652066726F6D20746865207A65726F20616464 PUSH1 0x44 DUP3 ADD MSTORE PUSH4 0x72657373 PUSH1 0xE0 SHL PUSH1 0x64 DUP3 ADD MSTORE PUSH1 0x84 ADD PUSH2 0x1E5 JUMP JUMPDEST PUSH1 0x1 PUSH1 0x1 PUSH1 0xA0 SHL SUB DUP3 AND PUSH2 0xD69 JUMPI PUSH1 0x40 MLOAD PUSH3 0x461BCD PUSH1 0xE5 SHL DUP2 MSTORE PUSH1 0x20 PUSH1 0x4 DUP3 ADD MSTORE PUSH1 0x22 PUSH1 0x24 DUP3 ADD MSTORE PUSH32 0x45524332303A20617070726F766520746F20746865207A65726F206164647265 PUSH1 0x44 DUP3 ADD MSTORE PUSH2 0x7373 PUSH1 0xF0 SHL PUSH1 0x64 DUP3 ADD MSTORE PUSH1 0x84 ADD PUSH2 0x1E5 JUMP JUMPDEST PUSH1 0x1 PUSH1 0x1 PUSH1 0xA0 SHL SUB DUP4 DUP2 AND PUSH0 DUP2 DUP2 MSTORE PUSH1 0x1 PUSH1 0x20 SWAP1 DUP2 MSTORE PUSH1 0x40 DUP1 DUP4 KECCAK256 SWAP5 DUP8 AND DUP1 DUP5 MSTORE SWAP5 DUP3 MSTORE SWAP2 DUP3 SWAP1 KECCAK256 DUP6 SWAP1 SSTORE SWAP1 MLOAD DUP5 DUP2 MSTORE PUSH32 0x8C5BE1E5EBEC7D5BD14F71427D1E84F3DD0314C0F7B2291E5B200AC8C7C3B925 SWAP2 ADD PUSH1 0x40 MLOAD DUP1 SWAP2 SUB SWAP1 LOG3 POP POP POP JUMP JUMPDEST PUSH1 0x5 SLOAD PUSH1 0x1 PUSH1 0x1 PUSH1 0xA0 SHL SUB AND CALLER EQ PUSH2 0x7EE JUMPI PUSH1 0x40 MLOAD PUSH3 0x461BCD PUSH1 0xE5 SHL DUP2 MSTORE PUSH1 0x20 PUSH1 0x4 DUP3 ADD DUP2 SWAP1 MSTORE PUSH1 0x24 DUP3 ADD MSTORE PUSH32 0x4F776E61626C653A2063616C6C6572206973206E6F7420746865206F776E6572 PUSH1 0x44 DUP3 ADD MSTORE PUSH1 0x64 ADD PUSH2 0x1E5 JUMP JUMPDEST PUSH1 0x1 PUSH1 0x1 PUSH1 0xA0 SHL SUB DUP4 DUP2 AND PUSH0 SWAP1 DUP2 MSTORE PUSH1 0x1 PUSH1 0x20 SWAP1 DUP2 MSTORE PUSH1 0x40 DUP1 DUP4 KECCAK256 SWAP4 DUP7 AND DUP4 MSTORE SWAP3 SWAP1 MSTORE KECCAK256 SLOAD PUSH0 NOT DUP2 EQ PUSH2 0xEAD JUMPI DUP2 DUP2 LT ISZERO PUSH2 0xEA0 JUMPI PUSH1 0x40 MLOAD PUSH3 0x461BCD PUSH1 0xE5 SHL DUP2 MSTORE PUSH1 0x20 PUSH1 0x4 DUP3 ADD MSTORE PUSH1 0x1D PUSH1 0x24 DUP3 ADD MSTORE PUSH32 0x45524332303A20696E73756666696369656E7420616C6C6F77616E6365000000 PUSH1 0x44 DUP3 ADD MSTORE PUSH1 0x64 ADD PUSH2 0x1E5 JUMP JUMPDEST PUSH2 0xEAD DUP5 DUP5 DUP5 DUP5 SUB PUSH2 0xCA6 JUMP JUMPDEST POP POP POP POP JUMP JUMPDEST PUSH1 0x1 PUSH1 0x1 PUSH1 0xA0 SHL SUB DUP4 AND PUSH2 0xF2F JUMPI PUSH1 0x40 MLOAD PUSH3 0x461BCD PUSH1 0xE5 SHL DUP2 MSTORE PUSH1 0x20 PUSH1 0x4 DUP3 ADD MSTORE PUSH1 0x25 PUSH1 0x24 DUP3 ADD MSTORE PUSH32 0x45524332303A207472616E736665722066726F6D20746865207A65726F206164 PUSH1 0x44 DUP3 ADD MSTORE PUSH32 0x6472657373000000000000000000000000000000000000000000000000000000 PUSH1 0x64 DUP3 ADD MSTORE PUSH1 0x84 ADD PUSH2 0x1E5 JUMP JUMPDEST PUSH1 0x1 PUSH1 0x1 PUSH1 0xA0 SHL SUB DUP3 AND PUSH2 0xF91 JUMPI PUSH1 0x40 MLOAD PUSH3 0x461BCD PUSH1 0xE5 SHL DUP2 MSTORE PUSH1 0x20 PUSH1 0x4 DUP3 ADD MSTORE PUSH1 0x23 PUSH1 0x24 DUP3 ADD MSTORE PUSH32 0x45524332303A207472616E7366657220746F20746865207A65726F2061646472 PUSH1 0x44 DUP3 ADD MSTORE PUSH3 0x657373 PUSH1 0xE8 SHL PUSH1 0x64 DUP3 ADD MSTORE PUSH1 0x84 ADD PUSH2 0x1E5 JUMP JUMPDEST PUSH2 0xF9C DUP4 DUP4 DUP4 PUSH2 0x1219 JUMP JUMPDEST PUSH1 0x1 PUSH1 0x1 PUSH1 0xA0 SHL SUB DUP4 AND PUSH0 SWAP1 DUP2 MSTORE PUSH1 0x20 DUP2 SWAP1 MSTORE PUSH1 0x40 SWAP1 KECCAK256 SLOAD DUP2 DUP2 LT ISZERO PUSH2 0x102A JUMPI PUSH1 0x40 MLOAD PUSH3 0x461BCD PUSH1 0xE5 SHL DUP2 MSTORE PUSH1 0x20 PUSH1 0x4 DUP3 ADD MSTORE PUSH1 0x26 PUSH1 0x24 DUP3 ADD MSTORE PUSH32 0x45524332303A207472616E7366657220616D6F756E7420657863656564732062 PUSH1 0x44 DUP3 ADD MSTORE PUSH32 0x616C616E63650000000000000000000000000000000000000000000000000000 PUSH1 0x64 DUP3 ADD MSTORE PUSH1 0x84 ADD PUSH2 0x1E5 JUMP JUMPDEST PUSH1 0x1 PUSH1 0x1 PUSH1 0xA0 SHL SUB DUP5 DUP2 AND PUSH0 DUP2 DUP2 MSTORE PUSH1 0x20 DUP2 DUP2 MSTORE PUSH1 0x40 DUP1 DUP4 KECCAK256 DUP8 DUP8 SUB SWAP1 SSTORE SWAP4 DUP8 AND DUP1 DUP4 MSTORE SWAP2 DUP5 SWAP1 KECCAK256 DUP1 SLOAD DUP8 ADD SWAP1 SSTORE SWAP3 MLOAD DUP6 DUP2 MSTORE SWAP1 SWAP3 PUSH32 0xDDF252AD1BE2C89B69C2B068FC378DAA952BA7F163C4A11628F55A4DF523B3EF SWAP2 ADD PUSH1 0x40 MLOAD DUP1 SWAP2 SUB SWAP1 LOG3 PUSH2 0xEAD JUMP JUMPDEST PUSH1 0x2 PUSH1 0x6 SLOAD SUB PUSH2 0x10E1 JUMPI PUSH1 0x40 MLOAD PUSH3 0x461BCD PUSH1 0xE5 SHL DUP2 MSTORE PUSH1 0x20 PUSH1 0x4 DUP3 ADD MSTORE PUSH1 0x1F PUSH1 0x24 DUP3 ADD MSTORE PUSH32 0x5265656E7472616E637947756172643A207265656E7472616E742063616C6C00 PUSH1 0x44 DUP3 ADD MSTORE PUSH1 0x64 ADD PUSH2 0x1E5 JUMP JUMPDEST PUSH1 0x2 PUSH1 0x6 SSTORE JUMP JUMPDEST PUSH1 0x5 DUP1 SLOAD PUSH1 0x1 PUSH1 0x1 PUSH1 0xA0 SHL SUB DUP4 DUP2 AND PUSH32 0xFFFFFFFFFFFFFFFFFFFFFFFF0000000000000000000000000000000000000000 DUP4 AND DUP2 OR SWAP1 SWAP4 SSTORE PUSH1 0x40 MLOAD SWAP2 AND SWAP2 SWAP1 DUP3 SWAP1 PUSH32 0x8BE0079C531659141344CD1FD0A4F28419497F9722A3DAAFE3B4186F6B6457E0 SWAP1 PUSH0 SWAP1 LOG3 POP POP JUMP JUMPDEST PUSH1 0x1 PUSH1 0x1 PUSH1 0xA0 SHL SUB DUP3 AND PUSH2 0x11A7 JUMPI PUSH1 0x40 MLOAD PUSH3 0x461BCD PUSH1 0xE5 SHL DUP2 MSTORE PUSH1 0x20 PUSH1 0x4 DUP3 ADD MSTORE PUSH1 0x1F PUSH1 0x24 DUP3 ADD MSTORE PUSH32 0x45524332303A206D696E7420746F20746865207A65726F206164647265737300 PUSH1 0x44 DUP3 ADD MSTORE PUSH1 0x64 ADD PUSH2 0x1E5 JUMP JUMPDEST PUSH2 0x11B2 PUSH0 DUP4 DUP4 PUSH2 0x1219 JUMP JUMPDEST DUP1 PUSH1 0x2 PUSH0 DUP3 DUP3 SLOAD PUSH2 0x11C3 SWAP2 SWAP1 PUSH2 0x1426 JUMP JUMPDEST SWAP1 SWAP2 SSTORE POP POP PUSH1 0x1 PUSH1 0x1 PUSH1 0xA0 SHL SUB DUP3 AND PUSH0 DUP2 DUP2 MSTORE PUSH1 0x20 DUP2 DUP2 MSTORE PUSH1 0x40 DUP1 DUP4 KECCAK256 DUP1 SLOAD DUP7 ADD SWAP1 SSTORE MLOAD DUP5 DUP2 MSTORE PUSH32 0xDDF252AD1BE2C89B69C2B068FC378DAA952BA7F163C4A11628F55A4DF523B3EF SWAP2 ADD PUSH1 0x40 MLOAD DUP1 SWAP2 SUB SWAP1 LOG3 POP POP JUMP JUMPDEST PUSH1 0x1 PUSH1 0x1 PUSH1 0xA0 SHL SUB DUP4 AND ISZERO DUP1 ISZERO SWAP1 PUSH2 0x1239 JUMPI POP PUSH1 0x1 PUSH1 0x1 PUSH1 0xA0 SHL SUB DUP3 AND ISZERO ISZERO JUMPDEST ISZERO PUSH2 0x1295 JUMPI PUSH1 0x8 SLOAD PUSH2 0x100 SWAP1 DIV PUSH1 0xFF AND PUSH2 0x1295 JUMPI PUSH1 0x40 MLOAD PUSH3 0x461BCD PUSH1 0xE5 SHL DUP2 MSTORE PUSH1 0x20 PUSH1 0x4 DUP3 ADD MSTORE PUSH1 0x12 PUSH1 0x24 DUP3 ADD MSTORE PUSH32 0x7472616E73666572732064697361626C65640000000000000000000000000000 PUSH1 0x44 DUP3 ADD MSTORE PUSH1 0x64 ADD PUSH2 0x1E5 JUMP JUMPDEST POP POP POP JUMP JUMPDEST PUSH1 0x20 DUP2 MSTORE PUSH0 DUP3 MLOAD DUP1 PUSH1 0x20 DUP5 ADD MSTORE DUP1 PUSH1 0x20 DUP6 ADD PUSH1 0x40 DUP6 ADD MCOPY PUSH0 PUSH1 0x40 DUP3 DUP6 ADD ADD MSTORE PUSH1 0x40 PUSH1 0x1F NOT PUSH1 0x1F DUP4 ADD AND DUP5 ADD ADD SWAP2 POP POP SWAP3 SWAP2 POP POP JUMP JUMPDEST PUSH1 0x1 PUSH1 0x1 PUSH1 0xA0 SHL SUB DUP2 AND DUP2 EQ PUSH2 0x7DA JUMPI PUSH0 DUP1 REVERT JUMPDEST PUSH0 DUP1 PUSH1 0x40 DUP4 DUP6 SUB SLT ISZERO PUSH2 0x12F4 JUMPI PUSH0 DUP1 REVERT JUMPDEST DUP3 CALLDATALOAD PUSH2 0x12FF DUP2 PUSH2 0x12CF JUMP JUMPDEST SWAP5 PUSH1 0x20 SWAP4 SWAP1 SWAP4 ADD CALLDATALOAD SWAP4 POP POP POP JUMP JUMPDEST PUSH0 PUSH1 0x20 DUP3 DUP5 SUB SLT ISZERO PUSH2 0x131D JUMPI PUSH0 DUP1 REVERT JUMPDEST POP CALLDATALOAD SWAP2 SWAP1 POP JUMP JUMPDEST PUSH0 DUP1 PUSH0 PUSH1 0x60 DUP5 DUP7 SUB SLT ISZERO PUSH2 0x1336 JUMPI PUSH0 DUP1 REVERT JUMPDEST DUP4 CALLDATALOAD PUSH2 0x1341 DUP2 PUSH2 0x12CF JUMP JUMPDEST SWAP3 POP PUSH1 0x20 DUP5 ADD CALLDATALOAD PUSH2 0x1351 DUP2 PUSH2 0x12CF JUMP JUMPDEST SWAP3 SWAP6 SWAP3 SWAP5 POP POP POP PUSH1 0x40 SWAP2 SWAP1 SWAP2 ADD CALLDATALOAD SWAP1 JUMP JUMPDEST PUSH0 PUSH1 0x20 DUP3 DUP5 SUB SLT ISZERO PUSH2 0x1372 JUMPI PUSH0 DUP1 REVERT JUMPDEST DUP2 CALLDATALOAD DUP1 ISZERO ISZERO DUP2 EQ PUSH2 0x1381 JUMPI PUSH0 DUP1 REVERT JUMPDEST SWAP4 SWAP3 POP POP POP JUMP JUMPDEST PUSH0 PUSH1 0x20 DUP3 DUP5 SUB SLT ISZERO PUSH2 0x1398 JUMPI PUSH0 DUP1 REVERT JUMPDEST DUP2 CALLDATALOAD PUSH2 0x1381 DUP2 PUSH2 0x12CF JUMP JUMPDEST PUSH0 DUP1 PUSH1 0x40 DUP4 DUP6 SUB SLT ISZERO PUSH2 0x13B4 JUMPI PUSH0 DUP1 REVERT JUMPDEST DUP3 CALLDATALOAD PUSH2 0x13BF DUP2 PUSH2 0x12CF JUMP JUMPDEST SWAP2 POP PUSH1 0x20 DUP4 ADD CALLDATALOAD PUSH2 0x13CF DUP2 PUSH2 0x12CF JUMP JUMPDEST DUP1 SWAP2 POP POP SWAP3 POP SWAP3 SWAP1 POP JUMP JUMPDEST PUSH1 0x1 DUP2 DUP2 SHR SWAP1 DUP3 AND DUP1 PUSH2 0x13EE JUMPI PUSH1 0x7F DUP3 AND SWAP2 POP JUMPDEST PUSH1 0x20 DUP3 LT DUP2 SUB PUSH2 0x140C JUMPI PUSH4 0x4E487B71 PUSH1 0xE0 SHL PUSH0 MSTORE PUSH1 0x22 PUSH1 0x4 MSTORE PUSH1 0x24 PUSH0 REVERT JUMPDEST POP SWAP2 SWAP1 POP JUMP JUMPDEST PUSH4 0x4E487B71 PUSH1 0xE0 SHL PUSH0 MSTORE PUSH1 0x11 PUSH1 0x4 MSTORE PUSH1 0x24 PUSH0 REVERT JUMPDEST DUP1 DUP3 ADD DUP1 DUP3 GT ISZERO PUSH2 0x63D JUMPI PUSH2 0x63D PUSH2 0x1412 JUMP JUMPDEST DUP1 DUP3 MUL DUP2 ISZERO DUP3 DUP3 DIV DUP5 EQ OR PUSH2 0x63D JUMPI PUSH2 0x63D PUSH2 0x1412 JUMP JUMPDEST PUSH1 0x1 DUP2 DUP2 JUMPDEST DUP1 DUP6 GT ISZERO PUSH2 0x148A JUMPI DUP2 PUSH0 NOT DIV DUP3 GT ISZERO PUSH2 0x1470 JUMPI PUSH2 0x1470 PUSH2 0x1412 JUMP JUMPDEST DUP1 DUP6 AND ISZERO PUSH2 0x147D JUMPI SWAP2 DUP2 MUL SWAP2 JUMPDEST SWAP4 DUP5 SHR SWAP4 SWAP1 DUP1 MUL SWAP1 PUSH2 0x1455 JUMP JUMPDEST POP SWAP3 POP SWAP3 SWAP1 POP JUMP JUMPDEST PUSH0 DUP3 PUSH2 0x14A0 JUMPI POP PUSH1 0x1 PUSH2 0x63D JUMP JUMPDEST DUP2 PUSH2 0x14AC JUMPI POP PUSH0 PUSH2 0x63D JUMP JUMPDEST DUP2 PUSH1 0x1 DUP2 EQ PUSH2 0x14C2 JUMPI PUSH1 0x2 DUP2 EQ PUSH2 0x14CC JUMPI PUSH2 0x14E8 JUMP JUMPDEST PUSH1 0x1 SWAP2 POP POP PUSH2 0x63D JUMP JUMPDEST PUSH1 0xFF DUP5 GT ISZERO PUSH2 0x14DD JUMPI PUSH2 0x14DD PUSH2 0x1412 JUMP JUMPDEST POP POP PUSH1 0x1 DUP3 SHL PUSH2 0x63D JUMP JUMPDEST POP PUSH1 0x20 DUP4 LT PUSH2 0x133 DUP4 LT AND PUSH1 0x4E DUP5 LT PUSH1 0xB DUP5 LT AND OR ISZERO PUSH2 0x150B JUMPI POP DUP2 DUP2 EXP PUSH2 0x63D JUMP JUMPDEST PUSH2 0x1515 DUP4 DUP4 PUSH2 0x1450 JUMP JUMPDEST DUP1 PUSH0 NOT DIV DUP3 GT ISZERO PUSH2 0x1528 JUMPI PUSH2 0x1528 PUSH2 0x1412 JUMP JUMPDEST MUL SWAP4 SWAP3 POP POP POP JUMP JUMPDEST PUSH0 PUSH2 0x1381 DUP4 DUP4 PUSH2 0x1492 JUMP JUMPDEST DUP2 DUP2 SUB DUP2 DUP2 GT ISZERO PUSH2 0x63D JUMPI PUSH2 0x63D PUSH2 0x1412 JUMP JUMPDEST PUSH0 DUP3 PUSH2 0x1568 JUMPI PUSH4 0x4E487B71 PUSH1 0xE0 SHL PUSH0 MSTORE PUSH1 0x12 PUSH1 0x4 MSTORE PUSH1 0x24 PUSH0 REVERT JUMPDEST POP DIV SWAP1 JUMP INVALID LOG2 PUSH5 0x6970667358 0x22 SLT KECCAK256 0xB8 DUP13 SWAP8 0xE6 GASPRICE 0xDC 0xEE CALLDATASIZE REVERT ADD 0xEE 0xC4 CALLER STATICCALL SMOD DUP2 PUSH17 0x3C53462E8E30C848C0E511BE2655AD6473 PUSH16 0x6C634300081900330000000000000000 "
    },
    "gasEstimates": {
      "creation": {
        "codeDepositCost": "1107800",
        "executionCost": "infinite",
        "totalCost": "infinite"
      },
      "external": {
        "": "320",
        "allowance(address,address)": "infinite",
        "approve(address,uint256)": "24664",
        "balanceOf(address)": "2598",
        "decimals()": "244",
        "decreaseAllowance(address,uint256)": "26935",
        "increaseAllowance(address,uint256)": "infinite",
        "maxSupply()": "infinite",
        "mint(uint256)": "infinite",
        "mintOpen()": "2399",
        "mintedWhole(address)": "2577",
        "name()": "infinite",
        "owner()": "2411",
        "pricePerTokenWei()": "2383",
        "renounceOwnership()": "infinite",
        "setMintOpen(bool)": "27837",
        "setPrice(uint256)": "27994",
        "setTransfersEnabled(bool)": "27790",
        "setWalletMintCap(uint256)": "27983",
        "symbol()": "infinite",
        "tokensLeft()": "infinite",
        "totalSupply()": "2371",
        "transfer(address,uint256)": "53371",
        "transferFrom(address,address,uint256)": "infinite",
        "transferOwnership(address)": "infinite",
        "transfersEnabled()": "2431",
        "walletMintCap()": "2339",
        "withdraw(address)": "infinite"
      },
      "internal": {
        "_beforeTokenTransfer(address,address,uint256)": "infinite"
      }
    },
    "methodIdentifiers": {
      "allowance(address,address)": "dd62ed3e",
      "approve(address,uint256)": "095ea7b3",
      "balanceOf(address)": "70a08231",
      "decimals()": "313ce567",
      "decreaseAllowance(address,uint256)": "a457c2d7",
      "increaseAllowance(address,uint256)": "39509351",
      "maxSupply()": "d5abeb01",
      "mint(uint256)": "a0712d68",
      "mintOpen()": "24bbd049",
      "mintedWhole(address)": "cbd3e753",
      "name()": "06fdde03",
      "owner()": "8da5cb5b",
      "pricePerTokenWei()": "cd742793",
      "renounceOwnership()": "715018a6",
      "setMintOpen(bool)": "f8004d31",
      "setPrice(uint256)": "91b7f5ed",
      "setTransfersEnabled(bool)": "26b9ce13",
      "setWalletMintCap(uint256)": "1eae99c5",
      "symbol()": "95d89b41",
      "tokensLeft()": "b31f8f93",
      "totalSupply()": "18160ddd",
      "transfer(address,uint256)": "a9059cbb",
      "transferFrom(address,address,uint256)": "23b872dd",
      "transferOwnership(address)": "f2fde38b",
      "transfersEnabled()": "bef97c87",
      "walletMintCap()": "cb2fb89c",
      "withdraw(address)": "51cff8d9"
    }
  },
  "storageLayout": {
    "storage": [
      {
        "astId": 592,
        "contract": "hole.sol:HOLE",
        "label": "_balances",
        "offset": 0,
        "slot": "0",
        "type": "t_mapping(t_address,t_uint256)"
      },
      {
        "astId": 598,
        "contract": "hole.sol:HOLE",
        "label": "_allowances",
        "offset": 0,
        "slot": "1",
        "type": "t_mapping(t_address,t_mapping(t_address,t_uint256))"
      },
      {
        "astId": 600,
        "contract": "hole.sol:HOLE",
        "label": "_totalSupply",
        "offset": 0,
        "slot": "2",
        "type": "t_uint256"
      },
      {
        "astId": 602,
        "contract": "hole.sol:HOLE",
        "label": "_name",
        "offset": 0,
        "slot": "3",
        "type": "t_string_storage"
      },
      {
        "astId": 604,
        "contract": "hole.sol:HOLE",
        "label": "_symbol",
        "offset": 0,
        "slot": "4",
        "type": "t_string_storage"
      },
      {
        "astId": 406,
        "contract": "hole.sol:HOLE",
        "label": "_owner",
        "offset": 0,
        "slot": "5",
        "type": "t_address"
      },
      {
        "astId": 522,
        "contract": "hole.sol:HOLE",
        "label": "_status",
        "offset": 0,
        "slot": "6",
        "type": "t_uint256"
      },
      {
        "astId": 13,
        "contract": "hole.sol:HOLE",
        "label": "pricePerTokenWei",
        "offset": 0,
        "slot": "7",
        "type": "t_uint256"
      },
      {
        "astId": 20,
        "contract": "hole.sol:HOLE",
        "label": "mintOpen",
        "offset": 0,
        "slot": "8",
        "type": "t_bool"
      },
      {
        "astId": 24,
        "contract": "hole.sol:HOLE",
        "label": "transfersEnabled",
        "offset": 1,
        "slot": "8",
        "type": "t_bool"
      },
      {
        "astId": 27,
        "contract": "hole.sol:HOLE",
        "label": "walletMintCap",
        "offset": 0,
        "slot": "9",
        "type": "t_uint256"
      },
      {
        "astId": 32,
        "contract": "hole.sol:HOLE",
        "label": "mintedWhole",
        "offset": 0,
        "slot": "10",
        "type": "t_mapping(t_address,t_uint256)"
      }
    ],
    "types": {
      "t_address": {
        "encoding": "inplace",
        "label": "address",
        "numberOfBytes": "20"
      },
      "t_bool": {
        "encoding": "inplace",
        "label": "bool",
        "numberOfBytes": "1"
      },
      "t_mapping(t_address,t_mapping(t_address,t_uint256))": {
        "encoding": "mapping",
        "key": "t_address",
        "label": "mapping(address => mapping(address => uint256))",
        "numberOfBytes": "32",
        "value": "t_mapping(t_address,t_uint256)"
      },
      "t_mapping(t_address,t_uint256)": {
        "encoding": "mapping",
        "key": "t_address",
        "label": "mapping(address => uint256)",
        "numberOfBytes": "32",
        "value": "t_uint256"
      },
      "t_string_storage": {
        "encoding": "bytes",
        "label": "string",
        "numberOfBytes": "32"
      },
      "t_uint256": {
        "encoding": "inplace",
        "label": "uint256",
        "numberOfBytes": "32"
      }
    }
  },
  "userdoc": {
    "kind": "user",
    "methods": {
      "maxSupply()": {
        "notice": "Hard cap in smallest units (includes decimals)"
      },
      "mint(uint256)": {
        "notice": "Mint `amount` WHOLE tokens by paying exact ETH (0 if free)"
      },
      "mintOpen()": {
        "notice": "Global mint switch"
      },
      "mintedWhole(address)": {
        "notice": "WHOLE tokens minted via mint() per wallet"
      },
      "pricePerTokenWei()": {
        "notice": "Price per ONE whole token (18 decimals) in wei. 0 => free mint."
      },
      "setPrice(uint256)": {
        "notice": "Set new price in wei (0 allowed for free mint)"
      },
      "setTransfersEnabled(bool)": {
        "notice": "Enable/disable all transfers (does not affect minting)"
      },
      "setWalletMintCap(uint256)": {
        "notice": "Set per-wallet mint cap (WHOLE tokens). 0 => no cap."
      },
      "transfersEnabled()": {
        "notice": "Global transfers toggle: false => non-transferable"
      },
      "walletMintCap()": {
        "notice": "Per-wallet mint cap in WHOLE tokens (0 => no cap)"
      }
    },
    "version": 1
  }
}