{
  "abi": [
    {
      "inputs": [
        {
          "internalType": "string",
          "name": "_name",
          "type": "string"
        },
        {
          "internalType": "string",
          "name": "_symbol",
          "type": "string"
        },
        {
          "internalType": "uint256",
          "name": "_pricePerTokenWei",
          "type": "uint256"
        },
        {
          "internalType": "uint256",
          "name": "_maxSupplyWholeTokens",
          "type": "uint256"
        },
        {
          "internalType": "address",
          "name": "_initialOwner",
          "type": "address"
        },
        {
          "internalType": "uint256",
          "name": "_walletMintCapWhole",
          "type": "uint256"
        }
      ],
      "stateMutability": "nonpayable",
      "type": "constructor"
    },
    {
      "inputs": [
        {
          "internalType": "address",
          "name": "spender",
          "type": "address"
        },
        {
          "internalType": "uint256",
          "name": "allowance",
          "type": "uint256"
        },
        {
          "internalType": "uint256",
          "name": "needed",
          "type": "uint256"
        }
      ],
      "name": "ERC20InsufficientAllowance",
      "type": "error"
    },
    {
      "inputs": [
        {
          "internalType": "address",
          "name": "sender",
          "type": "address"
        },
        {
          "internalType": "uint256",
          "name": "balance",
          "type": "uint256"
        },
        {
          "internalType": "uint256",
          "name": "needed",
          "type": "uint256"
        }
      ],
      "name": "ERC20InsufficientBalance",
      "type": "error"
    },
    {
      "inputs": [
        {
          "internalType": "address",
          "name": "approver",
          "type": "address"
        }
      ],
      "name": "ERC20InvalidApprover",
      "type": "error"
    },
    {
      "inputs": [
        {
          "internalType": "address",
          "name": "receiver",
          "type": "address"
        }
      ],
      "name": "ERC20InvalidReceiver",
      "type": "error"
    },
    {
      "inputs": [
        {
          "internalType": "address",
          "name": "sender",
          "type": "address"
        }
      ],
      "name": "ERC20InvalidSender",
      "type": "error"
    },
    {
      "inputs": [
        {
          "internalType": "address",
          "name": "spender",
          "type": "address"
        }
      ],
      "name": "ERC20InvalidSpender",
      "type": "error"
    },
    {
      "inputs": [
        {
          "internalType": "address",
          "name": "owner",
          "type": "address"
        }
      ],
      "name": "OwnableInvalidOwner",
      "type": "error"
    },
    {
      "inputs": [
        {
          "internalType": "address",
          "name": "account",
          "type": "address"
        }
      ],
      "name": "OwnableUnauthorizedAccount",
      "type": "error"
    },
    {
      "inputs": [],
      "name": "ReentrancyGuardReentrantCall",
      "type": "error"
    },
    {
      "anonymous": false,
      "inputs": [
        {
          "indexed": true,
          "internalType": "address",
          "name": "owner",
          "type": "address"
        },
        {
          "indexed": true,
          "internalType": "address",
          "name": "spender",
          "type": "address"
        },
        {
          "indexed": false,
          "internalType": "uint256",
          "name": "value",
          "type": "uint256"
        }
      ],
      "name": "Approval",
      "type": "event"
    },
    {
      "anonymous": false,
      "inputs": [
        {
          "indexed": false,
          "internalType": "bool",
          "name": "open",
          "type": "bool"
        }
      ],
      "name": "MintOpenChanged",
      "type": "event"
    },
    {
      "anonymous": false,
      "inputs": [
        {
          "indexed": true,
          "internalType": "address",
          "name": "minter",
          "type": "address"
        },
        {
          "indexed": false,
          "internalType": "uint256",
          "name": "amount",
          "type": "uint256"
        },
        {
          "indexed": false,
          "internalType": "uint256",
          "name": "paid",
          "type": "uint256"
        }
      ],
      "name": "Minted",
      "type": "event"
    },
    {
      "anonymous": false,
      "inputs": [
        {
          "indexed": true,
          "internalType": "address",
          "name": "previousOwner",
          "type": "address"
        },
        {
          "indexed": true,
          "internalType": "address",
          "name": "newOwner",
          "type": "address"
        }
      ],
      "name": "OwnershipTransferred",
      "type": "event"
    },
    {
      "anonymous": false,
      "inputs": [
        {
          "indexed": false,
          "internalType": "uint256",
          "name": "oldPrice",
          "type": "uint256"
        },
        {
          "indexed": false,
          "internalType": "uint256",
          "name": "newPrice",
          "type": "uint256"
        }
      ],
      "name": "PriceChanged",
      "type": "event"
    },
    {
      "anonymous": false,
      "inputs": [
        {
          "indexed": true,
          "internalType": "address",
          "name": "from",
          "type": "address"
        },
        {
          "indexed": true,
          "internalType": "address",
          "name": "to",
          "type": "address"
        },
        {
          "indexed": false,
          "internalType": "uint256",
          "name": "value",
          "type": "uint256"
        }
      ],
      "name": "Transfer",
      "type": "event"
    },
    {
      "anonymous": false,
      "inputs": [
        {
          "indexed": false,
          "internalType": "bool",
          "name": "enabled",
          "type": "bool"
        }
      ],
      "name": "TransfersEnabledChanged",
      "type": "event"
    },
    {
      "anonymous": false,
      "inputs": [
        {
          "indexed": false,
          "internalType": "uint256",
          "name": "oldCap",
          "type": "uint256"
        },
        {
          "indexed": false,
          "internalType": "uint256",
          "name": "newCap",
          "type": "uint256"
        }
      ],
      "name": "WalletMintCapChanged",
      "type": "event"
    },
    {
      "stateMutability": "payable",
      "type": "fallback"
    },
    {
      "inputs": [
        {
          "internalType": "address",
          "name": "owner",
          "type": "address"
        },
        {
          "internalType": "address",
          "name": "spender",
          "type": "address"
        }
      ],
      "name": "allowance",
      "outputs": [
        {
          "internalType": "uint256",
          "name": "",
          "type": "uint256"
        }
      ],
      "stateMutability": "view",
      "type": "function"
    },
    {
      "inputs": [
        {
          "internalType": "address",
          "name": "spender",
          "type": "address"
        },
        {
          "internalType": "uint256",
          "name": "value",
          "type": "uint256"
        }
      ],
      "name": "approve",
      "outputs": [
        {
          "internalType": "bool",
          "name": "",
          "type": "bool"
        }
      ],
      "stateMutability": "nonpayable",
      "type": "function"
    },
    {
      "inputs": [
        {
          "internalType": "address",
          "name": "account",
          "type": "address"
        }
      ],
      "name": "balanceOf",
      "outputs": [
        {
          "internalType": "uint256",
          "name": "",
          "type": "uint256"
        }
      ],
      "stateMutability": "view",
      "type": "function"
    },
    {
      "inputs": [],
      "name": "decimals",
      "outputs": [
        {
          "internalType": "uint8",
          "name": "",
          "type": "uint8"
        }
      ],
      "stateMutability": "view",
      "type": "function"
    },
    {
      "inputs": [],
      "name": "maxSupply",
      "outputs": [
        {
          "internalType": "uint256",
          "name": "",
          "type": "uint256"
        }
      ],
      "stateMutability": "view",
      "type": "function"
    },
    {
      "inputs": [
        {
          "internalType": "uint256",
          "name": "amount",
          "type": "uint256"
        }
      ],
      "name": "mint",
      "outputs": [],
      "stateMutability": "payable",
      "type": "function"
    },
    {
      "inputs": [],
      "name": "mintOpen",
      "outputs": [
        {
          "internalType": "bool",
          "name": "",
          "type": "bool"
        }
      ],
      "stateMutability": "view",
      "type": "function"
    },
    {
      "inputs": [
        {
          "internalType": "address",
          "name": "",
          "type": "address"
        }
      ],
      "name": "mintedWhole",
      "outputs": [
        {
          "internalType": "uint256",
          "name": "",
          "type": "uint256"
        }
      ],
      "stateMutability": "view",
      "type": "function"
    },
    {
      "inputs": [],
      "name": "name",
      "outputs": [
        {
          "internalType": "string",
          "name": "",
          "type": "string"
        }
      ],
      "stateMutability": "view",
      "type": "function"
    },
    {
      "inputs": [],
      "name": "owner",
      "outputs": [
        {
          "internalType": "address",
          "name": "",
          "type": "address"
        }
      ],
      "stateMutability": "view",
      "type": "function"
    },
    {
      "inputs": [],
      "name": "pricePerTokenWei",
      "outputs": [
        {
          "internalType": "uint256",
          "name": "",
          "type": "uint256"
        }
      ],
      "stateMutability": "view",
      "type": "function"
    },
    {
      "inputs": [],
      "name": "renounceOwnership",
      "outputs": [],
      "stateMutability": "nonpayable",
      "type": "function"
    },
    {
      "inputs": [
        {
          "internalType": "bool",
          "name": "open",
          "type": "bool"
        }
      ],
      "name": "setMintOpen",
      "outputs": [],
      "stateMutability": "nonpayable",
      "type": "function"
    },
    {
      "inputs": [
        {
          "internalType": "uint256",
          "name": "newPriceWei",
          "type": "uint256"
        }
      ],
      "name": "setPrice",
      "outputs": [],
      "stateMutability": "nonpayable",
      "type": "function"
    },
    {
      "inputs": [
        {
          "internalType": "bool",
          "name": "enabled",
          "type": "bool"
        }
      ],
      "name": "setTransfersEnabled",
      "outputs": [],
      "stateMutability": "nonpayable",
      "type": "function"
    },
    {
      "inputs": [
        {
          "internalType": "uint256",
          "name": "newCapWhole",
          "type": "uint256"
        }
      ],
      "name": "setWalletMintCap",
      "outputs": [],
      "stateMutability": "nonpayable",
      "type": "function"
    },
    {
      "inputs": [],
      "name": "symbol",
      "outputs": [
        {
          "internalType": "string",
          "name": "",
          "type": "string"
        }
      ],
      "stateMutability": "view",
      "type": "function"
    },
    {
      "inputs": [],
      "name": "tokensLeft",
      "outputs": [
        {
          "internalType": "uint256",
          "name": "",
          "type": "uint256"
        }
      ],
      "stateMutability": "view",
      "type": "function"
    },
    {
      "inputs": [],
      "name": "totalSupply",
      "outputs": [
        {
          "internalType": "uint256",
          "name": "",
          "type": "uint256"
        }
      ],
      "stateMutability": "view",
      "type": "function"
    },
    {
      "inputs": [
        {
          "internalType": "address",
          "name": "to",
          "type": "address"
        },
        {
          "internalType": "uint256",
          "name": "value",
          "type": "uint256"
        }
      ],
      "name": "transfer",
      "outputs": [
        {
          "internalType": "bool",
          "name": "",
          "type": "bool"
        }
      ],
      "stateMutability": "nonpayable",
      "type": "function"
    },
    {
      "inputs": [
        {
          "internalType": "address",
          "name": "from",
          "type": "address"
        },
        {
          "internalType": "address",
          "name": "to",
          "type": "address"
        },
        {
          "internalType": "uint256",
          "name": "value",
          "type": "uint256"
        }
      ],
      "name": "transferFrom",
      "outputs": [
        {
          "internalType": "bool",
          "name": "",
          "type": "bool"
        }
      ],
      "stateMutability": "nonpayable",
      "type": "function"
    },
    {
      "inputs": [
        {
          "internalType": "address",
          "name": "newOwner",
          "type": "address"
        }
      ],
      "name": "transferOwnership",
      "outputs": [],
      "stateMutability": "nonpayable",
      "type": "function"
    },
    {
      "inputs": [],
      "name": "transfersEnabled",
      "outputs": [
        {
          "internalType": "bool",
          "name": "",
          "type": "bool"
        }
      ],
      "stateMutability": "view",
      "type": "function"
    },
    {
      "inputs": [],
      "name": "walletMintCap",
      "outputs": [
        {
          "internalType": "uint256",
          "name": "",
          "type": "uint256"
        }
      ],
      "stateMutability": "view",
      "type": "function"
    },
    {
      "inputs": [
        {
          "internalType": "address payable",
          "name": "to",
          "type": "address"
        }
      ],
      "name": "withdraw",
      "outputs": [],
      "stateMutability": "nonpayable",
      "type": "function"
    },
    {
      "stateMutability": "payable",
      "type": "receive"
    }
  ],
  "devdoc": {
    "errors": {
      "ERC20InsufficientAllowance(address,uint256,uint256)": [
        {
          "details": "Indicates a failure with the `spender`’s `allowance`. Used in transfers.",
          "params": {
            "allowance": "Amount of tokens a `spender` is allowed to operate with.",
            "needed": "Minimum amount required to perform a transfer.",
            "spender": "Address that may be allowed to operate on tokens without being their owner."
          }
        }
      ],
      "ERC20InsufficientBalance(address,uint256,uint256)": [
        {
          "details": "Indicates an error related to the current `balance` of a `sender`. Used in transfers.",
          "params": {
            "balance": "Current balance for the interacting account.",
            "needed": "Minimum amount required to perform a transfer.",
            "sender": "Address whose tokens are being transferred."
          }
        }
      ],
      "ERC20InvalidApprover(address)": [
        {
          "details": "Indicates a failure with the `approver` of a token to be approved. Used in approvals.",
          "params": {
            "approver": "Address initiating an approval operation."
          }
        }
      ],
      "ERC20InvalidReceiver(address)": [
        {
          "details": "Indicates a failure with the token `receiver`. Used in transfers.",
          "params": {
            "receiver": "Address to which tokens are being transferred."
          }
        }
      ],
      "ERC20InvalidSender(address)": [
        {
          "details": "Indicates a failure with the token `sender`. Used in transfers.",
          "params": {
            "sender": "Address whose tokens are being transferred."
          }
        }
      ],
      "ERC20InvalidSpender(address)": [
        {
          "details": "Indicates a failure with the `spender` to be approved. Used in approvals.",
          "params": {
            "spender": "Address that may be allowed to operate on tokens without being their owner."
          }
        }
      ],
      "OwnableInvalidOwner(address)": [
        {
          "details": "The owner is not a valid owner account. (eg. `address(0)`)"
        }
      ],
      "OwnableUnauthorizedAccount(address)": [
        {
          "details": "The caller account is not authorized to perform an operation."
        }
      ],
      "ReentrancyGuardReentrantCall()": [
        {
          "details": "Unauthorized reentrant call."
        }
      ]
    },
    "events": {
      "Approval(address,address,uint256)": {
        "details": "Emitted when the allowance of a `spender` for an `owner` is set by a call to {approve}. `value` is the new allowance."
      },
      "Transfer(address,address,uint256)": {
        "details": "Emitted when `value` tokens are moved from one account (`from`) to another (`to`). Note that `value` may be zero."
      }
    },
    "kind": "dev",
    "methods": {
      "allowance(address,address)": {
        "details": "See {IERC20-allowance}."
      },
      "approve(address,uint256)": {
        "details": "See {IERC20-approve}. NOTE: If `value` is the maximum `uint256`, the allowance is not updated on `transferFrom`. This is semantically equivalent to an infinite approval. Requirements: - `spender` cannot be the zero address."
      },
      "balanceOf(address)": {
        "details": "See {IERC20-balanceOf}."
      },
      "constructor": {
        "params": {
          "_initialOwner": "owner address",
          "_maxSupplyWholeTokens": "cap in WHOLE tokens (e.g., 1_000_000)",
          "_name": "token name",
          "_pricePerTokenWei": "0 (free) or e.g., 0.001 ether",
          "_symbol": "token symbol",
          "_walletMintCapWhole": "per-wallet cap in WHOLE tokens (0 => no cap)"
        }
      },
      "decimals()": {
        "details": "Returns the number of decimals used to get its user representation. For example, if `decimals` equals `2`, a balance of `505` tokens should be displayed to a user as `5.05` (`505 / 10 ** 2`). Tokens usually opt for a value of 18, imitating the relationship between Ether and Wei. This is the default value returned by this function, unless it's overridden. NOTE: This information is only used for _display_ purposes: it in no way affects any of the arithmetic of the contract, including {IERC20-balanceOf} and {IERC20-transfer}."
      },
      "name()": {
        "details": "Returns the name of the token."
      },
      "owner()": {
        "details": "Returns the address of the current owner."
      },
      "renounceOwnership()": {
        "details": "Leaves the contract without owner. It will not be possible to call `onlyOwner` functions. Can only be called by the current owner. NOTE: Renouncing ownership will leave the contract without an owner, thereby disabling any functionality that is only available to the owner."
      },
      "symbol()": {
        "details": "Returns the symbol of the token, usually a shorter version of the name."
      },
      "totalSupply()": {
        "details": "See {IERC20-totalSupply}."
      },
      "transfer(address,uint256)": {
        "details": "See {IERC20-transfer}. Requirements: - `to` cannot be the zero address. - the caller must have a balance of at least `value`."
      },
      "transferFrom(address,address,uint256)": {
        "details": "See {IERC20-transferFrom}. Emits an {Approval} event indicating the updated allowance. This is not required by the EIP. See the note at the beginning of {ERC20}. NOTE: Does not update the allowance if the current allowance is the maximum `uint256`. Requirements: - `from` and `to` cannot be the zero address. - `from` must have a balance of at least `value`. - the caller must have allowance for ``from``'s tokens of at least `value`."
      },
      "transferOwnership(address)": {
        "details": "Transfers ownership of the contract to a new account (`newOwner`). Can only be called by the current owner."
      }
    },
    "version": 1
  },
  "evm": {
    "assembly": "    /* \"slap.sol\":417:4802  contract SLAP is ERC20, Ownable, ReentrancyGuard {... */\n  mstore(0x40, 0xa0)\n    /* \"slap.sol\":645:672  bool public mintOpen = true */\n  0x08\n  dup1\n  sload\n  not(0xffff)\n    /* \"slap.sol\":708:744  bool public transfersEnabled = false */\n  and\n    /* \"slap.sol\":668:672  true */\n  0x01\n    /* \"slap.sol\":708:744  bool public transfersEnabled = false */\n  or\n  swap1\n  sstore\n    /* \"slap.sol\":1617:2327  constructor(... */\n  callvalue\n  dup1\n  iszero\n  tag_1\n  jumpi\n  0x00\n  dup1\n  revert\ntag_1:\n  pop\n  mload(0x40)\n  sub(codesize, bytecodeSize)\n  dup1\n  bytecodeSize\n  dup4\n  codecopy\n  dup2\n  add\n  0x40\n  dup2\n  swap1\n  mstore\n  tag_2\n  swap2\n  tag_3\n  jump\t// in\ntag_2:\n    /* \"slap.sol\":1867:1880  _initialOwner */\n  dup2\n    /* \"slap.sol\":1843:1848  _name */\n  dup7\n    /* \"slap.sol\":1850:1857  _symbol */\n  dup7\n    /* \"@openzeppelin/contracts/token/ERC20/ERC20.sol\":1962:1967   */\n  0x03\n    /* \"@openzeppelin/contracts/token/ERC20/ERC20.sol\":1962:1975   */\n  tag_9\n    /* \"slap.sol\":1843:1848  _name */\n  dup4\n    /* \"@openzeppelin/contracts/token/ERC20/ERC20.sol\":1962:1967   */\n  dup3\n    /* \"@openzeppelin/contracts/token/ERC20/ERC20.sol\":1962:1975   */\n  tag_10\n  jump\t// in\ntag_9:\n  pop\n    /* \"@openzeppelin/contracts/token/ERC20/ERC20.sol\":1985:1992   */\n  0x04\n    /* \"@openzeppelin/contracts/token/ERC20/ERC20.sol\":1985:2002   */\n  tag_11\n    /* \"@openzeppelin/contracts/token/ERC20/ERC20.sol\":1995:2002   */\n  dup3\n    /* \"@openzeppelin/contracts/token/ERC20/ERC20.sol\":1985:1992   */\n  dup3\n    /* \"@openzeppelin/contracts/token/ERC20/ERC20.sol\":1985:2002   */\n  tag_10\n  jump\t// in\ntag_11:\n  pop\n  pop\n  pop\n  sub(shl(0xa0, 0x01), 0x01)\n    /* \"@openzeppelin/contracts/access/Ownable.sol\":1273:1299   */\n  dup2\n  and\n    /* \"@openzeppelin/contracts/access/Ownable.sol\":1269:1364   */\n  tag_13\n  jumpi\n    /* \"@openzeppelin/contracts/access/Ownable.sol\":1322:1353   */\n  mload(0x40)\n  shl(0xe0, 0x1e4fbdf7)\n  dup2\n  mstore\n    /* \"@openzeppelin/contracts/access/Ownable.sol\":1350:1351   */\n  0x00\n    /* \"@openzeppelin/contracts/access/Ownable.sol\":1322:1353   */\n  0x04\n  dup3\n  add\n    /* \"#utility.yul\":4488:4539   */\n  mstore\n    /* \"#utility.yul\":4461:4479   */\n  0x24\n  add\n    /* \"@openzeppelin/contracts/access/Ownable.sol\":1322:1353   */\ntag_14:\n  mload(0x40)\n  dup1\n  swap2\n  sub\n  swap1\n  revert\n    /* \"@openzeppelin/contracts/access/Ownable.sol\":1269:1364   */\ntag_13:\n    /* \"@openzeppelin/contracts/access/Ownable.sol\":1373:1405   */\n  tag_16\n    /* \"@openzeppelin/contracts/access/Ownable.sol\":1392:1404   */\n  dup2\n    /* \"@openzeppelin/contracts/access/Ownable.sol\":1373:1391   */\n  tag_17\n    /* \"@openzeppelin/contracts/access/Ownable.sol\":1373:1405   */\n  jump\t// in\ntag_16:\n  pop\n    /* \"@openzeppelin/contracts/utils/ReentrancyGuard.sol\":1713:1714   */\n  0x01\n    /* \"@openzeppelin/contracts/utils/ReentrancyGuard.sol\":1917:1924   */\n  0x06\n    /* \"@openzeppelin/contracts/utils/ReentrancyGuard.sol\":1917:1938   */\n  sstore\n    /* \"slap.sol\":1900:1925  _maxSupplyWholeTokens > 0 */\n  dup3\n    /* \"slap.sol\":1892:1935  require(_maxSupplyWholeTokens > 0, \"cap=0\") */\n  tag_20\n  jumpi\n  mload(0x40)\n  shl(0xe5, 0x461bcd)\n  dup2\n  mstore\n    /* \"#utility.yul\":4752:4754   */\n  0x20\n    /* \"slap.sol\":1892:1935  require(_maxSupplyWholeTokens > 0, \"cap=0\") */\n  0x04\n  dup3\n  add\n    /* \"#utility.yul\":4734:4755   */\n  mstore\n    /* \"#utility.yul\":4791:4792   */\n  0x05\n    /* \"#utility.yul\":4771:4789   */\n  0x24\n  dup3\n  add\n    /* \"#utility.yul\":4764:4793   */\n  mstore\n  shl(0xdc, 0x06361703d3)\n    /* \"#utility.yul\":4809:4827   */\n  0x44\n  dup3\n  add\n    /* \"#utility.yul\":4802:4837   */\n  mstore\n    /* \"#utility.yul\":4854:4872   */\n  0x64\n  add\n    /* \"slap.sol\":1892:1935  require(_maxSupplyWholeTokens > 0, \"cap=0\") */\n  tag_14\n    /* \"#utility.yul\":4550:4878   */\n  jump\n    /* \"slap.sol\":1892:1935  require(_maxSupplyWholeTokens > 0, \"cap=0\") */\ntag_20:\n  sub(shl(0xa0, 0x01), 0x01)\n    /* \"slap.sol\":1953:1980  _initialOwner != address(0) */\n  dup3\n  and\n    /* \"slap.sol\":1945:1992  require(_initialOwner != address(0), \"owner=0\") */\n  tag_23\n  jumpi\n  mload(0x40)\n  shl(0xe5, 0x461bcd)\n  dup2\n  mstore\n    /* \"#utility.yul\":5085:5087   */\n  0x20\n    /* \"slap.sol\":1945:1992  require(_initialOwner != address(0), \"owner=0\") */\n  0x04\n  dup3\n  add\n    /* \"#utility.yul\":5067:5088   */\n  mstore\n    /* \"#utility.yul\":5124:5125   */\n  0x07\n    /* \"#utility.yul\":5104:5122   */\n  0x24\n  dup3\n  add\n    /* \"#utility.yul\":5097:5126   */\n  mstore\n  shl(0xcc, 0x06f776e65723d3)\n    /* \"#utility.yul\":5142:5160   */\n  0x44\n  dup3\n  add\n    /* \"#utility.yul\":5135:5172   */\n  mstore\n    /* \"#utility.yul\":5189:5207   */\n  0x64\n  add\n    /* \"slap.sol\":1945:1992  require(_initialOwner != address(0), \"owner=0\") */\n  tag_14\n    /* \"#utility.yul\":4883:5213   */\n  jump\n    /* \"slap.sol\":1945:1992  require(_initialOwner != address(0), \"owner=0\") */\ntag_23:\n    /* \"slap.sol\":2003:2019  pricePerTokenWei */\n  0x07\n    /* \"slap.sol\":2003:2039  pricePerTokenWei = _pricePerTokenWei */\n  dup5\n  swap1\n  sstore\n    /* \"slap.sol\":2098:2123  10 ** uint256(decimals()) */\n  tag_28\n    /* \"@openzeppelin/contracts/token/ERC20/ERC20.sol\":3075:3077   */\n  0x12\n    /* \"slap.sol\":2098:2100  10 */\n  0x0a\n    /* \"slap.sol\":2098:2123  10 ** uint256(decimals()) */\n  tag_29\n  jump\t// in\ntag_28:\n    /* \"slap.sol\":2073:2124  _maxSupplyWholeTokens * (10 ** uint256(decimals())) */\n  tag_30\n  swap1\n    /* \"slap.sol\":2073:2094  _maxSupplyWholeTokens */\n  dup5\n    /* \"slap.sol\":2073:2124  _maxSupplyWholeTokens * (10 ** uint256(decimals())) */\n  tag_31\n  jump\t// in\ntag_30:\n    /* \"slap.sol\":2061:2124  maxSupply = _maxSupplyWholeTokens * (10 ** uint256(decimals())) */\n  0x80\n  mstore\n    /* \"slap.sol\":2134:2147  walletMintCap */\n  0x09\n    /* \"slap.sol\":2134:2169  walletMintCap = _walletMintCapWhole */\n  sstore\n  pop\n    /* \"slap.sol\":417:4802  contract SLAP is ERC20, Ownable, ReentrancyGuard {... */\n  tag_44\n  swap4\n  pop\n  pop\n  pop\n  pop\n  jump\n    /* \"@openzeppelin/contracts/access/Ownable.sol\":2912:3099   */\ntag_17:\n    /* \"@openzeppelin/contracts/access/Ownable.sol\":3004:3010   */\n  0x05\n  dup1\n  sload\n  sub(shl(0xa0, 0x01), 0x01)\n    /* \"@openzeppelin/contracts/access/Ownable.sol\":3020:3037   */\n  dup4\n  dup2\n  and\n  not(sub(shl(0xa0, 0x01), 0x01))\n  dup4\n  and\n  dup2\n  or\n  swap1\n  swap4\n  sstore\n    /* \"@openzeppelin/contracts/access/Ownable.sol\":3052:3092   */\n  mload(0x40)\n    /* \"@openzeppelin/contracts/access/Ownable.sol\":3004:3010   */\n  swap2\n  and\n  swap2\n    /* \"@openzeppelin/contracts/access/Ownable.sol\":3020:3037   */\n  swap1\n    /* \"@openzeppelin/contracts/access/Ownable.sol\":3004:3010   */\n  dup3\n  swap1\n    /* \"@openzeppelin/contracts/access/Ownable.sol\":3052:3092   */\n  0x8be0079c531659141344cd1fd0a4f28419497f9722a3daafe3b4186f6b6457e0\n  swap1\n    /* \"@openzeppelin/contracts/access/Ownable.sol\":2985:3001   */\n  0x00\n  swap1\n    /* \"@openzeppelin/contracts/access/Ownable.sol\":3052:3092   */\n  log3\n    /* \"@openzeppelin/contracts/access/Ownable.sol\":2975:3099   */\n  pop\n    /* \"@openzeppelin/contracts/access/Ownable.sol\":2912:3099   */\n  pop\n  jump\t// out\n    /* \"#utility.yul\":14:141   */\ntag_35:\n    /* \"#utility.yul\":75:85   */\n  0x4e487b71\n    /* \"#utility.yul\":70:73   */\n  0xe0\n    /* \"#utility.yul\":66:86   */\n  shl\n    /* \"#utility.yul\":63:64   */\n  0x00\n    /* \"#utility.yul\":56:87   */\n  mstore\n    /* \"#utility.yul\":106:110   */\n  0x41\n    /* \"#utility.yul\":103:104   */\n  0x04\n    /* \"#utility.yul\":96:111   */\n  mstore\n    /* \"#utility.yul\":130:134   */\n  0x24\n    /* \"#utility.yul\":127:128   */\n  0x00\n    /* \"#utility.yul\":120:135   */\n  revert\n    /* \"#utility.yul\":146:862   */\ntag_36:\n    /* \"#utility.yul\":200:205   */\n  0x00\n    /* \"#utility.yul\":253:256   */\n  dup3\n    /* \"#utility.yul\":246:250   */\n  0x1f\n    /* \"#utility.yul\":238:244   */\n  dup4\n    /* \"#utility.yul\":234:251   */\n  add\n    /* \"#utility.yul\":230:257   */\n  slt\n    /* \"#utility.yul\":220:275   */\n  tag_47\n  jumpi\n    /* \"#utility.yul\":271:272   */\n  0x00\n    /* \"#utility.yul\":268:269   */\n  dup1\n    /* \"#utility.yul\":261:273   */\n  revert\n    /* \"#utility.yul\":220:275   */\ntag_47:\n    /* \"#utility.yul\":294:307   */\n  dup2\n  mload\n  sub(shl(0x40, 0x01), 0x01)\n    /* \"#utility.yul\":356:366   */\n  dup1\n  dup3\n  gt\n    /* \"#utility.yul\":353:389   */\n  iszero\n  tag_49\n  jumpi\n    /* \"#utility.yul\":369:387   */\n  tag_49\n  tag_35\n  jump\t// in\ntag_49:\n    /* \"#utility.yul\":444:446   */\n  0x40\n    /* \"#utility.yul\":438:447   */\n  mload\n    /* \"#utility.yul\":412:414   */\n  0x1f\n    /* \"#utility.yul\":498:511   */\n  dup4\n  add\n  not(0x1f)\n    /* \"#utility.yul\":494:516   */\n  swap1\n  dup2\n  and\n    /* \"#utility.yul\":518:520   */\n  0x3f\n    /* \"#utility.yul\":490:521   */\n  add\n    /* \"#utility.yul\":486:526   */\n  and\n    /* \"#utility.yul\":474:527   */\n  dup2\n  add\n  swap1\n    /* \"#utility.yul\":542:560   */\n  dup3\n  dup3\n  gt\n    /* \"#utility.yul\":562:584   */\n  dup2\n  dup4\n  lt\n    /* \"#utility.yul\":539:585   */\n  or\n    /* \"#utility.yul\":536:608   */\n  iszero\n  tag_51\n  jumpi\n    /* \"#utility.yul\":588:606   */\n  tag_51\n  tag_35\n  jump\t// in\ntag_51:\n    /* \"#utility.yul\":628:638   */\n  dup2\n    /* \"#utility.yul\":624:626   */\n  0x40\n    /* \"#utility.yul\":617:639   */\n  mstore\n    /* \"#utility.yul\":663:665   */\n  dup4\n    /* \"#utility.yul\":655:661   */\n  dup2\n    /* \"#utility.yul\":648:666   */\n  mstore\n    /* \"#utility.yul\":709:712   */\n  dup7\n    /* \"#utility.yul\":702:706   */\n  0x20\n    /* \"#utility.yul\":697:699   */\n  dup6\n    /* \"#utility.yul\":689:695   */\n  dup9\n    /* \"#utility.yul\":685:700   */\n  add\n    /* \"#utility.yul\":681:707   */\n  add\n    /* \"#utility.yul\":678:713   */\n  gt\n    /* \"#utility.yul\":675:730   */\n  iszero\n  tag_52\n  jumpi\n    /* \"#utility.yul\":726:727   */\n  0x00\n    /* \"#utility.yul\":723:724   */\n  dup1\n    /* \"#utility.yul\":716:728   */\n  revert\n    /* \"#utility.yul\":675:730   */\ntag_52:\n    /* \"#utility.yul\":783:785   */\n  dup4\n    /* \"#utility.yul\":776:780   */\n  0x20\n    /* \"#utility.yul\":768:774   */\n  dup8\n    /* \"#utility.yul\":764:781   */\n  add\n    /* \"#utility.yul\":757:761   */\n  0x20\n    /* \"#utility.yul\":749:755   */\n  dup4\n    /* \"#utility.yul\":745:762   */\n  add\n    /* \"#utility.yul\":739:786   */\n  mcopy\n    /* \"#utility.yul\":830:831   */\n  0x00\n    /* \"#utility.yul\":823:827   */\n  0x20\n    /* \"#utility.yul\":818:820   */\n  dup6\n    /* \"#utility.yul\":810:816   */\n  dup4\n    /* \"#utility.yul\":806:821   */\n  add\n    /* \"#utility.yul\":802:828   */\n  add\n    /* \"#utility.yul\":795:832   */\n  mstore\n    /* \"#utility.yul\":850:856   */\n  dup1\n    /* \"#utility.yul\":841:856   */\n  swap5\n  pop\n  pop\n  pop\n  pop\n  pop\n    /* \"#utility.yul\":146:862   */\n  swap3\n  swap2\n  pop\n  pop\n  jump\t// out\n    /* \"#utility.yul\":867:1782   */\ntag_3:\n    /* \"#utility.yul\":1002:1008   */\n  0x00\n    /* \"#utility.yul\":1010:1016   */\n  dup1\n    /* \"#utility.yul\":1018:1024   */\n  0x00\n    /* \"#utility.yul\":1026:1032   */\n  dup1\n    /* \"#utility.yul\":1034:1040   */\n  0x00\n    /* \"#utility.yul\":1042:1048   */\n  dup1\n    /* \"#utility.yul\":1095:1098   */\n  0xc0\n    /* \"#utility.yul\":1083:1092   */\n  dup8\n    /* \"#utility.yul\":1074:1081   */\n  dup10\n    /* \"#utility.yul\":1070:1093   */\n  sub\n    /* \"#utility.yul\":1066:1099   */\n  slt\n    /* \"#utility.yul\":1063:1116   */\n  iszero\n  tag_54\n  jumpi\n    /* \"#utility.yul\":1112:1113   */\n  0x00\n    /* \"#utility.yul\":1109:1110   */\n  dup1\n    /* \"#utility.yul\":1102:1114   */\n  revert\n    /* \"#utility.yul\":1063:1116   */\ntag_54:\n    /* \"#utility.yul\":1139:1155   */\n  dup7\n  mload\n  sub(shl(0x40, 0x01), 0x01)\n    /* \"#utility.yul\":1204:1218   */\n  dup1\n  dup3\n  gt\n    /* \"#utility.yul\":1201:1235   */\n  iszero\n  tag_55\n  jumpi\n    /* \"#utility.yul\":1231:1232   */\n  0x00\n    /* \"#utility.yul\":1228:1229   */\n  dup1\n    /* \"#utility.yul\":1221:1233   */\n  revert\n    /* \"#utility.yul\":1201:1235   */\ntag_55:\n    /* \"#utility.yul\":1254:1315   */\n  tag_56\n    /* \"#utility.yul\":1307:1314   */\n  dup11\n    /* \"#utility.yul\":1298:1304   */\n  dup4\n    /* \"#utility.yul\":1287:1296   */\n  dup12\n    /* \"#utility.yul\":1283:1305   */\n  add\n    /* \"#utility.yul\":1254:1315   */\n  tag_36\n  jump\t// in\ntag_56:\n    /* \"#utility.yul\":1244:1315   */\n  swap8\n  pop\n    /* \"#utility.yul\":1361:1363   */\n  0x20\n    /* \"#utility.yul\":1350:1359   */\n  dup10\n    /* \"#utility.yul\":1346:1364   */\n  add\n    /* \"#utility.yul\":1340:1365   */\n  mload\n    /* \"#utility.yul\":1324:1365   */\n  swap2\n  pop\n    /* \"#utility.yul\":1390:1392   */\n  dup1\n    /* \"#utility.yul\":1380:1388   */\n  dup3\n    /* \"#utility.yul\":1377:1393   */\n  gt\n    /* \"#utility.yul\":1374:1410   */\n  iszero\n  tag_57\n  jumpi\n    /* \"#utility.yul\":1406:1407   */\n  0x00\n    /* \"#utility.yul\":1403:1404   */\n  dup1\n    /* \"#utility.yul\":1396:1408   */\n  revert\n    /* \"#utility.yul\":1374:1410   */\ntag_57:\n  pop\n    /* \"#utility.yul\":1429:1492   */\n  tag_58\n    /* \"#utility.yul\":1484:1491   */\n  dup10\n    /* \"#utility.yul\":1473:1481   */\n  dup3\n    /* \"#utility.yul\":1462:1471   */\n  dup11\n    /* \"#utility.yul\":1458:1482   */\n  add\n    /* \"#utility.yul\":1429:1492   */\n  tag_36\n  jump\t// in\ntag_58:\n    /* \"#utility.yul\":1532:1534   */\n  0x40\n    /* \"#utility.yul\":1517:1535   */\n  dup10\n  add\n    /* \"#utility.yul\":1511:1536   */\n  mload\n    /* \"#utility.yul\":1576:1578   */\n  0x60\n    /* \"#utility.yul\":1561:1579   */\n  dup11\n  add\n    /* \"#utility.yul\":1555:1580   */\n  mload\n    /* \"#utility.yul\":1623:1626   */\n  0x80\n    /* \"#utility.yul\":1608:1627   */\n  dup12\n  add\n    /* \"#utility.yul\":1602:1628   */\n  mload\n    /* \"#utility.yul\":1419:1492   */\n  swap3\n  swap9\n  pop\n    /* \"#utility.yul\":1511:1536   */\n  swap1\n  swap7\n  pop\n    /* \"#utility.yul\":1555:1580   */\n  swap5\n  pop\n    /* \"#utility.yul\":1602:1628   */\n  swap1\n  pop\n  sub(shl(0xa0, 0x01), 0x01)\n    /* \"#utility.yul\":1657:1688   */\n  dup2\n  and\n    /* \"#utility.yul\":1647:1689   */\n  dup2\n  eq\n    /* \"#utility.yul\":1637:1707   */\n  tag_59\n  jumpi\n    /* \"#utility.yul\":1703:1704   */\n  0x00\n    /* \"#utility.yul\":1700:1701   */\n  dup1\n    /* \"#utility.yul\":1693:1705   */\n  revert\n    /* \"#utility.yul\":1637:1707   */\ntag_59:\n    /* \"#utility.yul\":1726:1731   */\n  dup1\n    /* \"#utility.yul\":1716:1731   */\n  swap3\n  pop\n  pop\n    /* \"#utility.yul\":1771:1774   */\n  0xa0\n    /* \"#utility.yul\":1760:1769   */\n  dup8\n    /* \"#utility.yul\":1756:1775   */\n  add\n    /* \"#utility.yul\":1750:1776   */\n  mload\n    /* \"#utility.yul\":1740:1776   */\n  swap1\n  pop\n    /* \"#utility.yul\":867:1782   */\n  swap3\n  swap6\n  pop\n  swap3\n  swap6\n  pop\n  swap3\n  swap6\n  jump\t// out\n    /* \"#utility.yul\":1787:2167   */\ntag_37:\n    /* \"#utility.yul\":1866:1867   */\n  0x01\n    /* \"#utility.yul\":1862:1874   */\n  dup2\n  dup2\n  shr\n  swap1\n    /* \"#utility.yul\":1909:1921   */\n  dup3\n  and\n  dup1\n    /* \"#utility.yul\":1930:1991   */\n  tag_61\n  jumpi\n    /* \"#utility.yul\":1984:1988   */\n  0x7f\n    /* \"#utility.yul\":1976:1982   */\n  dup3\n    /* \"#utility.yul\":1972:1989   */\n  and\n    /* \"#utility.yul\":1962:1989   */\n  swap2\n  pop\n    /* \"#utility.yul\":1930:1991   */\ntag_61:\n    /* \"#utility.yul\":2037:2039   */\n  0x20\n    /* \"#utility.yul\":2029:2035   */\n  dup3\n    /* \"#utility.yul\":2026:2040   */\n  lt\n    /* \"#utility.yul\":2006:2024   */\n  dup2\n    /* \"#utility.yul\":2003:2041   */\n  sub\n    /* \"#utility.yul\":2000:2161   */\n  tag_62\n  jumpi\n    /* \"#utility.yul\":2083:2093   */\n  0x4e487b71\n    /* \"#utility.yul\":2078:2081   */\n  0xe0\n    /* \"#utility.yul\":2074:2094   */\n  shl\n    /* \"#utility.yul\":2071:2072   */\n  0x00\n    /* \"#utility.yul\":2064:2095   */\n  mstore\n    /* \"#utility.yul\":2118:2122   */\n  0x22\n    /* \"#utility.yul\":2115:2116   */\n  0x04\n    /* \"#utility.yul\":2108:2123   */\n  mstore\n    /* \"#utility.yul\":2146:2150   */\n  0x24\n    /* \"#utility.yul\":2143:2144   */\n  0x00\n    /* \"#utility.yul\":2136:2151   */\n  revert\n    /* \"#utility.yul\":2000:2161   */\ntag_62:\n  pop\n    /* \"#utility.yul\":1787:2167   */\n  swap2\n  swap1\n  pop\n  jump\t// out\n    /* \"#utility.yul\":2298:2816   */\ntag_39:\n    /* \"#utility.yul\":2400:2402   */\n  0x1f\n    /* \"#utility.yul\":2395:2398   */\n  dup3\n    /* \"#utility.yul\":2392:2403   */\n  gt\n    /* \"#utility.yul\":2389:2810   */\n  iszero\n  tag_65\n  jumpi\n    /* \"#utility.yul\":2436:2441   */\n  dup1\n    /* \"#utility.yul\":2433:2434   */\n  0x00\n    /* \"#utility.yul\":2426:2442   */\n  mstore\n    /* \"#utility.yul\":2480:2484   */\n  0x20\n    /* \"#utility.yul\":2477:2478   */\n  0x00\n    /* \"#utility.yul\":2467:2485   */\n  keccak256\n    /* \"#utility.yul\":2550:2552   */\n  0x1f\n    /* \"#utility.yul\":2538:2548   */\n  dup5\n    /* \"#utility.yul\":2534:2553   */\n  add\n    /* \"#utility.yul\":2531:2532   */\n  0x05\n    /* \"#utility.yul\":2527:2554   */\n  shr\n    /* \"#utility.yul\":2521:2525   */\n  dup2\n    /* \"#utility.yul\":2517:2555   */\n  add\n    /* \"#utility.yul\":2586:2590   */\n  0x20\n    /* \"#utility.yul\":2574:2584   */\n  dup6\n    /* \"#utility.yul\":2571:2591   */\n  lt\n    /* \"#utility.yul\":2568:2615   */\n  iszero\n  tag_66\n  jumpi\n  pop\n    /* \"#utility.yul\":2609:2613   */\n  dup1\n    /* \"#utility.yul\":2568:2615   */\ntag_66:\n    /* \"#utility.yul\":2664:2666   */\n  0x1f\n    /* \"#utility.yul\":2659:2662   */\n  dup5\n    /* \"#utility.yul\":2655:2667   */\n  add\n    /* \"#utility.yul\":2652:2653   */\n  0x05\n    /* \"#utility.yul\":2648:2668   */\n  shr\n    /* \"#utility.yul\":2642:2646   */\n  dup3\n    /* \"#utility.yul\":2638:2669   */\n  add\n    /* \"#utility.yul\":2628:2669   */\n  swap2\n  pop\n    /* \"#utility.yul\":2719:2800   */\ntag_67:\n    /* \"#utility.yul\":2737:2739   */\n  dup2\n    /* \"#utility.yul\":2730:2735   */\n  dup2\n    /* \"#utility.yul\":2727:2740   */\n  lt\n    /* \"#utility.yul\":2719:2800   */\n  iszero\n  tag_69\n  jumpi\n    /* \"#utility.yul\":2796:2797   */\n  0x00\n    /* \"#utility.yul\":2782:2798   */\n  dup2\n  sstore\n    /* \"#utility.yul\":2763:2764   */\n  0x01\n    /* \"#utility.yul\":2752:2765   */\n  add\n    /* \"#utility.yul\":2719:2800   */\n  jump(tag_67)\ntag_69:\n    /* \"#utility.yul\":2723:2726   */\n  pop\n  pop\n    /* \"#utility.yul\":2389:2810   */\ntag_65:\n    /* \"#utility.yul\":2298:2816   */\n  pop\n  pop\n  pop\n  jump\t// out\n    /* \"#utility.yul\":2992:4337   */\ntag_10:\n    /* \"#utility.yul\":3112:3122   */\n  dup2\n  mload\n  sub(shl(0x40, 0x01), 0x01)\n    /* \"#utility.yul\":3134:3164   */\n  dup2\n  gt\n    /* \"#utility.yul\":3131:3187   */\n  iszero\n  tag_73\n  jumpi\n    /* \"#utility.yul\":3167:3185   */\n  tag_73\n  tag_35\n  jump\t// in\ntag_73:\n    /* \"#utility.yul\":3196:3293   */\n  tag_74\n    /* \"#utility.yul\":3286:3292   */\n  dup2\n    /* \"#utility.yul\":3246:3284   */\n  tag_75\n    /* \"#utility.yul\":3278:3282   */\n  dup5\n    /* \"#utility.yul\":3272:3283   */\n  sload\n    /* \"#utility.yul\":3246:3284   */\n  tag_37\n  jump\t// in\ntag_75:\n    /* \"#utility.yul\":3240:3244   */\n  dup5\n    /* \"#utility.yul\":3196:3293   */\n  tag_39\n  jump\t// in\ntag_74:\n    /* \"#utility.yul\":3348:3352   */\n  0x20\n  dup1\n    /* \"#utility.yul\":3405:3407   */\n  0x1f\n    /* \"#utility.yul\":3394:3408   */\n  dup4\n  gt\n    /* \"#utility.yul\":3422:3423   */\n  0x01\n    /* \"#utility.yul\":3417:4080   */\n  dup2\n  eq\n  tag_77\n  jumpi\n    /* \"#utility.yul\":4124:4125   */\n  0x00\n    /* \"#utility.yul\":4141:4147   */\n  dup5\n    /* \"#utility.yul\":4138:4227   */\n  iszero\n  tag_78\n  jumpi\n  pop\n    /* \"#utility.yul\":4193:4212   */\n  dup6\n  dup4\n  add\n    /* \"#utility.yul\":4187:4213   */\n  mload\n    /* \"#utility.yul\":4138:4227   */\ntag_78:\n  not(0x00)\n    /* \"#utility.yul\":2949:2950   */\n  0x03\n    /* \"#utility.yul\":2945:2956   */\n  dup7\n  swap1\n  shl\n    /* \"#utility.yul\":2941:2965   */\n  shr\n    /* \"#utility.yul\":2937:2966   */\n  not\n    /* \"#utility.yul\":2927:2967   */\n  and\n    /* \"#utility.yul\":2973:2974   */\n  0x01\n    /* \"#utility.yul\":2969:2980   */\n  dup6\n  swap1\n  shl\n    /* \"#utility.yul\":2924:2981   */\n  or\n    /* \"#utility.yul\":4240:4321   */\n  dup6\n  sstore\n    /* \"#utility.yul\":3387:4331   */\n  jump(tag_76)\n    /* \"#utility.yul\":3417:4080   */\ntag_77:\n    /* \"#utility.yul\":2245:2246   */\n  0x00\n    /* \"#utility.yul\":2238:2252   */\n  dup6\n  dup2\n  mstore\n    /* \"#utility.yul\":2282:2286   */\n  0x20\n    /* \"#utility.yul\":2269:2287   */\n  dup2\n  keccak256\n  not(0x1f)\n    /* \"#utility.yul\":3453:3473   */\n  dup7\n  and\n  swap2\n    /* \"#utility.yul\":3571:3807   */\ntag_81:\n    /* \"#utility.yul\":3585:3592   */\n  dup3\n    /* \"#utility.yul\":3582:3583   */\n  dup2\n    /* \"#utility.yul\":3579:3593   */\n  lt\n    /* \"#utility.yul\":3571:3807   */\n  iszero\n  tag_83\n  jumpi\n    /* \"#utility.yul\":3674:3693   */\n  dup9\n  dup7\n  add\n    /* \"#utility.yul\":3668:3694   */\n  mload\n    /* \"#utility.yul\":3653:3695   */\n  dup3\n  sstore\n    /* \"#utility.yul\":3766:3793   */\n  swap5\n  dup5\n  add\n  swap5\n    /* \"#utility.yul\":3734:3735   */\n  0x01\n    /* \"#utility.yul\":3722:3736   */\n  swap1\n  swap2\n  add\n  swap1\n    /* \"#utility.yul\":3601:3620   */\n  dup5\n  add\n    /* \"#utility.yul\":3571:3807   */\n  jump(tag_81)\ntag_83:\n    /* \"#utility.yul\":3575:3578   */\n  pop\n    /* \"#utility.yul\":3835:3841   */\n  dup6\n    /* \"#utility.yul\":3826:3833   */\n  dup3\n    /* \"#utility.yul\":3823:3842   */\n  lt\n    /* \"#utility.yul\":3820:4021   */\n  iszero\n  tag_84\n  jumpi\n    /* \"#utility.yul\":3896:3915   */\n  dup8\n  dup6\n  add\n    /* \"#utility.yul\":3890:3916   */\n  mload\n  not(0x00)\n    /* \"#utility.yul\":3979:3980   */\n  0x03\n    /* \"#utility.yul\":3975:3989   */\n  dup9\n  swap1\n  shl\n    /* \"#utility.yul\":3991:3994   */\n  0xf8\n    /* \"#utility.yul\":3971:3995   */\n  and\n    /* \"#utility.yul\":3967:4004   */\n  shr\n    /* \"#utility.yul\":3963:4005   */\n  not\n    /* \"#utility.yul\":3948:4006   */\n  and\n    /* \"#utility.yul\":3933:4007   */\n  dup2\n  sstore\n    /* \"#utility.yul\":3820:4021   */\ntag_84:\n  pop\n  pop\n    /* \"#utility.yul\":4067:4068   */\n  0x01\n    /* \"#utility.yul\":4058:4064   */\n  dup5\n    /* \"#utility.yul\":4055:4056   */\n  0x01\n    /* \"#utility.yul\":4051:4065   */\n  shl\n    /* \"#utility.yul\":4047:4069   */\n  add\n    /* \"#utility.yul\":4041:4045   */\n  dup6\n    /* \"#utility.yul\":4034:4070   */\n  sstore\n    /* \"#utility.yul\":3387:4331   */\ntag_76:\n  pop\n  pop\n  pop\n  pop\n    /* \"#utility.yul\":2992:4337   */\n  pop\n  pop\n  jump\t// out\n    /* \"#utility.yul\":5218:5345   */\ntag_41:\n    /* \"#utility.yul\":5279:5289   */\n  0x4e487b71\n    /* \"#utility.yul\":5274:5277   */\n  0xe0\n    /* \"#utility.yul\":5270:5290   */\n  shl\n    /* \"#utility.yul\":5267:5268   */\n  0x00\n    /* \"#utility.yul\":5260:5291   */\n  mstore\n    /* \"#utility.yul\":5310:5314   */\n  0x11\n    /* \"#utility.yul\":5307:5308   */\n  0x04\n    /* \"#utility.yul\":5300:5315   */\n  mstore\n    /* \"#utility.yul\":5334:5338   */\n  0x24\n    /* \"#utility.yul\":5331:5332   */\n  0x00\n    /* \"#utility.yul\":5324:5339   */\n  revert\n    /* \"#utility.yul\":5350:5766   */\ntag_42:\n    /* \"#utility.yul\":5439:5440   */\n  0x01\n    /* \"#utility.yul\":5476:5481   */\n  dup2\n    /* \"#utility.yul\":5439:5440   */\n  dup2\n    /* \"#utility.yul\":5490:5760   */\ntag_90:\n    /* \"#utility.yul\":5511:5518   */\n  dup1\n    /* \"#utility.yul\":5501:5509   */\n  dup6\n    /* \"#utility.yul\":5498:5519   */\n  gt\n    /* \"#utility.yul\":5490:5760   */\n  iszero\n  tag_92\n  jumpi\n    /* \"#utility.yul\":5570:5574   */\n  dup2\n    /* \"#utility.yul\":5566:5567   */\n  0x00\n    /* \"#utility.yul\":5562:5568   */\n  not\n    /* \"#utility.yul\":5558:5575   */\n  div\n    /* \"#utility.yul\":5552:5556   */\n  dup3\n    /* \"#utility.yul\":5549:5576   */\n  gt\n    /* \"#utility.yul\":5546:5599   */\n  iszero\n  tag_94\n  jumpi\n    /* \"#utility.yul\":5579:5597   */\n  tag_94\n  tag_41\n  jump\t// in\ntag_94:\n    /* \"#utility.yul\":5629:5636   */\n  dup1\n    /* \"#utility.yul\":5619:5627   */\n  dup6\n    /* \"#utility.yul\":5615:5637   */\n  and\n    /* \"#utility.yul\":5612:5667   */\n  iszero\n  tag_95\n  jumpi\n    /* \"#utility.yul\":5649:5665   */\n  swap2\n  dup2\n  mul\n  swap2\n    /* \"#utility.yul\":5612:5667   */\ntag_95:\n    /* \"#utility.yul\":5728:5750   */\n  swap4\n  dup5\n  shr\n  swap4\n    /* \"#utility.yul\":5688:5703   */\n  swap1\n  dup1\n  mul\n  swap1\n    /* \"#utility.yul\":5490:5760   */\n  jump(tag_90)\ntag_92:\n    /* \"#utility.yul\":5494:5497   */\n  pop\n    /* \"#utility.yul\":5350:5766   */\n  swap3\n  pop\n  swap3\n  swap1\n  pop\n  jump\t// out\n    /* \"#utility.yul\":5771:6577   */\ntag_43:\n    /* \"#utility.yul\":5820:5825   */\n  0x00\n    /* \"#utility.yul\":5850:5858   */\n  dup3\n    /* \"#utility.yul\":5840:5920   */\n  tag_97\n  jumpi\n  pop\n    /* \"#utility.yul\":5891:5892   */\n  0x01\n    /* \"#utility.yul\":5905:5910   */\n  jump(tag_96)\n    /* \"#utility.yul\":5840:5920   */\ntag_97:\n    /* \"#utility.yul\":5939:5943   */\n  dup2\n    /* \"#utility.yul\":5929:6005   */\n  tag_98\n  jumpi\n  pop\n    /* \"#utility.yul\":5976:5977   */\n  0x00\n    /* \"#utility.yul\":5990:5995   */\n  jump(tag_96)\n    /* \"#utility.yul\":5929:6005   */\ntag_98:\n    /* \"#utility.yul\":6021:6025   */\n  dup2\n    /* \"#utility.yul\":6039:6040   */\n  0x01\n    /* \"#utility.yul\":6034:6093   */\n  dup2\n  eq\n  tag_100\n  jumpi\n    /* \"#utility.yul\":6107:6108   */\n  0x02\n    /* \"#utility.yul\":6102:6232   */\n  dup2\n  eq\n  tag_101\n  jumpi\n    /* \"#utility.yul\":6014:6232   */\n  jump(tag_99)\n    /* \"#utility.yul\":6034:6093   */\ntag_100:\n    /* \"#utility.yul\":6064:6065   */\n  0x01\n    /* \"#utility.yul\":6055:6065   */\n  swap2\n  pop\n    /* \"#utility.yul\":6078:6083   */\n  pop\n  jump(tag_96)\n    /* \"#utility.yul\":6102:6232   */\ntag_101:\n    /* \"#utility.yul\":6139:6142   */\n  0xff\n    /* \"#utility.yul\":6129:6137   */\n  dup5\n    /* \"#utility.yul\":6126:6143   */\n  gt\n    /* \"#utility.yul\":6123:6166   */\n  iszero\n  tag_103\n  jumpi\n    /* \"#utility.yul\":6146:6164   */\n  tag_103\n  tag_41\n  jump\t// in\ntag_103:\n  pop\n  pop\n    /* \"#utility.yul\":6202:6203   */\n  0x01\n    /* \"#utility.yul\":6188:6204   */\n  dup3\n  shl\n    /* \"#utility.yul\":6217:6222   */\n  jump(tag_96)\n    /* \"#utility.yul\":6014:6232   */\ntag_99:\n  pop\n    /* \"#utility.yul\":6316:6318   */\n  0x20\n    /* \"#utility.yul\":6306:6314   */\n  dup4\n    /* \"#utility.yul\":6303:6319   */\n  lt\n    /* \"#utility.yul\":6297:6300   */\n  0x0133\n    /* \"#utility.yul\":6291:6295   */\n  dup4\n    /* \"#utility.yul\":6288:6301   */\n  lt\n    /* \"#utility.yul\":6284:6320   */\n  and\n    /* \"#utility.yul\":6278:6280   */\n  0x4e\n    /* \"#utility.yul\":6268:6276   */\n  dup5\n    /* \"#utility.yul\":6265:6281   */\n  lt\n    /* \"#utility.yul\":6260:6262   */\n  0x0b\n    /* \"#utility.yul\":6254:6258   */\n  dup5\n    /* \"#utility.yul\":6251:6263   */\n  lt\n    /* \"#utility.yul\":6247:6282   */\n  and\n    /* \"#utility.yul\":6244:6321   */\n  or\n    /* \"#utility.yul\":6241:6400   */\n  iszero\n  tag_104\n  jumpi\n  pop\n    /* \"#utility.yul\":6353:6372   */\n  dup2\n  dup2\n  exp\n    /* \"#utility.yul\":6385:6390   */\n  jump(tag_96)\n    /* \"#utility.yul\":6241:6400   */\ntag_104:\n    /* \"#utility.yul\":6432:6466   */\n  tag_105\n    /* \"#utility.yul\":6457:6465   */\n  dup4\n    /* \"#utility.yul\":6451:6455   */\n  dup4\n    /* \"#utility.yul\":6432:6466   */\n  tag_42\n  jump\t// in\ntag_105:\n    /* \"#utility.yul\":6502:6508   */\n  dup1\n    /* \"#utility.yul\":6498:6499   */\n  0x00\n    /* \"#utility.yul\":6494:6500   */\n  not\n    /* \"#utility.yul\":6490:6509   */\n  div\n    /* \"#utility.yul\":6481:6488   */\n  dup3\n    /* \"#utility.yul\":6478:6510   */\n  gt\n    /* \"#utility.yul\":6475:6533   */\n  iszero\n  tag_107\n  jumpi\n    /* \"#utility.yul\":6513:6531   */\n  tag_107\n  tag_41\n  jump\t// in\ntag_107:\n    /* \"#utility.yul\":6551:6571   */\n  mul\n  swap1\n  pop\n    /* \"#utility.yul\":5771:6577   */\ntag_96:\n  swap3\n  swap2\n  pop\n  pop\n  jump\t// out\n    /* \"#utility.yul\":6582:6713   */\ntag_29:\n    /* \"#utility.yul\":6642:6647   */\n  0x00\n    /* \"#utility.yul\":6671:6707   */\n  tag_109\n    /* \"#utility.yul\":6698:6706   */\n  dup4\n    /* \"#utility.yul\":6692:6696   */\n  dup4\n    /* \"#utility.yul\":6671:6707   */\n  tag_43\n  jump\t// in\ntag_109:\n    /* \"#utility.yul\":6662:6707   */\n  swap4\n    /* \"#utility.yul\":6582:6713   */\n  swap3\n  pop\n  pop\n  pop\n  jump\t// out\n    /* \"#utility.yul\":6718:6886   */\ntag_31:\n    /* \"#utility.yul\":6791:6800   */\n  dup1\n  dup3\n  mul\n    /* \"#utility.yul\":6822:6831   */\n  dup2\n  iszero\n    /* \"#utility.yul\":6839:6854   */\n  dup3\n  dup3\n  div\n    /* \"#utility.yul\":6833:6855   */\n  dup5\n  eq\n    /* \"#utility.yul\":6819:6856   */\n  or\n    /* \"#utility.yul\":6809:6880   */\n  tag_96\n  jumpi\n    /* \"#utility.yul\":6860:6878   */\n  tag_96\n  tag_41\n  jump\t// in\n    /* \"#utility.yul\":6718:6886   */\ntag_44:\n    /* \"slap.sol\":417:4802  contract SLAP is ERC20, Ownable, ReentrancyGuard {... */\n  mload(0x80)\n  codecopy(0x00, dataOffset(sub_0), dataSize(sub_0))\n  0x00\n  assignImmutable(\"0x5c4c6aa067b6f8e6cb38e6ab843832a94d1712d661a04d73c517d6a1931a9e5d\")\n  return(0x00, dataSize(sub_0))\nstop\n\nsub_0: assembly {\n        /* \"slap.sol\":417:4802  contract SLAP is ERC20, Ownable, ReentrancyGuard {... */\n      mstore(0x40, 0x80)\n      jumpi(tag_1, lt(calldatasize, 0x04))\n      shr(0xe0, calldataload(0x00))\n      dup1\n      0x91b7f5ed\n      gt\n      tag_28\n      jumpi\n      dup1\n      0xcb2fb89c\n      gt\n      tag_29\n      jumpi\n      dup1\n      0xd5abeb01\n      gt\n      tag_30\n      jumpi\n      dup1\n      0xd5abeb01\n      eq\n      tag_24\n      jumpi\n      dup1\n      0xdd62ed3e\n      eq\n      tag_25\n      jumpi\n      dup1\n      0xf2fde38b\n      eq\n      tag_26\n      jumpi\n      dup1\n      0xf8004d31\n      eq\n      tag_27\n      jumpi\n      jump(tag_2)\n    tag_30:\n      dup1\n      0xcb2fb89c\n      eq\n      tag_21\n      jumpi\n      dup1\n      0xcbd3e753\n      eq\n      tag_22\n      jumpi\n      dup1\n      0xcd742793\n      eq\n      tag_23\n      jumpi\n      jump(tag_2)\n    tag_29:\n      dup1\n      0xa9059cbb\n      gt\n      tag_31\n      jumpi\n      dup1\n      0xa9059cbb\n      eq\n      tag_18\n      jumpi\n      dup1\n      0xb31f8f93\n      eq\n      tag_19\n      jumpi\n      dup1\n      0xbef97c87\n      eq\n      tag_20\n      jumpi\n      jump(tag_2)\n    tag_31:\n      dup1\n      0x91b7f5ed\n      eq\n      tag_15\n      jumpi\n      dup1\n      0x95d89b41\n      eq\n      tag_16\n      jumpi\n      dup1\n      0xa0712d68\n      eq\n      tag_17\n      jumpi\n      jump(tag_2)\n    tag_28:\n      dup1\n      0x26b9ce13\n      gt\n      tag_32\n      jumpi\n      dup1\n      0x70a08231\n      gt\n      tag_33\n      jumpi\n      dup1\n      0x70a08231\n      eq\n      tag_12\n      jumpi\n      dup1\n      0x715018a6\n      eq\n      tag_13\n      jumpi\n      dup1\n      0x8da5cb5b\n      eq\n      tag_14\n      jumpi\n      jump(tag_2)\n    tag_33:\n      dup1\n      0x26b9ce13\n      eq\n      tag_9\n      jumpi\n      dup1\n      0x313ce567\n      eq\n      tag_10\n      jumpi\n      dup1\n      0x51cff8d9\n      eq\n      tag_11\n      jumpi\n      jump(tag_2)\n    tag_32:\n      dup1\n      0x1eae99c5\n      gt\n      tag_34\n      jumpi\n      dup1\n      0x1eae99c5\n      eq\n      tag_6\n      jumpi\n      dup1\n      0x23b872dd\n      eq\n      tag_7\n      jumpi\n      dup1\n      0x24bbd049\n      eq\n      tag_8\n      jumpi\n      jump(tag_2)\n    tag_34:\n      dup1\n      0x06fdde03\n      eq\n      tag_3\n      jumpi\n      dup1\n      0x095ea7b3\n      eq\n      tag_4\n      jumpi\n      dup1\n      0x18160ddd\n      eq\n      tag_5\n      jumpi\n      jump(tag_2)\n    tag_1:\n      jumpi(tag_2, calldatasize)\n        /* \"slap.sol\":4719:4739  revert(\"Use mint()\") */\n      mload(0x40)\n      shl(0xe5, 0x461bcd)\n      dup2\n      mstore\n        /* \"#utility.yul\":216:218   */\n      0x20\n        /* \"slap.sol\":4719:4739  revert(\"Use mint()\") */\n      0x04\n      dup3\n      add\n        /* \"#utility.yul\":198:219   */\n      mstore\n        /* \"#utility.yul\":255:257   */\n      0x0a\n        /* \"#utility.yul\":235:253   */\n      0x24\n      dup3\n      add\n        /* \"#utility.yul\":228:258   */\n      mstore\n      shl(0xb0, 0x557365206d696e742829)\n        /* \"#utility.yul\":274:292   */\n      0x44\n      dup3\n      add\n        /* \"#utility.yul\":267:307   */\n      mstore\n        /* \"#utility.yul\":324:342   */\n      0x64\n      add\n        /* \"slap.sol\":4719:4739  revert(\"Use mint()\") */\n    tag_37:\n      mload(0x40)\n      dup1\n      swap2\n      sub\n      swap1\n      revert\n        /* \"slap.sol\":417:4802  contract SLAP is ERC20, Ownable, ReentrancyGuard {... */\n    tag_2:\n        /* \"slap.sol\":4777:4797  revert(\"Use mint()\") */\n      mload(0x40)\n      shl(0xe5, 0x461bcd)\n      dup2\n      mstore\n        /* \"#utility.yul\":216:218   */\n      0x20\n        /* \"slap.sol\":4777:4797  revert(\"Use mint()\") */\n      0x04\n      dup3\n      add\n        /* \"#utility.yul\":198:219   */\n      mstore\n        /* \"#utility.yul\":255:257   */\n      0x0a\n        /* \"#utility.yul\":235:253   */\n      0x24\n      dup3\n      add\n        /* \"#utility.yul\":228:258   */\n      mstore\n      shl(0xb0, 0x557365206d696e742829)\n        /* \"#utility.yul\":274:292   */\n      0x44\n      dup3\n      add\n        /* \"#utility.yul\":267:307   */\n      mstore\n        /* \"#utility.yul\":324:342   */\n      0x64\n      add\n        /* \"slap.sol\":4777:4797  revert(\"Use mint()\") */\n      tag_37\n        /* \"#utility.yul\":14:348   */\n      jump\n        /* \"@openzeppelin/contracts/token/ERC20/ERC20.sol\":2074:2163   */\n    tag_3:\n      callvalue\n      dup1\n      iszero\n      tag_42\n      jumpi\n      0x00\n      dup1\n      revert\n    tag_42:\n      pop\n      tag_43\n      tag_44\n      jump\t// in\n    tag_43:\n      mload(0x40)\n      tag_45\n      swap2\n      swap1\n      tag_46\n      jump\t// in\n    tag_45:\n      mload(0x40)\n      dup1\n      swap2\n      sub\n      swap1\n      return\n        /* \"@openzeppelin/contracts/token/ERC20/ERC20.sol\":4293:4479   */\n    tag_4:\n      callvalue\n      dup1\n      iszero\n      tag_47\n      jumpi\n      0x00\n      dup1\n      revert\n    tag_47:\n      pop\n      tag_48\n      tag_49\n      calldatasize\n      0x04\n      tag_50\n      jump\t// in\n    tag_49:\n      tag_51\n      jump\t// in\n    tag_48:\n      mload(0x40)\n        /* \"#utility.yul\":1420:1434   */\n      swap1\n      iszero\n        /* \"#utility.yul\":1413:1435   */\n      iszero\n        /* \"#utility.yul\":1395:1436   */\n      dup2\n      mstore\n        /* \"#utility.yul\":1383:1385   */\n      0x20\n        /* \"#utility.yul\":1368:1386   */\n      add\n        /* \"@openzeppelin/contracts/token/ERC20/ERC20.sol\":4293:4479   */\n      tag_45\n        /* \"#utility.yul\":1255:1442   */\n      jump\n        /* \"@openzeppelin/contracts/token/ERC20/ERC20.sol\":3144:3241   */\n    tag_5:\n      callvalue\n      dup1\n      iszero\n      tag_54\n      jumpi\n      0x00\n      dup1\n      revert\n    tag_54:\n      pop\n        /* \"@openzeppelin/contracts/token/ERC20/ERC20.sol\":3222:3234   */\n      sload(0x02)\n        /* \"@openzeppelin/contracts/token/ERC20/ERC20.sol\":3144:3241   */\n    tag_55:\n      mload(0x40)\n        /* \"#utility.yul\":1593:1618   */\n      swap1\n      dup2\n      mstore\n        /* \"#utility.yul\":1581:1583   */\n      0x20\n        /* \"#utility.yul\":1566:1584   */\n      add\n        /* \"@openzeppelin/contracts/token/ERC20/ERC20.sol\":3144:3241   */\n      tag_45\n        /* \"#utility.yul\":1447:1624   */\n      jump\n        /* \"slap.sol\":3707:3907  function setWalletMintCap(uint256 newCapWhole) external onlyOwner {... */\n    tag_6:\n      callvalue\n      dup1\n      iszero\n      tag_59\n      jumpi\n      0x00\n      dup1\n      revert\n    tag_59:\n      pop\n      tag_60\n      tag_61\n      calldatasize\n      0x04\n      tag_62\n      jump\t// in\n    tag_61:\n      tag_63\n      jump\t// in\n    tag_60:\n      stop\n        /* \"@openzeppelin/contracts/token/ERC20/ERC20.sol\":5039:5283   */\n    tag_7:\n      callvalue\n      dup1\n      iszero\n      tag_64\n      jumpi\n      0x00\n      dup1\n      revert\n    tag_64:\n      pop\n      tag_48\n      tag_66\n      calldatasize\n      0x04\n      tag_67\n      jump\t// in\n    tag_66:\n      tag_68\n      jump\t// in\n        /* \"slap.sol\":645:672  bool public mintOpen = true */\n    tag_8:\n      callvalue\n      dup1\n      iszero\n      tag_70\n      jumpi\n      0x00\n      dup1\n      revert\n    tag_70:\n      pop\n      sload(0x08)\n      tag_48\n      swap1\n      0xff\n      and\n      dup2\n      jump\n        /* \"slap.sol\":3488:3640  function setTransfersEnabled(bool enabled) external onlyOwner {... */\n    tag_9:\n      callvalue\n      dup1\n      iszero\n      tag_74\n      jumpi\n      0x00\n      dup1\n      revert\n    tag_74:\n      pop\n      tag_60\n      tag_76\n      calldatasize\n      0x04\n      tag_77\n      jump\t// in\n    tag_76:\n      tag_78\n      jump\t// in\n        /* \"@openzeppelin/contracts/token/ERC20/ERC20.sol\":3002:3084   */\n    tag_10:\n      callvalue\n      dup1\n      iszero\n      tag_79\n      jumpi\n      0x00\n      dup1\n      revert\n    tag_79:\n      pop\n      mload(0x40)\n        /* \"@openzeppelin/contracts/token/ERC20/ERC20.sol\":3075:3077   */\n      0x12\n        /* \"#utility.yul\":2695:2731   */\n      dup2\n      mstore\n        /* \"#utility.yul\":2683:2685   */\n      0x20\n        /* \"#utility.yul\":2668:2686   */\n      add\n        /* \"@openzeppelin/contracts/token/ERC20/ERC20.sol\":3002:3084   */\n      tag_45\n        /* \"#utility.yul\":2553:2737   */\n      jump\n        /* \"slap.sol\":3913:4077  function withdraw(address payable to) external onlyOwner nonReentrant {... */\n    tag_11:\n      callvalue\n      dup1\n      iszero\n      tag_84\n      jumpi\n      0x00\n      dup1\n      revert\n    tag_84:\n      pop\n      tag_60\n      tag_86\n      calldatasize\n      0x04\n      tag_87\n      jump\t// in\n    tag_86:\n      tag_88\n      jump\t// in\n        /* \"@openzeppelin/contracts/token/ERC20/ERC20.sol\":3299:3415   */\n    tag_12:\n      callvalue\n      dup1\n      iszero\n      tag_89\n      jumpi\n      0x00\n      dup1\n      revert\n    tag_89:\n      pop\n      tag_55\n      tag_91\n      calldatasize\n      0x04\n      tag_87\n      jump\t// in\n    tag_91:\n      sub(shl(0xa0, 0x01), 0x01)\n        /* \"@openzeppelin/contracts/token/ERC20/ERC20.sol\":3390:3408   */\n      and\n        /* \"@openzeppelin/contracts/token/ERC20/ERC20.sol\":3364:3371   */\n      0x00\n        /* \"@openzeppelin/contracts/token/ERC20/ERC20.sol\":3390:3408   */\n      swap1\n      dup2\n      mstore\n      0x20\n      dup2\n      swap1\n      mstore\n      0x40\n      swap1\n      keccak256\n      sload\n      swap1\n        /* \"@openzeppelin/contracts/token/ERC20/ERC20.sol\":3299:3415   */\n      jump\n        /* \"@openzeppelin/contracts/access/Ownable.sol\":2293:2394   */\n    tag_13:\n      callvalue\n      dup1\n      iszero\n      tag_95\n      jumpi\n      0x00\n      dup1\n      revert\n    tag_95:\n      pop\n      tag_60\n      tag_97\n      jump\t// in\n        /* \"@openzeppelin/contracts/access/Ownable.sol\":1638:1723   */\n    tag_14:\n      callvalue\n      dup1\n      iszero\n      tag_98\n      jumpi\n      0x00\n      dup1\n      revert\n    tag_98:\n      pop\n        /* \"@openzeppelin/contracts/access/Ownable.sol\":1710:1716   */\n      sload(0x05)\n        /* \"@openzeppelin/contracts/access/Ownable.sol\":1638:1723   */\n      mload(0x40)\n      sub(shl(0xa0, 0x01), 0x01)\n        /* \"@openzeppelin/contracts/access/Ownable.sol\":1710:1716   */\n      swap1\n      swap2\n      and\n        /* \"#utility.yul\":3400:3474   */\n      dup2\n      mstore\n        /* \"#utility.yul\":3388:3390   */\n      0x20\n        /* \"#utility.yul\":3373:3391   */\n      add\n        /* \"@openzeppelin/contracts/access/Ownable.sol\":1638:1723   */\n      tag_45\n        /* \"#utility.yul\":3254:3480   */\n      jump\n        /* \"slap.sol\":3104:3294  function setPrice(uint256 newPriceWei) external onlyOwner {... */\n    tag_15:\n      callvalue\n      dup1\n      iszero\n      tag_103\n      jumpi\n      0x00\n      dup1\n      revert\n    tag_103:\n      pop\n      tag_60\n      tag_105\n      calldatasize\n      0x04\n      tag_62\n      jump\t// in\n    tag_105:\n      tag_106\n      jump\t// in\n        /* \"@openzeppelin/contracts/token/ERC20/ERC20.sol\":2276:2369   */\n    tag_16:\n      callvalue\n      dup1\n      iszero\n      tag_107\n      jumpi\n      0x00\n      dup1\n      revert\n    tag_107:\n      pop\n      tag_43\n      tag_109\n      jump\t// in\n        /* \"slap.sol\":2408:3063  function mint(uint256 amount) external payable nonReentrant {... */\n    tag_17:\n      tag_60\n      tag_112\n      calldatasize\n      0x04\n      tag_62\n      jump\t// in\n    tag_112:\n      tag_113\n      jump\t// in\n        /* \"@openzeppelin/contracts/token/ERC20/ERC20.sol\":3610:3788   */\n    tag_18:\n      callvalue\n      dup1\n      iszero\n      tag_114\n      jumpi\n      0x00\n      dup1\n      revert\n    tag_114:\n      pop\n      tag_48\n      tag_116\n      calldatasize\n      0x04\n      tag_50\n      jump\t// in\n    tag_116:\n      tag_117\n      jump\t// in\n        /* \"slap.sol\":4513:4648  function tokensLeft() external view returns (uint256) {... */\n    tag_19:\n      callvalue\n      dup1\n      iszero\n      tag_119\n      jumpi\n      0x00\n      dup1\n      revert\n    tag_119:\n      pop\n      tag_55\n      tag_121\n      jump\t// in\n        /* \"slap.sol\":708:744  bool public transfersEnabled = false */\n    tag_20:\n      callvalue\n      dup1\n      iszero\n      tag_123\n      jumpi\n      0x00\n      dup1\n      revert\n    tag_123:\n      pop\n      sload(0x08)\n      tag_48\n      swap1\n      0x0100\n      swap1\n      div\n      0xff\n      and\n      dup2\n      jump\n        /* \"slap.sol\":804:832  uint256 public walletMintCap */\n    tag_21:\n      callvalue\n      dup1\n      iszero\n      tag_127\n      jumpi\n      0x00\n      dup1\n      revert\n    tag_127:\n      pop\n      tag_55\n      sload(0x09)\n      dup2\n      jump\n        /* \"slap.sol\":893:939  mapping(address => uint256) public mintedWhole */\n    tag_22:\n      callvalue\n      dup1\n      iszero\n      tag_131\n      jumpi\n      0x00\n      dup1\n      revert\n    tag_131:\n      pop\n      tag_55\n      tag_133\n      calldatasize\n      0x04\n      tag_87\n      jump\t// in\n    tag_133:\n      mstore(0x20, 0x0a)\n      0x00\n      swap1\n      dup2\n      mstore\n      0x40\n      swap1\n      keccak256\n      sload\n      dup2\n      jump\n        /* \"slap.sol\":472:503  uint256 public pricePerTokenWei */\n    tag_23:\n      callvalue\n      dup1\n      iszero\n      tag_136\n      jumpi\n      0x00\n      dup1\n      revert\n    tag_136:\n      pop\n      tag_55\n      sload(0x07)\n      dup2\n      jump\n        /* \"slap.sol\":574:608  uint256 public immutable maxSupply */\n    tag_24:\n      callvalue\n      dup1\n      iszero\n      tag_140\n      jumpi\n      0x00\n      dup1\n      revert\n    tag_140:\n      pop\n      tag_55\n      immutable(\"0x5c4c6aa067b6f8e6cb38e6ab843832a94d1712d661a04d73c517d6a1931a9e5d\")\n      dup2\n      jump\n        /* \"@openzeppelin/contracts/token/ERC20/ERC20.sol\":3846:3986   */\n    tag_25:\n      callvalue\n      dup1\n      iszero\n      tag_144\n      jumpi\n      0x00\n      dup1\n      revert\n    tag_144:\n      pop\n      tag_55\n      tag_146\n      calldatasize\n      0x04\n      tag_147\n      jump\t// in\n    tag_146:\n      sub(shl(0xa0, 0x01), 0x01)\n        /* \"@openzeppelin/contracts/token/ERC20/ERC20.sol\":3952:3970   */\n      swap2\n      dup3\n      and\n        /* \"@openzeppelin/contracts/token/ERC20/ERC20.sol\":3926:3933   */\n      0x00\n        /* \"@openzeppelin/contracts/token/ERC20/ERC20.sol\":3952:3970   */\n      swap1\n      dup2\n      mstore\n        /* \"@openzeppelin/contracts/token/ERC20/ERC20.sol\":3952:3963   */\n      0x01\n        /* \"@openzeppelin/contracts/token/ERC20/ERC20.sol\":3952:3970   */\n      0x20\n      swap1\n      dup2\n      mstore\n      0x40\n      dup1\n      dup4\n      keccak256\n        /* \"@openzeppelin/contracts/token/ERC20/ERC20.sol\":3952:3979   */\n      swap4\n      swap1\n      swap5\n      and\n      dup3\n      mstore\n      swap2\n      swap1\n      swap2\n      mstore\n      keccak256\n      sload\n      swap1\n        /* \"@openzeppelin/contracts/token/ERC20/ERC20.sol\":3846:3986   */\n      jump\n        /* \"@openzeppelin/contracts/access/Ownable.sol\":2543:2758   */\n    tag_26:\n      callvalue\n      dup1\n      iszero\n      tag_150\n      jumpi\n      0x00\n      dup1\n      revert\n    tag_150:\n      pop\n      tag_60\n      tag_152\n      calldatasize\n      0x04\n      tag_87\n      jump\t// in\n    tag_152:\n      tag_153\n      jump\t// in\n        /* \"slap.sol\":3300:3419  function setMintOpen(bool open) external onlyOwner {... */\n    tag_27:\n      callvalue\n      dup1\n      iszero\n      tag_154\n      jumpi\n      0x00\n      dup1\n      revert\n    tag_154:\n      pop\n      tag_60\n      tag_156\n      calldatasize\n      0x04\n      tag_77\n      jump\t// in\n    tag_156:\n      tag_157\n      jump\t// in\n        /* \"@openzeppelin/contracts/token/ERC20/ERC20.sol\":2074:2163   */\n    tag_44:\n        /* \"@openzeppelin/contracts/token/ERC20/ERC20.sol\":2119:2132   */\n      0x60\n        /* \"@openzeppelin/contracts/token/ERC20/ERC20.sol\":2151:2156   */\n      0x03\n        /* \"@openzeppelin/contracts/token/ERC20/ERC20.sol\":2144:2156   */\n      dup1\n      sload\n      tag_159\n      swap1\n      tag_160\n      jump\t// in\n    tag_159:\n      dup1\n      0x1f\n      add\n      0x20\n      dup1\n      swap2\n      div\n      mul\n      0x20\n      add\n      mload(0x40)\n      swap1\n      dup2\n      add\n      0x40\n      mstore\n      dup1\n      swap3\n      swap2\n      swap1\n      dup2\n      dup2\n      mstore\n      0x20\n      add\n      dup3\n      dup1\n      sload\n      tag_161\n      swap1\n      tag_160\n      jump\t// in\n    tag_161:\n      dup1\n      iszero\n      tag_162\n      jumpi\n      dup1\n      0x1f\n      lt\n      tag_163\n      jumpi\n      0x0100\n      dup1\n      dup4\n      sload\n      div\n      mul\n      dup4\n      mstore\n      swap2\n      0x20\n      add\n      swap2\n      jump(tag_162)\n    tag_163:\n      dup3\n      add\n      swap2\n      swap1\n      0x00\n      mstore\n      keccak256(0x00, 0x20)\n      swap1\n    tag_164:\n      dup2\n      sload\n      dup2\n      mstore\n      swap1\n      0x01\n      add\n      swap1\n      0x20\n      add\n      dup1\n      dup4\n      gt\n      tag_164\n      jumpi\n      dup3\n      swap1\n      sub\n      0x1f\n      and\n      dup3\n      add\n      swap2\n    tag_162:\n      pop\n      pop\n      pop\n      pop\n      pop\n      swap1\n      pop\n        /* \"@openzeppelin/contracts/token/ERC20/ERC20.sol\":2074:2163   */\n      swap1\n      jump\t// out\n        /* \"@openzeppelin/contracts/token/ERC20/ERC20.sol\":4293:4479   */\n    tag_51:\n        /* \"@openzeppelin/contracts/token/ERC20/ERC20.sol\":4366:4370   */\n      0x00\n        /* \"@openzeppelin/contracts/utils/Context.sol\":735:745   */\n      caller\n        /* \"@openzeppelin/contracts/token/ERC20/ERC20.sol\":4420:4451   */\n      tag_168\n        /* \"@openzeppelin/contracts/utils/Context.sol\":735:745   */\n      dup2\n        /* \"@openzeppelin/contracts/token/ERC20/ERC20.sol\":4436:4443   */\n      dup6\n        /* \"@openzeppelin/contracts/token/ERC20/ERC20.sol\":4445:4450   */\n      dup6\n        /* \"@openzeppelin/contracts/token/ERC20/ERC20.sol\":4420:4428   */\n      tag_169\n        /* \"@openzeppelin/contracts/token/ERC20/ERC20.sol\":4420:4451   */\n      jump\t// in\n    tag_168:\n        /* \"@openzeppelin/contracts/token/ERC20/ERC20.sol\":4468:4472   */\n      0x01\n        /* \"@openzeppelin/contracts/token/ERC20/ERC20.sol\":4461:4472   */\n      swap2\n      pop\n      pop\n        /* \"@openzeppelin/contracts/token/ERC20/ERC20.sol\":4293:4479   */\n    tag_165:\n      swap3\n      swap2\n      pop\n      pop\n      jump\t// out\n        /* \"slap.sol\":3707:3907  function setWalletMintCap(uint256 newCapWhole) external onlyOwner {... */\n    tag_63:\n        /* \"@openzeppelin/contracts/access/Ownable.sol\":1531:1544   */\n      tag_172\n        /* \"@openzeppelin/contracts/access/Ownable.sol\":1531:1542   */\n      tag_173\n        /* \"@openzeppelin/contracts/access/Ownable.sol\":1531:1544   */\n      jump\t// in\n    tag_172:\n        /* \"slap.sol\":3797:3810  walletMintCap */\n      0x09\n      dup1\n      sload\n        /* \"slap.sol\":3820:3847  walletMintCap = newCapWhole */\n      swap1\n      dup3\n      swap1\n      sstore\n        /* \"slap.sol\":3862:3900  WalletMintCapChanged(old, newCapWhole) */\n      0x40\n      dup1\n      mload\n        /* \"#utility.yul\":4437:4462   */\n      dup3\n      dup2\n      mstore\n        /* \"#utility.yul\":4493:4495   */\n      0x20\n        /* \"#utility.yul\":4478:4496   */\n      dup2\n      add\n        /* \"#utility.yul\":4471:4505   */\n      dup5\n      swap1\n      mstore\n        /* \"slap.sol\":3862:3900  WalletMintCapChanged(old, newCapWhole) */\n      0x071795f06cf09b4d835204ba653f74e76d61a5641023b115ae926669830497c0\n      swap2\n        /* \"#utility.yul\":4410:4428   */\n      add\n        /* \"slap.sol\":3862:3900  WalletMintCapChanged(old, newCapWhole) */\n    tag_175:\n      mload(0x40)\n      dup1\n      swap2\n      sub\n      swap1\n      log1\n        /* \"slap.sol\":3773:3907  {... */\n      pop\n        /* \"slap.sol\":3707:3907  function setWalletMintCap(uint256 newCapWhole) external onlyOwner {... */\n      pop\n      jump\t// out\n        /* \"@openzeppelin/contracts/token/ERC20/ERC20.sol\":5039:5283   */\n    tag_68:\n        /* \"@openzeppelin/contracts/token/ERC20/ERC20.sol\":5126:5130   */\n      0x00\n        /* \"@openzeppelin/contracts/utils/Context.sol\":735:745   */\n      caller\n        /* \"@openzeppelin/contracts/token/ERC20/ERC20.sol\":5182:5219   */\n      tag_179\n        /* \"@openzeppelin/contracts/token/ERC20/ERC20.sol\":5198:5202   */\n      dup6\n        /* \"@openzeppelin/contracts/utils/Context.sol\":735:745   */\n      dup3\n        /* \"@openzeppelin/contracts/token/ERC20/ERC20.sol\":5213:5218   */\n      dup6\n        /* \"@openzeppelin/contracts/token/ERC20/ERC20.sol\":5182:5197   */\n      tag_180\n        /* \"@openzeppelin/contracts/token/ERC20/ERC20.sol\":5182:5219   */\n      jump\t// in\n    tag_179:\n        /* \"@openzeppelin/contracts/token/ERC20/ERC20.sol\":5229:5255   */\n      tag_181\n        /* \"@openzeppelin/contracts/token/ERC20/ERC20.sol\":5239:5243   */\n      dup6\n        /* \"@openzeppelin/contracts/token/ERC20/ERC20.sol\":5245:5247   */\n      dup6\n        /* \"@openzeppelin/contracts/token/ERC20/ERC20.sol\":5249:5254   */\n      dup6\n        /* \"@openzeppelin/contracts/token/ERC20/ERC20.sol\":5229:5238   */\n      tag_182\n        /* \"@openzeppelin/contracts/token/ERC20/ERC20.sol\":5229:5255   */\n      jump\t// in\n    tag_181:\n      pop\n        /* \"@openzeppelin/contracts/token/ERC20/ERC20.sol\":5272:5276   */\n      0x01\n      swap5\n        /* \"@openzeppelin/contracts/token/ERC20/ERC20.sol\":5039:5283   */\n      swap4\n      pop\n      pop\n      pop\n      pop\n      jump\t// out\n        /* \"slap.sol\":3488:3640  function setTransfersEnabled(bool enabled) external onlyOwner {... */\n    tag_78:\n        /* \"@openzeppelin/contracts/access/Ownable.sol\":1531:1544   */\n      tag_184\n        /* \"@openzeppelin/contracts/access/Ownable.sol\":1531:1542   */\n      tag_173\n        /* \"@openzeppelin/contracts/access/Ownable.sol\":1531:1544   */\n      jump\t// in\n    tag_184:\n        /* \"slap.sol\":3560:3576  transfersEnabled */\n      0x08\n        /* \"slap.sol\":3560:3586  transfersEnabled = enabled */\n      dup1\n      sload\n      dup3\n      iszero\n      iszero\n      0x0100\n      mul\n      not(0xff00)\n      swap1\n      swap2\n      and\n      or\n      swap1\n      sstore\n        /* \"slap.sol\":3601:3633  TransfersEnabledChanged(enabled) */\n      mload(0x40)\n      0x3f0522fb4345c29729658df56a8b87c4360593a277942cc15cdf041866058690\n      swap1\n      tag_186\n      swap1\n        /* \"slap.sol\":3579:3586  enabled */\n      dup4\n        /* \"#utility.yul\":1420:1434   */\n      iszero\n        /* \"#utility.yul\":1413:1435   */\n      iszero\n        /* \"#utility.yul\":1395:1436   */\n      dup2\n      mstore\n        /* \"#utility.yul\":1383:1385   */\n      0x20\n        /* \"#utility.yul\":1368:1386   */\n      add\n      swap1\n        /* \"#utility.yul\":1255:1442   */\n      jump\n        /* \"slap.sol\":3601:3633  TransfersEnabledChanged(enabled) */\n    tag_186:\n      mload(0x40)\n      dup1\n      swap2\n      sub\n      swap1\n      log1\n        /* \"slap.sol\":3488:3640  function setTransfersEnabled(bool enabled) external onlyOwner {... */\n      pop\n      jump\t// out\n        /* \"slap.sol\":3913:4077  function withdraw(address payable to) external onlyOwner nonReentrant {... */\n    tag_88:\n        /* \"@openzeppelin/contracts/access/Ownable.sol\":1531:1544   */\n      tag_189\n        /* \"@openzeppelin/contracts/access/Ownable.sol\":1531:1542   */\n      tag_173\n        /* \"@openzeppelin/contracts/access/Ownable.sol\":1531:1544   */\n      jump\t// in\n    tag_189:\n        /* \"@openzeppelin/contracts/utils/ReentrancyGuard.sol\":2356:2377   */\n      tag_191\n        /* \"@openzeppelin/contracts/utils/ReentrancyGuard.sol\":2356:2375   */\n      tag_192\n        /* \"@openzeppelin/contracts/utils/ReentrancyGuard.sol\":2356:2377   */\n      jump\t// in\n    tag_191:\n      sub(shl(0xa0, 0x01), 0x01)\n        /* \"slap.sol\":4001:4017  to != address(0) */\n      dup2\n      and\n        /* \"slap.sol\":3993:4026  require(to != address(0), \"to=0\") */\n      tag_194\n      jumpi\n      mload(0x40)\n      shl(0xe5, 0x461bcd)\n      dup2\n      mstore\n      0x04\n      add\n      tag_37\n      swap1\n        /* \"#utility.yul\":4718:4720   */\n      0x20\n        /* \"#utility.yul\":4700:4721   */\n      dup1\n      dup3\n      mstore\n        /* \"#utility.yul\":4757:4758   */\n      0x04\n        /* \"#utility.yul\":4737:4755   */\n      swap1\n      dup3\n      add\n        /* \"#utility.yul\":4730:4759   */\n      mstore\n      shl(0xe4, 0x0746f3d3)\n        /* \"#utility.yul\":4790:4792   */\n      0x40\n        /* \"#utility.yul\":4775:4793   */\n      dup3\n      add\n        /* \"#utility.yul\":4768:4802   */\n      mstore\n        /* \"#utility.yul\":4834:4836   */\n      0x60\n        /* \"#utility.yul\":4819:4837   */\n      add\n      swap1\n        /* \"#utility.yul\":4516:4843   */\n      jump\n        /* \"slap.sol\":3993:4026  require(to != address(0), \"to=0\") */\n    tag_194:\n        /* \"slap.sol\":4036:4070  to.transfer(address(this).balance) */\n      mload(0x40)\n      sub(shl(0xa0, 0x01), 0x01)\n        /* \"slap.sol\":4036:4047  to.transfer */\n      dup3\n      and\n      swap1\n        /* \"slap.sol\":4048:4069  address(this).balance */\n      selfbalance\n        /* \"slap.sol\":4036:4070  to.transfer(address(this).balance) */\n      dup1\n      iszero\n      0x08fc\n      mul\n      swap2\n      0x00\n      dup2\n      dup2\n      dup2\n        /* \"slap.sol\":4048:4069  address(this).balance */\n      dup6\n        /* \"slap.sol\":4036:4047  to.transfer */\n      dup9\n        /* \"slap.sol\":4036:4070  to.transfer(address(this).balance) */\n      dup9\n      call\n      swap4\n      pop\n      pop\n      pop\n      pop\n      iszero\n      dup1\n      iszero\n      tag_198\n      jumpi\n      returndatasize\n      0x00\n      dup1\n      returndatacopy\n      revert(0x00, returndatasize)\n    tag_198:\n      pop\n        /* \"@openzeppelin/contracts/utils/ReentrancyGuard.sol\":2398:2418   */\n      tag_199\n        /* \"@openzeppelin/contracts/utils/ReentrancyGuard.sol\":1713:1714   */\n      0x01\n        /* \"@openzeppelin/contracts/utils/ReentrancyGuard.sol\":2924:2931   */\n      0x06\n        /* \"@openzeppelin/contracts/utils/ReentrancyGuard.sol\":2924:2945   */\n      sstore\n        /* \"@openzeppelin/contracts/utils/ReentrancyGuard.sol\":2744:2952   */\n      jump\n        /* \"@openzeppelin/contracts/utils/ReentrancyGuard.sol\":2398:2418   */\n    tag_199:\n        /* \"slap.sol\":3913:4077  function withdraw(address payable to) external onlyOwner nonReentrant {... */\n      pop\n      jump\t// out\n        /* \"@openzeppelin/contracts/access/Ownable.sol\":2293:2394   */\n    tag_97:\n        /* \"@openzeppelin/contracts/access/Ownable.sol\":1531:1544   */\n      tag_203\n        /* \"@openzeppelin/contracts/access/Ownable.sol\":1531:1542   */\n      tag_173\n        /* \"@openzeppelin/contracts/access/Ownable.sol\":1531:1544   */\n      jump\t// in\n    tag_203:\n        /* \"@openzeppelin/contracts/access/Ownable.sol\":2357:2387   */\n      tag_205\n        /* \"@openzeppelin/contracts/access/Ownable.sol\":2384:2385   */\n      0x00\n        /* \"@openzeppelin/contracts/access/Ownable.sol\":2357:2375   */\n      tag_206\n        /* \"@openzeppelin/contracts/access/Ownable.sol\":2357:2387   */\n      jump\t// in\n    tag_205:\n        /* \"@openzeppelin/contracts/access/Ownable.sol\":2293:2394   */\n      jump\t// out\n        /* \"slap.sol\":3104:3294  function setPrice(uint256 newPriceWei) external onlyOwner {... */\n    tag_106:\n        /* \"@openzeppelin/contracts/access/Ownable.sol\":1531:1544   */\n      tag_209\n        /* \"@openzeppelin/contracts/access/Ownable.sol\":1531:1542   */\n      tag_173\n        /* \"@openzeppelin/contracts/access/Ownable.sol\":1531:1544   */\n      jump\t// in\n    tag_209:\n        /* \"slap.sol\":3186:3202  pricePerTokenWei */\n      0x07\n      dup1\n      sload\n        /* \"slap.sol\":3212:3242  pricePerTokenWei = newPriceWei */\n      swap1\n      dup3\n      swap1\n      sstore\n        /* \"slap.sol\":3257:3287  PriceChanged(old, newPriceWei) */\n      0x40\n      dup1\n      mload\n        /* \"#utility.yul\":4437:4462   */\n      dup3\n      dup2\n      mstore\n        /* \"#utility.yul\":4493:4495   */\n      0x20\n        /* \"#utility.yul\":4478:4496   */\n      dup2\n      add\n        /* \"#utility.yul\":4471:4505   */\n      dup5\n      swap1\n      mstore\n        /* \"slap.sol\":3257:3287  PriceChanged(old, newPriceWei) */\n      0x8aa4fa52648a6d15edce8a179c792c86f3719d0cc3c572cf90f91948f0f2cb68\n      swap2\n        /* \"#utility.yul\":4410:4428   */\n      add\n        /* \"slap.sol\":3257:3287  PriceChanged(old, newPriceWei) */\n      tag_175\n        /* \"#utility.yul\":4263:4511   */\n      jump\n        /* \"@openzeppelin/contracts/token/ERC20/ERC20.sol\":2276:2369   */\n    tag_109:\n        /* \"@openzeppelin/contracts/token/ERC20/ERC20.sol\":2323:2336   */\n      0x60\n        /* \"@openzeppelin/contracts/token/ERC20/ERC20.sol\":2355:2362   */\n      0x04\n        /* \"@openzeppelin/contracts/token/ERC20/ERC20.sol\":2348:2362   */\n      dup1\n      sload\n      tag_159\n      swap1\n      tag_160\n      jump\t// in\n        /* \"slap.sol\":2408:3063  function mint(uint256 amount) external payable nonReentrant {... */\n    tag_113:\n        /* \"@openzeppelin/contracts/utils/ReentrancyGuard.sol\":2356:2377   */\n      tag_219\n        /* \"@openzeppelin/contracts/utils/ReentrancyGuard.sol\":2356:2375   */\n      tag_192\n        /* \"@openzeppelin/contracts/utils/ReentrancyGuard.sol\":2356:2377   */\n      jump\t// in\n    tag_219:\n        /* \"slap.sol\":2486:2494  mintOpen */\n      and(0xff, sload(0x08))\n        /* \"slap.sol\":2478:2510  require(mintOpen, \"mint paused\") */\n      tag_221\n      jumpi\n      mload(0x40)\n      shl(0xe5, 0x461bcd)\n      dup2\n      mstore\n        /* \"#utility.yul\":5050:5052   */\n      0x20\n        /* \"slap.sol\":2478:2510  require(mintOpen, \"mint paused\") */\n      0x04\n      dup3\n      add\n        /* \"#utility.yul\":5032:5053   */\n      mstore\n        /* \"#utility.yul\":5089:5091   */\n      0x0b\n        /* \"#utility.yul\":5069:5087   */\n      0x24\n      dup3\n      add\n        /* \"#utility.yul\":5062:5092   */\n      mstore\n        /* \"#utility.yul\":5128:5141   */\n      0x6d696e7420706175736564000000000000000000000000000000000000000000\n        /* \"#utility.yul\":5108:5126   */\n      0x44\n      dup3\n      add\n        /* \"#utility.yul\":5101:5142   */\n      mstore\n        /* \"#utility.yul\":5159:5177   */\n      0x64\n      add\n        /* \"slap.sol\":2478:2510  require(mintOpen, \"mint paused\") */\n      tag_37\n        /* \"#utility.yul\":4848:5183   */\n      jump\n        /* \"slap.sol\":2478:2510  require(mintOpen, \"mint paused\") */\n    tag_221:\n        /* \"slap.sol\":2537:2538  0 */\n      0x00\n        /* \"slap.sol\":2528:2534  amount */\n      dup2\n        /* \"slap.sol\":2528:2538  amount > 0 */\n      gt\n        /* \"slap.sol\":2520:2551  require(amount > 0, \"amount=0\") */\n      tag_224\n      jumpi\n      mload(0x40)\n      shl(0xe5, 0x461bcd)\n      dup2\n      mstore\n        /* \"#utility.yul\":5390:5392   */\n      0x20\n        /* \"slap.sol\":2520:2551  require(amount > 0, \"amount=0\") */\n      0x04\n      dup3\n      add\n        /* \"#utility.yul\":5372:5393   */\n      mstore\n        /* \"#utility.yul\":5429:5430   */\n      0x08\n        /* \"#utility.yul\":5409:5427   */\n      0x24\n      dup3\n      add\n        /* \"#utility.yul\":5402:5431   */\n      mstore\n        /* \"#utility.yul\":5467:5477   */\n      0x616d6f756e743d30000000000000000000000000000000000000000000000000\n        /* \"#utility.yul\":5447:5465   */\n      0x44\n      dup3\n      add\n        /* \"#utility.yul\":5440:5478   */\n      mstore\n        /* \"#utility.yul\":5495:5513   */\n      0x64\n      add\n        /* \"slap.sol\":2520:2551  require(amount > 0, \"amount=0\") */\n      tag_37\n        /* \"#utility.yul\":5188:5519   */\n      jump\n        /* \"slap.sol\":2520:2551  require(amount > 0, \"amount=0\") */\n    tag_224:\n        /* \"slap.sol\":2566:2579  walletMintCap */\n      sload(0x09)\n        /* \"slap.sol\":2566:2583  walletMintCap > 0 */\n      iszero\n        /* \"slap.sol\":2562:2691  if (walletMintCap > 0) {... */\n      tag_230\n      jumpi\n        /* \"slap.sol\":2643:2656  walletMintCap */\n      sload(0x09)\n        /* \"slap.sol\":2619:2629  msg.sender */\n      caller\n        /* \"slap.sol\":2607:2630  mintedWhole[msg.sender] */\n      0x00\n      swap1\n      dup2\n      mstore\n        /* \"slap.sol\":2607:2618  mintedWhole */\n      0x0a\n        /* \"slap.sol\":2607:2630  mintedWhole[msg.sender] */\n      0x20\n      mstore\n      0x40\n      swap1\n      keccak256\n      sload\n        /* \"slap.sol\":2607:2639  mintedWhole[msg.sender] + amount */\n      tag_228\n      swap1\n        /* \"slap.sol\":2633:2639  amount */\n      dup4\n      swap1\n        /* \"slap.sol\":2607:2639  mintedWhole[msg.sender] + amount */\n      tag_229\n      jump\t// in\n    tag_228:\n        /* \"slap.sol\":2607:2656  mintedWhole[msg.sender] + amount <= walletMintCap */\n      gt\n      iszero\n        /* \"slap.sol\":2599:2680  require(mintedWhole[msg.sender] + amount <= walletMintCap, \"wallet cap exceeded\") */\n      tag_230\n      jumpi\n      mload(0x40)\n      shl(0xe5, 0x461bcd)\n      dup2\n      mstore\n        /* \"#utility.yul\":5988:5990   */\n      0x20\n        /* \"slap.sol\":2599:2680  require(mintedWhole[msg.sender] + amount <= walletMintCap, \"wallet cap exceeded\") */\n      0x04\n      dup3\n      add\n        /* \"#utility.yul\":5970:5991   */\n      mstore\n        /* \"#utility.yul\":6027:6029   */\n      0x13\n        /* \"#utility.yul\":6007:6025   */\n      0x24\n      dup3\n      add\n        /* \"#utility.yul\":6000:6030   */\n      mstore\n        /* \"#utility.yul\":6066:6087   */\n      0x77616c6c65742063617020657863656564656400000000000000000000000000\n        /* \"#utility.yul\":6046:6064   */\n      0x44\n      dup3\n      add\n        /* \"#utility.yul\":6039:6088   */\n      mstore\n        /* \"#utility.yul\":6105:6123   */\n      0x64\n      add\n        /* \"slap.sol\":2599:2680  require(mintedWhole[msg.sender] + amount <= walletMintCap, \"wallet cap exceeded\") */\n      tag_37\n        /* \"#utility.yul\":5786:6129   */\n      jump\n        /* \"slap.sol\":2599:2680  require(mintedWhole[msg.sender] + amount <= walletMintCap, \"wallet cap exceeded\") */\n    tag_230:\n        /* \"slap.sol\":2701:2713  uint256 cost */\n      0x00\n        /* \"slap.sol\":2735:2741  amount */\n      dup2\n        /* \"slap.sol\":2716:2732  pricePerTokenWei */\n      sload(0x07)\n        /* \"slap.sol\":2716:2741  pricePerTokenWei * amount */\n      tag_233\n      swap2\n      swap1\n      tag_234\n      jump\t// in\n    tag_233:\n        /* \"slap.sol\":2701:2741  uint256 cost = pricePerTokenWei * amount */\n      swap1\n      pop\n        /* \"slap.sol\":2772:2776  cost */\n      dup1\n        /* \"slap.sol\":2759:2768  msg.value */\n      callvalue\n        /* \"slap.sol\":2759:2776  msg.value == cost */\n      eq\n        /* \"slap.sol\":2751:2794  require(msg.value == cost, \"incorrect ETH\") */\n      tag_235\n      jumpi\n      mload(0x40)\n      shl(0xe5, 0x461bcd)\n      dup2\n      mstore\n        /* \"#utility.yul\":6509:6511   */\n      0x20\n        /* \"slap.sol\":2751:2794  require(msg.value == cost, \"incorrect ETH\") */\n      0x04\n      dup3\n      add\n        /* \"#utility.yul\":6491:6512   */\n      mstore\n        /* \"#utility.yul\":6548:6550   */\n      0x0d\n        /* \"#utility.yul\":6528:6546   */\n      0x24\n      dup3\n      add\n        /* \"#utility.yul\":6521:6551   */\n      mstore\n        /* \"#utility.yul\":6587:6602   */\n      0x696e636f72726563742045544800000000000000000000000000000000000000\n        /* \"#utility.yul\":6567:6585   */\n      0x44\n      dup3\n      add\n        /* \"#utility.yul\":6560:6603   */\n      mstore\n        /* \"#utility.yul\":6620:6638   */\n      0x64\n      add\n        /* \"slap.sol\":2751:2794  require(msg.value == cost, \"incorrect ETH\") */\n      tag_37\n        /* \"#utility.yul\":6307:6644   */\n      jump\n        /* \"slap.sol\":2751:2794  require(msg.value == cost, \"incorrect ETH\") */\n    tag_235:\n        /* \"slap.sol\":2805:2818  uint256 units */\n      0x00\n        /* \"slap.sol\":2831:2856  10 ** uint256(decimals()) */\n      tag_239\n        /* \"@openzeppelin/contracts/token/ERC20/ERC20.sol\":3075:3077   */\n      0x12\n        /* \"slap.sol\":2831:2833  10 */\n      0x0a\n        /* \"slap.sol\":2831:2856  10 ** uint256(decimals()) */\n      tag_240\n      jump\t// in\n    tag_239:\n        /* \"slap.sol\":2821:2857  amount * (10 ** uint256(decimals())) */\n      tag_241\n      swap1\n        /* \"slap.sol\":2821:2827  amount */\n      dup5\n        /* \"slap.sol\":2821:2857  amount * (10 ** uint256(decimals())) */\n      tag_234\n      jump\t// in\n    tag_241:\n        /* \"slap.sol\":2805:2857  uint256 units = amount * (10 ** uint256(decimals())) */\n      swap1\n      pop\n        /* \"slap.sol\":2900:2909  maxSupply */\n      immutable(\"0x5c4c6aa067b6f8e6cb38e6ab843832a94d1712d661a04d73c517d6a1931a9e5d\")\n        /* \"slap.sol\":2891:2896  units */\n      dup2\n        /* \"slap.sol\":2875:2888  totalSupply() */\n      tag_242\n        /* \"@openzeppelin/contracts/token/ERC20/ERC20.sol\":3222:3234   */\n      sload(0x02)\n      swap1\n        /* \"@openzeppelin/contracts/token/ERC20/ERC20.sol\":3144:3241   */\n      jump\n        /* \"slap.sol\":2875:2888  totalSupply() */\n    tag_242:\n        /* \"slap.sol\":2875:2896  totalSupply() + units */\n      tag_243\n      swap2\n      swap1\n      tag_229\n      jump\t// in\n    tag_243:\n        /* \"slap.sol\":2875:2909  totalSupply() + units <= maxSupply */\n      gt\n      iszero\n        /* \"slap.sol\":2867:2926  require(totalSupply() + units <= maxSupply, \"cap exceeded\") */\n      tag_244\n      jumpi\n      mload(0x40)\n      shl(0xe5, 0x461bcd)\n      dup2\n      mstore\n        /* \"#utility.yul\":8219:8221   */\n      0x20\n        /* \"slap.sol\":2867:2926  require(totalSupply() + units <= maxSupply, \"cap exceeded\") */\n      0x04\n      dup3\n      add\n        /* \"#utility.yul\":8201:8222   */\n      mstore\n        /* \"#utility.yul\":8258:8260   */\n      0x0c\n        /* \"#utility.yul\":8238:8256   */\n      0x24\n      dup3\n      add\n        /* \"#utility.yul\":8231:8261   */\n      mstore\n        /* \"#utility.yul\":8297:8311   */\n      0x6361702065786365656465640000000000000000000000000000000000000000\n        /* \"#utility.yul\":8277:8295   */\n      0x44\n      dup3\n      add\n        /* \"#utility.yul\":8270:8312   */\n      mstore\n        /* \"#utility.yul\":8329:8347   */\n      0x64\n      add\n        /* \"slap.sol\":2867:2926  require(totalSupply() + units <= maxSupply, \"cap exceeded\") */\n      tag_37\n        /* \"#utility.yul\":8017:8353   */\n      jump\n        /* \"slap.sol\":2867:2926  require(totalSupply() + units <= maxSupply, \"cap exceeded\") */\n    tag_244:\n        /* \"slap.sol\":2949:2959  msg.sender */\n      caller\n        /* \"slap.sol\":2937:2960  mintedWhole[msg.sender] */\n      0x00\n      swap1\n      dup2\n      mstore\n        /* \"slap.sol\":2937:2948  mintedWhole */\n      0x0a\n        /* \"slap.sol\":2937:2960  mintedWhole[msg.sender] */\n      0x20\n      mstore\n      0x40\n      dup2\n      keccak256\n        /* \"slap.sol\":2937:2970  mintedWhole[msg.sender] += amount */\n      dup1\n      sload\n        /* \"slap.sol\":2964:2970  amount */\n      dup6\n      swap3\n        /* \"slap.sol\":2937:2960  mintedWhole[msg.sender] */\n      swap1\n        /* \"slap.sol\":2937:2970  mintedWhole[msg.sender] += amount */\n      tag_247\n      swap1\n        /* \"slap.sol\":2964:2970  amount */\n      dup5\n      swap1\n        /* \"slap.sol\":2937:2970  mintedWhole[msg.sender] += amount */\n      tag_229\n      jump\t// in\n    tag_247:\n      swap1\n      swap2\n      sstore\n      pop\n        /* \"slap.sol\":2980:3004  _mint(msg.sender, units) */\n      tag_248\n      swap1\n      pop\n        /* \"slap.sol\":2986:2996  msg.sender */\n      caller\n        /* \"slap.sol\":2998:3003  units */\n      dup3\n        /* \"slap.sol\":2980:2985  _mint */\n      tag_249\n        /* \"slap.sol\":2980:3004  _mint(msg.sender, units) */\n      jump\t// in\n    tag_248:\n        /* \"slap.sol\":3019:3056  Minted(msg.sender, amount, msg.value) */\n      0x40\n      dup1\n      mload\n        /* \"#utility.yul\":4437:4462   */\n      dup5\n      dup2\n      mstore\n        /* \"slap.sol\":3046:3055  msg.value */\n      callvalue\n        /* \"#utility.yul\":4493:4495   */\n      0x20\n        /* \"#utility.yul\":4478:4496   */\n      dup3\n      add\n        /* \"#utility.yul\":4471:4505   */\n      mstore\n        /* \"slap.sol\":3026:3036  msg.sender */\n      caller\n      swap2\n        /* \"slap.sol\":3019:3056  Minted(msg.sender, amount, msg.value) */\n      0x25b428dfde728ccfaddad7e29e4ac23c24ed7fd1a6e3e3f91894a9a073f5dfff\n      swap2\n        /* \"#utility.yul\":4410:4428   */\n      add\n        /* \"slap.sol\":3019:3056  Minted(msg.sender, amount, msg.value) */\n      mload(0x40)\n      dup1\n      swap2\n      sub\n      swap1\n      log2\n        /* \"slap.sol\":2468:3063  {... */\n      pop\n      pop\n        /* \"@openzeppelin/contracts/utils/ReentrancyGuard.sol\":2398:2418   */\n      tag_199\n        /* \"@openzeppelin/contracts/utils/ReentrancyGuard.sol\":1713:1714   */\n      0x01\n        /* \"@openzeppelin/contracts/utils/ReentrancyGuard.sol\":2924:2931   */\n      0x06\n        /* \"@openzeppelin/contracts/utils/ReentrancyGuard.sol\":2924:2945   */\n      sstore\n        /* \"@openzeppelin/contracts/utils/ReentrancyGuard.sol\":2744:2952   */\n      jump\n        /* \"@openzeppelin/contracts/token/ERC20/ERC20.sol\":3610:3788   */\n    tag_117:\n        /* \"@openzeppelin/contracts/token/ERC20/ERC20.sol\":3679:3683   */\n      0x00\n        /* \"@openzeppelin/contracts/utils/Context.sol\":735:745   */\n      caller\n        /* \"@openzeppelin/contracts/token/ERC20/ERC20.sol\":3733:3760   */\n      tag_168\n        /* \"@openzeppelin/contracts/utils/Context.sol\":735:745   */\n      dup2\n        /* \"@openzeppelin/contracts/token/ERC20/ERC20.sol\":3750:3752   */\n      dup6\n        /* \"@openzeppelin/contracts/token/ERC20/ERC20.sol\":3754:3759   */\n      dup6\n        /* \"@openzeppelin/contracts/token/ERC20/ERC20.sol\":3733:3742   */\n      tag_182\n        /* \"@openzeppelin/contracts/token/ERC20/ERC20.sol\":3733:3760   */\n      jump\t// in\n        /* \"slap.sol\":4513:4648  function tokensLeft() external view returns (uint256) {... */\n    tag_121:\n        /* \"slap.sol\":4558:4565  uint256 */\n      0x00\n        /* \"slap.sol\":4615:4640  10 ** uint256(decimals()) */\n      tag_257\n        /* \"@openzeppelin/contracts/token/ERC20/ERC20.sol\":3075:3077   */\n      0x12\n        /* \"slap.sol\":4615:4617  10 */\n      0x0a\n        /* \"slap.sol\":4615:4640  10 ** uint256(decimals()) */\n      tag_240\n      jump\t// in\n    tag_257:\n        /* \"@openzeppelin/contracts/token/ERC20/ERC20.sol\":3222:3234   */\n      sload(0x02)\n        /* \"slap.sol\":4585:4610  maxSupply - totalSupply() */\n      tag_259\n      swap1\n        /* \"slap.sol\":4585:4594  maxSupply */\n      immutable(\"0x5c4c6aa067b6f8e6cb38e6ab843832a94d1712d661a04d73c517d6a1931a9e5d\")\n        /* \"slap.sol\":4585:4610  maxSupply - totalSupply() */\n      tag_260\n      jump\t// in\n    tag_259:\n        /* \"slap.sol\":4584:4641  (maxSupply - totalSupply()) / (10 ** uint256(decimals())) */\n      tag_261\n      swap2\n      swap1\n      tag_262\n      jump\t// in\n    tag_261:\n        /* \"slap.sol\":4577:4641  return (maxSupply - totalSupply()) / (10 ** uint256(decimals())) */\n      swap1\n      pop\n        /* \"slap.sol\":4513:4648  function tokensLeft() external view returns (uint256) {... */\n      swap1\n      jump\t// out\n        /* \"@openzeppelin/contracts/access/Ownable.sol\":2543:2758   */\n    tag_153:\n        /* \"@openzeppelin/contracts/access/Ownable.sol\":1531:1544   */\n      tag_265\n        /* \"@openzeppelin/contracts/access/Ownable.sol\":1531:1542   */\n      tag_173\n        /* \"@openzeppelin/contracts/access/Ownable.sol\":1531:1544   */\n      jump\t// in\n    tag_265:\n      sub(shl(0xa0, 0x01), 0x01)\n        /* \"@openzeppelin/contracts/access/Ownable.sol\":2627:2649   */\n      dup2\n      and\n        /* \"@openzeppelin/contracts/access/Ownable.sol\":2623:2714   */\n      tag_267\n      jumpi\n        /* \"@openzeppelin/contracts/access/Ownable.sol\":2672:2703   */\n      mload(0x40)\n      shl(0xe0, 0x1e4fbdf7)\n      dup2\n      mstore\n        /* \"@openzeppelin/contracts/access/Ownable.sol\":2700:2701   */\n      0x00\n        /* \"@openzeppelin/contracts/access/Ownable.sol\":2672:2703   */\n      0x04\n      dup3\n      add\n        /* \"#utility.yul\":3400:3474   */\n      mstore\n        /* \"#utility.yul\":3373:3391   */\n      0x24\n      add\n        /* \"@openzeppelin/contracts/access/Ownable.sol\":2672:2703   */\n      tag_37\n        /* \"#utility.yul\":3254:3480   */\n      jump\n        /* \"@openzeppelin/contracts/access/Ownable.sol\":2623:2714   */\n    tag_267:\n        /* \"@openzeppelin/contracts/access/Ownable.sol\":2723:2751   */\n      tag_199\n        /* \"@openzeppelin/contracts/access/Ownable.sol\":2742:2750   */\n      dup2\n        /* \"@openzeppelin/contracts/access/Ownable.sol\":2723:2741   */\n      tag_206\n        /* \"@openzeppelin/contracts/access/Ownable.sol\":2723:2751   */\n      jump\t// in\n        /* \"slap.sol\":3300:3419  function setMintOpen(bool open) external onlyOwner {... */\n    tag_157:\n        /* \"@openzeppelin/contracts/access/Ownable.sol\":1531:1544   */\n      tag_271\n        /* \"@openzeppelin/contracts/access/Ownable.sol\":1531:1542   */\n      tag_173\n        /* \"@openzeppelin/contracts/access/Ownable.sol\":1531:1544   */\n      jump\t// in\n    tag_271:\n        /* \"slap.sol\":3361:3369  mintOpen */\n      0x08\n        /* \"slap.sol\":3361:3376  mintOpen = open */\n      dup1\n      sload\n      not(0xff)\n      and\n      dup3\n      iszero\n      iszero\n      swap1\n      dup2\n      or\n      swap1\n      swap2\n      sstore\n        /* \"slap.sol\":3391:3412  MintOpenChanged(open) */\n      mload(0x40)\n        /* \"#utility.yul\":1395:1436   */\n      swap1\n      dup2\n      mstore\n        /* \"slap.sol\":3391:3412  MintOpenChanged(open) */\n      0xa9f739ee29a6336acdfe5b044a6dce0d70579031be6dbdece2ac0848d8c2a080\n      swap1\n        /* \"#utility.yul\":1383:1385   */\n      0x20\n        /* \"#utility.yul\":1368:1386   */\n      add\n        /* \"slap.sol\":3391:3412  MintOpenChanged(open) */\n      tag_186\n        /* \"#utility.yul\":1255:1442   */\n      jump\n        /* \"@openzeppelin/contracts/token/ERC20/ERC20.sol\":8989:9117   */\n    tag_169:\n        /* \"@openzeppelin/contracts/token/ERC20/ERC20.sol\":9073:9110   */\n      tag_276\n        /* \"@openzeppelin/contracts/token/ERC20/ERC20.sol\":9082:9087   */\n      dup4\n        /* \"@openzeppelin/contracts/token/ERC20/ERC20.sol\":9089:9096   */\n      dup4\n        /* \"@openzeppelin/contracts/token/ERC20/ERC20.sol\":9098:9103   */\n      dup4\n        /* \"@openzeppelin/contracts/token/ERC20/ERC20.sol\":9105:9109   */\n      0x01\n        /* \"@openzeppelin/contracts/token/ERC20/ERC20.sol\":9073:9081   */\n      tag_277\n        /* \"@openzeppelin/contracts/token/ERC20/ERC20.sol\":9073:9110   */\n      jump\t// in\n    tag_276:\n        /* \"@openzeppelin/contracts/token/ERC20/ERC20.sol\":8989:9117   */\n      pop\n      pop\n      pop\n      jump\t// out\n        /* \"@openzeppelin/contracts/access/Ownable.sol\":1796:1958   */\n    tag_173:\n        /* \"@openzeppelin/contracts/access/Ownable.sol\":1710:1716   */\n      and(sub(shl(0xa0, 0x01), 0x01), sload(0x05))\n        /* \"@openzeppelin/contracts/utils/Context.sol\":735:745   */\n      caller\n        /* \"@openzeppelin/contracts/access/Ownable.sol\":1855:1878   */\n      eq\n        /* \"@openzeppelin/contracts/access/Ownable.sol\":1851:1952   */\n      tag_205\n      jumpi\n        /* \"@openzeppelin/contracts/access/Ownable.sol\":1901:1941   */\n      mload(0x40)\n      shl(0xe0, 0x118cdaa7)\n      dup2\n      mstore\n        /* \"@openzeppelin/contracts/utils/Context.sol\":735:745   */\n      caller\n        /* \"@openzeppelin/contracts/access/Ownable.sol\":1901:1941   */\n      0x04\n      dup3\n      add\n        /* \"#utility.yul\":3400:3474   */\n      mstore\n        /* \"#utility.yul\":3373:3391   */\n      0x24\n      add\n        /* \"@openzeppelin/contracts/access/Ownable.sol\":1901:1941   */\n      tag_37\n        /* \"#utility.yul\":3254:3480   */\n      jump\n        /* \"@openzeppelin/contracts/token/ERC20/ERC20.sol\":10663:11140   */\n    tag_180:\n      sub(shl(0xa0, 0x01), 0x01)\n        /* \"@openzeppelin/contracts/token/ERC20/ERC20.sol\":3952:3970   */\n      dup4\n      dup2\n      and\n        /* \"@openzeppelin/contracts/token/ERC20/ERC20.sol\":10762:10786   */\n      0x00\n        /* \"@openzeppelin/contracts/token/ERC20/ERC20.sol\":3952:3970   */\n      swap1\n      dup2\n      mstore\n        /* \"@openzeppelin/contracts/token/ERC20/ERC20.sol\":3952:3963   */\n      0x01\n        /* \"@openzeppelin/contracts/token/ERC20/ERC20.sol\":3952:3970   */\n      0x20\n      swap1\n      dup2\n      mstore\n      0x40\n      dup1\n      dup4\n      keccak256\n        /* \"@openzeppelin/contracts/token/ERC20/ERC20.sol\":3952:3979   */\n      swap4\n      dup7\n      and\n      dup4\n      mstore\n      swap3\n      swap1\n      mstore\n      keccak256\n      sload\n      not(0x00)\n        /* \"@openzeppelin/contracts/token/ERC20/ERC20.sol\":10828:10865   */\n      dup2\n      eq\n        /* \"@openzeppelin/contracts/token/ERC20/ERC20.sol\":10824:11134   */\n      tag_290\n      jumpi\n        /* \"@openzeppelin/contracts/token/ERC20/ERC20.sol\":10904:10909   */\n      dup2\n        /* \"@openzeppelin/contracts/token/ERC20/ERC20.sol\":10885:10901   */\n      dup2\n        /* \"@openzeppelin/contracts/token/ERC20/ERC20.sol\":10885:10909   */\n      lt\n        /* \"@openzeppelin/contracts/token/ERC20/ERC20.sol\":10881:11011   */\n      iszero\n      tag_287\n      jumpi\n        /* \"@openzeppelin/contracts/token/ERC20/ERC20.sol\":10936:10996   */\n      mload(0x40)\n      shl(0xe1, 0x7dc7a0d9)\n      dup2\n      mstore\n      sub(shl(0xa0, 0x01), 0x01)\n        /* \"#utility.yul\":8933:8988   */\n      dup5\n      and\n        /* \"@openzeppelin/contracts/token/ERC20/ERC20.sol\":10936:10996   */\n      0x04\n      dup3\n      add\n        /* \"#utility.yul\":8915:8989   */\n      mstore\n        /* \"#utility.yul\":9005:9023   */\n      0x24\n      dup2\n      add\n        /* \"#utility.yul\":8998:9032   */\n      dup3\n      swap1\n      mstore\n        /* \"#utility.yul\":9048:9066   */\n      0x44\n      dup2\n      add\n        /* \"#utility.yul\":9041:9075   */\n      dup4\n      swap1\n      mstore\n        /* \"#utility.yul\":8888:8906   */\n      0x64\n      add\n        /* \"@openzeppelin/contracts/token/ERC20/ERC20.sol\":10936:10996   */\n      tag_37\n        /* \"#utility.yul\":8713:9081   */\n      jump\n        /* \"@openzeppelin/contracts/token/ERC20/ERC20.sol\":10881:11011   */\n    tag_287:\n        /* \"@openzeppelin/contracts/token/ERC20/ERC20.sol\":11052:11109   */\n      tag_290\n        /* \"@openzeppelin/contracts/token/ERC20/ERC20.sol\":11061:11066   */\n      dup5\n        /* \"@openzeppelin/contracts/token/ERC20/ERC20.sol\":11068:11075   */\n      dup5\n        /* \"@openzeppelin/contracts/token/ERC20/ERC20.sol\":11096:11101   */\n      dup5\n        /* \"@openzeppelin/contracts/token/ERC20/ERC20.sol\":11077:11093   */\n      dup5\n        /* \"@openzeppelin/contracts/token/ERC20/ERC20.sol\":11077:11101   */\n      sub\n        /* \"@openzeppelin/contracts/token/ERC20/ERC20.sol\":11103:11108   */\n      0x00\n        /* \"@openzeppelin/contracts/token/ERC20/ERC20.sol\":11052:11060   */\n      tag_277\n        /* \"@openzeppelin/contracts/token/ERC20/ERC20.sol\":11052:11109   */\n      jump\t// in\n    tag_290:\n        /* \"@openzeppelin/contracts/token/ERC20/ERC20.sol\":10752:11140   */\n      pop\n        /* \"@openzeppelin/contracts/token/ERC20/ERC20.sol\":10663:11140   */\n      pop\n      pop\n      pop\n      jump\t// out\n        /* \"@openzeppelin/contracts/token/ERC20/ERC20.sol\":5656:5956   */\n    tag_182:\n      sub(shl(0xa0, 0x01), 0x01)\n        /* \"@openzeppelin/contracts/token/ERC20/ERC20.sol\":5739:5757   */\n      dup4\n      and\n        /* \"@openzeppelin/contracts/token/ERC20/ERC20.sol\":5735:5821   */\n      tag_292\n      jumpi\n        /* \"@openzeppelin/contracts/token/ERC20/ERC20.sol\":5780:5810   */\n      mload(0x40)\n      shl(0xe1, 0x4b637e8f)\n      dup2\n      mstore\n        /* \"@openzeppelin/contracts/token/ERC20/ERC20.sol\":5807:5808   */\n      0x00\n        /* \"@openzeppelin/contracts/token/ERC20/ERC20.sol\":5780:5810   */\n      0x04\n      dup3\n      add\n        /* \"#utility.yul\":3400:3474   */\n      mstore\n        /* \"#utility.yul\":3373:3391   */\n      0x24\n      add\n        /* \"@openzeppelin/contracts/token/ERC20/ERC20.sol\":5780:5810   */\n      tag_37\n        /* \"#utility.yul\":3254:3480   */\n      jump\n        /* \"@openzeppelin/contracts/token/ERC20/ERC20.sol\":5735:5821   */\n    tag_292:\n      sub(shl(0xa0, 0x01), 0x01)\n        /* \"@openzeppelin/contracts/token/ERC20/ERC20.sol\":5834:5850   */\n      dup3\n      and\n        /* \"@openzeppelin/contracts/token/ERC20/ERC20.sol\":5830:5916   */\n      tag_294\n      jumpi\n        /* \"@openzeppelin/contracts/token/ERC20/ERC20.sol\":5873:5905   */\n      mload(0x40)\n      shl(0xe0, 0xec442f05)\n      dup2\n      mstore\n        /* \"@openzeppelin/contracts/token/ERC20/ERC20.sol\":5902:5903   */\n      0x00\n        /* \"@openzeppelin/contracts/token/ERC20/ERC20.sol\":5873:5905   */\n      0x04\n      dup3\n      add\n        /* \"#utility.yul\":3400:3474   */\n      mstore\n        /* \"#utility.yul\":3373:3391   */\n      0x24\n      add\n        /* \"@openzeppelin/contracts/token/ERC20/ERC20.sol\":5873:5905   */\n      tag_37\n        /* \"#utility.yul\":3254:3480   */\n      jump\n        /* \"@openzeppelin/contracts/token/ERC20/ERC20.sol\":5830:5916   */\n    tag_294:\n        /* \"@openzeppelin/contracts/token/ERC20/ERC20.sol\":5925:5949   */\n      tag_276\n        /* \"@openzeppelin/contracts/token/ERC20/ERC20.sol\":5933:5937   */\n      dup4\n        /* \"@openzeppelin/contracts/token/ERC20/ERC20.sol\":5939:5941   */\n      dup4\n        /* \"@openzeppelin/contracts/token/ERC20/ERC20.sol\":5943:5948   */\n      dup4\n        /* \"@openzeppelin/contracts/token/ERC20/ERC20.sol\":5925:5932   */\n      tag_297\n        /* \"@openzeppelin/contracts/token/ERC20/ERC20.sol\":5925:5949   */\n      jump\t// in\n        /* \"@openzeppelin/contracts/utils/ReentrancyGuard.sol\":2431:2738   */\n    tag_192:\n        /* \"@openzeppelin/contracts/utils/ReentrancyGuard.sol\":1755:1756   */\n      0x02\n        /* \"@openzeppelin/contracts/utils/ReentrancyGuard.sol\":2558:2565   */\n      sload(0x06)\n        /* \"@openzeppelin/contracts/utils/ReentrancyGuard.sol\":2558:2576   */\n      sub\n        /* \"@openzeppelin/contracts/utils/ReentrancyGuard.sol\":2554:2640   */\n      tag_299\n      jumpi\n        /* \"@openzeppelin/contracts/utils/ReentrancyGuard.sol\":2599:2629   */\n      mload(0x40)\n      shl(0xe0, 0x3ee5aeb5)\n      dup2\n      mstore\n      0x04\n      add\n      mload(0x40)\n      dup1\n      swap2\n      sub\n      swap1\n      revert\n        /* \"@openzeppelin/contracts/utils/ReentrancyGuard.sol\":2554:2640   */\n    tag_299:\n        /* \"@openzeppelin/contracts/utils/ReentrancyGuard.sol\":1755:1756   */\n      0x02\n        /* \"@openzeppelin/contracts/utils/ReentrancyGuard.sol\":2714:2721   */\n      0x06\n        /* \"@openzeppelin/contracts/utils/ReentrancyGuard.sol\":2714:2731   */\n      sstore\n        /* \"@openzeppelin/contracts/utils/ReentrancyGuard.sol\":2431:2738   */\n      jump\t// out\n        /* \"@openzeppelin/contracts/access/Ownable.sol\":2912:3099   */\n    tag_206:\n        /* \"@openzeppelin/contracts/access/Ownable.sol\":3004:3010   */\n      0x05\n      dup1\n      sload\n      sub(shl(0xa0, 0x01), 0x01)\n        /* \"@openzeppelin/contracts/access/Ownable.sol\":3020:3037   */\n      dup4\n      dup2\n      and\n      0xffffffffffffffffffffffff0000000000000000000000000000000000000000\n      dup4\n      and\n      dup2\n      or\n      swap1\n      swap4\n      sstore\n        /* \"@openzeppelin/contracts/access/Ownable.sol\":3052:3092   */\n      mload(0x40)\n        /* \"@openzeppelin/contracts/access/Ownable.sol\":3004:3010   */\n      swap2\n      and\n      swap2\n        /* \"@openzeppelin/contracts/access/Ownable.sol\":3020:3037   */\n      swap1\n        /* \"@openzeppelin/contracts/access/Ownable.sol\":3004:3010   */\n      dup3\n      swap1\n        /* \"@openzeppelin/contracts/access/Ownable.sol\":3052:3092   */\n      0x8be0079c531659141344cd1fd0a4f28419497f9722a3daafe3b4186f6b6457e0\n      swap1\n        /* \"@openzeppelin/contracts/access/Ownable.sol\":2985:3001   */\n      0x00\n      swap1\n        /* \"@openzeppelin/contracts/access/Ownable.sol\":3052:3092   */\n      log3\n        /* \"@openzeppelin/contracts/access/Ownable.sol\":2975:3099   */\n      pop\n        /* \"@openzeppelin/contracts/access/Ownable.sol\":2912:3099   */\n      pop\n      jump\t// out\n        /* \"@openzeppelin/contracts/token/ERC20/ERC20.sol\":7721:7929   */\n    tag_249:\n      sub(shl(0xa0, 0x01), 0x01)\n        /* \"@openzeppelin/contracts/token/ERC20/ERC20.sol\":7791:7812   */\n      dup3\n      and\n        /* \"@openzeppelin/contracts/token/ERC20/ERC20.sol\":7787:7878   */\n      tag_303\n      jumpi\n        /* \"@openzeppelin/contracts/token/ERC20/ERC20.sol\":7835:7867   */\n      mload(0x40)\n      shl(0xe0, 0xec442f05)\n      dup2\n      mstore\n        /* \"@openzeppelin/contracts/token/ERC20/ERC20.sol\":7864:7865   */\n      0x00\n        /* \"@openzeppelin/contracts/token/ERC20/ERC20.sol\":7835:7867   */\n      0x04\n      dup3\n      add\n        /* \"#utility.yul\":3400:3474   */\n      mstore\n        /* \"#utility.yul\":3373:3391   */\n      0x24\n      add\n        /* \"@openzeppelin/contracts/token/ERC20/ERC20.sol\":7835:7867   */\n      tag_37\n        /* \"#utility.yul\":3254:3480   */\n      jump\n        /* \"@openzeppelin/contracts/token/ERC20/ERC20.sol\":7787:7878   */\n    tag_303:\n        /* \"@openzeppelin/contracts/token/ERC20/ERC20.sol\":7887:7922   */\n      tag_305\n        /* \"@openzeppelin/contracts/token/ERC20/ERC20.sol\":7903:7904   */\n      0x00\n        /* \"@openzeppelin/contracts/token/ERC20/ERC20.sol\":7907:7914   */\n      dup4\n        /* \"@openzeppelin/contracts/token/ERC20/ERC20.sol\":7916:7921   */\n      dup4\n        /* \"@openzeppelin/contracts/token/ERC20/ERC20.sol\":7887:7894   */\n      tag_297\n        /* \"@openzeppelin/contracts/token/ERC20/ERC20.sol\":7887:7922   */\n      jump\t// in\n    tag_305:\n        /* \"@openzeppelin/contracts/token/ERC20/ERC20.sol\":7721:7929   */\n      pop\n      pop\n      jump\t// out\n        /* \"@openzeppelin/contracts/token/ERC20/ERC20.sol\":9949:10381   */\n    tag_277:\n      sub(shl(0xa0, 0x01), 0x01)\n        /* \"@openzeppelin/contracts/token/ERC20/ERC20.sol\":10061:10080   */\n      dup5\n      and\n        /* \"@openzeppelin/contracts/token/ERC20/ERC20.sol\":10057:10146   */\n      tag_307\n      jumpi\n        /* \"@openzeppelin/contracts/token/ERC20/ERC20.sol\":10103:10135   */\n      mload(0x40)\n      shl(0xe0, 0xe602df05)\n      dup2\n      mstore\n        /* \"@openzeppelin/contracts/token/ERC20/ERC20.sol\":10132:10133   */\n      0x00\n        /* \"@openzeppelin/contracts/token/ERC20/ERC20.sol\":10103:10135   */\n      0x04\n      dup3\n      add\n        /* \"#utility.yul\":3400:3474   */\n      mstore\n        /* \"#utility.yul\":3373:3391   */\n      0x24\n      add\n        /* \"@openzeppelin/contracts/token/ERC20/ERC20.sol\":10103:10135   */\n      tag_37\n        /* \"#utility.yul\":3254:3480   */\n      jump\n        /* \"@openzeppelin/contracts/token/ERC20/ERC20.sol\":10057:10146   */\n    tag_307:\n      sub(shl(0xa0, 0x01), 0x01)\n        /* \"@openzeppelin/contracts/token/ERC20/ERC20.sol\":10159:10180   */\n      dup4\n      and\n        /* \"@openzeppelin/contracts/token/ERC20/ERC20.sol\":10155:10245   */\n      tag_309\n      jumpi\n        /* \"@openzeppelin/contracts/token/ERC20/ERC20.sol\":10203:10234   */\n      mload(0x40)\n      shl(0xe1, 0x4a1406b1)\n      dup2\n      mstore\n        /* \"@openzeppelin/contracts/token/ERC20/ERC20.sol\":10231:10232   */\n      0x00\n        /* \"@openzeppelin/contracts/token/ERC20/ERC20.sol\":10203:10234   */\n      0x04\n      dup3\n      add\n        /* \"#utility.yul\":3400:3474   */\n      mstore\n        /* \"#utility.yul\":3373:3391   */\n      0x24\n      add\n        /* \"@openzeppelin/contracts/token/ERC20/ERC20.sol\":10203:10234   */\n      tag_37\n        /* \"#utility.yul\":3254:3480   */\n      jump\n        /* \"@openzeppelin/contracts/token/ERC20/ERC20.sol\":10155:10245   */\n    tag_309:\n      sub(shl(0xa0, 0x01), 0x01)\n        /* \"@openzeppelin/contracts/token/ERC20/ERC20.sol\":10254:10272   */\n      dup1\n      dup6\n      and\n      0x00\n      swap1\n      dup2\n      mstore\n        /* \"@openzeppelin/contracts/token/ERC20/ERC20.sol\":10254:10265   */\n      0x01\n        /* \"@openzeppelin/contracts/token/ERC20/ERC20.sol\":10254:10272   */\n      0x20\n      swap1\n      dup2\n      mstore\n      0x40\n      dup1\n      dup4\n      keccak256\n        /* \"@openzeppelin/contracts/token/ERC20/ERC20.sol\":10254:10281   */\n      swap4\n      dup8\n      and\n      dup4\n      mstore\n      swap3\n      swap1\n      mstore\n      keccak256\n        /* \"@openzeppelin/contracts/token/ERC20/ERC20.sol\":10254:10289   */\n      dup3\n      swap1\n      sstore\n        /* \"@openzeppelin/contracts/token/ERC20/ERC20.sol\":10299:10375   */\n      dup1\n      iszero\n      tag_290\n      jumpi\n        /* \"@openzeppelin/contracts/token/ERC20/ERC20.sol\":10349:10356   */\n      dup3\n      sub(shl(0xa0, 0x01), 0x01)\n        /* \"@openzeppelin/contracts/token/ERC20/ERC20.sol\":10333:10364   */\n      and\n        /* \"@openzeppelin/contracts/token/ERC20/ERC20.sol\":10342:10347   */\n      dup5\n      sub(shl(0xa0, 0x01), 0x01)\n        /* \"@openzeppelin/contracts/token/ERC20/ERC20.sol\":10333:10364   */\n      and\n      0x8c5be1e5ebec7d5bd14f71427d1e84f3dd0314c0f7b2291e5b200ac8c7c3b925\n        /* \"@openzeppelin/contracts/token/ERC20/ERC20.sol\":10358:10363   */\n      dup5\n        /* \"@openzeppelin/contracts/token/ERC20/ERC20.sol\":10333:10364   */\n      mload(0x40)\n      tag_312\n      swap2\n        /* \"#utility.yul\":1593:1618   */\n      dup2\n      mstore\n        /* \"#utility.yul\":1581:1583   */\n      0x20\n        /* \"#utility.yul\":1566:1584   */\n      add\n      swap1\n        /* \"#utility.yul\":1447:1624   */\n      jump\n        /* \"@openzeppelin/contracts/token/ERC20/ERC20.sol\":10333:10364   */\n    tag_312:\n      mload(0x40)\n      dup1\n      swap2\n      sub\n      swap1\n      log3\n        /* \"@openzeppelin/contracts/token/ERC20/ERC20.sol\":9949:10381   */\n      pop\n      pop\n      pop\n      pop\n      jump\t// out\n        /* \"slap.sol\":4126:4471  function _update(... */\n    tag_297:\n      sub(shl(0xa0, 0x01), 0x01)\n        /* \"slap.sol\":4320:4338  from != address(0) */\n      dup4\n      and\n      iszero\n      dup1\n      iszero\n      swap1\n        /* \"slap.sol\":4320:4358  from != address(0) && to != address(0) */\n      tag_314\n      jumpi\n      pop\n      sub(shl(0xa0, 0x01), 0x01)\n        /* \"slap.sol\":4342:4358  to != address(0) */\n      dup3\n      and\n      iszero\n      iszero\n        /* \"slap.sol\":4320:4358  from != address(0) && to != address(0) */\n    tag_314:\n        /* \"slap.sol\":4316:4429  if (from != address(0) && to != address(0)) {... */\n      iszero\n      tag_316\n      jumpi\n        /* \"slap.sol\":4378:4394  transfersEnabled */\n      sload(0x08)\n      0x0100\n      swap1\n      div\n      0xff\n      and\n        /* \"slap.sol\":4370:4417  require(transfersEnabled, \"transfers disabled\") */\n      tag_316\n      jumpi\n      mload(0x40)\n      shl(0xe5, 0x461bcd)\n      dup2\n      mstore\n        /* \"#utility.yul\":9288:9290   */\n      0x20\n        /* \"slap.sol\":4370:4417  require(transfersEnabled, \"transfers disabled\") */\n      0x04\n      dup3\n      add\n        /* \"#utility.yul\":9270:9291   */\n      mstore\n        /* \"#utility.yul\":9327:9329   */\n      0x12\n        /* \"#utility.yul\":9307:9325   */\n      0x24\n      dup3\n      add\n        /* \"#utility.yul\":9300:9330   */\n      mstore\n        /* \"#utility.yul\":9366:9386   */\n      0x7472616e73666572732064697361626c65640000000000000000000000000000\n        /* \"#utility.yul\":9346:9364   */\n      0x44\n      dup3\n      add\n        /* \"#utility.yul\":9339:9387   */\n      mstore\n        /* \"#utility.yul\":9404:9422   */\n      0x64\n      add\n        /* \"slap.sol\":4370:4417  require(transfersEnabled, \"transfers disabled\") */\n      tag_37\n        /* \"#utility.yul\":9086:9428   */\n      jump\n        /* \"slap.sol\":4370:4417  require(transfersEnabled, \"transfers disabled\") */\n    tag_316:\n        /* \"slap.sol\":4434:4464  super._update(from, to, value) */\n      tag_276\n        /* \"slap.sol\":4448:4452  from */\n      dup4\n        /* \"slap.sol\":4454:4456  to */\n      dup4\n        /* \"slap.sol\":4458:4463  value */\n      dup4\n      sub(shl(0xa0, 0x01), 0x01)\n        /* \"@openzeppelin/contracts/token/ERC20/ERC20.sol\":6360:6378   */\n      dup4\n      and\n        /* \"@openzeppelin/contracts/token/ERC20/ERC20.sol\":6356:6896   */\n      tag_322\n      jumpi\n        /* \"@openzeppelin/contracts/token/ERC20/ERC20.sol\":6512:6517   */\n      dup1\n        /* \"@openzeppelin/contracts/token/ERC20/ERC20.sol\":6496:6508   */\n      0x02\n      0x00\n        /* \"@openzeppelin/contracts/token/ERC20/ERC20.sol\":6496:6517   */\n      dup3\n      dup3\n      sload\n      tag_323\n      swap2\n      swap1\n      tag_229\n      jump\t// in\n    tag_323:\n      swap1\n      swap2\n      sstore\n      pop\n        /* \"@openzeppelin/contracts/token/ERC20/ERC20.sol\":6356:6896   */\n      tag_324\n      swap1\n      pop\n      jump\n    tag_322:\n      sub(shl(0xa0, 0x01), 0x01)\n        /* \"@openzeppelin/contracts/token/ERC20/ERC20.sol\":6570:6585   */\n      dup4\n      and\n        /* \"@openzeppelin/contracts/token/ERC20/ERC20.sol\":6548:6567   */\n      0x00\n        /* \"@openzeppelin/contracts/token/ERC20/ERC20.sol\":6570:6585   */\n      swap1\n      dup2\n      mstore\n      0x20\n      dup2\n      swap1\n      mstore\n      0x40\n      swap1\n      keccak256\n      sload\n        /* \"@openzeppelin/contracts/token/ERC20/ERC20.sol\":6603:6622   */\n      dup2\n      dup2\n      lt\n        /* \"@openzeppelin/contracts/token/ERC20/ERC20.sol\":6599:6714   */\n      iszero\n      tag_325\n      jumpi\n        /* \"@openzeppelin/contracts/token/ERC20/ERC20.sol\":6649:6699   */\n      mload(0x40)\n      shl(0xe2, 0x391434e3)\n      dup2\n      mstore\n      sub(shl(0xa0, 0x01), 0x01)\n        /* \"#utility.yul\":8933:8988   */\n      dup6\n      and\n        /* \"@openzeppelin/contracts/token/ERC20/ERC20.sol\":6649:6699   */\n      0x04\n      dup3\n      add\n        /* \"#utility.yul\":8915:8989   */\n      mstore\n        /* \"#utility.yul\":9005:9023   */\n      0x24\n      dup2\n      add\n        /* \"#utility.yul\":8998:9032   */\n      dup3\n      swap1\n      mstore\n        /* \"#utility.yul\":9048:9066   */\n      0x44\n      dup2\n      add\n        /* \"#utility.yul\":9041:9075   */\n      dup4\n      swap1\n      mstore\n        /* \"#utility.yul\":8888:8906   */\n      0x64\n      add\n        /* \"@openzeppelin/contracts/token/ERC20/ERC20.sol\":6649:6699   */\n      tag_37\n        /* \"#utility.yul\":8713:9081   */\n      jump\n        /* \"@openzeppelin/contracts/token/ERC20/ERC20.sol\":6599:6714   */\n    tag_325:\n      sub(shl(0xa0, 0x01), 0x01)\n        /* \"@openzeppelin/contracts/token/ERC20/ERC20.sol\":6834:6849   */\n      dup5\n      and\n        /* \"@openzeppelin/contracts/token/ERC20/ERC20.sol\":6834:6843   */\n      0x00\n        /* \"@openzeppelin/contracts/token/ERC20/ERC20.sol\":6834:6849   */\n      swap1\n      dup2\n      mstore\n      0x20\n      dup2\n      swap1\n      mstore\n      0x40\n      swap1\n      keccak256\n        /* \"@openzeppelin/contracts/token/ERC20/ERC20.sol\":6852:6871   */\n      swap1\n      dup3\n      swap1\n      sub\n        /* \"@openzeppelin/contracts/token/ERC20/ERC20.sol\":6834:6871   */\n      swap1\n      sstore\n        /* \"@openzeppelin/contracts/token/ERC20/ERC20.sol\":6356:6896   */\n    tag_324:\n      sub(shl(0xa0, 0x01), 0x01)\n        /* \"@openzeppelin/contracts/token/ERC20/ERC20.sol\":6910:6926   */\n      dup3\n      and\n        /* \"@openzeppelin/contracts/token/ERC20/ERC20.sol\":6906:7331   */\n      tag_327\n      jumpi\n        /* \"@openzeppelin/contracts/token/ERC20/ERC20.sol\":7073:7085   */\n      0x02\n        /* \"@openzeppelin/contracts/token/ERC20/ERC20.sol\":7073:7094   */\n      dup1\n      sload\n      dup3\n      swap1\n      sub\n      swap1\n      sstore\n        /* \"@openzeppelin/contracts/token/ERC20/ERC20.sol\":6906:7331   */\n      jump(tag_328)\n    tag_327:\n      sub(shl(0xa0, 0x01), 0x01)\n        /* \"@openzeppelin/contracts/token/ERC20/ERC20.sol\":7284:7297   */\n      dup3\n      and\n        /* \"@openzeppelin/contracts/token/ERC20/ERC20.sol\":7284:7293   */\n      0x00\n        /* \"@openzeppelin/contracts/token/ERC20/ERC20.sol\":7284:7297   */\n      swap1\n      dup2\n      mstore\n      0x20\n      dup2\n      swap1\n      mstore\n      0x40\n      swap1\n      keccak256\n        /* \"@openzeppelin/contracts/token/ERC20/ERC20.sol\":7284:7306   */\n      dup1\n      sload\n      dup3\n      add\n      swap1\n      sstore\n        /* \"@openzeppelin/contracts/token/ERC20/ERC20.sol\":6906:7331   */\n    tag_328:\n        /* \"@openzeppelin/contracts/token/ERC20/ERC20.sol\":7361:7363   */\n      dup2\n      sub(shl(0xa0, 0x01), 0x01)\n        /* \"@openzeppelin/contracts/token/ERC20/ERC20.sol\":7346:7371   */\n      and\n        /* \"@openzeppelin/contracts/token/ERC20/ERC20.sol\":7355:7359   */\n      dup4\n      sub(shl(0xa0, 0x01), 0x01)\n        /* \"@openzeppelin/contracts/token/ERC20/ERC20.sol\":7346:7371   */\n      and\n      0xddf252ad1be2c89b69c2b068fc378daa952ba7f163c4a11628f55a4df523b3ef\n        /* \"@openzeppelin/contracts/token/ERC20/ERC20.sol\":7365:7370   */\n      dup4\n        /* \"@openzeppelin/contracts/token/ERC20/ERC20.sol\":7346:7371   */\n      mload(0x40)\n      tag_329\n      swap2\n        /* \"#utility.yul\":1593:1618   */\n      dup2\n      mstore\n        /* \"#utility.yul\":1581:1583   */\n      0x20\n        /* \"#utility.yul\":1566:1584   */\n      add\n      swap1\n        /* \"#utility.yul\":1447:1624   */\n      jump\n        /* \"@openzeppelin/contracts/token/ERC20/ERC20.sol\":7346:7371   */\n    tag_329:\n      mload(0x40)\n      dup1\n      swap2\n      sub\n      swap1\n      log3\n        /* \"@openzeppelin/contracts/token/ERC20/ERC20.sol\":6271:7378   */\n      pop\n      pop\n      pop\n      jump\t// out\n        /* \"#utility.yul\":353:771   */\n    tag_46:\n        /* \"#utility.yul\":502:504   */\n      0x20\n        /* \"#utility.yul\":491:500   */\n      dup2\n        /* \"#utility.yul\":484:505   */\n      mstore\n        /* \"#utility.yul\":465:469   */\n      0x00\n        /* \"#utility.yul\":534:540   */\n      dup3\n        /* \"#utility.yul\":528:541   */\n      mload\n        /* \"#utility.yul\":577:583   */\n      dup1\n        /* \"#utility.yul\":572:574   */\n      0x20\n        /* \"#utility.yul\":561:570   */\n      dup5\n        /* \"#utility.yul\":557:575   */\n      add\n        /* \"#utility.yul\":550:584   */\n      mstore\n        /* \"#utility.yul\":636:642   */\n      dup1\n        /* \"#utility.yul\":631:633   */\n      0x20\n        /* \"#utility.yul\":623:629   */\n      dup6\n        /* \"#utility.yul\":619:634   */\n      add\n        /* \"#utility.yul\":614:616   */\n      0x40\n        /* \"#utility.yul\":603:612   */\n      dup6\n        /* \"#utility.yul\":599:617   */\n      add\n        /* \"#utility.yul\":593:643   */\n      mcopy\n        /* \"#utility.yul\":692:693   */\n      0x00\n        /* \"#utility.yul\":687:689   */\n      0x40\n        /* \"#utility.yul\":678:684   */\n      dup3\n        /* \"#utility.yul\":667:676   */\n      dup6\n        /* \"#utility.yul\":663:685   */\n      add\n        /* \"#utility.yul\":659:690   */\n      add\n        /* \"#utility.yul\":652:694   */\n      mstore\n        /* \"#utility.yul\":762:764   */\n      0x40\n        /* \"#utility.yul\":755:757   */\n      0x1f\n        /* \"#utility.yul\":751:758   */\n      not\n        /* \"#utility.yul\":746:748   */\n      0x1f\n        /* \"#utility.yul\":738:744   */\n      dup4\n        /* \"#utility.yul\":734:749   */\n      add\n        /* \"#utility.yul\":730:759   */\n      and\n        /* \"#utility.yul\":719:728   */\n      dup5\n        /* \"#utility.yul\":715:760   */\n      add\n        /* \"#utility.yul\":711:765   */\n      add\n        /* \"#utility.yul\":703:765   */\n      swap2\n      pop\n      pop\n        /* \"#utility.yul\":353:771   */\n      swap3\n      swap2\n      pop\n      pop\n      jump\t// out\n        /* \"#utility.yul\":776:930   */\n    tag_330:\n      sub(shl(0xa0, 0x01), 0x01)\n        /* \"#utility.yul\":855:860   */\n      dup2\n        /* \"#utility.yul\":851:905   */\n      and\n        /* \"#utility.yul\":844:849   */\n      dup2\n        /* \"#utility.yul\":841:906   */\n      eq\n        /* \"#utility.yul\":831:924   */\n      tag_199\n      jumpi\n        /* \"#utility.yul\":920:921   */\n      0x00\n        /* \"#utility.yul\":917:918   */\n      dup1\n        /* \"#utility.yul\":910:922   */\n      revert\n        /* \"#utility.yul\":935:1250   */\n    tag_50:\n        /* \"#utility.yul\":1003:1009   */\n      0x00\n        /* \"#utility.yul\":1011:1017   */\n      dup1\n        /* \"#utility.yul\":1064:1066   */\n      0x40\n        /* \"#utility.yul\":1052:1061   */\n      dup4\n        /* \"#utility.yul\":1043:1050   */\n      dup6\n        /* \"#utility.yul\":1039:1062   */\n      sub\n        /* \"#utility.yul\":1035:1067   */\n      slt\n        /* \"#utility.yul\":1032:1084   */\n      iszero\n      tag_340\n      jumpi\n        /* \"#utility.yul\":1080:1081   */\n      0x00\n        /* \"#utility.yul\":1077:1078   */\n      dup1\n        /* \"#utility.yul\":1070:1082   */\n      revert\n        /* \"#utility.yul\":1032:1084   */\n    tag_340:\n        /* \"#utility.yul\":1119:1128   */\n      dup3\n        /* \"#utility.yul\":1106:1129   */\n      calldataload\n        /* \"#utility.yul\":1138:1169   */\n      tag_341\n        /* \"#utility.yul\":1163:1168   */\n      dup2\n        /* \"#utility.yul\":1138:1169   */\n      tag_330\n      jump\t// in\n    tag_341:\n        /* \"#utility.yul\":1188:1193   */\n      swap5\n        /* \"#utility.yul\":1240:1242   */\n      0x20\n        /* \"#utility.yul\":1225:1243   */\n      swap4\n      swap1\n      swap4\n      add\n        /* \"#utility.yul\":1212:1244   */\n      calldataload\n      swap4\n      pop\n      pop\n      pop\n        /* \"#utility.yul\":935:1250   */\n      jump\t// out\n        /* \"#utility.yul\":1629:1809   */\n    tag_62:\n        /* \"#utility.yul\":1688:1694   */\n      0x00\n        /* \"#utility.yul\":1741:1743   */\n      0x20\n        /* \"#utility.yul\":1729:1738   */\n      dup3\n        /* \"#utility.yul\":1720:1727   */\n      dup5\n        /* \"#utility.yul\":1716:1739   */\n      sub\n        /* \"#utility.yul\":1712:1744   */\n      slt\n        /* \"#utility.yul\":1709:1761   */\n      iszero\n      tag_345\n      jumpi\n        /* \"#utility.yul\":1757:1758   */\n      0x00\n        /* \"#utility.yul\":1754:1755   */\n      dup1\n        /* \"#utility.yul\":1747:1759   */\n      revert\n        /* \"#utility.yul\":1709:1761   */\n    tag_345:\n      pop\n        /* \"#utility.yul\":1780:1803   */\n      calldataload\n      swap2\n        /* \"#utility.yul\":1629:1809   */\n      swap1\n      pop\n      jump\t// out\n        /* \"#utility.yul\":1814:2270   */\n    tag_67:\n        /* \"#utility.yul\":1891:1897   */\n      0x00\n        /* \"#utility.yul\":1899:1905   */\n      dup1\n        /* \"#utility.yul\":1907:1913   */\n      0x00\n        /* \"#utility.yul\":1960:1962   */\n      0x60\n        /* \"#utility.yul\":1948:1957   */\n      dup5\n        /* \"#utility.yul\":1939:1946   */\n      dup7\n        /* \"#utility.yul\":1935:1958   */\n      sub\n        /* \"#utility.yul\":1931:1963   */\n      slt\n        /* \"#utility.yul\":1928:1980   */\n      iszero\n      tag_347\n      jumpi\n        /* \"#utility.yul\":1976:1977   */\n      0x00\n        /* \"#utility.yul\":1973:1974   */\n      dup1\n        /* \"#utility.yul\":1966:1978   */\n      revert\n        /* \"#utility.yul\":1928:1980   */\n    tag_347:\n        /* \"#utility.yul\":2015:2024   */\n      dup4\n        /* \"#utility.yul\":2002:2025   */\n      calldataload\n        /* \"#utility.yul\":2034:2065   */\n      tag_348\n        /* \"#utility.yul\":2059:2064   */\n      dup2\n        /* \"#utility.yul\":2034:2065   */\n      tag_330\n      jump\t// in\n    tag_348:\n        /* \"#utility.yul\":2084:2089   */\n      swap3\n      pop\n        /* \"#utility.yul\":2141:2143   */\n      0x20\n        /* \"#utility.yul\":2126:2144   */\n      dup5\n      add\n        /* \"#utility.yul\":2113:2145   */\n      calldataload\n        /* \"#utility.yul\":2154:2187   */\n      tag_349\n        /* \"#utility.yul\":2113:2145   */\n      dup2\n        /* \"#utility.yul\":2154:2187   */\n      tag_330\n      jump\t// in\n    tag_349:\n        /* \"#utility.yul\":1814:2270   */\n      swap3\n      swap6\n        /* \"#utility.yul\":2206:2213   */\n      swap3\n      swap5\n      pop\n      pop\n      pop\n        /* \"#utility.yul\":2260:2262   */\n      0x40\n        /* \"#utility.yul\":2245:2263   */\n      swap2\n      swap1\n      swap2\n      add\n        /* \"#utility.yul\":2232:2264   */\n      calldataload\n      swap1\n        /* \"#utility.yul\":1814:2270   */\n      jump\t// out\n        /* \"#utility.yul\":2275:2548   */\n    tag_77:\n        /* \"#utility.yul\":2331:2337   */\n      0x00\n        /* \"#utility.yul\":2384:2386   */\n      0x20\n        /* \"#utility.yul\":2372:2381   */\n      dup3\n        /* \"#utility.yul\":2363:2370   */\n      dup5\n        /* \"#utility.yul\":2359:2382   */\n      sub\n        /* \"#utility.yul\":2355:2387   */\n      slt\n        /* \"#utility.yul\":2352:2404   */\n      iszero\n      tag_351\n      jumpi\n        /* \"#utility.yul\":2400:2401   */\n      0x00\n        /* \"#utility.yul\":2397:2398   */\n      dup1\n        /* \"#utility.yul\":2390:2402   */\n      revert\n        /* \"#utility.yul\":2352:2404   */\n    tag_351:\n        /* \"#utility.yul\":2439:2448   */\n      dup2\n        /* \"#utility.yul\":2426:2449   */\n      calldataload\n        /* \"#utility.yul\":2492:2497   */\n      dup1\n        /* \"#utility.yul\":2485:2498   */\n      iszero\n        /* \"#utility.yul\":2478:2499   */\n      iszero\n        /* \"#utility.yul\":2471:2476   */\n      dup2\n        /* \"#utility.yul\":2468:2500   */\n      eq\n        /* \"#utility.yul\":2458:2518   */\n      tag_352\n      jumpi\n        /* \"#utility.yul\":2514:2515   */\n      0x00\n        /* \"#utility.yul\":2511:2512   */\n      dup1\n        /* \"#utility.yul\":2504:2516   */\n      revert\n        /* \"#utility.yul\":2458:2518   */\n    tag_352:\n        /* \"#utility.yul\":2537:2542   */\n      swap4\n        /* \"#utility.yul\":2275:2548   */\n      swap3\n      pop\n      pop\n      pop\n      jump\t// out\n        /* \"#utility.yul\":2742:2997   */\n    tag_87:\n        /* \"#utility.yul\":2809:2815   */\n      0x00\n        /* \"#utility.yul\":2862:2864   */\n      0x20\n        /* \"#utility.yul\":2850:2859   */\n      dup3\n        /* \"#utility.yul\":2841:2848   */\n      dup5\n        /* \"#utility.yul\":2837:2860   */\n      sub\n        /* \"#utility.yul\":2833:2865   */\n      slt\n        /* \"#utility.yul\":2830:2882   */\n      iszero\n      tag_355\n      jumpi\n        /* \"#utility.yul\":2878:2879   */\n      0x00\n        /* \"#utility.yul\":2875:2876   */\n      dup1\n        /* \"#utility.yul\":2868:2880   */\n      revert\n        /* \"#utility.yul\":2830:2882   */\n    tag_355:\n        /* \"#utility.yul\":2917:2926   */\n      dup2\n        /* \"#utility.yul\":2904:2927   */\n      calldataload\n        /* \"#utility.yul\":2936:2967   */\n      tag_352\n        /* \"#utility.yul\":2961:2966   */\n      dup2\n        /* \"#utility.yul\":2936:2967   */\n      tag_330\n      jump\t// in\n        /* \"#utility.yul\":3485:3873   */\n    tag_147:\n        /* \"#utility.yul\":3553:3559   */\n      0x00\n        /* \"#utility.yul\":3561:3567   */\n      dup1\n        /* \"#utility.yul\":3614:3616   */\n      0x40\n        /* \"#utility.yul\":3602:3611   */\n      dup4\n        /* \"#utility.yul\":3593:3600   */\n      dup6\n        /* \"#utility.yul\":3589:3612   */\n      sub\n        /* \"#utility.yul\":3585:3617   */\n      slt\n        /* \"#utility.yul\":3582:3634   */\n      iszero\n      tag_362\n      jumpi\n        /* \"#utility.yul\":3630:3631   */\n      0x00\n        /* \"#utility.yul\":3627:3628   */\n      dup1\n        /* \"#utility.yul\":3620:3632   */\n      revert\n        /* \"#utility.yul\":3582:3634   */\n    tag_362:\n        /* \"#utility.yul\":3669:3678   */\n      dup3\n        /* \"#utility.yul\":3656:3679   */\n      calldataload\n        /* \"#utility.yul\":3688:3719   */\n      tag_363\n        /* \"#utility.yul\":3713:3718   */\n      dup2\n        /* \"#utility.yul\":3688:3719   */\n      tag_330\n      jump\t// in\n    tag_363:\n        /* \"#utility.yul\":3738:3743   */\n      swap2\n      pop\n        /* \"#utility.yul\":3795:3797   */\n      0x20\n        /* \"#utility.yul\":3780:3798   */\n      dup4\n      add\n        /* \"#utility.yul\":3767:3799   */\n      calldataload\n        /* \"#utility.yul\":3808:3841   */\n      tag_364\n        /* \"#utility.yul\":3767:3799   */\n      dup2\n        /* \"#utility.yul\":3808:3841   */\n      tag_330\n      jump\t// in\n    tag_364:\n        /* \"#utility.yul\":3860:3867   */\n      dup1\n        /* \"#utility.yul\":3850:3867   */\n      swap2\n      pop\n      pop\n        /* \"#utility.yul\":3485:3873   */\n      swap3\n      pop\n      swap3\n      swap1\n      pop\n      jump\t// out\n        /* \"#utility.yul\":3878:4258   */\n    tag_160:\n        /* \"#utility.yul\":3957:3958   */\n      0x01\n        /* \"#utility.yul\":3953:3965   */\n      dup2\n      dup2\n      shr\n      swap1\n        /* \"#utility.yul\":4000:4012   */\n      dup3\n      and\n      dup1\n        /* \"#utility.yul\":4021:4082   */\n      tag_366\n      jumpi\n        /* \"#utility.yul\":4075:4079   */\n      0x7f\n        /* \"#utility.yul\":4067:4073   */\n      dup3\n        /* \"#utility.yul\":4063:4080   */\n      and\n        /* \"#utility.yul\":4053:4080   */\n      swap2\n      pop\n        /* \"#utility.yul\":4021:4082   */\n    tag_366:\n        /* \"#utility.yul\":4128:4130   */\n      0x20\n        /* \"#utility.yul\":4120:4126   */\n      dup3\n        /* \"#utility.yul\":4117:4131   */\n      lt\n        /* \"#utility.yul\":4097:4115   */\n      dup2\n        /* \"#utility.yul\":4094:4132   */\n      sub\n        /* \"#utility.yul\":4091:4252   */\n      tag_367\n      jumpi\n        /* \"#utility.yul\":4174:4184   */\n      0x4e487b71\n        /* \"#utility.yul\":4169:4172   */\n      0xe0\n        /* \"#utility.yul\":4165:4185   */\n      shl\n        /* \"#utility.yul\":4162:4163   */\n      0x00\n        /* \"#utility.yul\":4155:4186   */\n      mstore\n        /* \"#utility.yul\":4209:4213   */\n      0x22\n        /* \"#utility.yul\":4206:4207   */\n      0x04\n        /* \"#utility.yul\":4199:4214   */\n      mstore\n        /* \"#utility.yul\":4237:4241   */\n      0x24\n        /* \"#utility.yul\":4234:4235   */\n      0x00\n        /* \"#utility.yul\":4227:4242   */\n      revert\n        /* \"#utility.yul\":4091:4252   */\n    tag_367:\n      pop\n        /* \"#utility.yul\":3878:4258   */\n      swap2\n      swap1\n      pop\n      jump\t// out\n        /* \"#utility.yul\":5524:5651   */\n    tag_331:\n        /* \"#utility.yul\":5585:5595   */\n      0x4e487b71\n        /* \"#utility.yul\":5580:5583   */\n      0xe0\n        /* \"#utility.yul\":5576:5596   */\n      shl\n        /* \"#utility.yul\":5573:5574   */\n      0x00\n        /* \"#utility.yul\":5566:5597   */\n      mstore\n        /* \"#utility.yul\":5616:5620   */\n      0x11\n        /* \"#utility.yul\":5613:5614   */\n      0x04\n        /* \"#utility.yul\":5606:5621   */\n      mstore\n        /* \"#utility.yul\":5640:5644   */\n      0x24\n        /* \"#utility.yul\":5637:5638   */\n      0x00\n        /* \"#utility.yul\":5630:5645   */\n      revert\n        /* \"#utility.yul\":5656:5781   */\n    tag_229:\n        /* \"#utility.yul\":5721:5730   */\n      dup1\n      dup3\n      add\n        /* \"#utility.yul\":5742:5752   */\n      dup1\n      dup3\n      gt\n        /* \"#utility.yul\":5739:5775   */\n      iszero\n      tag_165\n      jumpi\n        /* \"#utility.yul\":5755:5773   */\n      tag_165\n      tag_331\n      jump\t// in\n        /* \"#utility.yul\":6134:6302   */\n    tag_234:\n        /* \"#utility.yul\":6207:6216   */\n      dup1\n      dup3\n      mul\n        /* \"#utility.yul\":6238:6247   */\n      dup2\n      iszero\n        /* \"#utility.yul\":6255:6270   */\n      dup3\n      dup3\n      div\n        /* \"#utility.yul\":6249:6271   */\n      dup5\n      eq\n        /* \"#utility.yul\":6235:6272   */\n      or\n        /* \"#utility.yul\":6225:6296   */\n      tag_165\n      jumpi\n        /* \"#utility.yul\":6276:6294   */\n      tag_165\n      tag_331\n      jump\t// in\n        /* \"#utility.yul\":6649:7065   */\n    tag_332:\n        /* \"#utility.yul\":6738:6739   */\n      0x01\n        /* \"#utility.yul\":6775:6780   */\n      dup2\n        /* \"#utility.yul\":6738:6739   */\n      dup2\n        /* \"#utility.yul\":6789:7059   */\n    tag_382:\n        /* \"#utility.yul\":6810:6817   */\n      dup1\n        /* \"#utility.yul\":6800:6808   */\n      dup6\n        /* \"#utility.yul\":6797:6818   */\n      gt\n        /* \"#utility.yul\":6789:7059   */\n      iszero\n      tag_384\n      jumpi\n        /* \"#utility.yul\":6869:6873   */\n      dup2\n        /* \"#utility.yul\":6865:6866   */\n      0x00\n        /* \"#utility.yul\":6861:6867   */\n      not\n        /* \"#utility.yul\":6857:6874   */\n      div\n        /* \"#utility.yul\":6851:6855   */\n      dup3\n        /* \"#utility.yul\":6848:6875   */\n      gt\n        /* \"#utility.yul\":6845:6898   */\n      iszero\n      tag_386\n      jumpi\n        /* \"#utility.yul\":6878:6896   */\n      tag_386\n      tag_331\n      jump\t// in\n    tag_386:\n        /* \"#utility.yul\":6928:6935   */\n      dup1\n        /* \"#utility.yul\":6918:6926   */\n      dup6\n        /* \"#utility.yul\":6914:6936   */\n      and\n        /* \"#utility.yul\":6911:6966   */\n      iszero\n      tag_387\n      jumpi\n        /* \"#utility.yul\":6948:6964   */\n      swap2\n      dup2\n      mul\n      swap2\n        /* \"#utility.yul\":6911:6966   */\n    tag_387:\n        /* \"#utility.yul\":7027:7049   */\n      swap4\n      dup5\n      shr\n      swap4\n        /* \"#utility.yul\":6987:7002   */\n      swap1\n      dup1\n      mul\n      swap1\n        /* \"#utility.yul\":6789:7059   */\n      jump(tag_382)\n    tag_384:\n        /* \"#utility.yul\":6793:6796   */\n      pop\n        /* \"#utility.yul\":6649:7065   */\n      swap3\n      pop\n      swap3\n      swap1\n      pop\n      jump\t// out\n        /* \"#utility.yul\":7070:7876   */\n    tag_333:\n        /* \"#utility.yul\":7119:7124   */\n      0x00\n        /* \"#utility.yul\":7149:7157   */\n      dup3\n        /* \"#utility.yul\":7139:7219   */\n      tag_389\n      jumpi\n      pop\n        /* \"#utility.yul\":7190:7191   */\n      0x01\n        /* \"#utility.yul\":7204:7209   */\n      jump(tag_165)\n        /* \"#utility.yul\":7139:7219   */\n    tag_389:\n        /* \"#utility.yul\":7238:7242   */\n      dup2\n        /* \"#utility.yul\":7228:7304   */\n      tag_390\n      jumpi\n      pop\n        /* \"#utility.yul\":7275:7276   */\n      0x00\n        /* \"#utility.yul\":7289:7294   */\n      jump(tag_165)\n        /* \"#utility.yul\":7228:7304   */\n    tag_390:\n        /* \"#utility.yul\":7320:7324   */\n      dup2\n        /* \"#utility.yul\":7338:7339   */\n      0x01\n        /* \"#utility.yul\":7333:7392   */\n      dup2\n      eq\n      tag_392\n      jumpi\n        /* \"#utility.yul\":7406:7407   */\n      0x02\n        /* \"#utility.yul\":7401:7531   */\n      dup2\n      eq\n      tag_393\n      jumpi\n        /* \"#utility.yul\":7313:7531   */\n      jump(tag_391)\n        /* \"#utility.yul\":7333:7392   */\n    tag_392:\n        /* \"#utility.yul\":7363:7364   */\n      0x01\n        /* \"#utility.yul\":7354:7364   */\n      swap2\n      pop\n        /* \"#utility.yul\":7377:7382   */\n      pop\n      jump(tag_165)\n        /* \"#utility.yul\":7401:7531   */\n    tag_393:\n        /* \"#utility.yul\":7438:7441   */\n      0xff\n        /* \"#utility.yul\":7428:7436   */\n      dup5\n        /* \"#utility.yul\":7425:7442   */\n      gt\n        /* \"#utility.yul\":7422:7465   */\n      iszero\n      tag_395\n      jumpi\n        /* \"#utility.yul\":7445:7463   */\n      tag_395\n      tag_331\n      jump\t// in\n    tag_395:\n      pop\n      pop\n        /* \"#utility.yul\":7501:7502   */\n      0x01\n        /* \"#utility.yul\":7487:7503   */\n      dup3\n      shl\n        /* \"#utility.yul\":7516:7521   */\n      jump(tag_165)\n        /* \"#utility.yul\":7313:7531   */\n    tag_391:\n      pop\n        /* \"#utility.yul\":7615:7617   */\n      0x20\n        /* \"#utility.yul\":7605:7613   */\n      dup4\n        /* \"#utility.yul\":7602:7618   */\n      lt\n        /* \"#utility.yul\":7596:7599   */\n      0x0133\n        /* \"#utility.yul\":7590:7594   */\n      dup4\n        /* \"#utility.yul\":7587:7600   */\n      lt\n        /* \"#utility.yul\":7583:7619   */\n      and\n        /* \"#utility.yul\":7577:7579   */\n      0x4e\n        /* \"#utility.yul\":7567:7575   */\n      dup5\n        /* \"#utility.yul\":7564:7580   */\n      lt\n        /* \"#utility.yul\":7559:7561   */\n      0x0b\n        /* \"#utility.yul\":7553:7557   */\n      dup5\n        /* \"#utility.yul\":7550:7562   */\n      lt\n        /* \"#utility.yul\":7546:7581   */\n      and\n        /* \"#utility.yul\":7543:7620   */\n      or\n        /* \"#utility.yul\":7540:7699   */\n      iszero\n      tag_396\n      jumpi\n      pop\n        /* \"#utility.yul\":7652:7671   */\n      dup2\n      dup2\n      exp\n        /* \"#utility.yul\":7684:7689   */\n      jump(tag_165)\n        /* \"#utility.yul\":7540:7699   */\n    tag_396:\n        /* \"#utility.yul\":7731:7765   */\n      tag_397\n        /* \"#utility.yul\":7756:7764   */\n      dup4\n        /* \"#utility.yul\":7750:7754   */\n      dup4\n        /* \"#utility.yul\":7731:7765   */\n      tag_332\n      jump\t// in\n    tag_397:\n        /* \"#utility.yul\":7801:7807   */\n      dup1\n        /* \"#utility.yul\":7797:7798   */\n      0x00\n        /* \"#utility.yul\":7793:7799   */\n      not\n        /* \"#utility.yul\":7789:7808   */\n      div\n        /* \"#utility.yul\":7780:7787   */\n      dup3\n        /* \"#utility.yul\":7777:7809   */\n      gt\n        /* \"#utility.yul\":7774:7832   */\n      iszero\n      tag_399\n      jumpi\n        /* \"#utility.yul\":7812:7830   */\n      tag_399\n      tag_331\n      jump\t// in\n    tag_399:\n        /* \"#utility.yul\":7850:7870   */\n      mul\n      swap4\n        /* \"#utility.yul\":7070:7876   */\n      swap3\n      pop\n      pop\n      pop\n      jump\t// out\n        /* \"#utility.yul\":7881:8012   */\n    tag_240:\n        /* \"#utility.yul\":7941:7946   */\n      0x00\n        /* \"#utility.yul\":7970:8006   */\n      tag_352\n        /* \"#utility.yul\":7997:8005   */\n      dup4\n        /* \"#utility.yul\":7991:7995   */\n      dup4\n        /* \"#utility.yul\":7970:8006   */\n      tag_333\n      jump\t// in\n        /* \"#utility.yul\":8358:8486   */\n    tag_260:\n        /* \"#utility.yul\":8425:8434   */\n      dup2\n      dup2\n      sub\n        /* \"#utility.yul\":8446:8457   */\n      dup2\n      dup2\n      gt\n        /* \"#utility.yul\":8443:8480   */\n      iszero\n      tag_165\n      jumpi\n        /* \"#utility.yul\":8460:8478   */\n      tag_165\n      tag_331\n      jump\t// in\n        /* \"#utility.yul\":8491:8708   */\n    tag_262:\n        /* \"#utility.yul\":8531:8532   */\n      0x00\n        /* \"#utility.yul\":8557:8558   */\n      dup3\n        /* \"#utility.yul\":8547:8679   */\n      tag_407\n      jumpi\n        /* \"#utility.yul\":8601:8611   */\n      0x4e487b71\n        /* \"#utility.yul\":8596:8599   */\n      0xe0\n        /* \"#utility.yul\":8592:8612   */\n      shl\n        /* \"#utility.yul\":8589:8590   */\n      0x00\n        /* \"#utility.yul\":8582:8613   */\n      mstore\n        /* \"#utility.yul\":8636:8640   */\n      0x12\n        /* \"#utility.yul\":8633:8634   */\n      0x04\n        /* \"#utility.yul\":8626:8641   */\n      mstore\n        /* \"#utility.yul\":8664:8668   */\n      0x24\n        /* \"#utility.yul\":8661:8662   */\n      0x00\n        /* \"#utility.yul\":8654:8669   */\n      revert\n        /* \"#utility.yul\":8547:8679   */\n    tag_407:\n      pop\n        /* \"#utility.yul\":8693:8702   */\n      div\n      swap1\n        /* \"#utility.yul\":8491:8708   */\n      jump\t// out\n\n    auxdata: 0xa264697066735822122022e60ab5c71af64be0fcfded364d645e5ce26920b5bad9a98cbc1bb8a01a6b1c64736f6c63430008190033\n}\n",
    "bytecode": {
      "linkReferences": {},
      "object": "60a06040526008805461ffff1916600117905534801561001d575f80fd5b506040516117c63803806117c683398101604081905261003c91610226565b818686600361004b8382610345565b5060046100588282610345565b5050506001600160a01b03811661008957604051631e4fbdf760e01b81525f60048201526024015b60405180910390fd5b61009281610139565b506001600655826100cd5760405162461bcd60e51b815260206004820152600560248201526406361703d360dc1b6044820152606401610080565b6001600160a01b03821661010d5760405162461bcd60e51b815260206004820152600760248201526606f776e65723d360cc1b6044820152606401610080565b600784905561011e6012600a6104fa565b610128908461050c565b608052600955506105239350505050565b600580546001600160a01b038381166001600160a01b0319831681179093556040519116919082907f8be0079c531659141344cd1fd0a4f28419497f9722a3daafe3b4186f6b6457e0905f90a35050565b634e487b7160e01b5f52604160045260245ffd5b5f82601f8301126101ad575f80fd5b81516001600160401b03808211156101c7576101c761018a565b604051601f8301601f19908116603f011681019082821181831017156101ef576101ef61018a565b81604052838152866020858801011115610207575f80fd5b8360208701602083015e5f602085830101528094505050505092915050565b5f805f805f8060c0878903121561023b575f80fd5b86516001600160401b0380821115610251575f80fd5b61025d8a838b0161019e565b97506020890151915080821115610272575f80fd5b5061027f89828a0161019e565b604089015160608a015160808b0151929850909650945090506001600160a01b03811681146102ac575f80fd5b8092505060a087015190509295509295509295565b600181811c908216806102d557607f821691505b6020821081036102f357634e487b7160e01b5f52602260045260245ffd5b50919050565b601f82111561034057805f5260205f20601f840160051c8101602085101561031e5750805b601f840160051c820191505b8181101561033d575f815560010161032a565b50505b505050565b81516001600160401b0381111561035e5761035e61018a565b6103728161036c84546102c1565b846102f9565b602080601f8311600181146103a5575f841561038e5750858301515b5f19600386901b1c1916600185901b1785556103fc565b5f85815260208120601f198616915b828110156103d3578886015182559484019460019091019084016103b4565b50858210156103f057878501515f19600388901b60f8161c191681555b505060018460011b0185555b505050505050565b634e487b7160e01b5f52601160045260245ffd5b600181815b8085111561045257815f190482111561043857610438610404565b8085161561044557918102915b93841c939080029061041d565b509250929050565b5f82610468575060016104f4565b8161047457505f6104f4565b816001811461048a5760028114610494576104b0565b60019150506104f4565b60ff8411156104a5576104a5610404565b50506001821b6104f4565b5060208310610133831016604e8410600b84101617156104d3575081810a6104f4565b6104dd8383610418565b805f19048211156104f0576104f0610404565b0290505b92915050565b5f610505838361045a565b9392505050565b80820281158282048414176104f4576104f4610404565b60805161127d6105495f395f81816104a20152818161094a0152610a62015261127d5ff3fe608060405260043610610199575f3560e01c806391b7f5ed116100e0578063cb2fb89c11610089578063d5abeb0111610063578063d5abeb0114610491578063dd62ed3e146104c4578063f2fde38b14610508578063f8004d3114610527576101d8565b8063cb2fb89c1461043c578063cbd3e75314610451578063cd7427931461047c576101d8565b8063a9059cbb116100ba578063a9059cbb146103eb578063b31f8f931461040a578063bef97c871461041e576101d8565b806391b7f5ed146103a557806395d89b41146103c4578063a0712d68146103d8576101d8565b806326b9ce131161014257806370a082311161011c57806370a0823114610336578063715018a61461036a5780638da5cb5b1461037e576101d8565b806326b9ce13146102dd578063313ce567146102fc57806351cff8d914610317576101d8565b80631eae99c5116101735780631eae99c51461028457806323b872dd146102a557806324bbd049146102c4576101d8565b806306fdde031461020d578063095ea7b31461023757806318160ddd14610266576101d8565b366101d85760405162461bcd60e51b815260206004820152600a602482015269557365206d696e74282960b01b60448201526064015b60405180910390fd5b60405162461bcd60e51b815260206004820152600a602482015269557365206d696e74282960b01b60448201526064016101cf565b348015610218575f80fd5b50610221610546565b60405161022e9190610f74565b60405180910390f35b348015610242575f80fd5b50610256610251366004610fbd565b6105d6565b604051901515815260200161022e565b348015610271575f80fd5b506002545b60405190815260200161022e565b34801561028f575f80fd5b506102a361029e366004610fe7565b6105ef565b005b3480156102b0575f80fd5b506102566102bf366004610ffe565b61063d565b3480156102cf575f80fd5b506008546102569060ff1681565b3480156102e8575f80fd5b506102a36102f736600461103c565b610660565b348015610307575f80fd5b506040516012815260200161022e565b348015610322575f80fd5b506102a3610331366004611062565b6106bc565b348015610341575f80fd5b50610276610350366004611062565b6001600160a01b03165f9081526020819052604090205490565b348015610375575f80fd5b506102a361074b565b348015610389575f80fd5b506005546040516001600160a01b03909116815260200161022e565b3480156103b0575f80fd5b506102a36103bf366004610fe7565b61075e565b3480156103cf575f80fd5b506102216107a4565b6102a36103e6366004610fe7565b6107b3565b3480156103f6575f80fd5b50610256610405366004610fbd565b610a3f565b348015610415575f80fd5b50610276610a4c565b348015610429575f80fd5b5060085461025690610100900460ff1681565b348015610447575f80fd5b5061027660095481565b34801561045c575f80fd5b5061027661046b366004611062565b600a6020525f908152604090205481565b348015610487575f80fd5b5061027660075481565b34801561049c575f80fd5b506102767f000000000000000000000000000000000000000000000000000000000000000081565b3480156104cf575f80fd5b506102766104de36600461107d565b6001600160a01b039182165f90815260016020908152604080832093909416825291909152205490565b348015610513575f80fd5b506102a3610522366004611062565b610a95565b348015610532575f80fd5b506102a361054136600461103c565b610acf565b606060038054610555906110b4565b80601f0160208091040260200160405190810160405280929190818152602001828054610581906110b4565b80156105cc5780601f106105a3576101008083540402835291602001916105cc565b820191905f5260205f20905b8154815290600101906020018083116105af57829003601f168201915b5050505050905090565b5f336105e3818585610b18565b60019150505b92915050565b6105f7610b2a565b600980549082905560408051828152602081018490527f071795f06cf09b4d835204ba653f74e76d61a5641023b115ae926669830497c091015b60405180910390a15050565b5f3361064a858285610b57565b610655858585610bd2565b506001949350505050565b610668610b2a565b600880548215156101000261ff00199091161790556040517f3f0522fb4345c29729658df56a8b87c4360593a277942cc15cdf041866058690906106b190831515815260200190565b60405180910390a150565b6106c4610b2a565b6106cc610c2f565b6001600160a01b03811661070b5760405162461bcd60e51b81526004016101cf906020808252600490820152630746f3d360e41b604082015260600190565b6040516001600160a01b038216904780156108fc02915f818181858888f1935050505015801561073d573d5f803e3d5ffd5b506107486001600655565b50565b610753610b2a565b61075c5f610c59565b565b610766610b2a565b600780549082905560408051828152602081018490527f8aa4fa52648a6d15edce8a179c792c86f3719d0cc3c572cf90f91948f0f2cb689101610631565b606060048054610555906110b4565b6107bb610c2f565b60085460ff1661080d5760405162461bcd60e51b815260206004820152600b60248201527f6d696e742070617573656400000000000000000000000000000000000000000060448201526064016101cf565b5f811161085c5760405162461bcd60e51b815260206004820152600860248201527f616d6f756e743d3000000000000000000000000000000000000000000000000060448201526064016101cf565b600954156108cf57600954335f908152600a6020526040902054610881908390611100565b11156108cf5760405162461bcd60e51b815260206004820152601360248201527f77616c6c6574206361702065786365656465640000000000000000000000000060448201526064016101cf565b5f816007546108de9190611113565b905080341461092f5760405162461bcd60e51b815260206004820152600d60248201527f696e636f7272656374204554480000000000000000000000000000000000000060448201526064016101cf565b5f61093c6012600a61120a565b6109469084611113565b90507f00000000000000000000000000000000000000000000000000000000000000008161097360025490565b61097d9190611100565b11156109cb5760405162461bcd60e51b815260206004820152600c60248201527f636170206578636565646564000000000000000000000000000000000000000060448201526064016101cf565b335f908152600a6020526040812080548592906109e9908490611100565b909155506109f990503382610cc2565b6040805184815234602082015233917f25b428dfde728ccfaddad7e29e4ac23c24ed7fd1a6e3e3f91894a9a073f5dfff910160405180910390a250506107486001600655565b5f336105e3818585610bd2565b5f610a596012600a61120a565b600254610a86907f0000000000000000000000000000000000000000000000000000000000000000611215565b610a909190611228565b905090565b610a9d610b2a565b6001600160a01b038116610ac657604051631e4fbdf760e01b81525f60048201526024016101cf565b61074881610c59565b610ad7610b2a565b6008805460ff19168215159081179091556040519081527fa9f739ee29a6336acdfe5b044a6dce0d70579031be6dbdece2ac0848d8c2a080906020016106b1565b610b258383836001610cfa565b505050565b6005546001600160a01b0316331461075c5760405163118cdaa760e01b81523360048201526024016101cf565b6001600160a01b038381165f908152600160209081526040808320938616835292905220545f198114610bcc5781811015610bbe57604051637dc7a0d960e11b81526001600160a01b038416600482015260248101829052604481018390526064016101cf565b610bcc84848484035f610cfa565b50505050565b6001600160a01b038316610bfb57604051634b637e8f60e11b81525f60048201526024016101cf565b6001600160a01b038216610c245760405163ec442f0560e01b81525f60048201526024016101cf565b610b25838383610dcc565b600260065403610c5257604051633ee5aeb560e01b815260040160405180910390fd5b6002600655565b600580546001600160a01b038381167fffffffffffffffffffffffff0000000000000000000000000000000000000000831681179093556040519116919082907f8be0079c531659141344cd1fd0a4f28419497f9722a3daafe3b4186f6b6457e0905f90a35050565b6001600160a01b038216610ceb5760405163ec442f0560e01b81525f60048201526024016101cf565b610cf65f8383610dcc565b5050565b6001600160a01b038416610d235760405163e602df0560e01b81525f60048201526024016101cf565b6001600160a01b038316610d4c57604051634a1406b160e11b81525f60048201526024016101cf565b6001600160a01b038085165f9081526001602090815260408083209387168352929052208290558015610bcc57826001600160a01b0316846001600160a01b03167f8c5be1e5ebec7d5bd14f71427d1e84f3dd0314c0f7b2291e5b200ac8c7c3b92584604051610dbe91815260200190565b60405180910390a350505050565b6001600160a01b03831615801590610dec57506001600160a01b03821615155b15610e4857600854610100900460ff16610e485760405162461bcd60e51b815260206004820152601260248201527f7472616e73666572732064697361626c6564000000000000000000000000000060448201526064016101cf565b610b258383836001600160a01b038316610e78578060025f828254610e6d9190611100565b90915550610ee89050565b6001600160a01b0383165f9081526020819052604090205481811015610eca5760405163391434e360e21b81526001600160a01b038516600482015260248101829052604481018390526064016101cf565b6001600160a01b0384165f9081526020819052604090209082900390555b6001600160a01b038216610f0457600280548290039055610f22565b6001600160a01b0382165f9081526020819052604090208054820190555b816001600160a01b0316836001600160a01b03167fddf252ad1be2c89b69c2b068fc378daa952ba7f163c4a11628f55a4df523b3ef83604051610f6791815260200190565b60405180910390a3505050565b602081525f82518060208401528060208501604085015e5f604082850101526040601f19601f83011684010191505092915050565b6001600160a01b0381168114610748575f80fd5b5f8060408385031215610fce575f80fd5b8235610fd981610fa9565b946020939093013593505050565b5f60208284031215610ff7575f80fd5b5035919050565b5f805f60608486031215611010575f80fd5b833561101b81610fa9565b9250602084013561102b81610fa9565b929592945050506040919091013590565b5f6020828403121561104c575f80fd5b8135801515811461105b575f80fd5b9392505050565b5f60208284031215611072575f80fd5b813561105b81610fa9565b5f806040838503121561108e575f80fd5b823561109981610fa9565b915060208301356110a981610fa9565b809150509250929050565b600181811c908216806110c857607f821691505b6020821081036110e657634e487b7160e01b5f52602260045260245ffd5b50919050565b634e487b7160e01b5f52601160045260245ffd5b808201808211156105e9576105e96110ec565b80820281158282048414176105e9576105e96110ec565b600181815b8085111561116457815f190482111561114a5761114a6110ec565b8085161561115757918102915b93841c939080029061112f565b509250929050565b5f8261117a575060016105e9565b8161118657505f6105e9565b816001811461119c57600281146111a6576111c2565b60019150506105e9565b60ff8411156111b7576111b76110ec565b50506001821b6105e9565b5060208310610133831016604e8410600b84101617156111e5575081810a6105e9565b6111ef838361112a565b805f1904821115611202576112026110ec565b029392505050565b5f61105b838361116c565b818103818111156105e9576105e96110ec565b5f8261124257634e487b7160e01b5f52601260045260245ffd5b50049056fea264697066735822122022e60ab5c71af64be0fcfded364d645e5ce26920b5bad9a98cbc1bb8a01a6b1c64736f6c63430008190033",
      "opcodes": "PUSH1 0xA0 PUSH1 0x40 MSTORE PUSH1 0x8 DUP1 SLOAD PUSH2 0xFFFF NOT AND PUSH1 0x1 OR SWAP1 SSTORE CALLVALUE DUP1 ISZERO PUSH2 0x1D JUMPI PUSH0 DUP1 REVERT JUMPDEST POP PUSH1 0x40 MLOAD PUSH2 0x17C6 CODESIZE SUB DUP1 PUSH2 0x17C6 DUP4 CODECOPY DUP2 ADD PUSH1 0x40 DUP2 SWAP1 MSTORE PUSH2 0x3C SWAP2 PUSH2 0x226 JUMP JUMPDEST DUP2 DUP7 DUP7 PUSH1 0x3 PUSH2 0x4B DUP4 DUP3 PUSH2 0x345 JUMP JUMPDEST POP PUSH1 0x4 PUSH2 0x58 DUP3 DUP3 PUSH2 0x345 JUMP JUMPDEST POP POP POP PUSH1 0x1 PUSH1 0x1 PUSH1 0xA0 SHL SUB DUP2 AND PUSH2 0x89 JUMPI PUSH1 0x40 MLOAD PUSH4 0x1E4FBDF7 PUSH1 0xE0 SHL DUP2 MSTORE PUSH0 PUSH1 0x4 DUP3 ADD MSTORE PUSH1 0x24 ADD JUMPDEST PUSH1 0x40 MLOAD DUP1 SWAP2 SUB SWAP1 REVERT JUMPDEST PUSH2 0x92 DUP2 PUSH2 0x139 JUMP JUMPDEST POP PUSH1 0x1 PUSH1 0x6 SSTORE DUP3 PUSH2 0xCD JUMPI PUSH1 0x40 MLOAD PUSH3 0x461BCD PUSH1 0xE5 SHL DUP2 MSTORE PUSH1 0x20 PUSH1 0x4 DUP3 ADD MSTORE PUSH1 0x5 PUSH1 0x24 DUP3 ADD MSTORE PUSH5 0x6361703D3 PUSH1 0xDC SHL PUSH1 0x44 DUP3 ADD MSTORE PUSH1 0x64 ADD PUSH2 0x80 JUMP JUMPDEST PUSH1 0x1 PUSH1 0x1 PUSH1 0xA0 SHL SUB DUP3 AND PUSH2 0x10D JUMPI PUSH1 0x40 MLOAD PUSH3 0x461BCD PUSH1 0xE5 SHL DUP2 MSTORE PUSH1 0x20 PUSH1 0x4 DUP3 ADD MSTORE PUSH1 0x7 PUSH1 0x24 DUP3 ADD MSTORE PUSH7 0x6F776E65723D3 PUSH1 0xCC SHL PUSH1 0x44 DUP3 ADD MSTORE PUSH1 0x64 ADD PUSH2 0x80 JUMP JUMPDEST PUSH1 0x7 DUP5 SWAP1 SSTORE PUSH2 0x11E PUSH1 0x12 PUSH1 0xA PUSH2 0x4FA JUMP JUMPDEST PUSH2 0x128 SWAP1 DUP5 PUSH2 0x50C JUMP JUMPDEST PUSH1 0x80 MSTORE PUSH1 0x9 SSTORE POP PUSH2 0x523 SWAP4 POP POP POP POP JUMP JUMPDEST PUSH1 0x5 DUP1 SLOAD PUSH1 0x1 PUSH1 0x1 PUSH1 0xA0 SHL SUB DUP4 DUP2 AND PUSH1 0x1 PUSH1 0x1 PUSH1 0xA0 SHL SUB NOT DUP4 AND DUP2 OR SWAP1 SWAP4 SSTORE PUSH1 0x40 MLOAD SWAP2 AND SWAP2 SWAP1 DUP3 SWAP1 PUSH32 0x8BE0079C531659141344CD1FD0A4F28419497F9722A3DAAFE3B4186F6B6457E0 SWAP1 PUSH0 SWAP1 LOG3 POP POP JUMP JUMPDEST PUSH4 0x4E487B71 PUSH1 0xE0 SHL PUSH0 MSTORE PUSH1 0x41 PUSH1 0x4 MSTORE PUSH1 0x24 PUSH0 REVERT JUMPDEST PUSH0 DUP3 PUSH1 0x1F DUP4 ADD SLT PUSH2 0x1AD JUMPI PUSH0 DUP1 REVERT JUMPDEST DUP2 MLOAD PUSH1 0x1 PUSH1 0x1 PUSH1 0x40 SHL SUB DUP1 DUP3 GT ISZERO PUSH2 0x1C7 JUMPI PUSH2 0x1C7 PUSH2 0x18A JUMP JUMPDEST PUSH1 0x40 MLOAD PUSH1 0x1F DUP4 ADD PUSH1 0x1F NOT SWAP1 DUP2 AND PUSH1 0x3F ADD AND DUP2 ADD SWAP1 DUP3 DUP3 GT DUP2 DUP4 LT OR ISZERO PUSH2 0x1EF JUMPI PUSH2 0x1EF PUSH2 0x18A JUMP JUMPDEST DUP2 PUSH1 0x40 MSTORE DUP4 DUP2 MSTORE DUP7 PUSH1 0x20 DUP6 DUP9 ADD ADD GT ISZERO PUSH2 0x207 JUMPI PUSH0 DUP1 REVERT JUMPDEST DUP4 PUSH1 0x20 DUP8 ADD PUSH1 0x20 DUP4 ADD MCOPY PUSH0 PUSH1 0x20 DUP6 DUP4 ADD ADD MSTORE DUP1 SWAP5 POP POP POP POP POP SWAP3 SWAP2 POP POP JUMP JUMPDEST PUSH0 DUP1 PUSH0 DUP1 PUSH0 DUP1 PUSH1 0xC0 DUP8 DUP10 SUB SLT ISZERO PUSH2 0x23B JUMPI PUSH0 DUP1 REVERT JUMPDEST DUP7 MLOAD PUSH1 0x1 PUSH1 0x1 PUSH1 0x40 SHL SUB DUP1 DUP3 GT ISZERO PUSH2 0x251 JUMPI PUSH0 DUP1 REVERT JUMPDEST PUSH2 0x25D DUP11 DUP4 DUP12 ADD PUSH2 0x19E JUMP JUMPDEST SWAP8 POP PUSH1 0x20 DUP10 ADD MLOAD SWAP2 POP DUP1 DUP3 GT ISZERO PUSH2 0x272 JUMPI PUSH0 DUP1 REVERT JUMPDEST POP PUSH2 0x27F DUP10 DUP3 DUP11 ADD PUSH2 0x19E JUMP JUMPDEST PUSH1 0x40 DUP10 ADD MLOAD PUSH1 0x60 DUP11 ADD MLOAD PUSH1 0x80 DUP12 ADD MLOAD SWAP3 SWAP9 POP SWAP1 SWAP7 POP SWAP5 POP SWAP1 POP PUSH1 0x1 PUSH1 0x1 PUSH1 0xA0 SHL SUB DUP2 AND DUP2 EQ PUSH2 0x2AC JUMPI PUSH0 DUP1 REVERT JUMPDEST DUP1 SWAP3 POP POP PUSH1 0xA0 DUP8 ADD MLOAD SWAP1 POP SWAP3 SWAP6 POP SWAP3 SWAP6 POP SWAP3 SWAP6 JUMP JUMPDEST PUSH1 0x1 DUP2 DUP2 SHR SWAP1 DUP3 AND DUP1 PUSH2 0x2D5 JUMPI PUSH1 0x7F DUP3 AND SWAP2 POP JUMPDEST PUSH1 0x20 DUP3 LT DUP2 SUB PUSH2 0x2F3 JUMPI PUSH4 0x4E487B71 PUSH1 0xE0 SHL PUSH0 MSTORE PUSH1 0x22 PUSH1 0x4 MSTORE PUSH1 0x24 PUSH0 REVERT JUMPDEST POP SWAP2 SWAP1 POP JUMP JUMPDEST PUSH1 0x1F DUP3 GT ISZERO PUSH2 0x340 JUMPI DUP1 PUSH0 MSTORE PUSH1 0x20 PUSH0 KECCAK256 PUSH1 0x1F DUP5 ADD PUSH1 0x5 SHR DUP2 ADD PUSH1 0x20 DUP6 LT ISZERO PUSH2 0x31E JUMPI POP DUP1 JUMPDEST PUSH1 0x1F DUP5 ADD PUSH1 0x5 SHR DUP3 ADD SWAP2 POP JUMPDEST DUP2 DUP2 LT ISZERO PUSH2 0x33D JUMPI PUSH0 DUP2 SSTORE PUSH1 0x1 ADD PUSH2 0x32A JUMP JUMPDEST POP POP JUMPDEST POP POP POP JUMP JUMPDEST DUP2 MLOAD PUSH1 0x1 PUSH1 0x1 PUSH1 0x40 SHL SUB DUP2 GT ISZERO PUSH2 0x35E JUMPI PUSH2 0x35E PUSH2 0x18A JUMP JUMPDEST PUSH2 0x372 DUP2 PUSH2 0x36C DUP5 SLOAD PUSH2 0x2C1 JUMP JUMPDEST DUP5 PUSH2 0x2F9 JUMP JUMPDEST PUSH1 0x20 DUP1 PUSH1 0x1F DUP4 GT PUSH1 0x1 DUP2 EQ PUSH2 0x3A5 JUMPI PUSH0 DUP5 ISZERO PUSH2 0x38E JUMPI POP DUP6 DUP4 ADD MLOAD JUMPDEST PUSH0 NOT PUSH1 0x3 DUP7 SWAP1 SHL SHR NOT AND PUSH1 0x1 DUP6 SWAP1 SHL OR DUP6 SSTORE PUSH2 0x3FC JUMP JUMPDEST PUSH0 DUP6 DUP2 MSTORE PUSH1 0x20 DUP2 KECCAK256 PUSH1 0x1F NOT DUP7 AND SWAP2 JUMPDEST DUP3 DUP2 LT ISZERO PUSH2 0x3D3 JUMPI DUP9 DUP7 ADD MLOAD DUP3 SSTORE SWAP5 DUP5 ADD SWAP5 PUSH1 0x1 SWAP1 SWAP2 ADD SWAP1 DUP5 ADD PUSH2 0x3B4 JUMP JUMPDEST POP DUP6 DUP3 LT ISZERO PUSH2 0x3F0 JUMPI DUP8 DUP6 ADD MLOAD PUSH0 NOT PUSH1 0x3 DUP9 SWAP1 SHL PUSH1 0xF8 AND SHR NOT AND DUP2 SSTORE JUMPDEST POP POP PUSH1 0x1 DUP5 PUSH1 0x1 SHL ADD DUP6 SSTORE JUMPDEST POP POP POP POP POP POP JUMP JUMPDEST PUSH4 0x4E487B71 PUSH1 0xE0 SHL PUSH0 MSTORE PUSH1 0x11 PUSH1 0x4 MSTORE PUSH1 0x24 PUSH0 REVERT JUMPDEST PUSH1 0x1 DUP2 DUP2 JUMPDEST DUP1 DUP6 GT ISZERO PUSH2 0x452 JUMPI DUP2 PUSH0 NOT DIV DUP3 GT ISZERO PUSH2 0x438 JUMPI PUSH2 0x438 PUSH2 0x404 JUMP JUMPDEST DUP1 DUP6 AND ISZERO PUSH2 0x445 JUMPI SWAP2 DUP2 MUL SWAP2 JUMPDEST SWAP4 DUP5 SHR SWAP4 SWAP1 DUP1 MUL SWAP1 PUSH2 0x41D JUMP JUMPDEST POP SWAP3 POP SWAP3 SWAP1 POP JUMP JUMPDEST PUSH0 DUP3 PUSH2 0x468 JUMPI POP PUSH1 0x1 PUSH2 0x4F4 JUMP JUMPDEST DUP2 PUSH2 0x474 JUMPI POP PUSH0 PUSH2 0x4F4 JUMP JUMPDEST DUP2 PUSH1 0x1 DUP2 EQ PUSH2 0x48A JUMPI PUSH1 0x2 DUP2 EQ PUSH2 0x494 JUMPI PUSH2 0x4B0 JUMP JUMPDEST PUSH1 0x1 SWAP2 POP POP PUSH2 0x4F4 JUMP JUMPDEST PUSH1 0xFF DUP5 GT ISZERO PUSH2 0x4A5 JUMPI PUSH2 0x4A5 PUSH2 0x404 JUMP JUMPDEST POP POP PUSH1 0x1 DUP3 SHL PUSH2 0x4F4 JUMP JUMPDEST POP PUSH1 0x20 DUP4 LT PUSH2 0x133 DUP4 LT AND PUSH1 0x4E DUP5 LT PUSH1 0xB DUP5 LT AND OR ISZERO PUSH2 0x4D3 JUMPI POP DUP2 DUP2 EXP PUSH2 0x4F4 JUMP JUMPDEST PUSH2 0x4DD DUP4 DUP4 PUSH2 0x418 JUMP JUMPDEST DUP1 PUSH0 NOT DIV DUP3 GT ISZERO PUSH2 0x4F0 JUMPI PUSH2 0x4F0 PUSH2 0x404 JUMP JUMPDEST MUL SWAP1 POP JUMPDEST SWAP3 SWAP2 POP POP JUMP JUMPDEST PUSH0 PUSH2 0x505 DUP4 DUP4 PUSH2 0x45A JUMP JUMPDEST SWAP4 SWAP3 POP POP POP JUMP JUMPDEST DUP1 DUP3 MUL DUP2 ISZERO DUP3 DUP3 DIV DUP5 EQ OR PUSH2 0x4F4 JUMPI PUSH2 0x4F4 PUSH2 0x404 JUMP JUMPDEST PUSH1 0x80 MLOAD PUSH2 0x127D PUSH2 0x549 PUSH0 CODECOPY PUSH0 DUP2 DUP2 PUSH2 0x4A2 ADD MSTORE DUP2 DUP2 PUSH2 0x94A ADD MSTORE PUSH2 0xA62 ADD MSTORE PUSH2 0x127D PUSH0 RETURN INVALID PUSH1 0x80 PUSH1 0x40 MSTORE PUSH1 0x4 CALLDATASIZE LT PUSH2 0x199 JUMPI PUSH0 CALLDATALOAD PUSH1 0xE0 SHR DUP1 PUSH4 0x91B7F5ED GT PUSH2 0xE0 JUMPI DUP1 PUSH4 0xCB2FB89C GT PUSH2 0x89 JUMPI DUP1 PUSH4 0xD5ABEB01 GT PUSH2 0x63 JUMPI DUP1 PUSH4 0xD5ABEB01 EQ PUSH2 0x491 JUMPI DUP1 PUSH4 0xDD62ED3E EQ PUSH2 0x4C4 JUMPI DUP1 PUSH4 0xF2FDE38B EQ PUSH2 0x508 JUMPI DUP1 PUSH4 0xF8004D31 EQ PUSH2 0x527 JUMPI PUSH2 0x1D8 JUMP JUMPDEST DUP1 PUSH4 0xCB2FB89C EQ PUSH2 0x43C JUMPI DUP1 PUSH4 0xCBD3E753 EQ PUSH2 0x451 JUMPI DUP1 PUSH4 0xCD742793 EQ PUSH2 0x47C JUMPI PUSH2 0x1D8 JUMP JUMPDEST DUP1 PUSH4 0xA9059CBB GT PUSH2 0xBA JUMPI DUP1 PUSH4 0xA9059CBB EQ PUSH2 0x3EB JUMPI DUP1 PUSH4 0xB31F8F93 EQ PUSH2 0x40A JUMPI DUP1 PUSH4 0xBEF97C87 EQ PUSH2 0x41E JUMPI PUSH2 0x1D8 JUMP JUMPDEST DUP1 PUSH4 0x91B7F5ED EQ PUSH2 0x3A5 JUMPI DUP1 PUSH4 0x95D89B41 EQ PUSH2 0x3C4 JUMPI DUP1 PUSH4 0xA0712D68 EQ PUSH2 0x3D8 JUMPI PUSH2 0x1D8 JUMP JUMPDEST DUP1 PUSH4 0x26B9CE13 GT PUSH2 0x142 JUMPI DUP1 PUSH4 0x70A08231 GT PUSH2 0x11C JUMPI DUP1 PUSH4 0x70A08231 EQ PUSH2 0x336 JUMPI DUP1 PUSH4 0x715018A6 EQ PUSH2 0x36A JUMPI DUP1 PUSH4 0x8DA5CB5B EQ PUSH2 0x37E JUMPI PUSH2 0x1D8 JUMP JUMPDEST DUP1 PUSH4 0x26B9CE13 EQ PUSH2 0x2DD JUMPI DUP1 PUSH4 0x313CE567 EQ PUSH2 0x2FC JUMPI DUP1 PUSH4 0x51CFF8D9 EQ PUSH2 0x317 JUMPI PUSH2 0x1D8 JUMP JUMPDEST DUP1 PUSH4 0x1EAE99C5 GT PUSH2 0x173 JUMPI DUP1 PUSH4 0x1EAE99C5 EQ PUSH2 0x284 JUMPI DUP1 PUSH4 0x23B872DD EQ PUSH2 0x2A5 JUMPI DUP1 PUSH4 0x24BBD049 EQ PUSH2 0x2C4 JUMPI PUSH2 0x1D8 JUMP JUMPDEST DUP1 PUSH4 0x6FDDE03 EQ PUSH2 0x20D JUMPI DUP1 PUSH4 0x95EA7B3 EQ PUSH2 0x237 JUMPI DUP1 PUSH4 0x18160DDD EQ PUSH2 0x266 JUMPI PUSH2 0x1D8 JUMP JUMPDEST CALLDATASIZE PUSH2 0x1D8 JUMPI PUSH1 0x40 MLOAD PUSH3 0x461BCD PUSH1 0xE5 SHL DUP2 MSTORE PUSH1 0x20 PUSH1 0x4 DUP3 ADD MSTORE PUSH1 0xA PUSH1 0x24 DUP3 ADD MSTORE PUSH10 0x557365206D696E742829 PUSH1 0xB0 SHL PUSH1 0x44 DUP3 ADD MSTORE PUSH1 0x64 ADD JUMPDEST PUSH1 0x40 MLOAD DUP1 SWAP2 SUB SWAP1 REVERT JUMPDEST PUSH1 0x40 MLOAD PUSH3 0x461BCD PUSH1 0xE5 SHL DUP2 MSTORE PUSH1 0x20 PUSH1 0x4 DUP3 ADD MSTORE PUSH1 0xA PUSH1 0x24 DUP3 ADD MSTORE PUSH10 0x557365206D696E742829 PUSH1 0xB0 SHL PUSH1 0x44 DUP3 ADD MSTORE PUSH1 0x64 ADD PUSH2 0x1CF JUMP JUMPDEST CALLVALUE DUP1 ISZERO PUSH2 0x218 JUMPI PUSH0 DUP1 REVERT JUMPDEST POP PUSH2 0x221 PUSH2 0x546 JUMP JUMPDEST PUSH1 0x40 MLOAD PUSH2 0x22E SWAP2 SWAP1 PUSH2 0xF74 JUMP JUMPDEST PUSH1 0x40 MLOAD DUP1 SWAP2 SUB SWAP1 RETURN JUMPDEST CALLVALUE DUP1 ISZERO PUSH2 0x242 JUMPI PUSH0 DUP1 REVERT JUMPDEST POP PUSH2 0x256 PUSH2 0x251 CALLDATASIZE PUSH1 0x4 PUSH2 0xFBD JUMP JUMPDEST PUSH2 0x5D6 JUMP JUMPDEST PUSH1 0x40 MLOAD SWAP1 ISZERO ISZERO DUP2 MSTORE PUSH1 0x20 ADD PUSH2 0x22E JUMP JUMPDEST CALLVALUE DUP1 ISZERO PUSH2 0x271 JUMPI PUSH0 DUP1 REVERT JUMPDEST POP PUSH1 0x2 SLOAD JUMPDEST PUSH1 0x40 MLOAD SWAP1 DUP2 MSTORE PUSH1 0x20 ADD PUSH2 0x22E JUMP JUMPDEST CALLVALUE DUP1 ISZERO PUSH2 0x28F JUMPI PUSH0 DUP1 REVERT JUMPDEST POP PUSH2 0x2A3 PUSH2 0x29E CALLDATASIZE PUSH1 0x4 PUSH2 0xFE7 JUMP JUMPDEST PUSH2 0x5EF JUMP JUMPDEST STOP JUMPDEST CALLVALUE DUP1 ISZERO PUSH2 0x2B0 JUMPI PUSH0 DUP1 REVERT JUMPDEST POP PUSH2 0x256 PUSH2 0x2BF CALLDATASIZE PUSH1 0x4 PUSH2 0xFFE JUMP JUMPDEST PUSH2 0x63D JUMP JUMPDEST CALLVALUE DUP1 ISZERO PUSH2 0x2CF JUMPI PUSH0 DUP1 REVERT JUMPDEST POP PUSH1 0x8 SLOAD PUSH2 0x256 SWAP1 PUSH1 0xFF AND DUP2 JUMP JUMPDEST CALLVALUE DUP1 ISZERO PUSH2 0x2E8 JUMPI PUSH0 DUP1 REVERT JUMPDEST POP PUSH2 0x2A3 PUSH2 0x2F7 CALLDATASIZE PUSH1 0x4 PUSH2 0x103C JUMP JUMPDEST PUSH2 0x660 JUMP JUMPDEST CALLVALUE DUP1 ISZERO PUSH2 0x307 JUMPI PUSH0 DUP1 REVERT JUMPDEST POP PUSH1 0x40 MLOAD PUSH1 0x12 DUP2 MSTORE PUSH1 0x20 ADD PUSH2 0x22E JUMP JUMPDEST CALLVALUE DUP1 ISZERO PUSH2 0x322 JUMPI PUSH0 DUP1 REVERT JUMPDEST POP PUSH2 0x2A3 PUSH2 0x331 CALLDATASIZE PUSH1 0x4 PUSH2 0x1062 JUMP JUMPDEST PUSH2 0x6BC JUMP JUMPDEST CALLVALUE DUP1 ISZERO PUSH2 0x341 JUMPI PUSH0 DUP1 REVERT JUMPDEST POP PUSH2 0x276 PUSH2 0x350 CALLDATASIZE PUSH1 0x4 PUSH2 0x1062 JUMP JUMPDEST PUSH1 0x1 PUSH1 0x1 PUSH1 0xA0 SHL SUB AND PUSH0 SWAP1 DUP2 MSTORE PUSH1 0x20 DUP2 SWAP1 MSTORE PUSH1 0x40 SWAP1 KECCAK256 SLOAD SWAP1 JUMP JUMPDEST CALLVALUE DUP1 ISZERO PUSH2 0x375 JUMPI PUSH0 DUP1 REVERT JUMPDEST POP PUSH2 0x2A3 PUSH2 0x74B JUMP JUMPDEST CALLVALUE DUP1 ISZERO PUSH2 0x389 JUMPI PUSH0 DUP1 REVERT JUMPDEST POP PUSH1 0x5 SLOAD PUSH1 0x40 MLOAD PUSH1 0x1 PUSH1 0x1 PUSH1 0xA0 SHL SUB SWAP1 SWAP2 AND DUP2 MSTORE PUSH1 0x20 ADD PUSH2 0x22E JUMP JUMPDEST CALLVALUE DUP1 ISZERO PUSH2 0x3B0 JUMPI PUSH0 DUP1 REVERT JUMPDEST POP PUSH2 0x2A3 PUSH2 0x3BF CALLDATASIZE PUSH1 0x4 PUSH2 0xFE7 JUMP JUMPDEST PUSH2 0x75E JUMP JUMPDEST CALLVALUE DUP1 ISZERO PUSH2 0x3CF JUMPI PUSH0 DUP1 REVERT JUMPDEST POP PUSH2 0x221 PUSH2 0x7A4 JUMP JUMPDEST PUSH2 0x2A3 PUSH2 0x3E6 CALLDATASIZE PUSH1 0x4 PUSH2 0xFE7 JUMP JUMPDEST PUSH2 0x7B3 JUMP JUMPDEST CALLVALUE DUP1 ISZERO PUSH2 0x3F6 JUMPI PUSH0 DUP1 REVERT JUMPDEST POP PUSH2 0x256 PUSH2 0x405 CALLDATASIZE PUSH1 0x4 PUSH2 0xFBD JUMP JUMPDEST PUSH2 0xA3F JUMP JUMPDEST CALLVALUE DUP1 ISZERO PUSH2 0x415 JUMPI PUSH0 DUP1 REVERT JUMPDEST POP PUSH2 0x276 PUSH2 0xA4C JUMP JUMPDEST CALLVALUE DUP1 ISZERO PUSH2 0x429 JUMPI PUSH0 DUP1 REVERT JUMPDEST POP PUSH1 0x8 SLOAD PUSH2 0x256 SWAP1 PUSH2 0x100 SWAP1 DIV PUSH1 0xFF AND DUP2 JUMP JUMPDEST CALLVALUE DUP1 ISZERO PUSH2 0x447 JUMPI PUSH0 DUP1 REVERT JUMPDEST POP PUSH2 0x276 PUSH1 0x9 SLOAD DUP2 JUMP JUMPDEST CALLVALUE DUP1 ISZERO PUSH2 0x45C JUMPI PUSH0 DUP1 REVERT JUMPDEST POP PUSH2 0x276 PUSH2 0x46B CALLDATASIZE PUSH1 0x4 PUSH2 0x1062 JUMP JUMPDEST PUSH1 0xA PUSH1 0x20 MSTORE PUSH0 SWAP1 DUP2 MSTORE PUSH1 0x40 SWAP1 KECCAK256 SLOAD DUP2 JUMP JUMPDEST CALLVALUE DUP1 ISZERO PUSH2 0x487 JUMPI PUSH0 DUP1 REVERT JUMPDEST POP PUSH2 0x276 PUSH1 0x7 SLOAD DUP2 JUMP JUMPDEST CALLVALUE DUP1 ISZERO PUSH2 0x49C JUMPI PUSH0 DUP1 REVERT JUMPDEST POP PUSH2 0x276 PUSH32 0x0 DUP2 JUMP JUMPDEST CALLVALUE DUP1 ISZERO PUSH2 0x4CF JUMPI PUSH0 DUP1 REVERT JUMPDEST POP PUSH2 0x276 PUSH2 0x4DE CALLDATASIZE PUSH1 0x4 PUSH2 0x107D JUMP JUMPDEST PUSH1 0x1 PUSH1 0x1 PUSH1 0xA0 SHL SUB SWAP2 DUP3 AND PUSH0 SWAP1 DUP2 MSTORE PUSH1 0x1 PUSH1 0x20 SWAP1 DUP2 MSTORE PUSH1 0x40 DUP1 DUP4 KECCAK256 SWAP4 SWAP1 SWAP5 AND DUP3 MSTORE SWAP2 SWAP1 SWAP2 MSTORE KECCAK256 SLOAD SWAP1 JUMP JUMPDEST CALLVALUE DUP1 ISZERO PUSH2 0x513 JUMPI PUSH0 DUP1 REVERT JUMPDEST POP PUSH2 0x2A3 PUSH2 0x522 CALLDATASIZE PUSH1 0x4 PUSH2 0x1062 JUMP JUMPDEST PUSH2 0xA95 JUMP JUMPDEST CALLVALUE DUP1 ISZERO PUSH2 0x532 JUMPI PUSH0 DUP1 REVERT JUMPDEST POP PUSH2 0x2A3 PUSH2 0x541 CALLDATASIZE PUSH1 0x4 PUSH2 0x103C JUMP JUMPDEST PUSH2 0xACF JUMP JUMPDEST PUSH1 0x60 PUSH1 0x3 DUP1 SLOAD PUSH2 0x555 SWAP1 PUSH2 0x10B4 JUMP JUMPDEST DUP1 PUSH1 0x1F ADD PUSH1 0x20 DUP1 SWAP2 DIV MUL PUSH1 0x20 ADD PUSH1 0x40 MLOAD SWAP1 DUP2 ADD PUSH1 0x40 MSTORE DUP1 SWAP3 SWAP2 SWAP1 DUP2 DUP2 MSTORE PUSH1 0x20 ADD DUP3 DUP1 SLOAD PUSH2 0x581 SWAP1 PUSH2 0x10B4 JUMP JUMPDEST DUP1 ISZERO PUSH2 0x5CC JUMPI DUP1 PUSH1 0x1F LT PUSH2 0x5A3 JUMPI PUSH2 0x100 DUP1 DUP4 SLOAD DIV MUL DUP4 MSTORE SWAP2 PUSH1 0x20 ADD SWAP2 PUSH2 0x5CC JUMP JUMPDEST DUP3 ADD SWAP2 SWAP1 PUSH0 MSTORE PUSH1 0x20 PUSH0 KECCAK256 SWAP1 JUMPDEST DUP2 SLOAD DUP2 MSTORE SWAP1 PUSH1 0x1 ADD SWAP1 PUSH1 0x20 ADD DUP1 DUP4 GT PUSH2 0x5AF JUMPI DUP3 SWAP1 SUB PUSH1 0x1F AND DUP3 ADD SWAP2 JUMPDEST POP POP POP POP POP SWAP1 POP SWAP1 JUMP JUMPDEST PUSH0 CALLER PUSH2 0x5E3 DUP2 DUP6 DUP6 PUSH2 0xB18 JUMP JUMPDEST PUSH1 0x1 SWAP2 POP POP JUMPDEST SWAP3 SWAP2 POP POP JUMP JUMPDEST PUSH2 0x5F7 PUSH2 0xB2A JUMP JUMPDEST PUSH1 0x9 DUP1 SLOAD SWAP1 DUP3 SWAP1 SSTORE PUSH1 0x40 DUP1 MLOAD DUP3 DUP2 MSTORE PUSH1 0x20 DUP2 ADD DUP5 SWAP1 MSTORE PUSH32 0x71795F06CF09B4D835204BA653F74E76D61A5641023B115AE926669830497C0 SWAP2 ADD JUMPDEST PUSH1 0x40 MLOAD DUP1 SWAP2 SUB SWAP1 LOG1 POP POP JUMP JUMPDEST PUSH0 CALLER PUSH2 0x64A DUP6 DUP3 DUP6 PUSH2 0xB57 JUMP JUMPDEST PUSH2 0x655 DUP6 DUP6 DUP6 PUSH2 0xBD2 JUMP JUMPDEST POP PUSH1 0x1 SWAP5 SWAP4 POP POP POP POP JUMP JUMPDEST PUSH2 0x668 PUSH2 0xB2A JUMP JUMPDEST PUSH1 0x8 DUP1 SLOAD DUP3 ISZERO ISZERO PUSH2 0x100 MUL PUSH2 0xFF00 NOT SWAP1 SWAP2 AND OR SWAP1 SSTORE PUSH1 0x40 MLOAD PUSH32 0x3F0522FB4345C29729658DF56A8B87C4360593A277942CC15CDF041866058690 SWAP1 PUSH2 0x6B1 SWAP1 DUP4 ISZERO ISZERO DUP2 MSTORE PUSH1 0x20 ADD SWAP1 JUMP JUMPDEST PUSH1 0x40 MLOAD DUP1 SWAP2 SUB SWAP1 LOG1 POP JUMP JUMPDEST PUSH2 0x6C4 PUSH2 0xB2A JUMP JUMPDEST PUSH2 0x6CC PUSH2 0xC2F JUMP JUMPDEST PUSH1 0x1 PUSH1 0x1 PUSH1 0xA0 SHL SUB DUP2 AND PUSH2 0x70B JUMPI PUSH1 0x40 MLOAD PUSH3 0x461BCD PUSH1 0xE5 SHL DUP2 MSTORE PUSH1 0x4 ADD PUSH2 0x1CF SWAP1 PUSH1 0x20 DUP1 DUP3 MSTORE PUSH1 0x4 SWAP1 DUP3 ADD MSTORE PUSH4 0x746F3D3 PUSH1 0xE4 SHL PUSH1 0x40 DUP3 ADD MSTORE PUSH1 0x60 ADD SWAP1 JUMP JUMPDEST PUSH1 0x40 MLOAD PUSH1 0x1 PUSH1 0x1 PUSH1 0xA0 SHL SUB DUP3 AND SWAP1 SELFBALANCE DUP1 ISZERO PUSH2 0x8FC MUL SWAP2 PUSH0 DUP2 DUP2 DUP2 DUP6 DUP9 DUP9 CALL SWAP4 POP POP POP POP ISZERO DUP1 ISZERO PUSH2 0x73D JUMPI RETURNDATASIZE PUSH0 DUP1 RETURNDATACOPY RETURNDATASIZE PUSH0 REVERT JUMPDEST POP PUSH2 0x748 PUSH1 0x1 PUSH1 0x6 SSTORE JUMP JUMPDEST POP JUMP JUMPDEST PUSH2 0x753 PUSH2 0xB2A JUMP JUMPDEST PUSH2 0x75C PUSH0 PUSH2 0xC59 JUMP JUMPDEST JUMP JUMPDEST PUSH2 0x766 PUSH2 0xB2A JUMP JUMPDEST PUSH1 0x7 DUP1 SLOAD SWAP1 DUP3 SWAP1 SSTORE PUSH1 0x40 DUP1 MLOAD DUP3 DUP2 MSTORE PUSH1 0x20 DUP2 ADD DUP5 SWAP1 MSTORE PUSH32 0x8AA4FA52648A6D15EDCE8A179C792C86F3719D0CC3C572CF90F91948F0F2CB68 SWAP2 ADD PUSH2 0x631 JUMP JUMPDEST PUSH1 0x60 PUSH1 0x4 DUP1 SLOAD PUSH2 0x555 SWAP1 PUSH2 0x10B4 JUMP JUMPDEST PUSH2 0x7BB PUSH2 0xC2F JUMP JUMPDEST PUSH1 0x8 SLOAD PUSH1 0xFF AND PUSH2 0x80D JUMPI PUSH1 0x40 MLOAD PUSH3 0x461BCD PUSH1 0xE5 SHL DUP2 MSTORE PUSH1 0x20 PUSH1 0x4 DUP3 ADD MSTORE PUSH1 0xB PUSH1 0x24 DUP3 ADD MSTORE PUSH32 0x6D696E7420706175736564000000000000000000000000000000000000000000 PUSH1 0x44 DUP3 ADD MSTORE PUSH1 0x64 ADD PUSH2 0x1CF JUMP JUMPDEST PUSH0 DUP2 GT PUSH2 0x85C JUMPI PUSH1 0x40 MLOAD PUSH3 0x461BCD PUSH1 0xE5 SHL DUP2 MSTORE PUSH1 0x20 PUSH1 0x4 DUP3 ADD MSTORE PUSH1 0x8 PUSH1 0x24 DUP3 ADD MSTORE PUSH32 0x616D6F756E743D30000000000000000000000000000000000000000000000000 PUSH1 0x44 DUP3 ADD MSTORE PUSH1 0x64 ADD PUSH2 0x1CF JUMP JUMPDEST PUSH1 0x9 SLOAD ISZERO PUSH2 0x8CF JUMPI PUSH1 0x9 SLOAD CALLER PUSH0 SWAP1 DUP2 MSTORE PUSH1 0xA PUSH1 0x20 MSTORE PUSH1 0x40 SWAP1 KECCAK256 SLOAD PUSH2 0x881 SWAP1 DUP4 SWAP1 PUSH2 0x1100 JUMP JUMPDEST GT ISZERO PUSH2 0x8CF JUMPI PUSH1 0x40 MLOAD PUSH3 0x461BCD PUSH1 0xE5 SHL DUP2 MSTORE PUSH1 0x20 PUSH1 0x4 DUP3 ADD MSTORE PUSH1 0x13 PUSH1 0x24 DUP3 ADD MSTORE PUSH32 0x77616C6C65742063617020657863656564656400000000000000000000000000 PUSH1 0x44 DUP3 ADD MSTORE PUSH1 0x64 ADD PUSH2 0x1CF JUMP JUMPDEST PUSH0 DUP2 PUSH1 0x7 SLOAD PUSH2 0x8DE SWAP2 SWAP1 PUSH2 0x1113 JUMP JUMPDEST SWAP1 POP DUP1 CALLVALUE EQ PUSH2 0x92F JUMPI PUSH1 0x40 MLOAD PUSH3 0x461BCD PUSH1 0xE5 SHL DUP2 MSTORE PUSH1 0x20 PUSH1 0x4 DUP3 ADD MSTORE PUSH1 0xD PUSH1 0x24 DUP3 ADD MSTORE PUSH32 0x696E636F72726563742045544800000000000000000000000000000000000000 PUSH1 0x44 DUP3 ADD MSTORE PUSH1 0x64 ADD PUSH2 0x1CF JUMP JUMPDEST PUSH0 PUSH2 0x93C PUSH1 0x12 PUSH1 0xA PUSH2 0x120A JUMP JUMPDEST PUSH2 0x946 SWAP1 DUP5 PUSH2 0x1113 JUMP JUMPDEST SWAP1 POP PUSH32 0x0 DUP2 PUSH2 0x973 PUSH1 0x2 SLOAD SWAP1 JUMP JUMPDEST PUSH2 0x97D SWAP2 SWAP1 PUSH2 0x1100 JUMP JUMPDEST GT ISZERO PUSH2 0x9CB JUMPI PUSH1 0x40 MLOAD PUSH3 0x461BCD PUSH1 0xE5 SHL DUP2 MSTORE PUSH1 0x20 PUSH1 0x4 DUP3 ADD MSTORE PUSH1 0xC PUSH1 0x24 DUP3 ADD MSTORE PUSH32 0x6361702065786365656465640000000000000000000000000000000000000000 PUSH1 0x44 DUP3 ADD MSTORE PUSH1 0x64 ADD PUSH2 0x1CF JUMP JUMPDEST CALLER PUSH0 SWAP1 DUP2 MSTORE PUSH1 0xA PUSH1 0x20 MSTORE PUSH1 0x40 DUP2 KECCAK256 DUP1 SLOAD DUP6 SWAP3 SWAP1 PUSH2 0x9E9 SWAP1 DUP5 SWAP1 PUSH2 0x1100 JUMP JUMPDEST SWAP1 SWAP2 SSTORE POP PUSH2 0x9F9 SWAP1 POP CALLER DUP3 PUSH2 0xCC2 JUMP JUMPDEST PUSH1 0x40 DUP1 MLOAD DUP5 DUP2 MSTORE CALLVALUE PUSH1 0x20 DUP3 ADD MSTORE CALLER SWAP2 PUSH32 0x25B428DFDE728CCFADDAD7E29E4AC23C24ED7FD1A6E3E3F91894A9A073F5DFFF SWAP2 ADD PUSH1 0x40 MLOAD DUP1 SWAP2 SUB SWAP1 LOG2 POP POP PUSH2 0x748 PUSH1 0x1 PUSH1 0x6 SSTORE JUMP JUMPDEST PUSH0 CALLER PUSH2 0x5E3 DUP2 DUP6 DUP6 PUSH2 0xBD2 JUMP JUMPDEST PUSH0 PUSH2 0xA59 PUSH1 0x12 PUSH1 0xA PUSH2 0x120A JUMP JUMPDEST PUSH1 0x2 SLOAD PUSH2 0xA86 SWAP1 PUSH32 0x0 PUSH2 0x1215 JUMP JUMPDEST PUSH2 0xA90 SWAP2 SWAP1 PUSH2 0x1228 JUMP JUMPDEST SWAP1 POP SWAP1 JUMP JUMPDEST PUSH2 0xA9D PUSH2 0xB2A JUMP JUMPDEST PUSH1 0x1 PUSH1 0x1 PUSH1 0xA0 SHL SUB DUP2 AND PUSH2 0xAC6 JUMPI PUSH1 0x40 MLOAD PUSH4 0x1E4FBDF7 PUSH1 0xE0 SHL DUP2 MSTORE PUSH0 PUSH1 0x4 DUP3 ADD MSTORE PUSH1 0x24 ADD PUSH2 0x1CF JUMP JUMPDEST PUSH2 0x748 DUP2 PUSH2 0xC59 JUMP JUMPDEST PUSH2 0xAD7 PUSH2 0xB2A JUMP JUMPDEST PUSH1 0x8 DUP1 SLOAD PUSH1 0xFF NOT AND DUP3 ISZERO ISZERO SWAP1 DUP2 OR SWAP1 SWAP2 SSTORE PUSH1 0x40 MLOAD SWAP1 DUP2 MSTORE PUSH32 0xA9F739EE29A6336ACDFE5B044A6DCE0D70579031BE6DBDECE2AC0848D8C2A080 SWAP1 PUSH1 0x20 ADD PUSH2 0x6B1 JUMP JUMPDEST PUSH2 0xB25 DUP4 DUP4 DUP4 PUSH1 0x1 PUSH2 0xCFA JUMP JUMPDEST POP POP POP JUMP JUMPDEST PUSH1 0x5 SLOAD PUSH1 0x1 PUSH1 0x1 PUSH1 0xA0 SHL SUB AND CALLER EQ PUSH2 0x75C JUMPI PUSH1 0x40 MLOAD PUSH4 0x118CDAA7 PUSH1 0xE0 SHL DUP2 MSTORE CALLER PUSH1 0x4 DUP3 ADD MSTORE PUSH1 0x24 ADD PUSH2 0x1CF JUMP JUMPDEST PUSH1 0x1 PUSH1 0x1 PUSH1 0xA0 SHL SUB DUP4 DUP2 AND PUSH0 SWAP1 DUP2 MSTORE PUSH1 0x1 PUSH1 0x20 SWAP1 DUP2 MSTORE PUSH1 0x40 DUP1 DUP4 KECCAK256 SWAP4 DUP7 AND DUP4 MSTORE SWAP3 SWAP1 MSTORE KECCAK256 SLOAD PUSH0 NOT DUP2 EQ PUSH2 0xBCC JUMPI DUP2 DUP2 LT ISZERO PUSH2 0xBBE JUMPI PUSH1 0x40 MLOAD PUSH4 0x7DC7A0D9 PUSH1 0xE1 SHL DUP2 MSTORE PUSH1 0x1 PUSH1 0x1 PUSH1 0xA0 SHL SUB DUP5 AND PUSH1 0x4 DUP3 ADD MSTORE PUSH1 0x24 DUP2 ADD DUP3 SWAP1 MSTORE PUSH1 0x44 DUP2 ADD DUP4 SWAP1 MSTORE PUSH1 0x64 ADD PUSH2 0x1CF JUMP JUMPDEST PUSH2 0xBCC DUP5 DUP5 DUP5 DUP5 SUB PUSH0 PUSH2 0xCFA JUMP JUMPDEST POP POP POP POP JUMP JUMPDEST PUSH1 0x1 PUSH1 0x1 PUSH1 0xA0 SHL SUB DUP4 AND PUSH2 0xBFB JUMPI PUSH1 0x40 MLOAD PUSH4 0x4B637E8F PUSH1 0xE1 SHL DUP2 MSTORE PUSH0 PUSH1 0x4 DUP3 ADD MSTORE PUSH1 0x24 ADD PUSH2 0x1CF JUMP JUMPDEST PUSH1 0x1 PUSH1 0x1 PUSH1 0xA0 SHL SUB DUP3 AND PUSH2 0xC24 JUMPI PUSH1 0x40 MLOAD PUSH4 0xEC442F05 PUSH1 0xE0 SHL DUP2 MSTORE PUSH0 PUSH1 0x4 DUP3 ADD MSTORE PUSH1 0x24 ADD PUSH2 0x1CF JUMP JUMPDEST PUSH2 0xB25 DUP4 DUP4 DUP4 PUSH2 0xDCC JUMP JUMPDEST PUSH1 0x2 PUSH1 0x6 SLOAD SUB PUSH2 0xC52 JUMPI PUSH1 0x40 MLOAD PUSH4 0x3EE5AEB5 PUSH1 0xE0 SHL DUP2 MSTORE PUSH1 0x4 ADD PUSH1 0x40 MLOAD DUP1 SWAP2 SUB SWAP1 REVERT JUMPDEST PUSH1 0x2 PUSH1 0x6 SSTORE JUMP JUMPDEST PUSH1 0x5 DUP1 SLOAD PUSH1 0x1 PUSH1 0x1 PUSH1 0xA0 SHL SUB DUP4 DUP2 AND PUSH32 0xFFFFFFFFFFFFFFFFFFFFFFFF0000000000000000000000000000000000000000 DUP4 AND DUP2 OR SWAP1 SWAP4 SSTORE PUSH1 0x40 MLOAD SWAP2 AND SWAP2 SWAP1 DUP3 SWAP1 PUSH32 0x8BE0079C531659141344CD1FD0A4F28419497F9722A3DAAFE3B4186F6B6457E0 SWAP1 PUSH0 SWAP1 LOG3 POP POP JUMP JUMPDEST PUSH1 0x1 PUSH1 0x1 PUSH1 0xA0 SHL SUB DUP3 AND PUSH2 0xCEB JUMPI PUSH1 0x40 MLOAD PUSH4 0xEC442F05 PUSH1 0xE0 SHL DUP2 MSTORE PUSH0 PUSH1 0x4 DUP3 ADD MSTORE PUSH1 0x24 ADD PUSH2 0x1CF JUMP JUMPDEST PUSH2 0xCF6 PUSH0 DUP4 DUP4 PUSH2 0xDCC JUMP JUMPDEST POP POP JUMP JUMPDEST PUSH1 0x1 PUSH1 0x1 PUSH1 0xA0 SHL SUB DUP5 AND PUSH2 0xD23 JUMPI PUSH1 0x40 MLOAD PUSH4 0xE602DF05 PUSH1 0xE0 SHL DUP2 MSTORE PUSH0 PUSH1 0x4 DUP3 ADD MSTORE PUSH1 0x24 ADD PUSH2 0x1CF JUMP JUMPDEST PUSH1 0x1 PUSH1 0x1 PUSH1 0xA0 SHL SUB DUP4 AND PUSH2 0xD4C JUMPI PUSH1 0x40 MLOAD PUSH4 0x4A1406B1 PUSH1 0xE1 SHL DUP2 MSTORE PUSH0 PUSH1 0x4 DUP3 ADD MSTORE PUSH1 0x24 ADD PUSH2 0x1CF JUMP JUMPDEST PUSH1 0x1 PUSH1 0x1 PUSH1 0xA0 SHL SUB DUP1 DUP6 AND PUSH0 SWAP1 DUP2 MSTORE PUSH1 0x1 PUSH1 0x20 SWAP1 DUP2 MSTORE PUSH1 0x40 DUP1 DUP4 KECCAK256 SWAP4 DUP8 AND DUP4 MSTORE SWAP3 SWAP1 MSTORE KECCAK256 DUP3 SWAP1 SSTORE DUP1 ISZERO PUSH2 0xBCC JUMPI DUP3 PUSH1 0x1 PUSH1 0x1 PUSH1 0xA0 SHL SUB AND DUP5 PUSH1 0x1 PUSH1 0x1 PUSH1 0xA0 SHL SUB AND PUSH32 0x8C5BE1E5EBEC7D5BD14F71427D1E84F3DD0314C0F7B2291E5B200AC8C7C3B925 DUP5 PUSH1 0x40 MLOAD PUSH2 0xDBE SWAP2 DUP2 MSTORE PUSH1 0x20 ADD SWAP1 JUMP JUMPDEST PUSH1 0x40 MLOAD DUP1 SWAP2 SUB SWAP1 LOG3 POP POP POP POP JUMP JUMPDEST PUSH1 0x1 PUSH1 0x1 PUSH1 0xA0 SHL SUB DUP4 AND ISZERO DUP1 ISZERO SWAP1 PUSH2 0xDEC JUMPI POP PUSH1 0x1 PUSH1 0x1 PUSH1 0xA0 SHL SUB DUP3 AND ISZERO ISZERO JUMPDEST ISZERO PUSH2 0xE48 JUMPI PUSH1 0x8 SLOAD PUSH2 0x100 SWAP1 DIV PUSH1 0xFF AND PUSH2 0xE48 JUMPI PUSH1 0x40 MLOAD PUSH3 0x461BCD PUSH1 0xE5 SHL DUP2 MSTORE PUSH1 0x20 PUSH1 0x4 DUP3 ADD MSTORE PUSH1 0x12 PUSH1 0x24 DUP3 ADD MSTORE PUSH32 0x7472616E73666572732064697361626C65640000000000000000000000000000 PUSH1 0x44 DUP3 ADD MSTORE PUSH1 0x64 ADD PUSH2 0x1CF JUMP JUMPDEST PUSH2 0xB25 DUP4 DUP4 DUP4 PUSH1 0x1 PUSH1 0x1 PUSH1 0xA0 SHL SUB DUP4 AND PUSH2 0xE78 JUMPI DUP1 PUSH1 0x2 PUSH0 DUP3 DUP3 SLOAD PUSH2 0xE6D SWAP2 SWAP1 PUSH2 0x1100 JUMP JUMPDEST SWAP1 SWAP2 SSTORE POP PUSH2 0xEE8 SWAP1 POP JUMP JUMPDEST PUSH1 0x1 PUSH1 0x1 PUSH1 0xA0 SHL SUB DUP4 AND PUSH0 SWAP1 DUP2 MSTORE PUSH1 0x20 DUP2 SWAP1 MSTORE PUSH1 0x40 SWAP1 KECCAK256 SLOAD DUP2 DUP2 LT ISZERO PUSH2 0xECA JUMPI PUSH1 0x40 MLOAD PUSH4 0x391434E3 PUSH1 0xE2 SHL DUP2 MSTORE PUSH1 0x1 PUSH1 0x1 PUSH1 0xA0 SHL SUB DUP6 AND PUSH1 0x4 DUP3 ADD MSTORE PUSH1 0x24 DUP2 ADD DUP3 SWAP1 MSTORE PUSH1 0x44 DUP2 ADD DUP4 SWAP1 MSTORE PUSH1 0x64 ADD PUSH2 0x1CF JUMP JUMPDEST PUSH1 0x1 PUSH1 0x1 PUSH1 0xA0 SHL SUB DUP5 AND PUSH0 SWAP1 DUP2 MSTORE PUSH1 0x20 DUP2 SWAP1 MSTORE PUSH1 0x40 SWAP1 KECCAK256 SWAP1 DUP3 SWAP1 SUB SWAP1 SSTORE JUMPDEST PUSH1 0x1 PUSH1 0x1 PUSH1 0xA0 SHL SUB DUP3 AND PUSH2 0xF04 JUMPI PUSH1 0x2 DUP1 SLOAD DUP3 SWAP1 SUB SWAP1 SSTORE PUSH2 0xF22 JUMP JUMPDEST PUSH1 0x1 PUSH1 0x1 PUSH1 0xA0 SHL SUB DUP3 AND PUSH0 SWAP1 DUP2 MSTORE PUSH1 0x20 DUP2 SWAP1 MSTORE PUSH1 0x40 SWAP1 KECCAK256 DUP1 SLOAD DUP3 ADD SWAP1 SSTORE JUMPDEST DUP2 PUSH1 0x1 PUSH1 0x1 PUSH1 0xA0 SHL SUB AND DUP4 PUSH1 0x1 PUSH1 0x1 PUSH1 0xA0 SHL SUB AND PUSH32 0xDDF252AD1BE2C89B69C2B068FC378DAA952BA7F163C4A11628F55A4DF523B3EF DUP4 PUSH1 0x40 MLOAD PUSH2 0xF67 SWAP2 DUP2 MSTORE PUSH1 0x20 ADD SWAP1 JUMP JUMPDEST PUSH1 0x40 MLOAD DUP1 SWAP2 SUB SWAP1 LOG3 POP POP POP JUMP JUMPDEST PUSH1 0x20 DUP2 MSTORE PUSH0 DUP3 MLOAD DUP1 PUSH1 0x20 DUP5 ADD MSTORE DUP1 PUSH1 0x20 DUP6 ADD PUSH1 0x40 DUP6 ADD MCOPY PUSH0 PUSH1 0x40 DUP3 DUP6 ADD ADD MSTORE PUSH1 0x40 PUSH1 0x1F NOT PUSH1 0x1F DUP4 ADD AND DUP5 ADD ADD SWAP2 POP POP SWAP3 SWAP2 POP POP JUMP JUMPDEST PUSH1 0x1 PUSH1 0x1 PUSH1 0xA0 SHL SUB DUP2 AND DUP2 EQ PUSH2 0x748 JUMPI PUSH0 DUP1 REVERT JUMPDEST PUSH0 DUP1 PUSH1 0x40 DUP4 DUP6 SUB SLT ISZERO PUSH2 0xFCE JUMPI PUSH0 DUP1 REVERT JUMPDEST DUP3 CALLDATALOAD PUSH2 0xFD9 DUP2 PUSH2 0xFA9 JUMP JUMPDEST SWAP5 PUSH1 0x20 SWAP4 SWAP1 SWAP4 ADD CALLDATALOAD SWAP4 POP POP POP JUMP JUMPDEST PUSH0 PUSH1 0x20 DUP3 DUP5 SUB SLT ISZERO PUSH2 0xFF7 JUMPI PUSH0 DUP1 REVERT JUMPDEST POP CALLDATALOAD SWAP2 SWAP1 POP JUMP JUMPDEST PUSH0 DUP1 PUSH0 PUSH1 0x60 DUP5 DUP7 SUB SLT ISZERO PUSH2 0x1010 JUMPI PUSH0 DUP1 REVERT JUMPDEST DUP4 CALLDATALOAD PUSH2 0x101B DUP2 PUSH2 0xFA9 JUMP JUMPDEST SWAP3 POP PUSH1 0x20 DUP5 ADD CALLDATALOAD PUSH2 0x102B DUP2 PUSH2 0xFA9 JUMP JUMPDEST SWAP3 SWAP6 SWAP3 SWAP5 POP POP POP PUSH1 0x40 SWAP2 SWAP1 SWAP2 ADD CALLDATALOAD SWAP1 JUMP JUMPDEST PUSH0 PUSH1 0x20 DUP3 DUP5 SUB SLT ISZERO PUSH2 0x104C JUMPI PUSH0 DUP1 REVERT JUMPDEST DUP2 CALLDATALOAD DUP1 ISZERO ISZERO DUP2 EQ PUSH2 0x105B JUMPI PUSH0 DUP1 REVERT JUMPDEST SWAP4 SWAP3 POP POP POP JUMP JUMPDEST PUSH0 PUSH1 0x20 DUP3 DUP5 SUB SLT ISZERO PUSH2 0x1072 JUMPI PUSH0 DUP1 REVERT JUMPDEST DUP2 CALLDATALOAD PUSH2 0x105B DUP2 PUSH2 0xFA9 JUMP JUMPDEST PUSH0 DUP1 PUSH1 0x40 DUP4 DUP6 SUB SLT ISZERO PUSH2 0x108E JUMPI PUSH0 DUP1 REVERT JUMPDEST DUP3 CALLDATALOAD PUSH2 0x1099 DUP2 PUSH2 0xFA9 JUMP JUMPDEST SWAP2 POP PUSH1 0x20 DUP4 ADD CALLDATALOAD PUSH2 0x10A9 DUP2 PUSH2 0xFA9 JUMP JUMPDEST DUP1 SWAP2 POP POP SWAP3 POP SWAP3 SWAP1 POP JUMP JUMPDEST PUSH1 0x1 DUP2 DUP2 SHR SWAP1 DUP3 AND DUP1 PUSH2 0x10C8 JUMPI PUSH1 0x7F DUP3 AND SWAP2 POP JUMPDEST PUSH1 0x20 DUP3 LT DUP2 SUB PUSH2 0x10E6 JUMPI PUSH4 0x4E487B71 PUSH1 0xE0 SHL PUSH0 MSTORE PUSH1 0x22 PUSH1 0x4 MSTORE PUSH1 0x24 PUSH0 REVERT JUMPDEST POP SWAP2 SWAP1 POP JUMP JUMPDEST PUSH4 0x4E487B71 PUSH1 0xE0 SHL PUSH0 MSTORE PUSH1 0x11 PUSH1 0x4 MSTORE PUSH1 0x24 PUSH0 REVERT JUMPDEST DUP1 DUP3 ADD DUP1 DUP3 GT ISZERO PUSH2 0x5E9 JUMPI PUSH2 0x5E9 PUSH2 0x10EC JUMP JUMPDEST DUP1 DUP3 MUL DUP2 ISZERO DUP3 DUP3 DIV DUP5 EQ OR PUSH2 0x5E9 JUMPI PUSH2 0x5E9 PUSH2 0x10EC JUMP JUMPDEST PUSH1 0x1 DUP2 DUP2 JUMPDEST DUP1 DUP6 GT ISZERO PUSH2 0x1164 JUMPI DUP2 PUSH0 NOT DIV DUP3 GT ISZERO PUSH2 0x114A JUMPI PUSH2 0x114A PUSH2 0x10EC JUMP JUMPDEST DUP1 DUP6 AND ISZERO PUSH2 0x1157 JUMPI SWAP2 DUP2 MUL SWAP2 JUMPDEST SWAP4 DUP5 SHR SWAP4 SWAP1 DUP1 MUL SWAP1 PUSH2 0x112F JUMP JUMPDEST POP SWAP3 POP SWAP3 SWAP1 POP JUMP JUMPDEST PUSH0 DUP3 PUSH2 0x117A JUMPI POP PUSH1 0x1 PUSH2 0x5E9 JUMP JUMPDEST DUP2 PUSH2 0x1186 JUMPI POP PUSH0 PUSH2 0x5E9 JUMP JUMPDEST DUP2 PUSH1 0x1 DUP2 EQ PUSH2 0x119C JUMPI PUSH1 0x2 DUP2 EQ PUSH2 0x11A6 JUMPI PUSH2 0x11C2 JUMP JUMPDEST PUSH1 0x1 SWAP2 POP POP PUSH2 0x5E9 JUMP JUMPDEST PUSH1 0xFF DUP5 GT ISZERO PUSH2 0x11B7 JUMPI PUSH2 0x11B7 PUSH2 0x10EC JUMP JUMPDEST POP POP PUSH1 0x1 DUP3 SHL PUSH2 0x5E9 JUMP JUMPDEST POP PUSH1 0x20 DUP4 LT PUSH2 0x133 DUP4 LT AND PUSH1 0x4E DUP5 LT PUSH1 0xB DUP5 LT AND OR ISZERO PUSH2 0x11E5 JUMPI POP DUP2 DUP2 EXP PUSH2 0x5E9 JUMP JUMPDEST PUSH2 0x11EF DUP4 DUP4 PUSH2 0x112A JUMP JUMPDEST DUP1 PUSH0 NOT DIV DUP3 GT ISZERO PUSH2 0x1202 JUMPI PUSH2 0x1202 PUSH2 0x10EC JUMP JUMPDEST MUL SWAP4 SWAP3 POP POP POP JUMP JUMPDEST PUSH0 PUSH2 0x105B DUP4 DUP4 PUSH2 0x116C JUMP JUMPDEST DUP2 DUP2 SUB DUP2 DUP2 GT ISZERO PUSH2 0x5E9 JUMPI PUSH2 0x5E9 PUSH2 0x10EC JUMP JUMPDEST PUSH0 DUP3 PUSH2 0x1242 JUMPI PUSH4 0x4E487B71 PUSH1 0xE0 SHL PUSH0 MSTORE PUSH1 0x12 PUSH1 0x4 MSTORE PUSH1 0x24 PUSH0 REVERT JUMPDEST POP DIV SWAP1 JUMP INVALID LOG2 PUSH5 0x6970667358 0x22 SLT KECCAK256 0x22 0xE6 EXP 0xB5 0xC7 BYTE 0xF6 0x4B 0xE0 0xFC REVERT 0xED CALLDATASIZE 0x4D PUSH5 0x5E5CE26920 0xB5 0xBA 0xD9 0xA9 DUP13 0xBC SHL 0xB8 LOG0 BYTE PUSH12 0x1C64736F6C63430008190033 "
    },
    "gasEstimates": {
      "creation": {
        "codeDepositCost": "946600",
        "executionCost": "infinite",
        "totalCost": "infinite"
      },
      "external": {
        "": "320",
        "allowance(address,address)": "infinite",
        "approve(address,uint256)": "24775",
        "balanceOf(address)": "2576",
        "decimals()": "244",
        "maxSupply()": "infinite",
        "mint(uint256)": "infinite",
        "mintOpen()": "2399",
        "mintedWhole(address)": "2577",
        "name()": "infinite",
        "owner()": "2389",
        "pricePerTokenWei()": "2383",
        "renounceOwnership()": "infinite",
        "setMintOpen(bool)": "27837",
        "setPrice(uint256)": "27994",
        "setTransfersEnabled(bool)": "27790",
        "setWalletMintCap(uint256)": "27983",
        "symbol()": "infinite",
        "tokensLeft()": "infinite",
        "totalSupply()": "2371",
        "transfer(address,uint256)": "infinite",
        "transferFrom(address,address,uint256)": "infinite",
        "transferOwnership(address)": "infinite",
        "transfersEnabled()": "2409",
        "walletMintCap()": "2339",
        "withdraw(address)": "infinite"
      },
      "internal": {
        "_update(address,address,uint256)": "infinite"
      }
    },
    "methodIdentifiers": {
      "allowance(address,address)": "dd62ed3e",
      "approve(address,uint256)": "095ea7b3",
      "balanceOf(address)": "70a08231",
      "decimals()": "313ce567",
      "maxSupply()": "d5abeb01",
      "mint(uint256)": "a0712d68",
      "mintOpen()": "24bbd049",
      "mintedWhole(address)": "cbd3e753",
      "name()": "06fdde03",
      "owner()": "8da5cb5b",
      "pricePerTokenWei()": "cd742793",
      "renounceOwnership()": "715018a6",
      "setMintOpen(bool)": "f8004d31",
      "setPrice(uint256)": "91b7f5ed",
      "setTransfersEnabled(bool)": "26b9ce13",
      "setWalletMintCap(uint256)": "1eae99c5",
      "symbol()": "95d89b41",
      "tokensLeft()": "b31f8f93",
      "totalSupply()": "18160ddd",
      "transfer(address,uint256)": "a9059cbb",
      "transferFrom(address,address,uint256)": "23b872dd",
      "transferOwnership(address)": "f2fde38b",
      "transfersEnabled()": "bef97c87",
      "walletMintCap()": "cb2fb89c",
      "withdraw(address)": "51cff8d9"
    }
  },
  "storageLayout": {
    "storage": [
      {
        "astId": 566,
        "contract": "slap.sol:SLAP",
        "label": "_balances",
        "offset": 0,
        "slot": "0",
        "type": "t_mapping(t_address,t_uint256)"
      },
      {
        "astId": 572,
        "contract": "slap.sol:SLAP",
        "label": "_allowances",
        "offset": 0,
        "slot": "1",
        "type": "t_mapping(t_address,t_mapping(t_address,t_uint256))"
      },
      {
        "astId": 574,
        "contract": "slap.sol:SLAP",
        "label": "_totalSupply",
        "offset": 0,
        "slot": "2",
        "type": "t_uint256"
      },
      {
        "astId": 576,
        "contract": "slap.sol:SLAP",
        "label": "_name",
        "offset": 0,
        "slot": "3",
        "type": "t_string_storage"
      },
      {
        "astId": 578,
        "contract": "slap.sol:SLAP",
        "label": "_symbol",
        "offset": 0,
        "slot": "4",
        "type": "t_string_storage"
      },
      {
        "astId": 404,
        "contract": "slap.sol:SLAP",
        "label": "_owner",
        "offset": 0,
        "slot": "5",
        "type": "t_address"
      },
      {
        "astId": 1069,
        "contract": "slap.sol:SLAP",
        "label": "_status",
        "offset": 0,
        "slot": "6",
        "type": "t_uint256"
      },
      {
        "astId": 12,
        "contract": "slap.sol:SLAP",
        "label": "pricePerTokenWei",
        "offset": 0,
        "slot": "7",
        "type": "t_uint256"
      },
      {
        "astId": 17,
        "contract": "slap.sol:SLAP",
        "label": "mintOpen",
        "offset": 0,
        "slot": "8",
        "type": "t_bool"
      },
      {
        "astId": 20,
        "contract": "slap.sol:SLAP",
        "label": "transfersEnabled",
        "offset": 1,
        "slot": "8",
        "type": "t_bool"
      },
      {
        "astId": 22,
        "contract": "slap.sol:SLAP",
        "label": "walletMintCap",
        "offset": 0,
        "slot": "9",
        "type": "t_uint256"
      },
      {
        "astId": 26,
        "contract": "slap.sol:SLAP",
        "label": "mintedWhole",
        "offset": 0,
        "slot": "10",
        "type": "t_mapping(t_address,t_uint256)"
      }
    ],
    "types": {
      "t_address": {
        "encoding": "inplace",
        "label": "address",
        "numberOfBytes": "20"
      },
      "t_bool": {
        "encoding": "inplace",
        "label": "bool",
        "numberOfBytes": "1"
      },
      "t_mapping(t_address,t_mapping(t_address,t_uint256))": {
        "encoding": "mapping",
        "key": "t_address",
        "label": "mapping(address => mapping(address => uint256))",
        "numberOfBytes": "32",
        "value": "t_mapping(t_address,t_uint256)"
      },
      "t_mapping(t_address,t_uint256)": {
        "encoding": "mapping",
        "key": "t_address",
        "label": "mapping(address => uint256)",
        "numberOfBytes": "32",
        "value": "t_uint256"
      },
      "t_string_storage": {
        "encoding": "bytes",
        "label": "string",
        "numberOfBytes": "32"
      },
      "t_uint256": {
        "encoding": "inplace",
        "label": "uint256",
        "numberOfBytes": "32"
      }
    }
  },
  "userdoc": {
    "kind": "user",
    "methods": {
      "mint(uint256)": {
        "notice": "Mint `amount` WHOLE tokens by paying exact ETH (0 if free)"
      },
      "setTransfersEnabled(bool)": {
        "notice": "Enable/disable all transfers (does not affect minting)"
      },
      "setWalletMintCap(uint256)": {
        "notice": "Set per-wallet mint cap (WHOLE tokens). 0 => no cap."
      }
    },
    "version": 1
  }
}